{
  "_format": "hh-sol-artifact-1",
  "contractName": "InsurancePolicy",
  "sourceName": "contracts/InsurancePolicy.sol",
  "abi": [
    {
      "inputs": [
        {
          "internalType": "address",
          "name": "_oracle",
          "type": "address"
        },
        {
          "internalType": "bytes32",
          "name": "_jobId",
          "type": "bytes32"
        },
        {
          "internalType": "uint256",
          "name": "_fee",
          "type": "uint256"
        }
      ],
      "stateMutability": "nonpayable",
      "type": "constructor"
    },
    {
      "inputs": [
        {
          "internalType": "address",
          "name": "owner",
          "type": "address"
        }
      ],
      "name": "OwnableInvalidOwner",
      "type": "error"
    },
    {
      "inputs": [
        {
          "internalType": "address",
          "name": "account",
          "type": "address"
        }
      ],
      "name": "OwnableUnauthorizedAccount",
      "type": "error"
    },
    {
      "anonymous": false,
      "inputs": [
        {
          "indexed": true,
          "internalType": "bytes32",
          "name": "id",
          "type": "bytes32"
        }
      ],
      "name": "ChainlinkCancelled",
      "type": "event"
    },
    {
      "anonymous": false,
      "inputs": [
        {
          "indexed": true,
          "internalType": "bytes32",
          "name": "id",
          "type": "bytes32"
        }
      ],
      "name": "ChainlinkFulfilled",
      "type": "event"
    },
    {
      "anonymous": false,
      "inputs": [
        {
          "indexed": true,
          "internalType": "bytes32",
          "name": "id",
          "type": "bytes32"
        }
      ],
      "name": "ChainlinkRequested",
      "type": "event"
    },
    {
      "anonymous": false,
      "inputs": [
        {
          "indexed": true,
          "internalType": "bytes32",
          "name": "requestId",
          "type": "bytes32"
        },
        {
          "indexed": false,
          "internalType": "string",
          "name": "flightNumber",
          "type": "string"
        },
        {
          "indexed": false,
          "internalType": "uint256",
          "name": "departureDate",
          "type": "uint256"
        }
      ],
      "name": "FlightStatusRequested",
      "type": "event"
    },
    {
      "anonymous": false,
      "inputs": [
        {
          "indexed": true,
          "internalType": "address",
          "name": "previousOwner",
          "type": "address"
        },
        {
          "indexed": true,
          "internalType": "address",
          "name": "newOwner",
          "type": "address"
        }
      ],
      "name": "OwnershipTransferred",
      "type": "event"
    },
    {
      "anonymous": false,
      "inputs": [
        {
          "indexed": true,
          "internalType": "address",
          "name": "user",
          "type": "address"
        },
        {
          "indexed": false,
          "internalType": "uint256",
          "name": "amount",
          "type": "uint256"
        },
        {
          "indexed": false,
          "internalType": "string",
          "name": "currency",
          "type": "string"
        }
      ],
      "name": "PayoutProcessed",
      "type": "event"
    },
    {
      "anonymous": false,
      "inputs": [
        {
          "indexed": true,
          "internalType": "address",
          "name": "user",
          "type": "address"
        },
        {
          "indexed": false,
          "internalType": "bytes32",
          "name": "policyId",
          "type": "bytes32"
        },
        {
          "indexed": false,
          "internalType": "string",
          "name": "flightNumber",
          "type": "string"
        }
      ],
      "name": "PolicyPurchased",
      "type": "event"
    },
    {
      "inputs": [
        {
          "internalType": "string",
          "name": "_flightNumber",
          "type": "string"
        },
        {
          "internalType": "uint256",
          "name": "_departureDate",
          "type": "uint256"
        },
        {
          "internalType": "uint256",
          "name": "_premium",
          "type": "uint256"
        },
        {
          "internalType": "string",
          "name": "_currency",
          "type": "string"
        }
      ],
      "name": "buyInsurance",
      "outputs": [],
      "stateMutability": "payable",
      "type": "function"
    },
    {
      "inputs": [],
      "name": "fee",
      "outputs": [
        {
          "internalType": "uint256",
          "name": "",
          "type": "uint256"
        }
      ],
      "stateMutability": "view",
      "type": "function"
    },
    {
      "inputs": [
        {
          "internalType": "bytes32",
          "name": "_requestId",
          "type": "bytes32"
        },
        {
          "internalType": "uint256",
          "name": "_delayMinutes",
          "type": "uint256"
        }
      ],
      "name": "fulfill",
      "outputs": [],
      "stateMutability": "nonpayable",
      "type": "function"
    },
    {
      "inputs": [],
      "name": "fundPool",
      "outputs": [],
      "stateMutability": "payable",
      "type": "function"
    },
    {
      "inputs": [],
      "name": "insurancePoolBalance",
      "outputs": [
        {
          "internalType": "uint256",
          "name": "",
          "type": "uint256"
        }
      ],
      "stateMutability": "view",
      "type": "function"
    },
    {
      "inputs": [],
      "name": "jobId",
      "outputs": [
        {
          "internalType": "bytes32",
          "name": "",
          "type": "bytes32"
        }
      ],
      "stateMutability": "view",
      "type": "function"
    },
    {
      "inputs": [],
      "name": "oracle",
      "outputs": [
        {
          "internalType": "address",
          "name": "",
          "type": "address"
        }
      ],
      "stateMutability": "view",
      "type": "function"
    },
    {
      "inputs": [],
      "name": "owner",
      "outputs": [
        {
          "internalType": "address",
          "name": "",
          "type": "address"
        }
      ],
      "stateMutability": "view",
      "type": "function"
    },
    {
      "inputs": [
        {
          "internalType": "bytes32",
          "name": "",
          "type": "bytes32"
        }
      ],
      "name": "policies",
      "outputs": [
        {
          "internalType": "address",
          "name": "user",
          "type": "address"
        },
        {
          "internalType": "string",
          "name": "flightNumber",
          "type": "string"
        },
        {
          "internalType": "uint256",
          "name": "departureDate",
          "type": "uint256"
        },
        {
          "internalType": "uint256",
          "name": "premium",
          "type": "uint256"
        },
        {
          "internalType": "string",
          "name": "currency",
          "type": "string"
        },
        {
          "internalType": "bool",
          "name": "claimed",
          "type": "bool"
        }
      ],
      "stateMutability": "view",
      "type": "function"
    },
    {
      "inputs": [],
      "name": "renounceOwnership",
      "outputs": [],
      "stateMutability": "nonpayable",
      "type": "function"
    },
    {
      "inputs": [
        {
          "internalType": "string",
          "name": "_flightNumber",
          "type": "string"
        },
        {
          "internalType": "uint256",
          "name": "_departureDate",
          "type": "uint256"
        }
      ],
      "name": "requestFlightStatus",
      "outputs": [],
      "stateMutability": "nonpayable",
      "type": "function"
    },
    {
      "inputs": [
        {
          "internalType": "bytes32",
          "name": "",
          "type": "bytes32"
        }
      ],
      "name": "requestToPolicy",
      "outputs": [
        {
          "internalType": "bytes32",
          "name": "",
          "type": "bytes32"
        }
      ],
      "stateMutability": "view",
      "type": "function"
    },
    {
      "inputs": [
        {
          "internalType": "address",
          "name": "newOwner",
          "type": "address"
        }
      ],
      "name": "transferOwnership",
      "outputs": [],
      "stateMutability": "nonpayable",
      "type": "function"
    },
    {
      "inputs": [
        {
          "internalType": "address",
          "name": "",
          "type": "address"
        },
        {
          "internalType": "uint256",
          "name": "",
          "type": "uint256"
        }
      ],
      "name": "userPolicies",
      "outputs": [
        {
          "internalType": "bytes32",
          "name": "",
          "type": "bytes32"
        }
      ],
      "stateMutability": "view",
      "type": "function"
    },
    {
      "inputs": [
        {
          "internalType": "uint256",
          "name": "amount",
          "type": "uint256"
        }
      ],
      "name": "withdrawProfits",
      "outputs": [],
      "stateMutability": "nonpayable",
      "type": "function"
    }
  ],
  "bytecode": "0x6080604052600160045534801561001557600080fd5b50604051612f20380380612f208339818101604052810190610037919061030d565b33600073ffffffffffffffffffffffffffffffffffffffff168173ffffffffffffffffffffffffffffffffffffffff16036100aa5760006040517f1e4fbdf70000000000000000000000000000000000000000000000000000000081526004016100a1919061036f565b60405180910390fd5b6100b98161013460201b60201c565b506100dd73326c977e6efc84e512bb9c30f76e30c160ed06fb6101fa60201b60201c565b82600a60006101000a81548173ffffffffffffffffffffffffffffffffffffffff021916908373ffffffffffffffffffffffffffffffffffffffff16021790555081600b8190555080600c8190555050505061038a565b6000600660009054906101000a900473ffffffffffffffffffffffffffffffffffffffff16905081600660006101000a81548173ffffffffffffffffffffffffffffffffffffffff021916908373ffffffffffffffffffffffffffffffffffffffff1602179055508173ffffffffffffffffffffffffffffffffffffffff168173ffffffffffffffffffffffffffffffffffffffff167f8be0079c531659141344cd1fd0a4f28419497f9722a3daafe3b4186f6b6457e060405160405180910390a35050565b80600260006101000a81548173ffffffffffffffffffffffffffffffffffffffff021916908373ffffffffffffffffffffffffffffffffffffffff16021790555050565b600080fd5b600073ffffffffffffffffffffffffffffffffffffffff82169050919050565b600061026e82610243565b9050919050565b61027e81610263565b811461028957600080fd5b50565b60008151905061029b81610275565b92915050565b6000819050919050565b6102b4816102a1565b81146102bf57600080fd5b50565b6000815190506102d1816102ab565b92915050565b6000819050919050565b6102ea816102d7565b81146102f557600080fd5b50565b600081519050610307816102e1565b92915050565b6000806000606084860312156103265761032561023e565b5b60006103348682870161028c565b9350506020610345868287016102c2565b9250506040610356868287016102f8565b9150509250925092565b61036981610263565b82525050565b60006020820190506103846000830184610360565b92915050565b612b87806103996000396000f3fe6080604052600436106100e85760003560e01c80638a07938d1161008a578063ddbfd8ef11610059578063ddbfd8ef146102a2578063ddca3f43146102e4578063f2fde38b1461030f578063ff8c94a814610338576100e8565b80638a07938d146101e45780638da5cb5b14610221578063c2939d971461024c578063c955978614610277576100e8565b806370f37d27116100c657806370f37d271461017c578063715018a61461018657806378fe4e871461019d5780637dc0d1d0146101b9576100e8565b80631883ee85146100ed5780633d36adc5146101165780634357855e14610153575b600080fd5b3480156100f957600080fd5b50610114600480360381019061010f9190611a38565b610361565b005b34801561012257600080fd5b5061013d60048036038101906101389190611af2565b6104d0565b60405161014a9190611b4b565b60405180910390f35b34801561015f57600080fd5b5061017a60048036038101906101759190611b92565b610501565b005b610184610804565b005b34801561019257600080fd5b5061019b61086a565b005b6101b760048036038101906101b29190611bd2565b61087e565b005b3480156101c557600080fd5b506101ce610ac8565b6040516101db9190611c80565b60405180910390f35b3480156101f057600080fd5b5061020b60048036038101906102069190611c9b565b610aee565b6040516102189190611b4b565b60405180910390f35b34801561022d57600080fd5b50610236610b06565b6040516102439190611c80565b60405180910390f35b34801561025857600080fd5b50610261610b30565b60405161026e9190611b4b565b60405180910390f35b34801561028357600080fd5b5061028c610b36565b6040516102999190611cd7565b60405180910390f35b3480156102ae57600080fd5b506102c960048036038101906102c49190611c9b565b610b3c565b6040516102db96959493929190611d8c565b60405180910390f35b3480156102f057600080fd5b506102f9610cb5565b6040516103069190611cd7565b60405180910390f35b34801561031b57600080fd5b5061033660048036038101906103319190611dfb565b610cbb565b005b34801561034457600080fd5b5061035f600480360381019061035a9190611e28565b610d41565b005b610369610df8565b600061037f600b5430634357855e60e01b610e7f565b90506103cb6040518060400160405280600681526020017f666c6967687400000000000000000000000000000000000000000000000000008152508483610eb09092919063ffffffff16565b6104156040518060400160405280600d81526020017f64657061727475726544617465000000000000000000000000000000000000008152508383610ee39092919063ffffffff16565b6000610446600a60009054906101000a900473ffffffffffffffffffffffffffffffffffffffff1683600c54610f16565b9050600033858560405160200161045f93929190611efa565b604051602081830303815290604052805190602001209050806009600084815260200190815260200160002081905550817f08f660850dce7875a2eb8d26d41a752b3c0ce7b79488cbf6a5b78a5d05b71b0286866040516104c1929190611f33565b60405180910390a25050505050565b600860205281600052604060002081815481106104ec57600080fd5b90600052602060002001600091509150505481565b816005600082815260200190815260200160002060009054906101000a900473ffffffffffffffffffffffffffffffffffffffff1673ffffffffffffffffffffffffffffffffffffffff163373ffffffffffffffffffffffffffffffffffffffff16146105a3576040517f08c379a000000000000000000000000000000000000000000000000000000000815260040161059a90611fd5565b60405180910390fd5b6005600082815260200190815260200160002060006101000a81549073ffffffffffffffffffffffffffffffffffffffff0219169055807f7cc135e0cebb02c3480ae5d74d377283180a2601f8f644edf7987b009316c63a60405160405180910390a260006009600085815260200190815260200160002054905060006007600083815260200190815260200160002090508060050160009054906101000a900460ff1615610687576040517f08c379a000000000000000000000000000000000000000000000000000000000815260040161067e90612041565b60405180910390fd5b607884106107fd578060030154600d5410156106d8576040517f08c379a00000000000000000000000000000000000000000000000000000000081526004016106cf906120ad565b60405180910390fd5b8060030154600d60008282546106ee91906120fc565b925050819055508060000160009054906101000a900473ffffffffffffffffffffffffffffffffffffffff1673ffffffffffffffffffffffffffffffffffffffff166108fc82600301549081150290604051600060405180830381858888f19350505050158015610763573d6000803e3d6000fd5b5060018160050160006101000a81548160ff0219169083151502179055508060000160009054906101000a900473ffffffffffffffffffffffffffffffffffffffff1673ffffffffffffffffffffffffffffffffffffffff167f5771fc9761da8ef4b7ae56c842a02a34ea2b33f555a1b64ba4a2489cb2586e228260030154836004016040516107f4929190612229565b60405180910390a25b5050505050565b61080c610df8565b6000341161084f576040517f08c379a0000000000000000000000000000000000000000000000000000000008152600401610846906122a5565b60405180910390fd5b34600d600082825461086191906122c5565b92505081905550565b610872610df8565b61087c6000610fe2565b565b8134146108c0576040517f08c379a00000000000000000000000000000000000000000000000000000000081526004016108b790612345565b60405180910390fd5b60003385856040516020016108d793929190611efa565b6040516020818303038152906040528051906020012090506040518060c001604052803373ffffffffffffffffffffffffffffffffffffffff168152602001868152602001858152602001848152602001838152602001600015158152506007600083815260200190815260200160002060008201518160000160006101000a81548173ffffffffffffffffffffffffffffffffffffffff021916908373ffffffffffffffffffffffffffffffffffffffff16021790555060208201518160010190816109a491906124fc565b50604082015181600201556060820151816003015560808201518160040190816109ce91906124fc565b5060a08201518160050160006101000a81548160ff021916908315150217905550905050600860003373ffffffffffffffffffffffffffffffffffffffff1673ffffffffffffffffffffffffffffffffffffffff16815260200190815260200160002081908060018154018082558091505060019003906000526020600020016000909190919091505582600d6000828254610a6a91906122c5565b925050819055503373ffffffffffffffffffffffffffffffffffffffff167f76f0e963ce27584989820c2a5670a31aba23a3d68276e11c78868f0e4f79ecf38287604051610ab99291906125ce565b60405180910390a25050505050565b600a60009054906101000a900473ffffffffffffffffffffffffffffffffffffffff1681565b60096020528060005260406000206000915090505481565b6000600660009054906101000a900473ffffffffffffffffffffffffffffffffffffffff16905090565b600b5481565b600d5481565b60076020528060005260406000206000915090508060000160009054906101000a900473ffffffffffffffffffffffffffffffffffffffff1690806001018054610b859061215f565b80601f0160208091040260200160405190810160405280929190818152602001828054610bb19061215f565b8015610bfe5780601f10610bd357610100808354040283529160200191610bfe565b820191906000526020600020905b815481529060010190602001808311610be157829003601f168201915b505050505090806002015490806003015490806004018054610c1f9061215f565b80601f0160208091040260200160405190810160405280929190818152602001828054610c4b9061215f565b8015610c985780601f10610c6d57610100808354040283529160200191610c98565b820191906000526020600020905b815481529060010190602001808311610c7b57829003601f168201915b5050505050908060050160009054906101000a900460ff16905086565b600c5481565b610cc3610df8565b600073ffffffffffffffffffffffffffffffffffffffff168173ffffffffffffffffffffffffffffffffffffffff1603610d355760006040517f1e4fbdf7000000000000000000000000000000000000000000000000000000008152600401610d2c9190611c80565b60405180910390fd5b610d3e81610fe2565b50565b610d49610df8565b600d54811115610d8e576040517f08c379a0000000000000000000000000000000000000000000000000000000008152600401610d859061264a565b60405180910390fd5b80600d6000828254610da091906120fc565b92505081905550610daf610b06565b73ffffffffffffffffffffffffffffffffffffffff166108fc829081150290604051600060405180830381858888f19350505050158015610df4573d6000803e3d6000fd5b5050565b610e006110a8565b73ffffffffffffffffffffffffffffffffffffffff16610e1e610b06565b73ffffffffffffffffffffffffffffffffffffffff1614610e7d57610e416110a8565b6040517f118cdaa7000000000000000000000000000000000000000000000000000000008152600401610e749190611c80565b60405180910390fd5b565b610e87611821565b610e8f611821565b610ea6858585846110b0909392919063ffffffff16565b9150509392505050565b610ec782846080015161116090919063ffffffff16565b610ede81846080015161116090919063ffffffff16565b505050565b610efa82846080015161116090919063ffffffff16565b610f1181846080015161118590919063ffffffff16565b505050565b6000806004549050600181610f2b91906122c5565b6004819055506000634042994660e01b60008087600001513089604001518760018c6080015160000151604051602401610f6c9897969594939291906126fa565b604051602081830303815290604052907bffffffffffffffffffffffffffffffffffffffffffffffffffffffff19166020820180517bffffffffffffffffffffffffffffffffffffffffffffffffffffffff83818316178352505050509050610fd7868386846111b5565b925050509392505050565b6000600660009054906101000a900473ffffffffffffffffffffffffffffffffffffffff16905081600660006101000a81548173ffffffffffffffffffffffffffffffffffffffff021916908373ffffffffffffffffffffffffffffffffffffffff1602179055508173ffffffffffffffffffffffffffffffffffffffff168173ffffffffffffffffffffffffffffffffffffffff167f8be0079c531659141344cd1fd0a4f28419497f9722a3daafe3b4186f6b6457e060405160405180910390a35050565b600033905090565b6110b8611821565b6110c8856080015161010061134a565b508385600001818152505082856020019073ffffffffffffffffffffffffffffffffffffffff16908173ffffffffffffffffffffffffffffffffffffffff16815250508185604001907bffffffffffffffffffffffffffffffffffffffffffffffffffffffff191690817bffffffffffffffffffffffffffffffffffffffffffffffffffffffff191681525050849050949350505050565b61116d82600383516113b4565b611180818361153990919063ffffffff16565b505050565b67ffffffffffffffff8111156111a45761119f828261155b565b6111b1565b6111b0826000836113b4565b5b5050565b600030846040516020016111ca9291906127dc565b604051602081830303815290604052805190602001209050846005600083815260200190815260200160002060006101000a81548173ffffffffffffffffffffffffffffffffffffffff021916908373ffffffffffffffffffffffffffffffffffffffff160217905550807fb5e6e01e79f91267dc17b4e6314d5d4d03593d2ceee0fbb452b750bd70ea5af960405160405180910390a2600260009054906101000a900473ffffffffffffffffffffffffffffffffffffffff1673ffffffffffffffffffffffffffffffffffffffff16634000aea08685856040518463ffffffff1660e01b81526004016112c093929190612808565b6020604051808303816000875af11580156112df573d6000803e3d6000fd5b505050506040513d601f19601f820116820180604052508101906113039190612872565b611342576040517f08c379a000000000000000000000000000000000000000000000000000000000815260040161133990612911565b60405180910390fd5b949350505050565b61135261188e565b60006020836113619190612960565b1461138d576020826113739190612960565b602061137f91906120fc565b8261138a91906122c5565b91505b81836020018181525050604051808452600081528281016020016040525082905092915050565b60178167ffffffffffffffff16116113eb576113e58160058460ff16901b60ff1617846115a790919063ffffffff16565b50611534565b60ff8167ffffffffffffffff16116114415761141a601860058460ff16901b17846115a790919063ffffffff16565b5061143b8167ffffffffffffffff166001856115c79092919063ffffffff16565b50611533565b61ffff8167ffffffffffffffff161161149857611471601960058460ff16901b17846115a790919063ffffffff16565b506114928167ffffffffffffffff166002856115c79092919063ffffffff16565b50611532565b63ffffffff8167ffffffffffffffff16116114f1576114ca601a60058460ff16901b17846115a790919063ffffffff16565b506114eb8167ffffffffffffffff166004856115c79092919063ffffffff16565b50611531565b61150e601b60058460ff16901b17846115a790919063ffffffff16565b5061152f8167ffffffffffffffff166008856115c79092919063ffffffff16565b505b5b5b5b505050565b61154161188e565b611553838460000151518485516115e9565b905092915050565b61157960026005600660ff16901b17836115a790919063ffffffff16565b506115a3828260405160200161158f9190611cd7565b6040516020818303038152906040526116d8565b5050565b6115af61188e565b6115bf83846000015151846116fd565b905092915050565b6115cf61188e565b6115e0848560000151518585611753565b90509392505050565b6115f161188e565b82518211156115ff57600080fd5b8460200151828561161091906122c5565b1115611645576116448560026116358860200151888761163091906122c5565b6117e1565b61163f9190612991565b6117fd565b5b6000808651805187602083010193508088870111156116645787860182525b60208701925050505b602084106116ab578051825260208261168691906122c5565b915060208161169591906122c5565b90506020846116a491906120fc565b935061166d565b60006001856020036101000a03905080198251168184511681811785525050508692505050949350505050565b6116e582600283516113b4565b6116f8818361153990919063ffffffff16565b505050565b61170561188e565b8360200151831061172b5761172a84600286602001516117259190612991565b6117fd565b5b83518051602085830101848153818603611746576001820183525b5050508390509392505050565b61175b61188e565b8460200151848361176c91906122c5565b111561179457611793856002868561178491906122c5565b61178e9190612991565b6117fd565b5b60006001836101006117a69190612b06565b6117b091906120fc565b905085518386820101858319825116178152815185880111156117d35784870182525b505085915050949350505050565b6000818311156117f3578290506117f7565b8190505b92915050565b600082600001519050611810838361134a565b5061181b8382611539565b50505050565b6040518060a0016040528060008019168152602001600073ffffffffffffffffffffffffffffffffffffffff16815260200160007bffffffffffffffffffffffffffffffffffffffffffffffffffffffff191681526020016000815260200161188861188e565b81525090565b604051806040016040528060608152602001600081525090565b6000604051905090565b600080fd5b600080fd5b600080fd5b600080fd5b6000601f19601f8301169050919050565b7f4e487b7100000000000000000000000000000000000000000000000000000000600052604160045260246000fd5b61190f826118c6565b810181811067ffffffffffffffff8211171561192e5761192d6118d7565b5b80604052505050565b60006119416118a8565b905061194d8282611906565b919050565b600067ffffffffffffffff82111561196d5761196c6118d7565b5b611976826118c6565b9050602081019050919050565b82818337600083830152505050565b60006119a56119a084611952565b611937565b9050828152602081018484840111156119c1576119c06118c1565b5b6119cc848285611983565b509392505050565b600082601f8301126119e9576119e86118bc565b5b81356119f9848260208601611992565b91505092915050565b6000819050919050565b611a1581611a02565b8114611a2057600080fd5b50565b600081359050611a3281611a0c565b92915050565b60008060408385031215611a4f57611a4e6118b2565b5b600083013567ffffffffffffffff811115611a6d57611a6c6118b7565b5b611a79858286016119d4565b9250506020611a8a85828601611a23565b9150509250929050565b600073ffffffffffffffffffffffffffffffffffffffff82169050919050565b6000611abf82611a94565b9050919050565b611acf81611ab4565b8114611ada57600080fd5b50565b600081359050611aec81611ac6565b92915050565b60008060408385031215611b0957611b086118b2565b5b6000611b1785828601611add565b9250506020611b2885828601611a23565b9150509250929050565b6000819050919050565b611b4581611b32565b82525050565b6000602082019050611b606000830184611b3c565b92915050565b611b6f81611b32565b8114611b7a57600080fd5b50565b600081359050611b8c81611b66565b92915050565b60008060408385031215611ba957611ba86118b2565b5b6000611bb785828601611b7d565b9250506020611bc885828601611a23565b9150509250929050565b60008060008060808587031215611bec57611beb6118b2565b5b600085013567ffffffffffffffff811115611c0a57611c096118b7565b5b611c16878288016119d4565b9450506020611c2787828801611a23565b9350506040611c3887828801611a23565b925050606085013567ffffffffffffffff811115611c5957611c586118b7565b5b611c65878288016119d4565b91505092959194509250565b611c7a81611ab4565b82525050565b6000602082019050611c956000830184611c71565b92915050565b600060208284031215611cb157611cb06118b2565b5b6000611cbf84828501611b7d565b91505092915050565b611cd181611a02565b82525050565b6000602082019050611cec6000830184611cc8565b92915050565b600081519050919050565b600082825260208201905092915050565b60005b83811015611d2c578082015181840152602081019050611d11565b60008484015250505050565b6000611d4382611cf2565b611d4d8185611cfd565b9350611d5d818560208601611d0e565b611d66816118c6565b840191505092915050565b60008115159050919050565b611d8681611d71565b82525050565b600060c082019050611da16000830189611c71565b8181036020830152611db38188611d38565b9050611dc26040830187611cc8565b611dcf6060830186611cc8565b8181036080830152611de18185611d38565b9050611df060a0830184611d7d565b979650505050505050565b600060208284031215611e1157611e106118b2565b5b6000611e1f84828501611add565b91505092915050565b600060208284031215611e3e57611e3d6118b2565b5b6000611e4c84828501611a23565b91505092915050565b60008160601b9050919050565b6000611e6d82611e55565b9050919050565b6000611e7f82611e62565b9050919050565b611e97611e9282611ab4565b611e74565b82525050565b600081905092915050565b6000611eb382611cf2565b611ebd8185611e9d565b9350611ecd818560208601611d0e565b80840191505092915050565b6000819050919050565b611ef4611eef82611a02565b611ed9565b82525050565b6000611f068286611e86565b601482019150611f168285611ea8565b9150611f228284611ee3565b602082019150819050949350505050565b60006040820190508181036000830152611f4d8185611d38565b9050611f5c6020830184611cc8565b9392505050565b7f536f75726365206d75737420626520746865206f7261636c65206f662074686560008201527f2072657175657374000000000000000000000000000000000000000000000000602082015250565b6000611fbf602883611cfd565b9150611fca82611f63565b604082019050919050565b60006020820190508181036000830152611fee81611fb2565b9050919050565b7f416c726561647920636c61696d65640000000000000000000000000000000000600082015250565b600061202b600f83611cfd565b915061203682611ff5565b602082019050919050565b6000602082019050818103600083015261205a8161201e565b9050919050565b7f496e73756666696369656e7420706f6f6c2062616c616e636500000000000000600082015250565b6000612097601983611cfd565b91506120a282612061565b602082019050919050565b600060208201905081810360008301526120c68161208a565b9050919050565b7f4e487b7100000000000000000000000000000000000000000000000000000000600052601160045260246000fd5b600061210782611a02565b915061211283611a02565b925082820390508181111561212a576121296120cd565b5b92915050565b7f4e487b7100000000000000000000000000000000000000000000000000000000600052602260045260246000fd5b6000600282049050600182168061217757607f821691505b60208210810361218a57612189612130565b5b50919050565b60008190508160005260206000209050919050565b600081546121b28161215f565b6121bc8186611cfd565b945060018216600081146121d757600181146121ed57612220565b60ff198316865281151560200286019350612220565b6121f685612190565b60005b83811015612218578154818901526001820191506020810190506121f9565b808801955050505b50505092915050565b600060408201905061223e6000830185611cc8565b818103602083015261225081846121a5565b90509392505050565b7f4d7573742073656e642045544800000000000000000000000000000000000000600082015250565b600061228f600d83611cfd565b915061229a82612259565b602082019050919050565b600060208201905081810360008301526122be81612282565b9050919050565b60006122d082611a02565b91506122db83611a02565b92508282019050808211156122f3576122f26120cd565b5b92915050565b7f496e636f7272656374207072656d69756d20616d6f756e740000000000000000600082015250565b600061232f601883611cfd565b915061233a826122f9565b602082019050919050565b6000602082019050818103600083015261235e81612322565b9050919050565b60006020601f8301049050919050565b600082821b905092915050565b6000600883026123b27fffffffffffffffffffffffffffffffffffffffffffffffffffffffffffffffff82612375565b6123bc8683612375565b95508019841693508086168417925050509392505050565b6000819050919050565b60006123f96123f46123ef84611a02565b6123d4565b611a02565b9050919050565b6000819050919050565b612413836123de565b61242761241f82612400565b848454612382565b825550505050565b600090565b61243c61242f565b61244781848461240a565b505050565b5b8181101561246b57612460600082612434565b60018101905061244d565b5050565b601f8211156124b05761248181612190565b61248a84612365565b81016020851015612499578190505b6124ad6124a585612365565b83018261244c565b50505b505050565b600082821c905092915050565b60006124d3600019846008026124b5565b1980831691505092915050565b60006124ec83836124c2565b9150826002028217905092915050565b61250582611cf2565b67ffffffffffffffff81111561251e5761251d6118d7565b5b612528825461215f565b61253382828561246f565b600060209050601f8311600181146125665760008415612554578287015190505b61255e85826124e0565b8655506125c6565b601f19841661257486612190565b60005b8281101561259c57848901518255600182019150602085019450602081019050612577565b868310156125b957848901516125b5601f8916826124c2565b8355505b6001600288020188555050505b505050505050565b60006040820190506125e36000830185611b3c565b81810360208301526125f58184611d38565b90509392505050565b7f4e6f7420656e6f7567682066756e647320696e20706f6f6c0000000000000000600082015250565b6000612634601883611cfd565b915061263f826125fe565b602082019050919050565b6000602082019050818103600083015261266381612627565b9050919050565b60007fffffffff0000000000000000000000000000000000000000000000000000000082169050919050565b61269f8161266a565b82525050565b600081519050919050565b600082825260208201905092915050565b60006126cc826126a5565b6126d681856126b0565b93506126e6818560208601611d0e565b6126ef816118c6565b840191505092915050565b600061010082019050612710600083018b611c71565b61271d602083018a611cc8565b61272a6040830189611b3c565b6127376060830188611c71565b6127446080830187612696565b61275160a0830186611cc8565b61275e60c0830185611cc8565b81810360e083015261277081846126c1565b90509998505050505050505050565b600061279a61279561279084611a94565b6123d4565b611a94565b9050919050565b60006127ac8261277f565b9050919050565b60006127be826127a1565b9050919050565b6127d66127d1826127b3565b611e74565b82525050565b60006127e882856127c5565b6014820191506127f88284611ee3565b6020820191508190509392505050565b600060608201905061281d6000830186611c71565b61282a6020830185611cc8565b818103604083015261283c81846126c1565b9050949350505050565b61284f81611d71565b811461285a57600080fd5b50565b60008151905061286c81612846565b92915050565b600060208284031215612888576128876118b2565b5b60006128968482850161285d565b91505092915050565b7f756e61626c6520746f207472616e73666572416e6443616c6c20746f206f726160008201527f636c650000000000000000000000000000000000000000000000000000000000602082015250565b60006128fb602383611cfd565b91506129068261289f565b604082019050919050565b6000602082019050818103600083015261292a816128ee565b9050919050565b7f4e487b7100000000000000000000000000000000000000000000000000000000600052601260045260246000fd5b600061296b82611a02565b915061297683611a02565b92508261298657612985612931565b5b828206905092915050565b600061299c82611a02565b91506129a783611a02565b92508282026129b581611a02565b915082820484148315176129cc576129cb6120cd565b5b5092915050565b60008160011c9050919050565b6000808291508390505b6001851115612a2a57808604811115612a0657612a056120cd565b5b6001851615612a155780820291505b8081029050612a23856129d3565b94506129ea565b94509492505050565b600082612a435760019050612aff565b81612a515760009050612aff565b8160018114612a675760028114612a7157612aa0565b6001915050612aff565b60ff841115612a8357612a826120cd565b5b8360020a915084821115612a9a57612a996120cd565b5b50612aff565b5060208310610133831016604e8410600b8410161715612ad55782820a905083811115612ad057612acf6120cd565b5b612aff565b612ae284848460016129e0565b92509050818404811115612af957612af86120cd565b5b81810290505b9392505050565b6000612b1182611a02565b9150612b1c83611a02565b9250612b497fffffffffffffffffffffffffffffffffffffffffffffffffffffffffffffffff8484612a33565b90509291505056fea2646970667358221220c909fc0fc7ed3be513b21b614d604fe827c3b0b2d779a76fca198f4230033c6f64736f6c634300081c0033",
  "linkReferences": {},
  "deployedLinkReferences": {}
}