{
  "_format": "hh-sol-artifact-1",
  "contractName": "LendingForwarder",
  "sourceName": "contracts/LendingForwarder.sol",
  "abi": [
    {
      "inputs": [],
      "stateMutability": "nonpayable",
      "type": "constructor"
    },
    {
      "inputs": [],
      "name": "ECDSAInvalidSignature",
      "type": "error"
    },
    {
      "inputs": [
        {
          "internalType": "uint256",
          "name": "length",
          "type": "uint256"
        }
      ],
      "name": "ECDSAInvalidSignatureLength",
      "type": "error"
    },
    {
      "inputs": [
        {
          "internalType": "bytes32",
          "name": "s",
          "type": "bytes32"
        }
      ],
      "name": "ECDSAInvalidSignatureS",
      "type": "error"
    },
    {
      "inputs": [],
      "name": "InvalidShortString",
      "type": "error"
    },
    {
      "inputs": [
        {
          "internalType": "string",
          "name": "str",
          "type": "string"
        }
      ],
      "name": "StringTooLong",
      "type": "error"
    },
    {
      "anonymous": false,
      "inputs": [],
      "name": "EIP712DomainChanged",
      "type": "event"
    },
    {
      "inputs": [],
      "name": "admin",
      "outputs": [
        {
          "internalType": "address",
          "name": "",
          "type": "address"
        }
      ],
      "stateMutability": "view",
      "type": "function"
    },
    {
      "inputs": [],
      "name": "eip712Domain",
      "outputs": [
        {
          "internalType": "bytes1",
          "name": "fields",
          "type": "bytes1"
        },
        {
          "internalType": "string",
          "name": "name",
          "type": "string"
        },
        {
          "internalType": "string",
          "name": "version",
          "type": "string"
        },
        {
          "internalType": "uint256",
          "name": "chainId",
          "type": "uint256"
        },
        {
          "internalType": "address",
          "name": "verifyingContract",
          "type": "address"
        },
        {
          "internalType": "bytes32",
          "name": "salt",
          "type": "bytes32"
        },
        {
          "internalType": "uint256[]",
          "name": "extensions",
          "type": "uint256[]"
        }
      ],
      "stateMutability": "view",
      "type": "function"
    },
    {
      "inputs": [
        {
          "components": [
            {
              "internalType": "address",
              "name": "from",
              "type": "address"
            },
            {
              "internalType": "address",
              "name": "to",
              "type": "address"
            },
            {
              "internalType": "uint256",
              "name": "value",
              "type": "uint256"
            },
            {
              "internalType": "uint256",
              "name": "gas",
              "type": "uint256"
            },
            {
              "internalType": "uint256",
              "name": "nonce",
              "type": "uint256"
            },
            {
              "internalType": "uint48",
              "name": "deadline",
              "type": "uint48"
            },
            {
              "internalType": "bytes",
              "name": "data",
              "type": "bytes"
            }
          ],
          "internalType": "struct LendingForwarder.ForwardRequest",
          "name": "req",
          "type": "tuple"
        },
        {
          "internalType": "bytes",
          "name": "signature",
          "type": "bytes"
        }
      ],
      "name": "execute",
      "outputs": [
        {
          "internalType": "bool",
          "name": "success",
          "type": "bool"
        },
        {
          "internalType": "bytes",
          "name": "returndata",
          "type": "bytes"
        }
      ],
      "stateMutability": "payable",
      "type": "function"
    },
    {
      "inputs": [
        {
          "internalType": "address",
          "name": "",
          "type": "address"
        }
      ],
      "name": "nonces",
      "outputs": [
        {
          "internalType": "uint256",
          "name": "",
          "type": "uint256"
        }
      ],
      "stateMutability": "view",
      "type": "function"
    },
    {
      "inputs": [
        {
          "components": [
            {
              "internalType": "address",
              "name": "from",
              "type": "address"
            },
            {
              "internalType": "address",
              "name": "to",
              "type": "address"
            },
            {
              "internalType": "uint256",
              "name": "value",
              "type": "uint256"
            },
            {
              "internalType": "uint256",
              "name": "gas",
              "type": "uint256"
            },
            {
              "internalType": "uint256",
              "name": "nonce",
              "type": "uint256"
            },
            {
              "internalType": "uint48",
              "name": "deadline",
              "type": "uint48"
            },
            {
              "internalType": "bytes",
              "name": "data",
              "type": "bytes"
            }
          ],
          "internalType": "struct LendingForwarder.ForwardRequest",
          "name": "req",
          "type": "tuple"
        },
        {
          "internalType": "bytes",
          "name": "signature",
          "type": "bytes"
        }
      ],
      "name": "verify",
      "outputs": [
        {
          "internalType": "bool",
          "name": "",
          "type": "bool"
        }
      ],
      "stateMutability": "view",
      "type": "function"
    },
    {
      "stateMutability": "payable",
      "type": "receive"
    }
  ],
  "bytecode": "0x61016060405234801561001157600080fd5b506040518060400160405280601081526020017f4c656e64696e67466f72776172646572000000000000000000000000000000008152506040518060400160405280600181526020017f310000000000000000000000000000000000000000000000000000000000000081525061009260008361016e60201b90919060201c565b61012081815250506100ae60018261016e60201b90919060201c565b6101408181525050818051906020012060e08181525050808051906020012061010081815250504660a081815250506100eb6101be60201b60201c565b608081815250503073ffffffffffffffffffffffffffffffffffffffff1660c08173ffffffffffffffffffffffffffffffffffffffff1681525050505033600260006101000a81548173ffffffffffffffffffffffffffffffffffffffff021916908373ffffffffffffffffffffffffffffffffffffffff1602179055506107a7565b6000602083511015610190576101898361021960201b60201c565b90506101b8565b826101a08361028160201b60201c565b60000190816101af91906104db565b5060ff60001b90505b92915050565b60007f8b73c3c69bb8fe3d512ecc4cf759cc79239f7b179b0ffacaa9a75d522b39400f60e0516101005146306040516020016101fe959493929190610616565b60405160208183030381529060405280519060200120905090565b600080829050601f8151111561026657826040517f305a27a900000000000000000000000000000000000000000000000000000000815260040161025d91906106ee565b60405180910390fd5b80518161027290610740565b60001c1760001b915050919050565b6000819050919050565b600081519050919050565b7f4e487b7100000000000000000000000000000000000000000000000000000000600052604160045260246000fd5b7f4e487b7100000000000000000000000000000000000000000000000000000000600052602260045260246000fd5b6000600282049050600182168061030c57607f821691505b60208210810361031f5761031e6102c5565b5b50919050565b60008190508160005260206000209050919050565b60006020601f8301049050919050565b600082821b905092915050565b6000600883026103877fffffffffffffffffffffffffffffffffffffffffffffffffffffffffffffffff8261034a565b610391868361034a565b95508019841693508086168417925050509392505050565b6000819050919050565b6000819050919050565b60006103d86103d36103ce846103a9565b6103b3565b6103a9565b9050919050565b6000819050919050565b6103f2836103bd565b6104066103fe826103df565b848454610357565b825550505050565b600090565b61041b61040e565b6104268184846103e9565b505050565b5b8181101561044a5761043f600082610413565b60018101905061042c565b5050565b601f82111561048f5761046081610325565b6104698461033a565b81016020851015610478578190505b61048c6104848561033a565b83018261042b565b50505b505050565b600082821c905092915050565b60006104b260001984600802610494565b1980831691505092915050565b60006104cb83836104a1565b9150826002028217905092915050565b6104e48261028b565b67ffffffffffffffff8111156104fd576104fc610296565b5b61050782546102f4565b61051282828561044e565b600060209050601f8311600181146105455760008415610533578287015190505b61053d85826104bf565b8655506105a5565b601f19841661055386610325565b60005b8281101561057b57848901518255600182019150602085019450602081019050610556565b868310156105985784890151610594601f8916826104a1565b8355505b6001600288020188555050505b505050505050565b6000819050919050565b6105c0816105ad565b82525050565b6105cf816103a9565b82525050565b600073ffffffffffffffffffffffffffffffffffffffff82169050919050565b6000610600826105d5565b9050919050565b610610816105f5565b82525050565b600060a08201905061062b60008301886105b7565b61063860208301876105b7565b61064560408301866105b7565b61065260608301856105c6565b61065f6080830184610607565b9695505050505050565b600082825260208201905092915050565b60005b8381101561069857808201518184015260208101905061067d565b60008484015250505050565b6000601f19601f8301169050919050565b60006106c08261028b565b6106ca8185610669565b93506106da81856020860161067a565b6106e3816106a4565b840191505092915050565b6000602082019050818103600083015261070881846106b5565b905092915050565b600081519050919050565b6000819050602082019050919050565b600061073782516105ad565b80915050919050565b600061074b82610710565b826107558461071b565b90506107608161072b565b925060208210156107a05761079b7fffffffffffffffffffffffffffffffffffffffffffffffffffffffffffffffff8360200360080261034a565b831692505b5050919050565b60805160a05160c05160e051610100516101205161014051611641610801600039600061064c0152600061061101526000610a2c01526000610a0b01526000610682015260006106d80152600061070101526116416000f3fe60806040526004361061004e5760003560e01c80632cc902fc1461005a5780637ecebe001461009757806384b0196e146100d457806386736e6a14610105578063f851a4401461013657610055565b3661005557005b600080fd5b34801561006657600080fd5b50610081600480360381019061007c9190610cc7565b610161565b60405161008e9190610d5e565b60405180910390f35b3480156100a357600080fd5b506100be60048036038101906100b99190610dd7565b610348565b6040516100cb9190610e1d565b60405180910390f35b3480156100e057600080fd5b506100e9610360565b6040516100fc9796959493929190610fe9565b60405180910390f35b61011f600480360381019061011a9190610cc7565b61040a565b60405161012d9291906110c2565b60405180910390f35b34801561014257600080fd5b5061014b61059c565b60405161015891906110f2565b60405180910390f35b6000806102287f7f96328b83274ebc7c1cf4f7a3abda602b51a78b7fa1d86a2ce353d75e587cac86600001602081019061019b9190610dd7565b8760200160208101906101ae9190610dd7565b886040013589606001358a608001358b60a00160208101906101d0919061114b565b8c8060c001906101e09190611187565b6040516101ee929190611229565b604051809103902060405160200161020d989796959493929190611251565b604051602081830303815290604052805190602001206105c2565b90506102788185858080601f016020809104026020016040519081016040528093929190818152602001838380828437600081840152601f19601f820116905080830192505050505050506105dc565b73ffffffffffffffffffffffffffffffffffffffff168560000160208101906102a19190610dd7565b73ffffffffffffffffffffffffffffffffffffffff1614801561031857508460800135600360008760000160208101906102db9190610dd7565b73ffffffffffffffffffffffffffffffffffffffff1673ffffffffffffffffffffffffffffffffffffffff16815260200190815260200160002054145b801561033e57508460a0016020810190610332919061114b565b65ffffffffffff164211155b9150509392505050565b60036020528060005260406000206000915090505481565b600060608060008060006060610374610608565b61037c610643565b46306000801b600067ffffffffffffffff81111561039d5761039c6112cf565b5b6040519080825280602002602001820160405280156103cb5781602001602082028036833780820191505090505b507f0f00000000000000000000000000000000000000000000000000000000000000959493929190965096509650965096509650965090919293949596565b60006060610419858585610161565b610458576040517f08c379a000000000000000000000000000000000000000000000000000000000815260040161044f90611370565b60405180910390fd5b6001856080013561046991906113bf565b600360008760000160208101906104809190610dd7565b73ffffffffffffffffffffffffffffffffffffffff1673ffffffffffffffffffffffffffffffffffffffff168152602001908152602001600020819055506000858060c001906104d09190611187565b8760000160208101906104e39190610dd7565b6040516020016104f59392919061143b565b60405160208183030381529060405290508560200160208101906105199190610dd7565b73ffffffffffffffffffffffffffffffffffffffff1686606001358760400135836040516105479190611496565b600060405180830381858888f193505050503d8060008114610585576040519150601f19603f3d011682016040523d82523d6000602084013e61058a565b606091505b50809350819450505050935093915050565b600260009054906101000a900473ffffffffffffffffffffffffffffffffffffffff1681565b60006105d56105cf61067e565b83610735565b9050919050565b6000806000806105ec8686610776565b9250925092506105fc82826107d2565b82935050505092915050565b606061063e60007f000000000000000000000000000000000000000000000000000000000000000061093690919063ffffffff16565b905090565b606061067960017f000000000000000000000000000000000000000000000000000000000000000061093690919063ffffffff16565b905090565b60007f000000000000000000000000000000000000000000000000000000000000000073ffffffffffffffffffffffffffffffffffffffff163073ffffffffffffffffffffffffffffffffffffffff161480156106fa57507f000000000000000000000000000000000000000000000000000000000000000046145b15610727577f00000000000000000000000000000000000000000000000000000000000000009050610732565b61072f6109e6565b90505b90565b60006040517f190100000000000000000000000000000000000000000000000000000000000081528360028201528260228201526042812091505092915050565b600080600060418451036107bb5760008060006020870151925060408701519150606087015160001a90506107ad88828585610a7c565b9550955095505050506107cb565b60006002855160001b9250925092505b9250925092565b600060038111156107e6576107e56114ad565b5b8260038111156107f9576107f86114ad565b5b03156109325760016003811115610813576108126114ad565b5b826003811115610826576108256114ad565b5b0361085d576040517ff645eedf00000000000000000000000000000000000000000000000000000000815260040160405180910390fd5b60026003811115610871576108706114ad565b5b826003811115610884576108836114ad565b5b036108c9578060001c6040517ffce698f70000000000000000000000000000000000000000000000000000000081526004016108c09190610e1d565b60405180910390fd5b6003808111156108dc576108db6114ad565b5b8260038111156108ef576108ee6114ad565b5b0361093157806040517fd78bce0c00000000000000000000000000000000000000000000000000000000815260040161092891906114dc565b60405180910390fd5b5b5050565b606060ff60001b83146109535761094c83610b70565b90506109e0565b81805461095f90611526565b80601f016020809104026020016040519081016040528092919081815260200182805461098b90611526565b80156109d85780601f106109ad576101008083540402835291602001916109d8565b820191906000526020600020905b8154815290600101906020018083116109bb57829003601f168201915b505050505090505b92915050565b60007f8b73c3c69bb8fe3d512ecc4cf759cc79239f7b179b0ffacaa9a75d522b39400f7f00000000000000000000000000000000000000000000000000000000000000007f00000000000000000000000000000000000000000000000000000000000000004630604051602001610a61959493929190611557565b60405160208183030381529060405280519060200120905090565b60008060007f7fffffffffffffffffffffffffffffff5d576e7357a4501ddfe92f46681b20a08460001c1115610abc576000600385925092509250610b66565b600060018888888860405160008152602001604052604051610ae194939291906115c6565b6020604051602081039080840390855afa158015610b03573d6000803e3d6000fd5b505050602060405103519050600073ffffffffffffffffffffffffffffffffffffffff168173ffffffffffffffffffffffffffffffffffffffff1603610b5757600060016000801b93509350935050610b66565b8060008060001b935093509350505b9450945094915050565b60606000610b7d83610be4565b90506000602067ffffffffffffffff811115610b9c57610b9b6112cf565b5b6040519080825280601f01601f191660200182016040528015610bce5781602001600182028036833780820191505090505b5090508181528360208201528092505050919050565b60008060ff8360001c169050601f811115610c2b576040517fb3512b0c00000000000000000000000000000000000000000000000000000000815260040160405180910390fd5b80915050919050565b600080fd5b600080fd5b600080fd5b600060e08284031215610c5957610c58610c3e565b5b81905092915050565b600080fd5b600080fd5b600080fd5b60008083601f840112610c8757610c86610c62565b5b8235905067ffffffffffffffff811115610ca457610ca3610c67565b5b602083019150836001820283011115610cc057610cbf610c6c565b5b9250929050565b600080600060408486031215610ce057610cdf610c34565b5b600084013567ffffffffffffffff811115610cfe57610cfd610c39565b5b610d0a86828701610c43565b935050602084013567ffffffffffffffff811115610d2b57610d2a610c39565b5b610d3786828701610c71565b92509250509250925092565b60008115159050919050565b610d5881610d43565b82525050565b6000602082019050610d736000830184610d4f565b92915050565b600073ffffffffffffffffffffffffffffffffffffffff82169050919050565b6000610da482610d79565b9050919050565b610db481610d99565b8114610dbf57600080fd5b50565b600081359050610dd181610dab565b92915050565b600060208284031215610ded57610dec610c34565b5b6000610dfb84828501610dc2565b91505092915050565b6000819050919050565b610e1781610e04565b82525050565b6000602082019050610e326000830184610e0e565b92915050565b60007fff0000000000000000000000000000000000000000000000000000000000000082169050919050565b610e6d81610e38565b82525050565b600081519050919050565b600082825260208201905092915050565b60005b83811015610ead578082015181840152602081019050610e92565b60008484015250505050565b6000601f19601f8301169050919050565b6000610ed582610e73565b610edf8185610e7e565b9350610eef818560208601610e8f565b610ef881610eb9565b840191505092915050565b610f0c81610d99565b82525050565b6000819050919050565b610f2581610f12565b82525050565b600081519050919050565b600082825260208201905092915050565b6000819050602082019050919050565b610f6081610e04565b82525050565b6000610f728383610f57565b60208301905092915050565b6000602082019050919050565b6000610f9682610f2b565b610fa08185610f36565b9350610fab83610f47565b8060005b83811015610fdc578151610fc38882610f66565b9750610fce83610f7e565b925050600181019050610faf565b5085935050505092915050565b600060e082019050610ffe600083018a610e64565b81810360208301526110108189610eca565b905081810360408301526110248188610eca565b90506110336060830187610e0e565b6110406080830186610f03565b61104d60a0830185610f1c565b81810360c083015261105f8184610f8b565b905098975050505050505050565b600081519050919050565b600082825260208201905092915050565b60006110948261106d565b61109e8185611078565b93506110ae818560208601610e8f565b6110b781610eb9565b840191505092915050565b60006040820190506110d76000830185610d4f565b81810360208301526110e98184611089565b90509392505050565b60006020820190506111076000830184610f03565b92915050565b600065ffffffffffff82169050919050565b6111288161110d565b811461113357600080fd5b50565b6000813590506111458161111f565b92915050565b60006020828403121561116157611160610c34565b5b600061116f84828501611136565b91505092915050565b600080fd5b600080fd5b600080fd5b600080833560016020038436030381126111a4576111a3611178565b5b80840192508235915067ffffffffffffffff8211156111c6576111c561117d565b5b6020830192506001820236038313156111e2576111e1611182565b5b509250929050565b600081905092915050565b82818337600083830152505050565b600061121083856111ea565b935061121d8385846111f5565b82840190509392505050565b6000611236828486611204565b91508190509392505050565b61124b8161110d565b82525050565b600061010082019050611267600083018b610f1c565b611274602083018a610f03565b6112816040830189610f03565b61128e6060830188610e0e565b61129b6080830187610e0e565b6112a860a0830186610e0e565b6112b560c0830185611242565b6112c260e0830184610f1c565b9998505050505050505050565b7f4e487b7100000000000000000000000000000000000000000000000000000000600052604160045260246000fd5b7f4c656e64696e67466f727761726465723a207369676e617475726520646f657360008201527f206e6f74206d6174636820726571756573740000000000000000000000000000602082015250565b600061135a603283610e7e565b9150611365826112fe565b604082019050919050565b600060208201905081810360008301526113898161134d565b9050919050565b7f4e487b7100000000000000000000000000000000000000000000000000000000600052601160045260246000fd5b60006113ca82610e04565b91506113d583610e04565b92508282019050808211156113ed576113ec611390565b5b92915050565b60008160601b9050919050565b600061140b826113f3565b9050919050565b600061141d82611400565b9050919050565b61143561143082610d99565b611412565b82525050565b6000611448828587611204565b91506114548284611424565b601482019150819050949350505050565b60006114708261106d565b61147a81856111ea565b935061148a818560208601610e8f565b80840191505092915050565b60006114a28284611465565b915081905092915050565b7f4e487b7100000000000000000000000000000000000000000000000000000000600052602160045260246000fd5b60006020820190506114f16000830184610f1c565b92915050565b7f4e487b7100000000000000000000000000000000000000000000000000000000600052602260045260246000fd5b6000600282049050600182168061153e57607f821691505b602082108103611551576115506114f7565b5b50919050565b600060a08201905061156c6000830188610f1c565b6115796020830187610f1c565b6115866040830186610f1c565b6115936060830185610e0e565b6115a06080830184610f03565b9695505050505050565b600060ff82169050919050565b6115c0816115aa565b82525050565b60006080820190506115db6000830187610f1c565b6115e860208301866115b7565b6115f56040830185610f1c565b6116026060830184610f1c565b9594505050505056fea26469706673582212206b624ac514fb261ab9398a31fd0f9028c443049bb8aabaa229e4e2dbc2b495f064736f6c634300081c0033",
  "linkReferences": {},
  "deployedLinkReferences": {}
}