{
  "_format": "hh-sol-artifact-1",
  "contractName": "LendingPlatform",
  "sourceName": "contracts/LendingPlatform.sol",
  "abi": [
    {
      "inputs": [
        {
          "internalType": "address",
          "name": "trustedForwarder",
          "type": "address"
        },
        {
          "internalType": "address",
          "name": "_priceFeed",
          "type": "address"
        }
      ],
      "stateMutability": "nonpayable",
      "type": "constructor"
    },
    {
      "inputs": [],
      "name": "ReentrancyGuardReentrantCall",
      "type": "error"
    },
    {
      "anonymous": false,
      "inputs": [
        {
          "indexed": false,
          "internalType": "uint256",
          "name": "loanId",
          "type": "uint256"
        },
        {
          "indexed": true,
          "internalType": "address",
          "name": "borrower",
          "type": "address"
        }
      ],
      "name": "CollateralLiquidated",
      "type": "event"
    },
    {
      "anonymous": false,
      "inputs": [
        {
          "indexed": false,
          "internalType": "uint256",
          "name": "collateralUSD",
          "type": "uint256"
        },
        {
          "indexed": false,
          "internalType": "uint256",
          "name": "ratio",
          "type": "uint256"
        }
      ],
      "name": "CollateralRatioCalculated",
      "type": "event"
    },
    {
      "anonymous": false,
      "inputs": [
        {
          "indexed": true,
          "internalType": "address",
          "name": "borrower",
          "type": "address"
        },
        {
          "indexed": false,
          "internalType": "uint256",
          "name": "totalLoans",
          "type": "uint256"
        },
        {
          "indexed": false,
          "internalType": "uint256",
          "name": "repaidLoans",
          "type": "uint256"
        }
      ],
      "name": "CreditProfileUpdated",
      "type": "event"
    },
    {
      "anonymous": false,
      "inputs": [
        {
          "indexed": true,
          "internalType": "address",
          "name": "sender",
          "type": "address"
        },
        {
          "indexed": false,
          "internalType": "uint256",
          "name": "amount",
          "type": "uint256"
        }
      ],
      "name": "LiquidityDeposited",
      "type": "event"
    },
    {
      "anonymous": false,
      "inputs": [
        {
          "indexed": true,
          "internalType": "address",
          "name": "admin",
          "type": "address"
        },
        {
          "indexed": false,
          "internalType": "uint256",
          "name": "amount",
          "type": "uint256"
        }
      ],
      "name": "LiquidityWithdrawn",
      "type": "event"
    },
    {
      "anonymous": false,
      "inputs": [
        {
          "indexed": false,
          "internalType": "uint256",
          "name": "loanId",
          "type": "uint256"
        },
        {
          "indexed": true,
          "internalType": "address",
          "name": "borrower",
          "type": "address"
        },
        {
          "indexed": false,
          "internalType": "uint256",
          "name": "principal",
          "type": "uint256"
        },
        {
          "indexed": false,
          "internalType": "uint256",
          "name": "collateral",
          "type": "uint256"
        }
      ],
      "name": "LoanCreated",
      "type": "event"
    },
    {
      "anonymous": false,
      "inputs": [
        {
          "indexed": false,
          "internalType": "uint256",
          "name": "loanId",
          "type": "uint256"
        },
        {
          "indexed": true,
          "internalType": "address",
          "name": "borrower",
          "type": "address"
        }
      ],
      "name": "LoanRepaid",
      "type": "event"
    },
    {
      "anonymous": false,
      "inputs": [
        {
          "indexed": false,
          "internalType": "int256",
          "name": "price",
          "type": "int256"
        }
      ],
      "name": "PriceRetrieved",
      "type": "event"
    },
    {
      "stateMutability": "payable",
      "type": "fallback"
    },
    {
      "inputs": [],
      "name": "MIN_COLLATERAL_RATIO",
      "outputs": [
        {
          "internalType": "uint256",
          "name": "",
          "type": "uint256"
        }
      ],
      "stateMutability": "view",
      "type": "function"
    },
    {
      "inputs": [],
      "name": "admin",
      "outputs": [
        {
          "internalType": "address",
          "name": "",
          "type": "address"
        }
      ],
      "stateMutability": "view",
      "type": "function"
    },
    {
      "inputs": [
        {
          "internalType": "address",
          "name": "",
          "type": "address"
        },
        {
          "internalType": "uint256",
          "name": "",
          "type": "uint256"
        }
      ],
      "name": "borrowerLoans",
      "outputs": [
        {
          "internalType": "uint256",
          "name": "",
          "type": "uint256"
        }
      ],
      "stateMutability": "view",
      "type": "function"
    },
    {
      "inputs": [
        {
          "internalType": "uint256",
          "name": "loanId",
          "type": "uint256"
        }
      ],
      "name": "checkLoanHealth",
      "outputs": [
        {
          "internalType": "string",
          "name": "status",
          "type": "string"
        },
        {
          "internalType": "uint256",
          "name": "currentRatio",
          "type": "uint256"
        }
      ],
      "stateMutability": "view",
      "type": "function"
    },
    {
      "inputs": [
        {
          "internalType": "uint256",
          "name": "collateral",
          "type": "uint256"
        },
        {
          "internalType": "uint256",
          "name": "principal",
          "type": "uint256"
        }
      ],
      "name": "collateralRatio",
      "outputs": [
        {
          "internalType": "uint256",
          "name": "",
          "type": "uint256"
        }
      ],
      "stateMutability": "view",
      "type": "function"
    },
    {
      "inputs": [],
      "name": "depositLiquidity",
      "outputs": [],
      "stateMutability": "payable",
      "type": "function"
    },
    {
      "inputs": [],
      "name": "getContractBalance",
      "outputs": [
        {
          "internalType": "uint256",
          "name": "",
          "type": "uint256"
        }
      ],
      "stateMutability": "view",
      "type": "function"
    },
    {
      "inputs": [
        {
          "internalType": "address",
          "name": "borrower",
          "type": "address"
        }
      ],
      "name": "getCreditScore",
      "outputs": [
        {
          "internalType": "uint256",
          "name": "",
          "type": "uint256"
        }
      ],
      "stateMutability": "view",
      "type": "function"
    },
    {
      "inputs": [],
      "name": "getLatestPrice",
      "outputs": [
        {
          "internalType": "int256",
          "name": "",
          "type": "int256"
        }
      ],
      "stateMutability": "view",
      "type": "function"
    },
    {
      "inputs": [
        {
          "internalType": "uint256",
          "name": "loanId",
          "type": "uint256"
        }
      ],
      "name": "getLoanDetails",
      "outputs": [
        {
          "internalType": "address",
          "name": "borrower",
          "type": "address"
        },
        {
          "internalType": "uint256",
          "name": "principal",
          "type": "uint256"
        },
        {
          "internalType": "uint256",
          "name": "collateral",
          "type": "uint256"
        },
        {
          "internalType": "uint256",
          "name": "interestRate",
          "type": "uint256"
        },
        {
          "internalType": "uint256",
          "name": "dueDate",
          "type": "uint256"
        },
        {
          "internalType": "uint256",
          "name": "startTime",
          "type": "uint256"
        },
        {
          "internalType": "bool",
          "name": "isRepaid",
          "type": "bool"
        }
      ],
      "stateMutability": "view",
      "type": "function"
    },
    {
      "inputs": [
        {
          "internalType": "address",
          "name": "borrower",
          "type": "address"
        }
      ],
      "name": "getLoans",
      "outputs": [
        {
          "internalType": "uint256[]",
          "name": "",
          "type": "uint256[]"
        }
      ],
      "stateMutability": "view",
      "type": "function"
    },
    {
      "inputs": [],
      "name": "getPriceFeedInfo",
      "outputs": [
        {
          "internalType": "uint80",
          "name": "roundId",
          "type": "uint80"
        },
        {
          "internalType": "int256",
          "name": "answer",
          "type": "int256"
        },
        {
          "internalType": "uint256",
          "name": "startedAt",
          "type": "uint256"
        },
        {
          "internalType": "uint256",
          "name": "updatedAt",
          "type": "uint256"
        },
        {
          "internalType": "uint80",
          "name": "answeredInRound",
          "type": "uint80"
        }
      ],
      "stateMutability": "view",
      "type": "function"
    },
    {
      "inputs": [
        {
          "internalType": "address",
          "name": "forwarder",
          "type": "address"
        }
      ],
      "name": "isTrustedForwarder",
      "outputs": [
        {
          "internalType": "bool",
          "name": "",
          "type": "bool"
        }
      ],
      "stateMutability": "view",
      "type": "function"
    },
    {
      "inputs": [
        {
          "internalType": "uint256",
          "name": "loanId",
          "type": "uint256"
        }
      ],
      "name": "liquidateLoan",
      "outputs": [],
      "stateMutability": "nonpayable",
      "type": "function"
    },
    {
      "inputs": [
        {
          "internalType": "uint256",
          "name": "",
          "type": "uint256"
        }
      ],
      "name": "loans",
      "outputs": [
        {
          "internalType": "address",
          "name": "borrower",
          "type": "address"
        },
        {
          "internalType": "uint256",
          "name": "principal",
          "type": "uint256"
        },
        {
          "internalType": "uint256",
          "name": "collateral",
          "type": "uint256"
        },
        {
          "internalType": "uint256",
          "name": "interestRate",
          "type": "uint256"
        },
        {
          "internalType": "uint256",
          "name": "dueDate",
          "type": "uint256"
        },
        {
          "internalType": "uint256",
          "name": "startTime",
          "type": "uint256"
        },
        {
          "internalType": "bool",
          "name": "isRepaid",
          "type": "bool"
        }
      ],
      "stateMutability": "view",
      "type": "function"
    },
    {
      "inputs": [],
      "name": "nextLoanId",
      "outputs": [
        {
          "internalType": "uint256",
          "name": "",
          "type": "uint256"
        }
      ],
      "stateMutability": "view",
      "type": "function"
    },
    {
      "inputs": [],
      "name": "priceFeed",
      "outputs": [
        {
          "internalType": "contract AggregatorV3Interface",
          "name": "",
          "type": "address"
        }
      ],
      "stateMutability": "view",
      "type": "function"
    },
    {
      "inputs": [
        {
          "internalType": "address",
          "name": "",
          "type": "address"
        }
      ],
      "name": "profiles",
      "outputs": [
        {
          "internalType": "uint256",
          "name": "totalLoans",
          "type": "uint256"
        },
        {
          "internalType": "uint256",
          "name": "repaidLoans",
          "type": "uint256"
        }
      ],
      "stateMutability": "view",
      "type": "function"
    },
    {
      "inputs": [
        {
          "internalType": "uint256",
          "name": "loanId",
          "type": "uint256"
        }
      ],
      "name": "repayLoan",
      "outputs": [],
      "stateMutability": "payable",
      "type": "function"
    },
    {
      "inputs": [
        {
          "internalType": "uint256",
          "name": "interestRate",
          "type": "uint256"
        },
        {
          "internalType": "uint256",
          "name": "duration",
          "type": "uint256"
        }
      ],
      "name": "requestLoan",
      "outputs": [
        {
          "internalType": "uint256",
          "name": "",
          "type": "uint256"
        }
      ],
      "stateMutability": "payable",
      "type": "function"
    },
    {
      "inputs": [],
      "name": "testForwarder",
      "outputs": [
        {
          "internalType": "address",
          "name": "",
          "type": "address"
        }
      ],
      "stateMutability": "view",
      "type": "function"
    },
    {
      "inputs": [],
      "name": "totalLiquidity",
      "outputs": [
        {
          "internalType": "uint256",
          "name": "",
          "type": "uint256"
        }
      ],
      "stateMutability": "view",
      "type": "function"
    },
    {
      "inputs": [],
      "name": "trustedForwarder",
      "outputs": [
        {
          "internalType": "address",
          "name": "",
          "type": "address"
        }
      ],
      "stateMutability": "view",
      "type": "function"
    },
    {
      "inputs": [
        {
          "internalType": "uint256",
          "name": "amount",
          "type": "uint256"
        }
      ],
      "name": "withdrawLiquidity",
      "outputs": [],
      "stateMutability": "nonpayable",
      "type": "function"
    },
    {
      "stateMutability": "payable",
      "type": "receive"
    }
  ],
  "bytecode": "0x60a0604052600160055534801561001557600080fd5b5060405161362b38038061362b833981810160405281019061003791906102c4565b818073ffffffffffffffffffffffffffffffffffffffff1660808173ffffffffffffffffffffffffffffffffffffffff168152505050600160008190555061008361017a60201b60201c565b600160006101000a81548173ffffffffffffffffffffffffffffffffffffffff021916908373ffffffffffffffffffffffffffffffffffffffff160217905550600073ffffffffffffffffffffffffffffffffffffffff168173ffffffffffffffffffffffffffffffffffffffff1603610132576040517f08c379a000000000000000000000000000000000000000000000000000000000815260040161012990610361565b60405180910390fd5b80600260006101000a81548173ffffffffffffffffffffffffffffffffffffffff021916908373ffffffffffffffffffffffffffffffffffffffff16021790555050506104d6565b60008060003690509050600061019461020160201b60201c565b90506101a53361020a60201b60201c565b80156101b15750808210155b156101eb5760003682846101c591906103ba565b9080926101d4939291906103f8565b906101df9190610477565b60601c925050506101fe565b6101f961024f60201b60201c565b925050505b90565b60006014905090565b600061021a61025760201b60201c565b73ffffffffffffffffffffffffffffffffffffffff168273ffffffffffffffffffffffffffffffffffffffff16149050919050565b600033905090565b6000608051905090565b600080fd5b600073ffffffffffffffffffffffffffffffffffffffff82169050919050565b600061029182610266565b9050919050565b6102a181610286565b81146102ac57600080fd5b50565b6000815190506102be81610298565b92915050565b600080604083850312156102db576102da610261565b5b60006102e9858286016102af565b92505060206102fa858286016102af565b9150509250929050565b600082825260208201905092915050565b7f496e76616c696420707269636520666565642061646472657373000000000000600082015250565b600061034b601a83610304565b915061035682610315565b602082019050919050565b6000602082019050818103600083015261037a8161033e565b9050919050565b6000819050919050565b7f4e487b7100000000000000000000000000000000000000000000000000000000600052601160045260246000fd5b60006103c582610381565b91506103d083610381565b92508282039050818111156103e8576103e761038b565b5b92915050565b600080fd5b600080fd5b6000808585111561040c5761040b6103ee565b5b8386111561041d5761041c6103f3565b5b6001850283019150848603905094509492505050565b600082905092915050565b60007fffffffffffffffffffffffffffffffffffffffff00000000000000000000000082169050919050565b600082821b905092915050565b60006104838383610433565b8261048e813561043e565b925060148210156104ce576104c97fffffffffffffffffffffffffffffffffffffffff0000000000000000000000008360140360080261046a565b831692505b505092915050565b60805161313a6104f16000396000610b60015261313a6000f3fe60806040526004361061014f5760003560e01c80638e15f473116100b6578063ccdd9f5d1161006f578063ccdd9f5d14610509578063d3dd2bdf14610532578063d988ef201461056f578063e1ec3c68146105ac578063e3ed1902146105ef578063f851a4401461062c5761018f565b80638e15f4731461041b578063a76752b814610446578063aa452fa614610475578063ab7b1c89146104a5578063bbe15627146104c1578063ca593c59146104ff5761018f565b806366877b8d1161010857806366877b8d146103015780636f9fb98a14610344578063741bef1a1461036f5780637a9fffb71461039a5780637da0a877146103c557806387c51459146103f05761018f565b80630a861f2a146101ca57806314ce2807146101f357806315770f9214610231578063532cd1061461025c57806356303cb214610299578063572b6c05146102c45761018f565b3661018f576040517f08c379a000000000000000000000000000000000000000000000000000000000815260040161018690611f56565b60405180910390fd5b6040517f08c379a00000000000000000000000000000000000000000000000000000000081526004016101c190611fc2565b60405180910390fd5b3480156101d657600080fd5b506101f160048036038101906101ec919061201d565b610657565b005b3480156101ff57600080fd5b5061021a6004803603810190610215919061201d565b61088e565b6040516102289291906120d8565b60405180910390f35b34801561023d57600080fd5b5061024661098b565b6040516102539190612108565b60405180910390f35b34801561026857600080fd5b50610283600480360381019061027e9190612123565b610991565b6040516102909190612108565b60405180910390f35b3480156102a557600080fd5b506102ae610a50565b6040516102bb91906121a4565b60405180910390f35b3480156102d057600080fd5b506102eb60048036038101906102e691906121eb565b610a5f565b6040516102f89190612233565b60405180910390f35b34801561030d57600080fd5b506103286004803603810190610323919061201d565b610a9e565b60405161033b979695949392919061224e565b60405180910390f35b34801561035057600080fd5b50610359610b29565b6040516103669190612108565b60405180910390f35b34801561037b57600080fd5b50610384610b31565b604051610391919061231c565b60405180910390f35b3480156103a657600080fd5b506103af610b57565b6040516103bc9190612108565b60405180910390f35b3480156103d157600080fd5b506103da610b5c565b6040516103e791906121a4565b60405180910390f35b3480156103fc57600080fd5b50610405610b84565b6040516104129190612108565b60405180910390f35b34801561042757600080fd5b50610430610b8a565b60405161043d9190612350565b60405180910390f35b34801561045257600080fd5b5061045b610c6e565b60405161046c959493929190612390565b60405180910390f35b61048f600480360381019061048a9190612123565b610d22565b60405161049c9190612108565b60405180910390f35b6104bf60048036038101906104ba919061201d565b611272565b005b3480156104cd57600080fd5b506104e860048036038101906104e391906121eb565b6117c6565b6040516104f69291906123e3565b60405180910390f35b6105076117ea565b005b34801561051557600080fd5b50610530600480360381019061052b919061201d565b61189d565b005b34801561053e57600080fd5b50610559600480360381019061055491906121eb565b611c24565b6040516105669190612108565b60405180910390f35b34801561057b57600080fd5b50610596600480360381019061059191906121eb565b611cc6565b6040516105a391906124ca565b60405180910390f35b3480156105b857600080fd5b506105d360048036038101906105ce919061201d565b611d5d565b6040516105e6979695949392919061224e565b60405180910390f35b3480156105fb57600080fd5b50610616600480360381019061061191906124ec565b611dcc565b6040516106239190612108565b60405180910390f35b34801561063857600080fd5b50610641611dfd565b60405161064e91906121a4565b60405180910390f35b600160009054906101000a900473ffffffffffffffffffffffffffffffffffffffff1673ffffffffffffffffffffffffffffffffffffffff16610698611e23565b73ffffffffffffffffffffffffffffffffffffffff16146106ee576040517f08c379a00000000000000000000000000000000000000000000000000000000081526004016106e590612578565b60405180910390fd5b600354811115610733576040517f08c379a000000000000000000000000000000000000000000000000000000000815260040161072a906125e4565b60405180910390fd5b80600360008282546107459190612633565b925050819055506000600160009054906101000a900473ffffffffffffffffffffffffffffffffffffffff1673ffffffffffffffffffffffffffffffffffffffff168260405161079490612698565b60006040518083038185875af1925050503d80600081146107d1576040519150601f19603f3d011682016040523d82523d6000602084013e6107d6565b606091505b505090508061081a576040517f08c379a0000000000000000000000000000000000000000000000000000000008152600401610811906126f9565b60405180910390fd5b600160009054906101000a900473ffffffffffffffffffffffffffffffffffffffff1673ffffffffffffffffffffffffffffffffffffffff167fb1cce8684b4ffa8667b4577654e61ee3480d661ee9c27522ac80e211f6bd4d25836040516108829190612108565b60405180910390a25050565b60606000806006600085815260200190815260200160002090506108ba81600201548260010154610991565b91508060040154421115610905576040518060400160405280600781526020017f6f766572647565000000000000000000000000000000000000000000000000008152509250610985565b609682101561094b576040518060400160405280601381526020017f756e646572636f6c6c61746572616c697a6564000000000000000000000000008152509250610984565b6040518060400160405280600781526020017f6865616c7468790000000000000000000000000000000000000000000000000081525092505b5b50915091565b60035481565b60008061099c610b8a565b905060006a52b7d2dcc80cd2e400000082866109b89190612719565b6109c2919061278a565b905060006a52b7d2dcc80cd2e400000083866109de9190612719565b6109e8919061278a565b905060008111610a2d576040517f08c379a0000000000000000000000000000000000000000000000000000000008152600401610a2490612807565b60405180910390fd5b80606483610a3b9190612719565b610a45919061278a565b935050505092915050565b6000610a5a611e23565b905090565b6000610a69610b5c565b73ffffffffffffffffffffffffffffffffffffffff168273ffffffffffffffffffffffffffffffffffffffff16149050919050565b600080600080600080600080600660008a815260200190815260200160002090508060000160009054906101000a900473ffffffffffffffffffffffffffffffffffffffff16816001015482600201548360030154846004015485600501548660060160009054906101000a900460ff16975097509750975097509750975050919395979092949650565b600047905090565b600260009054906101000a900473ffffffffffffffffffffffffffffffffffffffff1681565b609681565b60007f0000000000000000000000000000000000000000000000000000000000000000905090565b60055481565b600080600260009054906101000a900473ffffffffffffffffffffffffffffffffffffffff1673ffffffffffffffffffffffffffffffffffffffff1663feaf968c6040518163ffffffff1660e01b815260040160a060405180830381865afa158015610bfa573d6000803e3d6000fd5b505050506040513d601f19601f82011682018060405250810190610c1e9190612894565b50505091505060008113610c67576040517f08c379a0000000000000000000000000000000000000000000000000000000008152600401610c5e9061295b565b60405180910390fd5b8091505090565b6000806000806000600260009054906101000a900473ffffffffffffffffffffffffffffffffffffffff1673ffffffffffffffffffffffffffffffffffffffff1663feaf968c6040518163ffffffff1660e01b815260040160a060405180830381865afa158015610ce3573d6000803e3d6000fd5b505050506040513d601f19601f82011682018060405250810190610d079190612894565b80955081965082975083985084995050505050509091929394565b6000610d2c611e98565b60003411610d6f576040517f08c379a0000000000000000000000000000000000000000000000000000000008152600401610d66906129c7565b60405180910390fd5b62015180821015610db5576040517f08c379a0000000000000000000000000000000000000000000000000000000008152600401610dac90612a33565b60405180910390fd5b60006096606434610dc69190612719565b610dd0919061278a565b905060008111610e15576040517f08c379a0000000000000000000000000000000000000000000000000000000008152600401610e0c90612ac5565b60405180910390fd5b806003541015610e5a576040517f08c379a0000000000000000000000000000000000000000000000000000000008152600401610e5190612b57565b60405180910390fd5b6040518060e00160405280610e6d611e23565b73ffffffffffffffffffffffffffffffffffffffff1681526020018281526020013481526020018581526020018442610ea69190612b77565b81526020014281526020016000151581525060066000600554815260200190815260200160002060008201518160000160006101000a81548173ffffffffffffffffffffffffffffffffffffffff021916908373ffffffffffffffffffffffffffffffffffffffff1602179055506020820151816001015560408201518160020155606082015181600301556080820151816004015560a0820151816005015560c08201518160060160006101000a81548160ff02191690831515021790555090505060076000610f75611e23565b73ffffffffffffffffffffffffffffffffffffffff1673ffffffffffffffffffffffffffffffffffffffff1681526020019081526020016000206005549080600181540180825580915050600190039060005260206000200160009091909190915055600160046000610fe6611e23565b73ffffffffffffffffffffffffffffffffffffffff1673ffffffffffffffffffffffffffffffffffffffff16815260200190815260200160002060000160008282546110329190612b77565b92505081905550611041611e23565b73ffffffffffffffffffffffffffffffffffffffff167ffe3ef7984ab60e3e6d7fffbb6e217157214eb84aed03e178c8dcde35e13aea0760046000611084611e23565b73ffffffffffffffffffffffffffffffffffffffff1673ffffffffffffffffffffffffffffffffffffffff16815260200190815260200160002060000154600460006110ce611e23565b73ffffffffffffffffffffffffffffffffffffffff1673ffffffffffffffffffffffffffffffffffffffff1681526020019081526020016000206001015460405161111a9291906123e3565b60405180910390a280600360008282546111349190612633565b925050819055506000611145611e23565b73ffffffffffffffffffffffffffffffffffffffff168260405161116890612698565b60006040518083038185875af1925050503d80600081146111a5576040519150601f19603f3d011682016040523d82523d6000602084013e6111aa565b606091505b50509050806111ee576040517f08c379a00000000000000000000000000000000000000000000000000000000081526004016111e590612bf7565b60405180910390fd5b6111f6611e23565b73ffffffffffffffffffffffffffffffffffffffff167f3373919ad665425d2cddb4072830e5935b6ee308440fa99b23383648da473bc0600554843460405161124193929190612c17565b60405180910390a26005600081548092919061125c90612c4e565b919050559250505061126c611ede565b92915050565b61127a611e98565b6000600660008381526020019081526020016000209050611299611e23565b73ffffffffffffffffffffffffffffffffffffffff168160000160009054906101000a900473ffffffffffffffffffffffffffffffffffffffff1673ffffffffffffffffffffffffffffffffffffffff161461132a576040517f08c379a000000000000000000000000000000000000000000000000000000000815260040161132190612ce2565b60405180910390fd5b8060060160009054906101000a900460ff161561137c576040517f08c379a000000000000000000000000000000000000000000000000000000000815260040161137390612d4e565b60405180910390fd5b600081600501544261138e9190612633565b9050600063bbf81e0082846003015485600101546113ac9190612719565b6113b69190612719565b6113c0919061278a565b905060008184600101546113d49190612b77565b905080341015611419576040517f08c379a000000000000000000000000000000000000000000000000000000000815260040161141090612dba565b60405180910390fd5b60018460060160006101000a81548160ff02191690831515021790555060008460000160009054906101000a900473ffffffffffffffffffffffffffffffffffffffff1673ffffffffffffffffffffffffffffffffffffffff16856002015460405161148490612698565b60006040518083038185875af1925050503d80600081146114c1576040519150601f19603f3d011682016040523d82523d6000602084013e6114c6565b606091505b505090508061150a576040517f08c379a000000000000000000000000000000000000000000000000000000000815260040161150190612e26565b60405180910390fd5b82856001015461151a9190612b77565b6003600082825461152b9190612b77565b92505081905550600160046000611540611e23565b73ffffffffffffffffffffffffffffffffffffffff1673ffffffffffffffffffffffffffffffffffffffff168152602001908152602001600020600101600082825461158c9190612b77565b9250508190555061159b611e23565b73ffffffffffffffffffffffffffffffffffffffff167ffe3ef7984ab60e3e6d7fffbb6e217157214eb84aed03e178c8dcde35e13aea07600460006115de611e23565b73ffffffffffffffffffffffffffffffffffffffff1673ffffffffffffffffffffffffffffffffffffffff1681526020019081526020016000206000015460046000611628611e23565b73ffffffffffffffffffffffffffffffffffffffff1673ffffffffffffffffffffffffffffffffffffffff168152602001908152602001600020600101546040516116749291906123e3565b60405180910390a28460000160009054906101000a900473ffffffffffffffffffffffffffffffffffffffff1673ffffffffffffffffffffffffffffffffffffffff167fe69d7686a8bc68278b8c5419579f91716b3ef2ac2fac0d8cf80b8011f8f458a4876040516116e69190612108565b60405180910390a2813411156117b6576000611700611e23565b73ffffffffffffffffffffffffffffffffffffffff1683346117229190612633565b60405161172e90612698565b60006040518083038185875af1925050503d806000811461176b576040519150601f19603f3d011682016040523d82523d6000602084013e611770565b606091505b50509050806117b4576040517f08c379a00000000000000000000000000000000000000000000000000000000081526004016117ab90612e92565b60405180910390fd5b505b50505050506117c3611ede565b50565b60046020528060005260406000206000915090508060000154908060010154905082565b6000341161182d576040517f08c379a000000000000000000000000000000000000000000000000000000000815260040161182490612efe565b60405180910390fd5b346003600082825461183f9190612b77565b9250508190555061184e611e23565b73ffffffffffffffffffffffffffffffffffffffff167f7ff07ce9a287649537e4b012e45cf012d90228b12e2b56bb03515a6b5436fcdf346040516118939190612108565b60405180910390a2565b6118a5611e98565b600160009054906101000a900473ffffffffffffffffffffffffffffffffffffffff1673ffffffffffffffffffffffffffffffffffffffff166118e6611e23565b73ffffffffffffffffffffffffffffffffffffffff161461193c576040517f08c379a000000000000000000000000000000000000000000000000000000000815260040161193390612578565b60405180910390fd5b60006006600083815260200190815260200160002090508060060160009054906101000a900460ff16156119a5576040517f08c379a000000000000000000000000000000000000000000000000000000000815260040161199c90612d4e565b60405180910390fd5b60006119b982600201548360010154610991565b90507fdb6524f03ec7b5c45f6a179b735503adf662b9aff6b7e5aa7b3c9d67b10001406119e4610b8a565b6040516119f19190612350565b60405180910390a160006a52b7d2dcc80cd2e4000000611a0f610b8a565b8460020154611a1e9190612719565b611a28919061278a565b90507f3ef7bb00367d3a3fa4de72ee26ac4fc0a135d79508f8e6f0bf1584cb0174d7f68183604051611a5b9291906123e3565b60405180910390a18260040154421180611a755750609682105b611ab4576040517f08c379a0000000000000000000000000000000000000000000000000000000008152600401611aab90612f90565b60405180910390fd5b60018360060160006101000a81548160ff0219169083151502179055506000600160009054906101000a900473ffffffffffffffffffffffffffffffffffffffff1673ffffffffffffffffffffffffffffffffffffffff168460020154604051611b1d90612698565b60006040518083038185875af1925050503d8060008114611b5a576040519150601f19603f3d011682016040523d82523d6000602084013e611b5f565b606091505b5050905080611ba3576040517f08c379a0000000000000000000000000000000000000000000000000000000008152600401611b9a90612ffc565b60405180910390fd5b8360000160009054906101000a900473ffffffffffffffffffffffffffffffffffffffff1673ffffffffffffffffffffffffffffffffffffffff167f5257471f4c494b15de62381dfcd26ada8c4ed78b53805a846b07173a1c45cd0886604051611c0d9190612108565b60405180910390a250505050611c21611ede565b50565b600080600460008473ffffffffffffffffffffffffffffffffffffffff1673ffffffffffffffffffffffffffffffffffffffff1681526020019081526020016000206040518060400160405290816000820154815260200160018201548152505090506000816000015103611c9d576000915050611cc1565b806000015160648260200151611cb39190612719565b611cbd919061278a565b9150505b919050565b6060600760008373ffffffffffffffffffffffffffffffffffffffff1673ffffffffffffffffffffffffffffffffffffffff168152602001908152602001600020805480602002602001604051908101604052809291908181526020018280548015611d5157602002820191906000526020600020905b815481526020019060010190808311611d3d575b50505050509050919050565b60066020528060005260406000206000915090508060000160009054906101000a900473ffffffffffffffffffffffffffffffffffffffff16908060010154908060020154908060030154908060040154908060050154908060060160009054906101000a900460ff16905087565b60076020528160005260406000208181548110611de857600080fd5b90600052602060002001600091509150505481565b600160009054906101000a900473ffffffffffffffffffffffffffffffffffffffff1681565b600080600036905090506000611e37611ee8565b9050611e4233610a5f565b8015611e4e5750808210155b15611e88576000368284611e629190612633565b908092611e7193929190613026565b90611e7c91906130a5565b60601c92505050611e95565b611e90611ef1565b925050505b90565b600260005403611ed4576040517f3ee5aeb500000000000000000000000000000000000000000000000000000000815260040160405180910390fd5b6002600081905550565b6001600081905550565b60006014905090565b600033905090565b600082825260208201905092915050565b7f446972656374207472616e7366657273206e6f7420616c6c6f77656400000000600082015250565b6000611f40601c83611ef9565b9150611f4b82611f0a565b602082019050919050565b60006020820190508181036000830152611f6f81611f33565b9050919050565b7f46616c6c6261636b206e6f7420616c6c6f776564000000000000000000000000600082015250565b6000611fac601483611ef9565b9150611fb782611f76565b602082019050919050565b60006020820190508181036000830152611fdb81611f9f565b9050919050565b600080fd5b6000819050919050565b611ffa81611fe7565b811461200557600080fd5b50565b60008135905061201781611ff1565b92915050565b60006020828403121561203357612032611fe2565b5b600061204184828501612008565b91505092915050565b600081519050919050565b60005b83811015612073578082015181840152602081019050612058565b60008484015250505050565b6000601f19601f8301169050919050565b600061209b8261204a565b6120a58185611ef9565b93506120b5818560208601612055565b6120be8161207f565b840191505092915050565b6120d281611fe7565b82525050565b600060408201905081810360008301526120f28185612090565b905061210160208301846120c9565b9392505050565b600060208201905061211d60008301846120c9565b92915050565b6000806040838503121561213a57612139611fe2565b5b600061214885828601612008565b925050602061215985828601612008565b9150509250929050565b600073ffffffffffffffffffffffffffffffffffffffff82169050919050565b600061218e82612163565b9050919050565b61219e81612183565b82525050565b60006020820190506121b96000830184612195565b92915050565b6121c881612183565b81146121d357600080fd5b50565b6000813590506121e5816121bf565b92915050565b60006020828403121561220157612200611fe2565b5b600061220f848285016121d6565b91505092915050565b60008115159050919050565b61222d81612218565b82525050565b60006020820190506122486000830184612224565b92915050565b600060e082019050612263600083018a612195565b61227060208301896120c9565b61227d60408301886120c9565b61228a60608301876120c9565b61229760808301866120c9565b6122a460a08301856120c9565b6122b160c0830184612224565b98975050505050505050565b6000819050919050565b60006122e26122dd6122d884612163565b6122bd565b612163565b9050919050565b60006122f4826122c7565b9050919050565b6000612306826122e9565b9050919050565b612316816122fb565b82525050565b6000602082019050612331600083018461230d565b92915050565b6000819050919050565b61234a81612337565b82525050565b60006020820190506123656000830184612341565b92915050565b600069ffffffffffffffffffff82169050919050565b61238a8161236b565b82525050565b600060a0820190506123a56000830188612381565b6123b26020830187612341565b6123bf60408301866120c9565b6123cc60608301856120c9565b6123d96080830184612381565b9695505050505050565b60006040820190506123f860008301856120c9565b61240560208301846120c9565b9392505050565b600081519050919050565b600082825260208201905092915050565b6000819050602082019050919050565b61244181611fe7565b82525050565b60006124538383612438565b60208301905092915050565b6000602082019050919050565b60006124778261240c565b6124818185612417565b935061248c83612428565b8060005b838110156124bd5781516124a48882612447565b97506124af8361245f565b925050600181019050612490565b5085935050505092915050565b600060208201905081810360008301526124e4818461246c565b905092915050565b6000806040838503121561250357612502611fe2565b5b6000612511858286016121d6565b925050602061252285828601612008565b9150509250929050565b7f41646d696e206f6e6c7900000000000000000000000000000000000000000000600082015250565b6000612562600a83611ef9565b915061256d8261252c565b602082019050919050565b6000602082019050818103600083015261259181612555565b9050919050565b7f496e73756666696369656e74206c697175696469747900000000000000000000600082015250565b60006125ce601683611ef9565b91506125d982612598565b602082019050919050565b600060208201905081810360008301526125fd816125c1565b9050919050565b7f4e487b7100000000000000000000000000000000000000000000000000000000600052601160045260246000fd5b600061263e82611fe7565b915061264983611fe7565b925082820390508181111561266157612660612604565b5b92915050565b600081905092915050565b50565b6000612682600083612667565b915061268d82612672565b600082019050919050565b60006126a382612675565b9150819050919050565b7f5769746864726177616c206661696c6564000000000000000000000000000000600082015250565b60006126e3601183611ef9565b91506126ee826126ad565b602082019050919050565b60006020820190508181036000830152612712816126d6565b9050919050565b600061272482611fe7565b915061272f83611fe7565b925082820261273d81611fe7565b9150828204841483151761275457612753612604565b5b5092915050565b7f4e487b7100000000000000000000000000000000000000000000000000000000600052601260045260246000fd5b600061279582611fe7565b91506127a083611fe7565b9250826127b0576127af61275b565b5b828204905092915050565b7f5072696e636970616c2063616e6e6f74206265207a65726f0000000000000000600082015250565b60006127f1601883611ef9565b91506127fc826127bb565b602082019050919050565b60006020820190508181036000830152612820816127e4565b9050919050565b6128308161236b565b811461283b57600080fd5b50565b60008151905061284d81612827565b92915050565b61285c81612337565b811461286757600080fd5b50565b60008151905061287981612853565b92915050565b60008151905061288e81611ff1565b92915050565b600080600080600060a086880312156128b0576128af611fe2565b5b60006128be8882890161283e565b95505060206128cf8882890161286a565b94505060406128e08882890161287f565b93505060606128f18882890161287f565b92505060806129028882890161283e565b9150509295509295909350565b7f496e76616c696420707269636520726574726965766564000000000000000000600082015250565b6000612945601783611ef9565b91506129508261290f565b602082019050919050565b6000602082019050818103600083015261297481612938565b9050919050565b7f436f6c6c61746572616c20726571756972656400000000000000000000000000600082015250565b60006129b1601383611ef9565b91506129bc8261297b565b602082019050919050565b600060208201905081810360008301526129e0816129a4565b9050919050565b7f4475726174696f6e20746f6f2073686f72740000000000000000000000000000600082015250565b6000612a1d601283611ef9565b9150612a28826129e7565b602082019050919050565b60006020820190508181036000830152612a4c81612a10565b9050919050565b7f5072696e636970616c206d7573742062652067726561746572207468616e207a60008201527f65726f0000000000000000000000000000000000000000000000000000000000602082015250565b6000612aaf602383611ef9565b9150612aba82612a53565b604082019050919050565b60006020820190508181036000830152612ade81612aa2565b9050919050565b7f496e73756666696369656e74206c697175696469747920746f2064697362757260008201527f7365206c6f616e00000000000000000000000000000000000000000000000000602082015250565b6000612b41602783611ef9565b9150612b4c82612ae5565b604082019050919050565b60006020820190508181036000830152612b7081612b34565b9050919050565b6000612b8282611fe7565b9150612b8d83611fe7565b9250828201905080821115612ba557612ba4612604565b5b92915050565b7f5072696e636970616c207472616e73666572206661696c656400000000000000600082015250565b6000612be1601983611ef9565b9150612bec82612bab565b602082019050919050565b60006020820190508181036000830152612c1081612bd4565b9050919050565b6000606082019050612c2c60008301866120c9565b612c3960208301856120c9565b612c4660408301846120c9565b949350505050565b6000612c5982611fe7565b91507fffffffffffffffffffffffffffffffffffffffffffffffffffffffffffffffff8203612c8b57612c8a612604565b5b600182019050919050565b7f4e6f7420626f72726f7765720000000000000000000000000000000000000000600082015250565b6000612ccc600c83611ef9565b9150612cd782612c96565b602082019050919050565b60006020820190508181036000830152612cfb81612cbf565b9050919050565b7f416c726561647920726570616964000000000000000000000000000000000000600082015250565b6000612d38600e83611ef9565b9150612d4382612d02565b602082019050919050565b60006020820190508181036000830152612d6781612d2b565b9050919050565b7f496e73756666696369656e742072657061796d656e7400000000000000000000600082015250565b6000612da4601683611ef9565b9150612daf82612d6e565b602082019050919050565b60006020820190508181036000830152612dd381612d97565b9050919050565b7f436f6c6c61746572616c2072657475726e206661696c65640000000000000000600082015250565b6000612e10601883611ef9565b9150612e1b82612dda565b602082019050919050565b60006020820190508181036000830152612e3f81612e03565b9050919050565b7f526566756e64206661696c656400000000000000000000000000000000000000600082015250565b6000612e7c600d83611ef9565b9150612e8782612e46565b602082019050919050565b60006020820190508181036000830152612eab81612e6f565b9050919050565b7f4d757374206465706f7369742066756e64730000000000000000000000000000600082015250565b6000612ee8601283611ef9565b9150612ef382612eb2565b602082019050919050565b60006020820190508181036000830152612f1781612edb565b9050919050565b7f4c6f616e206e6f7420656c696769626c6520666f72206c69717569646174696f60008201527f6e00000000000000000000000000000000000000000000000000000000000000602082015250565b6000612f7a602183611ef9565b9150612f8582612f1e565b604082019050919050565b60006020820190508181036000830152612fa981612f6d565b9050919050565b7f436f6c6c61746572616c207472616e73666572206661696c6564000000000000600082015250565b6000612fe6601a83611ef9565b9150612ff182612fb0565b602082019050919050565b6000602082019050818103600083015261301581612fd9565b9050919050565b600080fd5b600080fd5b6000808585111561303a5761303961301c565b5b8386111561304b5761304a613021565b5b6001850283019150848603905094509492505050565b600082905092915050565b60007fffffffffffffffffffffffffffffffffffffffff00000000000000000000000082169050919050565b600082821b905092915050565b60006130b18383613061565b826130bc813561306c565b925060148210156130fc576130f77fffffffffffffffffffffffffffffffffffffffff00000000000000000000000083601403600802613098565b831692505b50509291505056fea26469706673582212202bfdd193449174c89d0b2825aa79378aa4595a7ec82a1ab789046ee83e98630d64736f6c634300081c0033",
  "linkReferences": {},
  "deployedLinkReferences": {}
}