{
  "_format": "hh-sol-artifact-1",
  "contractName": "FlightDelayInsurance",
  "sourceName": "contracts/FlightDelayInsurance.sol",
  "abi": [
    {
      "inputs": [],
      "stateMutability": "nonpayable",
      "type": "constructor"
    },
    {
      "inputs": [
        {
          "internalType": "address",
          "name": "owner",
          "type": "address"
        }
      ],
      "name": "OwnableInvalidOwner",
      "type": "error"
    },
    {
      "inputs": [
        {
          "internalType": "address",
          "name": "account",
          "type": "address"
        }
      ],
      "name": "OwnableUnauthorizedAccount",
      "type": "error"
    },
    {
      "inputs": [],
      "name": "ReentrancyGuardReentrantCall",
      "type": "error"
    },
    {
      "anonymous": false,
      "inputs": [
        {
          "indexed": true,
          "internalType": "bytes32",
          "name": "id",
          "type": "bytes32"
        }
      ],
      "name": "ChainlinkCancelled",
      "type": "event"
    },
    {
      "anonymous": false,
      "inputs": [
        {
          "indexed": true,
          "internalType": "bytes32",
          "name": "id",
          "type": "bytes32"
        }
      ],
      "name": "ChainlinkFulfilled",
      "type": "event"
    },
    {
      "anonymous": false,
      "inputs": [
        {
          "indexed": true,
          "internalType": "bytes32",
          "name": "id",
          "type": "bytes32"
        }
      ],
      "name": "ChainlinkRequested",
      "type": "event"
    },
    {
      "anonymous": false,
      "inputs": [
        {
          "indexed": false,
          "internalType": "bytes32",
          "name": "policyId",
          "type": "bytes32"
        },
        {
          "indexed": false,
          "internalType": "string",
          "name": "flightIata",
          "type": "string"
        },
        {
          "indexed": false,
          "internalType": "enum FlightDelayInsurance.FlightStatus",
          "name": "status",
          "type": "uint8"
        },
        {
          "indexed": false,
          "internalType": "uint256",
          "name": "delayMinutes",
          "type": "uint256"
        }
      ],
      "name": "FlightStatusChecked",
      "type": "event"
    },
    {
      "anonymous": false,
      "inputs": [
        {
          "indexed": true,
          "internalType": "address",
          "name": "admin",
          "type": "address"
        },
        {
          "indexed": false,
          "internalType": "uint256",
          "name": "amount",
          "type": "uint256"
        },
        {
          "indexed": false,
          "internalType": "uint256",
          "name": "timestamp",
          "type": "uint256"
        }
      ],
      "name": "FundsWithdrawn",
      "type": "event"
    },
    {
      "anonymous": false,
      "inputs": [
        {
          "indexed": true,
          "internalType": "address",
          "name": "depositor",
          "type": "address"
        },
        {
          "indexed": false,
          "internalType": "uint256",
          "name": "amount",
          "type": "uint256"
        }
      ],
      "name": "InitialDeposit",
      "type": "event"
    },
    {
      "anonymous": false,
      "inputs": [
        {
          "indexed": true,
          "internalType": "address",
          "name": "previousOwner",
          "type": "address"
        },
        {
          "indexed": true,
          "internalType": "address",
          "name": "newOwner",
          "type": "address"
        }
      ],
      "name": "OwnershipTransferred",
      "type": "event"
    },
    {
      "anonymous": false,
      "inputs": [
        {
          "indexed": false,
          "internalType": "bytes32",
          "name": "policyId",
          "type": "bytes32"
        },
        {
          "indexed": false,
          "internalType": "address",
          "name": "policyholder",
          "type": "address"
        },
        {
          "indexed": false,
          "internalType": "uint256",
          "name": "payoutAmount",
          "type": "uint256"
        }
      ],
      "name": "PolicyClaimed",
      "type": "event"
    },
    {
      "anonymous": false,
      "inputs": [
        {
          "indexed": false,
          "internalType": "bytes32",
          "name": "policyId",
          "type": "bytes32"
        },
        {
          "indexed": false,
          "internalType": "address",
          "name": "policyholder",
          "type": "address"
        },
        {
          "indexed": false,
          "internalType": "string",
          "name": "flightIata",
          "type": "string"
        },
        {
          "indexed": false,
          "internalType": "uint256",
          "name": "premium",
          "type": "uint256"
        },
        {
          "indexed": false,
          "internalType": "uint256",
          "name": "protocolFee",
          "type": "uint256"
        }
      ],
      "name": "PolicyCreated",
      "type": "event"
    },
    {
      "anonymous": false,
      "inputs": [
        {
          "indexed": true,
          "internalType": "address",
          "name": "user",
          "type": "address"
        },
        {
          "indexed": false,
          "internalType": "bytes32",
          "name": "policyId",
          "type": "bytes32"
        },
        {
          "indexed": false,
          "internalType": "string",
          "name": "flightNumber",
          "type": "string"
        }
      ],
      "name": "PolicyPurchased",
      "type": "event"
    },
    {
      "inputs": [],
      "name": "ADMIN_WALLET",
      "outputs": [
        {
          "internalType": "address",
          "name": "",
          "type": "address"
        }
      ],
      "stateMutability": "view",
      "type": "function"
    },
    {
      "inputs": [],
      "name": "MIN_DELAY_MINUTES",
      "outputs": [
        {
          "internalType": "uint256",
          "name": "",
          "type": "uint256"
        }
      ],
      "stateMutability": "view",
      "type": "function"
    },
    {
      "inputs": [],
      "name": "PAYOUT_PERCENTAGE",
      "outputs": [
        {
          "internalType": "uint256",
          "name": "",
          "type": "uint256"
        }
      ],
      "stateMutability": "view",
      "type": "function"
    },
    {
      "inputs": [],
      "name": "PROTOCOL_FEE_PERCENTAGE",
      "outputs": [
        {
          "internalType": "uint256",
          "name": "",
          "type": "uint256"
        }
      ],
      "stateMutability": "view",
      "type": "function"
    },
    {
      "inputs": [
        {
          "internalType": "uint256",
          "name": "",
          "type": "uint256"
        }
      ],
      "name": "allPolicyIds",
      "outputs": [
        {
          "internalType": "bytes32",
          "name": "",
          "type": "bytes32"
        }
      ],
      "stateMutability": "view",
      "type": "function"
    },
    {
      "inputs": [
        {
          "internalType": "string",
          "name": "flightNumber",
          "type": "string"
        },
        {
          "internalType": "uint256",
          "name": "departureDate",
          "type": "uint256"
        },
        {
          "internalType": "uint256",
          "name": "",
          "type": "uint256"
        },
        {
          "internalType": "string",
          "name": "",
          "type": "string"
        }
      ],
      "name": "buyInsurance",
      "outputs": [],
      "stateMutability": "payable",
      "type": "function"
    },
    {
      "inputs": [],
      "name": "checkInterval",
      "outputs": [
        {
          "internalType": "uint256",
          "name": "",
          "type": "uint256"
        }
      ],
      "stateMutability": "view",
      "type": "function"
    },
    {
      "inputs": [
        {
          "internalType": "bytes",
          "name": "",
          "type": "bytes"
        }
      ],
      "name": "checkUpkeep",
      "outputs": [
        {
          "internalType": "bool",
          "name": "upkeepNeeded",
          "type": "bool"
        },
        {
          "internalType": "bytes",
          "name": "performData",
          "type": "bytes"
        }
      ],
      "stateMutability": "view",
      "type": "function"
    },
    {
      "inputs": [
        {
          "internalType": "bytes32",
          "name": "policyId",
          "type": "bytes32"
        }
      ],
      "name": "forceRecheck",
      "outputs": [],
      "stateMutability": "nonpayable",
      "type": "function"
    },
    {
      "inputs": [
        {
          "internalType": "bytes32",
          "name": "_requestId",
          "type": "bytes32"
        },
        {
          "internalType": "uint256",
          "name": "_delayMinutes",
          "type": "uint256"
        }
      ],
      "name": "fulfill",
      "outputs": [],
      "stateMutability": "nonpayable",
      "type": "function"
    },
    {
      "inputs": [],
      "name": "getAvailableRevenue",
      "outputs": [
        {
          "internalType": "uint256",
          "name": "",
          "type": "uint256"
        }
      ],
      "stateMutability": "view",
      "type": "function"
    },
    {
      "inputs": [
        {
          "internalType": "address",
          "name": "_owner",
          "type": "address"
        }
      ],
      "name": "getPoliciesByOwner",
      "outputs": [
        {
          "internalType": "bytes32[]",
          "name": "",
          "type": "bytes32[]"
        }
      ],
      "stateMutability": "view",
      "type": "function"
    },
    {
      "inputs": [
        {
          "internalType": "bytes32",
          "name": "policyId",
          "type": "bytes32"
        }
      ],
      "name": "getPolicyDetails",
      "outputs": [
        {
          "internalType": "address",
          "name": "policyholder",
          "type": "address"
        },
        {
          "internalType": "string",
          "name": "flightIata",
          "type": "string"
        },
        {
          "internalType": "uint256",
          "name": "premium",
          "type": "uint256"
        },
        {
          "internalType": "uint256",
          "name": "flightDate",
          "type": "uint256"
        },
        {
          "internalType": "uint256",
          "name": "lastChecked",
          "type": "uint256"
        },
        {
          "internalType": "uint256",
          "name": "delayMinutes",
          "type": "uint256"
        },
        {
          "internalType": "enum FlightDelayInsurance.FlightStatus",
          "name": "status",
          "type": "uint8"
        }
      ],
      "stateMutability": "view",
      "type": "function"
    },
    {
      "inputs": [
        {
          "internalType": "address",
          "name": "user",
          "type": "address"
        },
        {
          "internalType": "string",
          "name": "flightIata",
          "type": "string"
        },
        {
          "internalType": "uint256",
          "name": "flightDate",
          "type": "uint256"
        }
      ],
      "name": "hasPolicyForFlight",
      "outputs": [
        {
          "internalType": "bool",
          "name": "",
          "type": "bool"
        }
      ],
      "stateMutability": "view",
      "type": "function"
    },
    {
      "inputs": [],
      "name": "lastCheckTimestamp",
      "outputs": [
        {
          "internalType": "uint256",
          "name": "",
          "type": "uint256"
        }
      ],
      "stateMutability": "view",
      "type": "function"
    },
    {
      "inputs": [],
      "name": "lastCheckedIndex",
      "outputs": [
        {
          "internalType": "uint256",
          "name": "",
          "type": "uint256"
        }
      ],
      "stateMutability": "view",
      "type": "function"
    },
    {
      "inputs": [],
      "name": "owner",
      "outputs": [
        {
          "internalType": "address",
          "name": "",
          "type": "address"
        }
      ],
      "stateMutability": "view",
      "type": "function"
    },
    {
      "inputs": [
        {
          "internalType": "bytes",
          "name": "performData",
          "type": "bytes"
        }
      ],
      "name": "performUpkeep",
      "outputs": [],
      "stateMutability": "nonpayable",
      "type": "function"
    },
    {
      "inputs": [
        {
          "internalType": "bytes32",
          "name": "",
          "type": "bytes32"
        }
      ],
      "name": "policies",
      "outputs": [
        {
          "internalType": "address",
          "name": "policyholder",
          "type": "address"
        },
        {
          "internalType": "string",
          "name": "flightIata",
          "type": "string"
        },
        {
          "internalType": "uint256",
          "name": "premium",
          "type": "uint256"
        },
        {
          "internalType": "uint256",
          "name": "purchaseDate",
          "type": "uint256"
        },
        {
          "internalType": "uint256",
          "name": "flightDate",
          "type": "uint256"
        },
        {
          "internalType": "uint256",
          "name": "lastCheckedTimestamp",
          "type": "uint256"
        },
        {
          "internalType": "uint256",
          "name": "delayMinutes",
          "type": "uint256"
        },
        {
          "internalType": "enum FlightDelayInsurance.FlightStatus",
          "name": "status",
          "type": "uint8"
        }
      ],
      "stateMutability": "view",
      "type": "function"
    },
    {
      "inputs": [
        {
          "internalType": "string",
          "name": "flightIata",
          "type": "string"
        },
        {
          "internalType": "uint256",
          "name": "flightDate",
          "type": "uint256"
        }
      ],
      "name": "purchasePolicy",
      "outputs": [],
      "stateMutability": "payable",
      "type": "function"
    },
    {
      "inputs": [],
      "name": "recheckInterval",
      "outputs": [
        {
          "internalType": "uint256",
          "name": "",
          "type": "uint256"
        }
      ],
      "stateMutability": "view",
      "type": "function"
    },
    {
      "inputs": [],
      "name": "renounceOwnership",
      "outputs": [],
      "stateMutability": "nonpayable",
      "type": "function"
    },
    {
      "inputs": [
        {
          "internalType": "bytes32",
          "name": "policyId",
          "type": "bytes32"
        }
      ],
      "name": "requestFlightData",
      "outputs": [],
      "stateMutability": "nonpayable",
      "type": "function"
    },
    {
      "inputs": [
        {
          "internalType": "uint256",
          "name": "newInterval",
          "type": "uint256"
        }
      ],
      "name": "setCheckInterval",
      "outputs": [],
      "stateMutability": "nonpayable",
      "type": "function"
    },
    {
      "inputs": [
        {
          "internalType": "uint256",
          "name": "newInterval",
          "type": "uint256"
        }
      ],
      "name": "setRecheckInterval",
      "outputs": [],
      "stateMutability": "nonpayable",
      "type": "function"
    },
    {
      "inputs": [],
      "name": "totalClaimedFunds",
      "outputs": [
        {
          "internalType": "uint256",
          "name": "",
          "type": "uint256"
        }
      ],
      "stateMutability": "view",
      "type": "function"
    },
    {
      "inputs": [],
      "name": "totalPolicies",
      "outputs": [
        {
          "internalType": "uint256",
          "name": "",
          "type": "uint256"
        }
      ],
      "stateMutability": "view",
      "type": "function"
    },
    {
      "inputs": [],
      "name": "totalPoliciesSold",
      "outputs": [
        {
          "internalType": "uint256",
          "name": "",
          "type": "uint256"
        }
      ],
      "stateMutability": "view",
      "type": "function"
    },
    {
      "inputs": [],
      "name": "totalPoolFunds",
      "outputs": [
        {
          "internalType": "uint256",
          "name": "",
          "type": "uint256"
        }
      ],
      "stateMutability": "view",
      "type": "function"
    },
    {
      "inputs": [],
      "name": "totalRevenueFunds",
      "outputs": [
        {
          "internalType": "uint256",
          "name": "",
          "type": "uint256"
        }
      ],
      "stateMutability": "view",
      "type": "function"
    },
    {
      "inputs": [
        {
          "internalType": "address",
          "name": "newOwner",
          "type": "address"
        }
      ],
      "name": "transferOwnership",
      "outputs": [],
      "stateMutability": "nonpayable",
      "type": "function"
    },
    {
      "inputs": [
        {
          "internalType": "bytes32",
          "name": "policyId",
          "type": "bytes32"
        },
        {
          "internalType": "uint256",
          "name": "newFlightDate",
          "type": "uint256"
        }
      ],
      "name": "updateFlightDateForTesting",
      "outputs": [],
      "stateMutability": "nonpayable",
      "type": "function"
    },
    {
      "inputs": [
        {
          "internalType": "address",
          "name": "",
          "type": "address"
        },
        {
          "internalType": "string",
          "name": "",
          "type": "string"
        },
        {
          "internalType": "uint256",
          "name": "",
          "type": "uint256"
        }
      ],
      "name": "userFlightPolicies",
      "outputs": [
        {
          "internalType": "bool",
          "name": "",
          "type": "bool"
        }
      ],
      "stateMutability": "view",
      "type": "function"
    },
    {
      "inputs": [
        {
          "internalType": "address",
          "name": "",
          "type": "address"
        },
        {
          "internalType": "uint256",
          "name": "",
          "type": "uint256"
        }
      ],
      "name": "userPolicies",
      "outputs": [
        {
          "internalType": "bytes32",
          "name": "",
          "type": "bytes32"
        }
      ],
      "stateMutability": "view",
      "type": "function"
    },
    {
      "inputs": [
        {
          "internalType": "uint256",
          "name": "amount",
          "type": "uint256"
        }
      ],
      "name": "withdrawExcessFunds",
      "outputs": [],
      "stateMutability": "nonpayable",
      "type": "function"
    },
    {
      "stateMutability": "payable",
      "type": "receive"
    }
  ],
  "bytecode": "0x60a06040526001600455610708601255610e1060135534801561002157600080fd5b5033600073ffffffffffffffffffffffffffffffffffffffff168173ffffffffffffffffffffffffffffffffffffffff16036100955760006040517f1e4fbdf700000000000000000000000000000000000000000000000000000000815260040161008c91906103dc565b60405180910390fd5b6100a48161029160201b60201c565b50600160078190555073f51ee95f3cea7d1f474fe678720d3e126fed364b73ffffffffffffffffffffffffffffffffffffffff1660808173ffffffffffffffffffffffffffffffffffffffff1681525050610118730fd9e8d3af1aaee056eb9e802c3a762a667b190461035760201b60201c565b73d36c6b1777c7f3db1b3201bdd87081a9045b7b46601560006101000a81548173ffffffffffffffffffffffffffffffffffffffff021916908373ffffffffffffffffffffffffffffffffffffffff1602179055506040518060400160405280602081526020017f61383335366634383536396334333465616134616335666362346462356363308152506101ac9061043e565b601681905550662386f26fc10000601781905550426014819055506000670de0b6b3a7640000905080600f60008282546101e691906104de565b925050819055503373ffffffffffffffffffffffffffffffffffffffff167f1aa88527987680f71e6ace8f3d2ab4871db1862850458125715e5175f088c609826040516102339190610521565b60405180910390a23373ffffffffffffffffffffffffffffffffffffffff167ffbc3a599b784fe88772fc5abcc07223f64ca0b13acc341f4fb1e46bef0510eb4824260405161028392919061053c565b60405180910390a250610565565b6000600660009054906101000a900473ffffffffffffffffffffffffffffffffffffffff16905081600660006101000a81548173ffffffffffffffffffffffffffffffffffffffff021916908373ffffffffffffffffffffffffffffffffffffffff1602179055508173ffffffffffffffffffffffffffffffffffffffff168173ffffffffffffffffffffffffffffffffffffffff167f8be0079c531659141344cd1fd0a4f28419497f9722a3daafe3b4186f6b6457e060405160405180910390a35050565b80600260006101000a81548173ffffffffffffffffffffffffffffffffffffffff021916908373ffffffffffffffffffffffffffffffffffffffff16021790555050565b600073ffffffffffffffffffffffffffffffffffffffff82169050919050565b60006103c68261039b565b9050919050565b6103d6816103bb565b82525050565b60006020820190506103f160008301846103cd565b92915050565b600081519050919050565b6000819050602082019050919050565b6000819050919050565b60006104288251610412565b80915050919050565b600082821b905092915050565b6000610449826103f7565b8261045384610402565b905061045e8161041c565b9250602082101561049e576104997fffffffffffffffffffffffffffffffffffffffffffffffffffffffffffffffff83602003600802610431565b831692505b5050919050565b6000819050919050565b7f4e487b7100000000000000000000000000000000000000000000000000000000600052601160045260246000fd5b60006104e9826104a5565b91506104f4836104a5565b925082820190508082111561050c5761050b6104af565b5b92915050565b61051b816104a5565b82525050565b60006020820190506105366000830184610512565b92915050565b60006040820190506105516000830185610512565b61055e6020830184610512565b9392505050565b60805161556b610595600039600081816117fe01528181611ad401528181611bc20152611c8c015261556b6000f3fe6080604052600436106102085760003560e01c806383bab57011610118578063ddbfd8ef116100a0578063f059d78e1161006f578063f059d78e14610794578063f1139d0f146107bf578063f2fde38b146107ea578063f3cbe29314610813578063fdfbfd3d1461083c57610227565b8063ddbfd8ef146106de578063e4d7d6dc14610722578063e8646f541461074d578063ef9606d91461076957610227565b8063acd88349116100e7578063acd88349146105f9578063b52d35bc14610624578063c2cd4a071461064d578063cb79925814610678578063d1a5ea56146106b557610227565b806383bab5701461053b57806387afb99b146105665780638da5cb5b146105a35780638e83f1d2146105ce57610227565b80634357855e1161019b5780636e04ff0d1161016a5780636e04ff0d14610462578063704d0285146104a0578063715018a6146104dd57806378fe4e87146104f4578063838c29b61461051057610227565b80634357855e146103aa5780634585e33b146103d35780634e5a8417146103fc5780636551d4e51461043957610227565b806322f6c121116101d757806322f6c121146102d45780633d36adc5146102ff57806340fac30c1461033c5780634210dbc61461037f57610227565b80630c3c98fb1461022c5780630d2f2e861461025557806315a604f4146102805780631bb877c4146102ab57610227565b366102275734600f600082825461021f91906134f4565b925050819055005b600080fd5b34801561023857600080fd5b50610253600480360381019061024e9190613572565b610867565b005b34801561026157600080fd5b5061026a610d48565b60405161027791906135ae565b60405180910390f35b34801561028c57600080fd5b50610295610d52565b6040516102a291906135ae565b60405180910390f35b3480156102b757600080fd5b506102d260048036038101906102cd91906135f5565b610d57565b005b3480156102e057600080fd5b506102e9610e17565b6040516102f691906135ae565b60405180910390f35b34801561030b57600080fd5b5061032660048036038101906103219190613693565b610e1d565b60405161033391906136e2565b60405180910390f35b34801561034857600080fd5b50610363600480360381019061035e9190613572565b610e4e565b6040516103769796959493929190613813565b60405180910390f35b34801561038b57600080fd5b50610394610f65565b6040516103a191906135ae565b60405180910390f35b3480156103b657600080fd5b506103d160048036038101906103cc91906135f5565b610f6b565b005b3480156103df57600080fd5b506103fa60048036038101906103f591906138ee565b6111fe565b005b34801561040857600080fd5b50610423600480360381019061041e9190613a6b565b61135b565b6040516104309190613af5565b60405180910390f35b34801561044557600080fd5b50610460600480360381019061045b9190613b10565b6113e0565b005b34801561046e57600080fd5b50610489600480360381019061048491906138ee565b611436565b604051610497929190613b92565b60405180910390f35b3480156104ac57600080fd5b506104c760048036038101906104c29190613a6b565b6115d0565b6040516104d49190613af5565b60405180910390f35b3480156104e957600080fd5b506104f2611622565b005b61050e60048036038101906105099190613bc2565b611636565b005b34801561051c57600080fd5b50610525611656565b60405161053291906135ae565b60405180910390f35b34801561054757600080fd5b5061055061165c565b60405161055d91906135ae565b60405180910390f35b34801561057257600080fd5b5061058d60048036038101906105889190613b10565b611662565b60405161059a91906136e2565b60405180910390f35b3480156105af57600080fd5b506105b8611686565b6040516105c59190613c61565b60405180910390f35b3480156105da57600080fd5b506105e36116b0565b6040516105f091906135ae565b60405180910390f35b34801561060557600080fd5b5061060e6116b6565b60405161061b91906135ae565b60405180910390f35b34801561063057600080fd5b5061064b60048036038101906106469190613572565b6116bc565b005b34801561065957600080fd5b506106626117fc565b60405161066f9190613c61565b60405180910390f35b34801561068457600080fd5b5061069f600480360381019061069a9190613c7c565b611820565b6040516106ac9190613d67565b60405180910390f35b3480156106c157600080fd5b506106dc60048036038101906106d79190613b10565b6118b7565b005b3480156106ea57600080fd5b5061070560048036038101906107009190613572565b61190e565b604051610719989796959493929190613d89565b60405180910390f35b34801561072e57600080fd5b50610737611a0b565b60405161074491906135ae565b60405180910390f35b61076760048036038101906107629190613e0e565b611a10565b005b34801561077557600080fd5b5061077e611a2e565b60405161078b91906135ae565b60405180910390f35b3480156107a057600080fd5b506107a9611a34565b6040516107b691906135ae565b60405180910390f35b3480156107cb57600080fd5b506107d4611a3e565b6040516107e191906135ae565b60405180910390f35b3480156107f657600080fd5b50610811600480360381019061080c9190613c7c565b611a44565b005b34801561081f57600080fd5b5061083a60048036038101906108359190613b10565b611aca565b005b34801561084857600080fd5b50610851611d06565b60405161085e91906135ae565b60405180910390f35b6000600860008381526020019081526020016000209050600073ffffffffffffffffffffffffffffffffffffffff168160000160009054906101000a900473ffffffffffffffffffffffffffffffffffffffff1673ffffffffffffffffffffffffffffffffffffffff1603610911576040517f08c379a000000000000000000000000000000000000000000000000000000000815260040161090890613eb6565b60405180910390fd5b8060040154421015610958576040517f08c379a000000000000000000000000000000000000000000000000000000000815260040161094f90613f22565b60405180910390fd5b60038081111561096b5761096a61379c565b5b8160070160009054906101000a900460ff16600381111561098f5761098e61379c565b5b141580156109bd57506000816005015414806109bc575060125481600501546109b891906134f4565b4210155b5b6109fc576040517f08c379a00000000000000000000000000000000000000000000000000000000081526004016109f390613fb4565b60405180910390fd5b4281600501819055506000610a1b60165430634357855e60e01b611d0c565b90506000610a2c8360040154611d3d565b905060008360010182604051602001610a469291906141ec565b6040516020818303038152906040529050610ad66040518060400160405280600681526020017f6d6574686f6400000000000000000000000000000000000000000000000000008152506040518060400160405280600381526020017f474554000000000000000000000000000000000000000000000000000000000081525085611e179092919063ffffffff16565b610b206040518060400160405280600381526020017f75726c00000000000000000000000000000000000000000000000000000000008152508285611e179092919063ffffffff16565b610b796040518060400160405280600781526020017f68656164657273000000000000000000000000000000000000000000000000008152506040518060200160405280600081525085611e179092919063ffffffff16565b610bd26040518060400160405280600481526020017f626f6479000000000000000000000000000000000000000000000000000000008152506040518060200160405280600081525085611e179092919063ffffffff16565b610c516040518060400160405280600481526020017f70617468000000000000000000000000000000000000000000000000000000008152506040518060400160405280600d81526020017f64656c61795f6d696e757465730000000000000000000000000000000000000081525085611e179092919063ffffffff16565b610c9c6040518060400160405280600a81526020017f6d756c7469706c69657200000000000000000000000000000000000000000000815250600185611e4a9092919063ffffffff16565b610cf56040518060400160405280600781526020017f636f6e74616374000000000000000000000000000000000000000000000000008152506040518060200160405280600081525085611e179092919063ffffffff16565b6000610d26601560009054906101000a900473ffffffffffffffffffffffffffffffffffffffff1685601754611e7d565b9050856009600083815260200190815260200160002081905550505050505050565b6000600f54905090565b607881565b610d5f611f49565b6000600860008481526020019081526020016000209050600073ffffffffffffffffffffffffffffffffffffffff168160000160009054906101000a900473ffffffffffffffffffffffffffffffffffffffff1673ffffffffffffffffffffffffffffffffffffffff1603610e09576040517f08c379a0000000000000000000000000000000000000000000000000000000008152600401610e0090613eb6565b60405180910390fd5b818160040181905550505050565b60115481565b600a6020528160005260406000208181548110610e3957600080fd5b90600052602060002001600091509150505481565b60006060600080600080600080600860008a815260200190815260200160002090508060000160009054906101000a900473ffffffffffffffffffffffffffffffffffffffff168160010182600201548360040154846005015485600601548660070160009054906101000a900460ff16858054610ecb906140a6565b80601f0160208091040260200160405190810160405280929190818152602001828054610ef7906140a6565b8015610f445780601f10610f1957610100808354040283529160200191610f44565b820191906000526020600020905b815481529060010190602001808311610f2757829003601f168201915b50505050509550975097509750975097509750975050919395979092949650565b60125481565b816005600082815260200190815260200160002060009054906101000a900473ffffffffffffffffffffffffffffffffffffffff1673ffffffffffffffffffffffffffffffffffffffff163373ffffffffffffffffffffffffffffffffffffffff161461100d576040517f08c379a000000000000000000000000000000000000000000000000000000000815260040161100490614298565b60405180910390fd5b6005600082815260200190815260200160002060006101000a81549073ffffffffffffffffffffffffffffffffffffffff0219169055807f7cc135e0cebb02c3480ae5d74d377283180a2601f8f644edf7987b009316c63a60405160405180910390a26000600960008581526020019081526020016000205490506000801b81036110cd576040517f08c379a00000000000000000000000000000000000000000000000000000000081526004016110c490614304565b60405180910390fd5b6000600860008381526020019081526020016000209050838160060181905550607884106111715760028160070160006101000a81548160ff0219169083600381111561111d5761111c61379c565b5b02179055507f8f83a66be1cf452c7a5b0e8ce1b41cc37e1074ab39cf2b1fb786fdaf84ff3d2e828260010160028760405161115b94939291906143a8565b60405180910390a161116c82611fd0565b6111e0565b60018160070160006101000a81548160ff021916908360038111156111995761119861379c565b5b02179055507f8f83a66be1cf452c7a5b0e8ce1b41cc37e1074ab39cf2b1fb786fdaf84ff3d2e82826001016001876040516111d794939291906143a8565b60405180910390a15b60096000868152602001908152602001600020600090555050505050565b600080838381019061121091906144b7565b9150915060005b825181101561134657600083828151811061123557611234614513565b5b602002602001015190506000600860008381526020019081526020016000209050600073ffffffffffffffffffffffffffffffffffffffff168160000160009054906101000a900473ffffffffffffffffffffffffffffffffffffffff1673ffffffffffffffffffffffffffffffffffffffff16141580156112bb575080600401544210155b80156112fc57506003808111156112d5576112d461379c565b5b8160070160009054906101000a900460ff1660038111156112f9576112f861379c565b5b14155b801561132857506000816005015414806113275750601254816005015461132391906134f4565b4210155b5b156113375761133682610867565b5b50508080600101915050611217565b5080600d819055504260148190555050505050565b6000600b60008573ffffffffffffffffffffffffffffffffffffffff1673ffffffffffffffffffffffffffffffffffffffff168152602001908152602001600020836040516113aa9190614542565b9081526020016040518091039020600083815260200190815260200160002060009054906101000a900460ff1690509392505050565b6113e8611f49565b603c81101561142c576040517f08c379a0000000000000000000000000000000000000000000000000000000008152600401611423906145a5565b60405180910390fd5b8060138190555050565b6000606060006013546014544261144d91906145c5565b10159050600080600c805490501190508180156114675750805b93508361148b576000604051806020016040528060008152509350935050506115c9565b6000600a90506000600c80549050600d546114a69190614628565b9050600082826114b691906134f4565b9050600c805490508111156114ce57600c8054905090505b600082826114dc91906145c5565b67ffffffffffffffff8111156114f5576114f4613940565b5b6040519080825280602002602001820160405280156115235781602001602082028036833780820191505090505b50905060008390505b8281101561158a57600c818154811061154857611547614513565b5b906000526020600020015482858361156091906145c5565b8151811061157157611570614513565b5b602002602001018181525050808060010191505061152c565b508781600c805490508461159e9190614628565b6040516020016115af929190614659565b604051602081830303815290604052975097505050505050505b9250929050565b600b60205282600052604060002082805160208101820180518482526020830160208501208183528095505050505050602052806000526040600020600092509250509054906101000a900460ff1681565b61162a611f49565b611634600061224c565b565b61163e612312565b6116488484612358565b611650612823565b50505050565b60135481565b60105481565b600c818154811061167257600080fd5b906000526020600020016000915090505481565b6000600660009054906101000a900473ffffffffffffffffffffffffffffffffffffffff16905090565b60145481565b600d5481565b6116c4611f49565b6000600860008381526020019081526020016000209050600073ffffffffffffffffffffffffffffffffffffffff168160000160009054906101000a900473ffffffffffffffffffffffffffffffffffffffff1673ffffffffffffffffffffffffffffffffffffffff160361176e576040517f08c379a000000000000000000000000000000000000000000000000000000000815260040161176590613eb6565b60405180910390fd5b6003808111156117815761178061379c565b5b8160070160009054906101000a900460ff1660038111156117a5576117a461379c565b5b036117e5576040517f08c379a00000000000000000000000000000000000000000000000000000000081526004016117dc906146d5565b60405180910390fd5b600081600501819055506117f882610867565b5050565b7f000000000000000000000000000000000000000000000000000000000000000081565b6060600a60008373ffffffffffffffffffffffffffffffffffffffff1673ffffffffffffffffffffffffffffffffffffffff1681526020019081526020016000208054806020026020016040519081016040528092919081815260200182805480156118ab57602002820191906000526020600020905b815481526020019060010190808311611897575b50505050509050919050565b6118bf611f49565b61012c811015611904576040517f08c379a00000000000000000000000000000000000000000000000000000000081526004016118fb906145a5565b60405180910390fd5b8060128190555050565b60086020528060005260406000206000915090508060000160009054906101000a900473ffffffffffffffffffffffffffffffffffffffff1690806001018054611957906140a6565b80601f0160208091040260200160405190810160405280929190818152602001828054611983906140a6565b80156119d05780601f106119a5576101008083540402835291602001916119d0565b820191906000526020600020905b8154815290600101906020018083116119b357829003601f168201915b5050505050908060020154908060030154908060040154908060050154908060060154908060070160009054906101000a900460ff16905088565b601481565b611a18612312565b611a228282612358565b611a2a612823565b5050565b61012c81565b6000601154905090565b600e5481565b611a4c611f49565b600073ffffffffffffffffffffffffffffffffffffffff168173ffffffffffffffffffffffffffffffffffffffff1603611abe5760006040517f1e4fbdf7000000000000000000000000000000000000000000000000000000008152600401611ab59190613c61565b60405180910390fd5b611ac78161224c565b50565b611ad2612312565b7f000000000000000000000000000000000000000000000000000000000000000073ffffffffffffffffffffffffffffffffffffffff163373ffffffffffffffffffffffffffffffffffffffff1614611b60576040517f08c379a0000000000000000000000000000000000000000000000000000000008152600401611b5790614741565b60405180910390fd5b600f54811115611ba5576040517f08c379a0000000000000000000000000000000000000000000000000000000008152600401611b9c906147d3565b60405180910390fd5b80600f6000828254611bb791906145c5565b9250508190555060007f000000000000000000000000000000000000000000000000000000000000000073ffffffffffffffffffffffffffffffffffffffff1682604051611c0490614824565b60006040518083038185875af1925050503d8060008114611c41576040519150601f19603f3d011682016040523d82523d6000602084013e611c46565b606091505b5050905080611c8a576040517f08c379a0000000000000000000000000000000000000000000000000000000008152600401611c8190614885565b60405180910390fd5b7f000000000000000000000000000000000000000000000000000000000000000073ffffffffffffffffffffffffffffffffffffffff167ffbc3a599b784fe88772fc5abcc07223f64ca0b13acc341f4fb1e46bef0510eb48342604051611cf29291906148a5565b60405180910390a250611d03612823565b50565b600f5481565b611d14613434565b611d1c613434565b611d338585858461282d909392919063ffffffff16565b9150509392505050565b60606000806000611d4d856128dd565b9250925092506000611d5e84612a7b565b90506000600a8410611d7857611d7384612a7b565b611da1565b611d8184612a7b565b604051602001611d91919061491a565b6040516020818303038152906040525b90506000600a8410611dbb57611db684612a7b565b611de4565b611dc484612a7b565b604051602001611dd4919061491a565b6040516020818303038152906040525b9050828282604051602001611dfb93929190614988565b6040516020818303038152906040529650505050505050919050565b611e2e828460800151612bdb90919063ffffffff16565b611e45818460800151612bdb90919063ffffffff16565b505050565b611e61828460800151612bdb90919063ffffffff16565b611e78818460800151612c0090919063ffffffff16565b505050565b6000806004549050600181611e9291906134f4565b6004819055506000634042994660e01b60008087600001513089604001518760018c6080015160000151604051602401611ed3989796959493929190614a0a565b604051602081830303815290604052907bffffffffffffffffffffffffffffffffffffffffffffffffffffffff19166020820180517bffffffffffffffffffffffffffffffffffffffffffffffffffffffff83818316178352505050509050611f3e86838684612cad565b925050509392505050565b611f51612e42565b73ffffffffffffffffffffffffffffffffffffffff16611f6f611686565b73ffffffffffffffffffffffffffffffffffffffff1614611fce57611f92612e42565b6040517f118cdaa7000000000000000000000000000000000000000000000000000000008152600401611fc59190613c61565b60405180910390fd5b565b600060086000838152602001908152602001600020905060026003811115611ffb57611ffa61379c565b5b8160070160009054906101000a900460ff16600381111561201f5761201e61379c565b5b1461205f576040517f08c379a000000000000000000000000000000000000000000000000000000000815260040161205690614adb565b60405180910390fd5b6000606461012c83600201546120759190614afb565b61207f9190614b3d565b905060038260070160006101000a81548160ff021916908360038111156120a9576120a861379c565b5b021790555060006064601484600201546120c39190614afb565b6120cd9190614b3d565b905060008184600201546120e191906145c5565b905080600e60008282546120f591906145c5565b92505081905550826010600082825461210e91906134f4565b9250508190555060008460000160009054906101000a900473ffffffffffffffffffffffffffffffffffffffff1673ffffffffffffffffffffffffffffffffffffffff168460405161215f90614824565b60006040518083038185875af1925050503d806000811461219c576040519150601f19603f3d011682016040523d82523d6000602084013e6121a1565b606091505b50509050806121e5576040517f08c379a00000000000000000000000000000000000000000000000000000000081526004016121dc90614bba565b60405180910390fd5b7ffc2e5a4f14afb617147f5e5e83d18cf2c49c2e8d308425798d2c75b429ff555b868660000160009054906101000a900473ffffffffffffffffffffffffffffffffffffffff168660405161223c93929190614bda565b60405180910390a1505050505050565b6000600660009054906101000a900473ffffffffffffffffffffffffffffffffffffffff16905081600660006101000a81548173ffffffffffffffffffffffffffffffffffffffff021916908373ffffffffffffffffffffffffffffffffffffffff1602179055508173ffffffffffffffffffffffffffffffffffffffff168173ffffffffffffffffffffffffffffffffffffffff167f8be0079c531659141344cd1fd0a4f28419497f9722a3daafe3b4186f6b6457e060405160405180910390a35050565b60026007540361234e576040517f3ee5aeb500000000000000000000000000000000000000000000000000000000815260040160405180910390fd5b6002600781905550565b6000341161239b576040517f08c379a000000000000000000000000000000000000000000000000000000000815260040161239290614c5d565b60405180910390fd5b4281116123dd576040517f08c379a00000000000000000000000000000000000000000000000000000000081526004016123d490614cef565b60405180910390fd5b600b60003373ffffffffffffffffffffffffffffffffffffffff1673ffffffffffffffffffffffffffffffffffffffff1681526020019081526020016000208260405161242a9190614542565b9081526020016040518091039020600082815260200190815260200160002060009054906101000a900460ff1615612497576040517f08c379a000000000000000000000000000000000000000000000000000000000815260040161248e90614d81565b60405180910390fd5b6000338383426040516020016124b09493929190614e0a565b6040516020818303038152906040528051906020012090506001600b60003373ffffffffffffffffffffffffffffffffffffffff1673ffffffffffffffffffffffffffffffffffffffff168152602001908152602001600020846040516125179190614542565b9081526020016040518091039020600084815260200190815260200160002060006101000a81548160ff0219169083151502179055506000606460143461255e9190614afb565b6125689190614b3d565b90506000813461257891906145c5565b90506040518061010001604052803373ffffffffffffffffffffffffffffffffffffffff1681526020018681526020013481526020014281526020018581526020016000815260200160008152602001600060038111156125dc576125db61379c565b5b8152506008600085815260200190815260200160002060008201518160000160006101000a81548173ffffffffffffffffffffffffffffffffffffffff021916908373ffffffffffffffffffffffffffffffffffffffff160217905550602082015181600101908161264e9190614feb565b5060408201518160020155606082015181600301556080820151816004015560a0820151816005015560c0820151816006015560e08201518160070160006101000a81548160ff021916908360038111156126ac576126ab61379c565b5b0217905550905050600a60003373ffffffffffffffffffffffffffffffffffffffff1673ffffffffffffffffffffffffffffffffffffffff168152602001908152602001600020839080600181540180825580915050600190039060005260206000200160009091909190915055600c83908060018154018082558091505060019003906000526020600020016000909190919091505580600e600082825461275591906134f4565b9250508190555081600f600082825461276e91906134f4565b9250508190555060116000815480929190612788906150bd565b91905055503373ffffffffffffffffffffffffffffffffffffffff167f76f0e963ce27584989820c2a5670a31aba23a3d68276e11c78868f0e4f79ecf384876040516127d5929190615105565b60405180910390a27f5ac9517012abe610ce4ae10e132d74c23a1c23fb86b06dcb395374a5dad283de8333873486604051612814959493929190615135565b60405180910390a15050505050565b6001600781905550565b612835613434565b6128458560800151610100612e4a565b508385600001818152505082856020019073ffffffffffffffffffffffffffffffffffffffff16908173ffffffffffffffffffffffffffffffffffffffff16815250508185604001907bffffffffffffffffffffffffffffffffffffffffffffffffffffffff191690817bffffffffffffffffffffffffffffffffffffffffffffffffffffffff191681525050849050949350505050565b600080600080600062015180866128f49190614b3d565b905061016d816129049190614b3d565b6107b261291191906134f4565b9450600091505b61016d61292486612eb4565b92508261293191906134f4565b81106129655761016d8261294591906134f4565b8161295091906145c5565b9050848061295d906150bd565b955050612918565b6000604051806101800160405280601f8152602001601c8152602001601f8152602001601e8152602001601f8152602001601e8152602001601f8152602001601f8152602001601e8152602001601f8152602001601e8152602001601f81525090506129d086612f07565b156129f557601d816001600c81106129eb576129ea614513565b5b6020020181815250505b600094505b600c851015612a53578085600c8110612a1657612a15614513565b5b60200201518210612a53578085600c8110612a3457612a33614513565b5b602002015182612a4491906145c5565b915084806001019550506129fa565b600185612a6091906134f4565b9450600182612a6f91906134f4565b93505050509193909250565b606060008203612ac2576040518060400160405280600181526020017f30000000000000000000000000000000000000000000000000000000000000008152509050612bd6565b600082905060005b60008214612af4578080612add906150bd565b915050600a82612aed9190614b3d565b9150612aca565b60008167ffffffffffffffff811115612b1057612b0f613940565b5b6040519080825280601f01601f191660200182016040528015612b425781602001600182028036833780820191505090505b5090505b60008514612bcf57600182612b5b91906145c5565b9150600a85612b6a9190614628565b6030612b7691906134f4565b60f81b818381518110612b8c57612b8b614513565b5b60200101907effffffffffffffffffffffffffffffffffffffffffffffffffffffffffffff1916908160001a905350600a85612bc89190614b3d565b9450612b46565b8093505050505b919050565b612be88260038351612f50565b612bfb81836130d590919063ffffffff16565b505050565b7fffffffffffffffffffffffffffffffffffffffffffffffff0000000000000000811215612c3757612c3282826130f7565b612ca9565b67ffffffffffffffff811315612c5657612c51828261316e565b612ca8565b60008112612c6f57612c6a82600083612f50565b612ca7565b612ca6826001837fffffffffffffffffffffffffffffffffffffffffffffffffffffffffffffffff612ca19190615199565b612f50565b5b5b5b5050565b60003084604051602001612cc2929190615239565b604051602081830303815290604052805190602001209050846005600083815260200190815260200160002060006101000a81548173ffffffffffffffffffffffffffffffffffffffff021916908373ffffffffffffffffffffffffffffffffffffffff160217905550807fb5e6e01e79f91267dc17b4e6314d5d4d03593d2ceee0fbb452b750bd70ea5af960405160405180910390a2600260009054906101000a900473ffffffffffffffffffffffffffffffffffffffff1673ffffffffffffffffffffffffffffffffffffffff16634000aea08685856040518463ffffffff1660e01b8152600401612db893929190615265565b6020604051808303816000875af1158015612dd7573d6000803e3d6000fd5b505050506040513d601f19601f82011682018060405250810190612dfb91906152cf565b612e3a576040517f08c379a0000000000000000000000000000000000000000000000000000000008152600401612e319061536e565b60405180910390fd5b949350505050565b600033905090565b612e526134a1565b6000602083612e619190614628565b14612e8d57602082612e739190614628565b6020612e7f91906145c5565b82612e8a91906134f4565b91505b81836020018181525050604051808452600081528281016020016040525082905092915050565b60008180612ec19061538e565b92505061019082612ed29190614b3d565b606483612edf9190614b3d565b600484612eec9190614b3d565b612ef691906145c5565b612f0091906134f4565b9050919050565b600080600483612f179190614628565b148015612f3157506000606483612f2e9190614628565b14155b80612f495750600061019083612f479190614628565b145b9050919050565b60178167ffffffffffffffff1611612f8757612f818160058460ff16901b60ff1617846131ba90919063ffffffff16565b506130d0565b60ff8167ffffffffffffffff1611612fdd57612fb6601860058460ff16901b17846131ba90919063ffffffff16565b50612fd78167ffffffffffffffff166001856131da9092919063ffffffff16565b506130cf565b61ffff8167ffffffffffffffff16116130345761300d601960058460ff16901b17846131ba90919063ffffffff16565b5061302e8167ffffffffffffffff166002856131da9092919063ffffffff16565b506130ce565b63ffffffff8167ffffffffffffffff161161308d57613066601a60058460ff16901b17846131ba90919063ffffffff16565b506130878167ffffffffffffffff166004856131da9092919063ffffffff16565b506130cd565b6130aa601b60058460ff16901b17846131ba90919063ffffffff16565b506130cb8167ffffffffffffffff166008856131da9092919063ffffffff16565b505b5b5b5b505050565b6130dd6134a1565b6130ef838460000151518485516131fc565b905092915050565b61311560036005600660ff16901b17836131ba90919063ffffffff16565b5061316a82827fffffffffffffffffffffffffffffffffffffffffffffffffffffffffffffffff6131469190615199565b60405160200161315691906135ae565b6040516020818303038152906040526132eb565b5050565b61318c60026005600660ff16901b17836131ba90919063ffffffff16565b506131b682826040516020016131a291906135ae565b6040516020818303038152906040526132eb565b5050565b6131c26134a1565b6131d28384600001515184613310565b905092915050565b6131e26134a1565b6131f3848560000151518585613366565b90509392505050565b6132046134a1565b825182111561321257600080fd5b8460200151828561322391906134f4565b1115613258576132578560026132488860200151888761324391906134f4565b6133f4565b6132529190614afb565b613410565b5b6000808651805187602083010193508088870111156132775787860182525b60208701925050505b602084106132be578051825260208261329991906134f4565b91506020816132a891906134f4565b90506020846132b791906145c5565b9350613280565b60006001856020036101000a03905080198251168184511681811785525050508692505050949350505050565b6132f88260028351612f50565b61330b81836130d590919063ffffffff16565b505050565b6133186134a1565b8360200151831061333e5761333d84600286602001516133389190614afb565b613410565b5b83518051602085830101848153818603613359576001820183525b5050508390509392505050565b61336e6134a1565b8460200151848361337f91906134f4565b11156133a7576133a6856002868561339791906134f4565b6133a19190614afb565b613410565b5b60006001836101006133b991906154ea565b6133c391906145c5565b905085518386820101858319825116178152815185880111156133e65784870182525b505085915050949350505050565b6000818311156134065782905061340a565b8190505b92915050565b6000826000015190506134238383612e4a565b5061342e83826130d5565b50505050565b6040518060a0016040528060008019168152602001600073ffffffffffffffffffffffffffffffffffffffff16815260200160007bffffffffffffffffffffffffffffffffffffffffffffffffffffffff191681526020016000815260200161349b6134a1565b81525090565b604051806040016040528060608152602001600081525090565b6000819050919050565b7f4e487b7100000000000000000000000000000000000000000000000000000000600052601160045260246000fd5b60006134ff826134bb565b915061350a836134bb565b9250828201905080821115613522576135216134c5565b5b92915050565b6000604051905090565b600080fd5b600080fd5b6000819050919050565b61354f8161353c565b811461355a57600080fd5b50565b60008135905061356c81613546565b92915050565b60006020828403121561358857613587613532565b5b60006135968482850161355d565b91505092915050565b6135a8816134bb565b82525050565b60006020820190506135c3600083018461359f565b92915050565b6135d2816134bb565b81146135dd57600080fd5b50565b6000813590506135ef816135c9565b92915050565b6000806040838503121561360c5761360b613532565b5b600061361a8582860161355d565b925050602061362b858286016135e0565b9150509250929050565b600073ffffffffffffffffffffffffffffffffffffffff82169050919050565b600061366082613635565b9050919050565b61367081613655565b811461367b57600080fd5b50565b60008135905061368d81613667565b92915050565b600080604083850312156136aa576136a9613532565b5b60006136b88582860161367e565b92505060206136c9858286016135e0565b9150509250929050565b6136dc8161353c565b82525050565b60006020820190506136f760008301846136d3565b92915050565b61370681613655565b82525050565b600081519050919050565b600082825260208201905092915050565b60005b8381101561374657808201518184015260208101905061372b565b60008484015250505050565b6000601f19601f8301169050919050565b600061376e8261370c565b6137788185613717565b9350613788818560208601613728565b61379181613752565b840191505092915050565b7f4e487b7100000000000000000000000000000000000000000000000000000000600052602160045260246000fd5b600481106137dc576137db61379c565b5b50565b60008190506137ed826137cb565b919050565b60006137fd826137df565b9050919050565b61380d816137f2565b82525050565b600060e082019050613828600083018a6136fd565b818103602083015261383a8189613763565b9050613849604083018861359f565b613856606083018761359f565b613863608083018661359f565b61387060a083018561359f565b61387d60c0830184613804565b98975050505050505050565b600080fd5b600080fd5b600080fd5b60008083601f8401126138ae576138ad613889565b5b8235905067ffffffffffffffff8111156138cb576138ca61388e565b5b6020830191508360018202830111156138e7576138e6613893565b5b9250929050565b6000806020838503121561390557613904613532565b5b600083013567ffffffffffffffff81111561392357613922613537565b5b61392f85828601613898565b92509250509250929050565b600080fd5b7f4e487b7100000000000000000000000000000000000000000000000000000000600052604160045260246000fd5b61397882613752565b810181811067ffffffffffffffff8211171561399757613996613940565b5b80604052505050565b60006139aa613528565b90506139b6828261396f565b919050565b600067ffffffffffffffff8211156139d6576139d5613940565b5b6139df82613752565b9050602081019050919050565b82818337600083830152505050565b6000613a0e613a09846139bb565b6139a0565b905082815260208101848484011115613a2a57613a2961393b565b5b613a358482856139ec565b509392505050565b600082601f830112613a5257613a51613889565b5b8135613a628482602086016139fb565b91505092915050565b600080600060608486031215613a8457613a83613532565b5b6000613a928682870161367e565b935050602084013567ffffffffffffffff811115613ab357613ab2613537565b5b613abf86828701613a3d565b9250506040613ad0868287016135e0565b9150509250925092565b60008115159050919050565b613aef81613ada565b82525050565b6000602082019050613b0a6000830184613ae6565b92915050565b600060208284031215613b2657613b25613532565b5b6000613b34848285016135e0565b91505092915050565b600081519050919050565b600082825260208201905092915050565b6000613b6482613b3d565b613b6e8185613b48565b9350613b7e818560208601613728565b613b8781613752565b840191505092915050565b6000604082019050613ba76000830185613ae6565b8181036020830152613bb98184613b59565b90509392505050565b60008060008060808587031215613bdc57613bdb613532565b5b600085013567ffffffffffffffff811115613bfa57613bf9613537565b5b613c0687828801613a3d565b9450506020613c17878288016135e0565b9350506040613c28878288016135e0565b925050606085013567ffffffffffffffff811115613c4957613c48613537565b5b613c5587828801613a3d565b91505092959194509250565b6000602082019050613c7660008301846136fd565b92915050565b600060208284031215613c9257613c91613532565b5b6000613ca08482850161367e565b91505092915050565b600081519050919050565b600082825260208201905092915050565b6000819050602082019050919050565b613cde8161353c565b82525050565b6000613cf08383613cd5565b60208301905092915050565b6000602082019050919050565b6000613d1482613ca9565b613d1e8185613cb4565b9350613d2983613cc5565b8060005b83811015613d5a578151613d418882613ce4565b9750613d4c83613cfc565b925050600181019050613d2d565b5085935050505092915050565b60006020820190508181036000830152613d818184613d09565b905092915050565b600061010082019050613d9f600083018b6136fd565b8181036020830152613db1818a613763565b9050613dc0604083018961359f565b613dcd606083018861359f565b613dda608083018761359f565b613de760a083018661359f565b613df460c083018561359f565b613e0160e0830184613804565b9998505050505050505050565b60008060408385031215613e2557613e24613532565b5b600083013567ffffffffffffffff811115613e4357613e42613537565b5b613e4f85828601613a3d565b9250506020613e60858286016135e0565b9150509250929050565b7f506f6c696379206e6f7420666f756e6400000000000000000000000000000000600082015250565b6000613ea0601083613717565b9150613eab82613e6a565b602082019050919050565b60006020820190508181036000830152613ecf81613e93565b9050919050565b7f466c696768742064617465206e6f742072656163686564000000000000000000600082015250565b6000613f0c601783613717565b9150613f1782613ed6565b602082019050919050565b60006020820190508181036000830152613f3b81613eff565b9050919050565b7f546f6f20736f6f6e20746f207265636865636b206f7220616c7265616479206360008201527f6c61696d65640000000000000000000000000000000000000000000000000000602082015250565b6000613f9e602683613717565b9150613fa982613f42565b604082019050919050565b60006020820190508181036000830152613fcd81613f91565b9050919050565b600081905092915050565b7f68747470733a2f2f646563656e747261666c696768746170692e6f6e72656e6460008201527f65722e636f6d2f6170692f666c696768742d64656c61793f666c696768745f6960208201527f6174613d00000000000000000000000000000000000000000000000000000000604082015250565b6000614061604483613fd4565b915061406c82613fdf565b604482019050919050565b7f4e487b7100000000000000000000000000000000000000000000000000000000600052602260045260246000fd5b600060028204905060018216806140be57607f821691505b6020821081036140d1576140d0614077565b5b50919050565b60008190508160005260206000209050919050565b600081546140f9816140a6565b6141038186613fd4565b9450600182166000811461411e576001811461413357614166565b60ff1983168652811515820286019350614166565b61413c856140d7565b60005b8381101561415e5781548189015260018201915060208101905061413f565b838801955050505b50505092915050565b7f266465706172747572655f646174653d00000000000000000000000000000000600082015250565b60006141a5601083613fd4565b91506141b08261416f565b601082019050919050565b60006141c68261370c565b6141d08185613fd4565b93506141e0818560208601613728565b80840191505092915050565b60006141f782614054565b915061420382856140ec565b915061420e82614198565b915061421a82846141bb565b91508190509392505050565b7f536f75726365206d75737420626520746865206f7261636c65206f662074686560008201527f2072657175657374000000000000000000000000000000000000000000000000602082015250565b6000614282602883613717565b915061428d82614226565b604082019050919050565b600060208201905081810360008301526142b181614275565b9050919050565b7f556e6b6e6f776e20726571756573742049440000000000000000000000000000600082015250565b60006142ee601283613717565b91506142f9826142b8565b602082019050919050565b6000602082019050818103600083015261431d816142e1565b9050919050565b60008154614331816140a6565b61433b8186613717565b94506001821660008114614356576001811461436c5761439f565b60ff19831686528115156020028601935061439f565b614375856140d7565b60005b8381101561439757815481890152600182019150602081019050614378565b808801955050505b50505092915050565b60006080820190506143bd60008301876136d3565b81810360208301526143cf8186614324565b90506143de6040830185613804565b6143eb606083018461359f565b95945050505050565b600067ffffffffffffffff82111561440f5761440e613940565b5b602082029050602081019050919050565b600061443361442e846143f4565b6139a0565b9050808382526020820190506020840283018581111561445657614455613893565b5b835b8181101561447f578061446b888261355d565b845260208401935050602081019050614458565b5050509392505050565b600082601f83011261449e5761449d613889565b5b81356144ae848260208601614420565b91505092915050565b600080604083850312156144ce576144cd613532565b5b600083013567ffffffffffffffff8111156144ec576144eb613537565b5b6144f885828601614489565b9250506020614509858286016135e0565b9150509250929050565b7f4e487b7100000000000000000000000000000000000000000000000000000000600052603260045260246000fd5b600061454e82846141bb565b915081905092915050565b7f496e74657276616c20746f6f2073686f72740000000000000000000000000000600082015250565b600061458f601283613717565b915061459a82614559565b602082019050919050565b600060208201905081810360008301526145be81614582565b9050919050565b60006145d0826134bb565b91506145db836134bb565b92508282039050818111156145f3576145f26134c5565b5b92915050565b7f4e487b7100000000000000000000000000000000000000000000000000000000600052601260045260246000fd5b6000614633826134bb565b915061463e836134bb565b92508261464e5761464d6145f9565b5b828206905092915050565b600060408201905081810360008301526146738185613d09565b9050614682602083018461359f565b9392505050565b7f506f6c69637920616c726561647920636c61696d656400000000000000000000600082015250565b60006146bf601683613717565b91506146ca82614689565b602082019050919050565b600060208201905081810360008301526146ee816146b2565b9050919050565b7f4f6e6c792061646d696e2063616e207769746864726177000000000000000000600082015250565b600061472b601783613717565b9150614736826146f5565b602082019050919050565b6000602082019050818103600083015261475a8161471e565b9050919050565b7f43616e6e6f74207769746864726177206d6f7265207468616e20617661696c6160008201527f626c6520726576656e75652066756e6473000000000000000000000000000000602082015250565b60006147bd603183613717565b91506147c882614761565b604082019050919050565b600060208201905081810360008301526147ec816147b0565b9050919050565b600081905092915050565b50565b600061480e6000836147f3565b9150614819826147fe565b600082019050919050565b600061482f82614801565b9150819050919050565b7f5769746864726177616c207472616e73666572206661696c6564000000000000600082015250565b600061486f601a83613717565b915061487a82614839565b602082019050919050565b6000602082019050818103600083015261489e81614862565b9050919050565b60006040820190506148ba600083018561359f565b6148c7602083018461359f565b9392505050565b7f3000000000000000000000000000000000000000000000000000000000000000600082015250565b6000614904600183613fd4565b915061490f826148ce565b600182019050919050565b6000614925826148f7565b915061493182846141bb565b915081905092915050565b7f2d00000000000000000000000000000000000000000000000000000000000000600082015250565b6000614972600183613fd4565b915061497d8261493c565b600182019050919050565b600061499482866141bb565b915061499f82614965565b91506149ab82856141bb565b91506149b682614965565b91506149c282846141bb565b9150819050949350505050565b60007fffffffff0000000000000000000000000000000000000000000000000000000082169050919050565b614a04816149cf565b82525050565b600061010082019050614a20600083018b6136fd565b614a2d602083018a61359f565b614a3a60408301896136d3565b614a4760608301886136fd565b614a5460808301876149fb565b614a6160a083018661359f565b614a6e60c083018561359f565b81810360e0830152614a808184613b59565b90509998505050505050505050565b7f466c69676874206e6f742064656c617965640000000000000000000000000000600082015250565b6000614ac5601283613717565b9150614ad082614a8f565b602082019050919050565b60006020820190508181036000830152614af481614ab8565b9050919050565b6000614b06826134bb565b9150614b11836134bb565b9250828202614b1f816134bb565b91508282048414831517614b3657614b356134c5565b5b5092915050565b6000614b48826134bb565b9150614b53836134bb565b925082614b6357614b626145f9565b5b828204905092915050565b7f5061796f7574207472616e73666572206661696c656400000000000000000000600082015250565b6000614ba4601683613717565b9150614baf82614b6e565b602082019050919050565b60006020820190508181036000830152614bd381614b97565b9050919050565b6000606082019050614bef60008301866136d3565b614bfc60208301856136fd565b614c09604083018461359f565b949350505050565b7f5072656d69756d206d7573742062652067726561746572207468616e20300000600082015250565b6000614c47601e83613717565b9150614c5282614c11565b602082019050919050565b60006020820190508181036000830152614c7681614c3a565b9050919050565b7f466c696768742064617465206d75737420626520696e2074686520667574757260008201527f6500000000000000000000000000000000000000000000000000000000000000602082015250565b6000614cd9602183613717565b9150614ce482614c7d565b604082019050919050565b60006020820190508181036000830152614d0881614ccc565b9050919050565b7f506f6c69637920666f72207468697320666c6967687420616c7265616479206560008201527f7869737473000000000000000000000000000000000000000000000000000000602082015250565b6000614d6b602583613717565b9150614d7682614d0f565b604082019050919050565b60006020820190508181036000830152614d9a81614d5e565b9050919050565b60008160601b9050919050565b6000614db982614da1565b9050919050565b6000614dcb82614dae565b9050919050565b614de3614dde82613655565b614dc0565b82525050565b6000819050919050565b614e04614dff826134bb565b614de9565b82525050565b6000614e168287614dd2565b601482019150614e2682866141bb565b9150614e328285614df3565b602082019150614e428284614df3565b60208201915081905095945050505050565b60006020601f8301049050919050565b600082821b905092915050565b600060088302614ea17fffffffffffffffffffffffffffffffffffffffffffffffffffffffffffffffff82614e64565b614eab8683614e64565b95508019841693508086168417925050509392505050565b6000819050919050565b6000614ee8614ee3614ede846134bb565b614ec3565b6134bb565b9050919050565b6000819050919050565b614f0283614ecd565b614f16614f0e82614eef565b848454614e71565b825550505050565b600090565b614f2b614f1e565b614f36818484614ef9565b505050565b5b81811015614f5a57614f4f600082614f23565b600181019050614f3c565b5050565b601f821115614f9f57614f70816140d7565b614f7984614e54565b81016020851015614f88578190505b614f9c614f9485614e54565b830182614f3b565b50505b505050565b600082821c905092915050565b6000614fc260001984600802614fa4565b1980831691505092915050565b6000614fdb8383614fb1565b9150826002028217905092915050565b614ff48261370c565b67ffffffffffffffff81111561500d5761500c613940565b5b61501782546140a6565b615022828285614f5e565b600060209050601f8311600181146150555760008415615043578287015190505b61504d8582614fcf565b8655506150b5565b601f198416615063866140d7565b60005b8281101561508b57848901518255600182019150602085019450602081019050615066565b868310156150a857848901516150a4601f891682614fb1565b8355505b6001600288020188555050505b505050505050565b60006150c8826134bb565b91507fffffffffffffffffffffffffffffffffffffffffffffffffffffffffffffffff82036150fa576150f96134c5565b5b600182019050919050565b600060408201905061511a60008301856136d3565b818103602083015261512c8184613763565b90509392505050565b600060a08201905061514a60008301886136d3565b61515760208301876136fd565b81810360408301526151698186613763565b9050615178606083018561359f565b615185608083018461359f565b9695505050505050565b6000819050919050565b60006151a48261518f565b91506151af8361518f565b92508282039050818112600084121682821360008512151617156151d6576151d56134c5565b5b92915050565b60006151f76151f26151ed84613635565b614ec3565b613635565b9050919050565b6000615209826151dc565b9050919050565b600061521b826151fe565b9050919050565b61523361522e82615210565b614dc0565b82525050565b60006152458285615222565b6014820191506152558284614df3565b6020820191508190509392505050565b600060608201905061527a60008301866136fd565b615287602083018561359f565b81810360408301526152998184613b59565b9050949350505050565b6152ac81613ada565b81146152b757600080fd5b50565b6000815190506152c9816152a3565b92915050565b6000602082840312156152e5576152e4613532565b5b60006152f3848285016152ba565b91505092915050565b7f756e61626c6520746f207472616e73666572416e6443616c6c20746f206f726160008201527f636c650000000000000000000000000000000000000000000000000000000000602082015250565b6000615358602383613717565b9150615363826152fc565b604082019050919050565b600060208201905081810360008301526153878161534b565b9050919050565b6000615399826134bb565b9150600082036153ac576153ab6134c5565b5b600182039050919050565b60008160011c9050919050565b6000808291508390505b600185111561540e578086048111156153ea576153e96134c5565b5b60018516156153f95780820291505b8081029050615407856153b7565b94506153ce565b94509492505050565b60008261542757600190506154e3565b8161543557600090506154e3565b816001811461544b576002811461545557615484565b60019150506154e3565b60ff841115615467576154666134c5565b5b8360020a91508482111561547e5761547d6134c5565b5b506154e3565b5060208310610133831016604e8410600b84101617156154b95782820a9050838111156154b4576154b36134c5565b5b6154e3565b6154c684848460016153c4565b925090508184048111156154dd576154dc6134c5565b5b81810290505b9392505050565b60006154f5826134bb565b9150615500836134bb565b925061552d7fffffffffffffffffffffffffffffffffffffffffffffffffffffffffffffffff8484615417565b90509291505056fea264697066735822122006e7e631b6571437f4a5ec8b3e47d2cc52b42933e5daad63fe7d04b95c4b605d64736f6c634300081c0033",
  "linkReferences": {},
  "deployedLinkReferences": {}
}