{"contracts/FlightDelayInsurance.sol":{"FlightDelayInsurance":{"abi":[{"inputs":[],"stateMutability":"nonpayable","type":"constructor"},{"anonymous":false,"inputs":[{"indexed":true,"internalType":"address","name":"admin","type":"address"},{"indexed":false,"internalType":"uint256","name":"amount","type":"uint256"}],"name":"AdminFeesWithdrawn","type":"event"},{"anonymous":false,"inputs":[{"indexed":true,"internalType":"bytes32","name":"id","type":"bytes32"}],"name":"ChainlinkCancelled","type":"event"},{"anonymous":false,"inputs":[{"indexed":true,"internalType":"bytes32","name":"id","type":"bytes32"}],"name":"ChainlinkFulfilled","type":"event"},{"anonymous":false,"inputs":[{"indexed":true,"internalType":"bytes32","name":"id","type":"bytes32"}],"name":"ChainlinkRequested","type":"event"},{"anonymous":false,"inputs":[{"indexed":true,"internalType":"address","name":"policyholder","type":"address"},{"indexed":false,"internalType":"string","name":"flightNumber","type":"string"},{"indexed":false,"internalType":"uint256","name":"departureDate","type":"uint256"},{"indexed":false,"internalType":"uint256","name":"payoutAmount","type":"uint256"}],"name":"ClaimPaid","type":"event"},{"anonymous":false,"inputs":[{"indexed":true,"internalType":"bytes32","name":"requestId","type":"bytes32"},{"indexed":false,"internalType":"uint256","name":"delay","type":"uint256"}],"name":"FlightDelayDataReceived","type":"event"},{"anonymous":false,"inputs":[{"indexed":true,"internalType":"bytes32","name":"requestId","type":"bytes32"},{"indexed":false,"internalType":"bool","name":"verified","type":"bool"}],"name":"FlightVerified","type":"event"},{"anonymous":false,"inputs":[{"indexed":true,"internalType":"address","name":"from","type":"address"},{"indexed":true,"internalType":"address","name":"to","type":"address"}],"name":"OwnershipTransferRequested","type":"event"},{"anonymous":false,"inputs":[{"indexed":true,"internalType":"address","name":"from","type":"address"},{"indexed":true,"internalType":"address","name":"to","type":"address"}],"name":"OwnershipTransferred","type":"event"},{"anonymous":false,"inputs":[{"indexed":true,"internalType":"address","name":"buyer","type":"address"},{"indexed":false,"internalType":"string","name":"flightNumber","type":"string"},{"indexed":false,"internalType":"uint256","name":"departureDate","type":"uint256"},{"indexed":false,"internalType":"uint256","name":"premium","type":"uint256"}],"name":"PolicyPurchased","type":"event"},{"inputs":[],"name":"DELAY_THRESHOLD","outputs":[{"internalType":"uint256","name":"","type":"uint256"}],"stateMutability":"view","type":"function"},{"inputs":[],"name":"MAX_PREMIUM","outputs":[{"internalType":"uint256","name":"","type":"uint256"}],"stateMutability":"view","type":"function"},{"inputs":[],"name":"MIN_PREMIUM","outputs":[{"internalType":"uint256","name":"","type":"uint256"}],"stateMutability":"view","type":"function"},{"inputs":[],"name":"PAYOUT_MULTIPLIER","outputs":[{"internalType":"uint256","name":"","type":"uint256"}],"stateMutability":"view","type":"function"},{"inputs":[],"name":"acceptOwnership","outputs":[],"stateMutability":"nonpayable","type":"function"},{"inputs":[],"name":"adminFees","outputs":[{"internalType":"uint256","name":"","type":"uint256"}],"stateMutability":"view","type":"function"},{"inputs":[{"internalType":"uint256","name":"_policyIndex","type":"uint256"}],"name":"fileClaim","outputs":[],"stateMutability":"nonpayable","type":"function"},{"inputs":[{"internalType":"bytes32","name":"_requestId","type":"bytes32"},{"internalType":"uint256","name":"_delayMinutes","type":"uint256"}],"name":"fulfillFlightDelay","outputs":[],"stateMutability":"nonpayable","type":"function"},{"inputs":[{"internalType":"bytes32","name":"_requestId","type":"bytes32"},{"internalType":"bool","name":"_verified","type":"bool"}],"name":"fulfillFlightVerification","outputs":[],"stateMutability":"nonpayable","type":"function"},{"inputs":[{"internalType":"address","name":"_user","type":"address"}],"name":"getUserPolicies","outputs":[{"components":[{"internalType":"address","name":"policyholder","type":"address"},{"internalType":"string","name":"flightNumber","type":"string"},{"internalType":"string","name":"airlineCode","type":"string"},{"internalType":"uint256","name":"departureDate","type":"uint256"},{"internalType":"uint256","name":"premium","type":"uint256"},{"internalType":"bool","name":"claimed","type":"bool"},{"internalType":"bool","name":"verified","type":"bool"}],"internalType":"struct FlightDelayInsurance.Policy[]","name":"","type":"tuple[]"}],"stateMutability":"view","type":"function"},{"inputs":[],"name":"owner","outputs":[{"internalType":"address","name":"","type":"address"}],"stateMutability":"view","type":"function"},{"inputs":[{"internalType":"string","name":"_airlineCode","type":"string"},{"internalType":"string","name":"_flightNumber","type":"string"},{"internalType":"uint256","name":"_departureDate","type":"uint256"}],"name":"purchasePolicy","outputs":[],"stateMutability":"payable","type":"function"},{"inputs":[],"name":"totalPayouts","outputs":[{"internalType":"uint256","name":"","type":"uint256"}],"stateMutability":"view","type":"function"},{"inputs":[],"name":"totalPolicies","outputs":[{"internalType":"uint256","name":"","type":"uint256"}],"stateMutability":"view","type":"function"},{"inputs":[],"name":"totalPremiums","outputs":[{"internalType":"uint256","name":"","type":"uint256"}],"stateMutability":"view","type":"function"},{"inputs":[{"internalType":"address","name":"to","type":"address"}],"name":"transferOwnership","outputs":[],"stateMutability":"nonpayable","type":"function"},{"inputs":[{"internalType":"address","name":"","type":"address"},{"internalType":"uint256","name":"","type":"uint256"}],"name":"userPolicies","outputs":[{"internalType":"address","name":"policyholder","type":"address"},{"internalType":"string","name":"flightNumber","type":"string"},{"internalType":"string","name":"airlineCode","type":"string"},{"internalType":"uint256","name":"departureDate","type":"uint256"},{"internalType":"uint256","name":"premium","type":"uint256"},{"internalType":"bool","name":"claimed","type":"bool"},{"internalType":"bool","name":"verified","type":"bool"}],"stateMutability":"view","type":"function"},{"inputs":[],"name":"withdrawAdminFees","outputs":[],"stateMutability":"nonpayable","type":"function"},{"stateMutability":"payable","type":"receive"}],"evm":{"bytecode":{"linkReferences":{},"object":"6080604052600160045560405180606001604052806026815260200161542560269139600a908161003091906105bf565b5034801561003d57600080fd5b50338060008073ffffffffffffffffffffffffffffffffffffffff168273ffffffffffffffffffffffffffffffffffffffff16036100b0576040517f08c379a00000000000000000000000000000000000000000000000000000000081526004016100a7906106ee565b60405180910390fd5b81600660006101000a81548173ffffffffffffffffffffffffffffffffffffffff021916908373ffffffffffffffffffffffffffffffffffffffff160217905550600073ffffffffffffffffffffffffffffffffffffffff168173ffffffffffffffffffffffffffffffffffffffff161461013557610134816101b960201b60201c565b5b50505061015b73326c977e6efc84e512bb9c30f76e30c160ed06fb6102e760201b60201c565b61017e73d36c6b1777c7f3db1b3201bdd87081a9045b7b4661032b60201b60201c565b7f613833353666343835363963343334656161346163356663623464623563633060088190555067016345785d8a000060098190555061077a565b3373ffffffffffffffffffffffffffffffffffffffff168173ffffffffffffffffffffffffffffffffffffffff1603610227576040517f08c379a000000000000000000000000000000000000000000000000000000000815260040161021e9061075a565b60405180910390fd5b80600760006101000a81548173ffffffffffffffffffffffffffffffffffffffff021916908373ffffffffffffffffffffffffffffffffffffffff1602179055508073ffffffffffffffffffffffffffffffffffffffff16600660009054906101000a900473ffffffffffffffffffffffffffffffffffffffff1673ffffffffffffffffffffffffffffffffffffffff167fed8889f560326eb138920d842192f0eb3dd22b4f139c87a2c57538e05bae127860405160405180910390a350565b80600260006101000a81548173ffffffffffffffffffffffffffffffffffffffff021916908373ffffffffffffffffffffffffffffffffffffffff16021790555050565b80600360006101000a81548173ffffffffffffffffffffffffffffffffffffffff021916908373ffffffffffffffffffffffffffffffffffffffff16021790555050565b600081519050919050565b7f4e487b7100000000000000000000000000000000000000000000000000000000600052604160045260246000fd5b7f4e487b7100000000000000000000000000000000000000000000000000000000600052602260045260246000fd5b600060028204905060018216806103f057607f821691505b602082108103610403576104026103a9565b5b50919050565b60008190508160005260206000209050919050565b60006020601f8301049050919050565b600082821b905092915050565b60006008830261046b7fffffffffffffffffffffffffffffffffffffffffffffffffffffffffffffffff8261042e565b610475868361042e565b95508019841693508086168417925050509392505050565b6000819050919050565b6000819050919050565b60006104bc6104b76104b28461048d565b610497565b61048d565b9050919050565b6000819050919050565b6104d6836104a1565b6104ea6104e2826104c3565b84845461043b565b825550505050565b600090565b6104ff6104f2565b61050a8184846104cd565b505050565b5b8181101561052e576105236000826104f7565b600181019050610510565b5050565b601f8211156105735761054481610409565b61054d8461041e565b8101602085101561055c578190505b6105706105688561041e565b83018261050f565b50505b505050565b600082821c905092915050565b600061059660001984600802610578565b1980831691505092915050565b60006105af8383610585565b9150826002028217905092915050565b6105c88261036f565b67ffffffffffffffff8111156105e1576105e061037a565b5b6105eb82546103d8565b6105f6828285610532565b600060209050601f8311600181146106295760008415610617578287015190505b61062185826105a3565b865550610689565b601f19841661063786610409565b60005b8281101561065f5784890151825560018201915060208501945060208101905061063a565b8683101561067c5784890151610678601f891682610585565b8355505b6001600288020188555050505b505050505050565b600082825260208201905092915050565b7f43616e6e6f7420736574206f776e657220746f207a65726f0000000000000000600082015250565b60006106d8601883610691565b91506106e3826106a2565b602082019050919050565b60006020820190508181036000830152610707816106cb565b9050919050565b7f43616e6e6f74207472616e7366657220746f2073656c66000000000000000000600082015250565b6000610744601783610691565b915061074f8261070e565b602082019050919050565b6000602082019050818103600083015261077381610737565b9050919050565b614c9c806107896000396000f3fe60806040526004361061010d5760003560e01c80637ab2236011610095578063be5c8f4411610064578063be5c8f4414610346578063cf4b4cf714610371578063d61909f91461038d578063f059d78e146103b6578063f2fde38b146103e157610114565b80637ab223601461029c57806380a78506146102c75780638da5cb5b146102f0578063aed0acee1461031b57610114565b80634089b170116100dc5780634089b170146101d95780634bc92d6c146102045780634cdabb161461022f5780635bda15841461025a57806379ba50971461028557610114565b80630419b45a1461011957806313c48e421461013057806319ac4614146101595780633d36adc51461019657610114565b3661011457005b600080fd5b34801561012557600080fd5b5061012e61040a565b005b34801561013c57600080fd5b5061015760048036038101906101529190612df7565b610572565b005b34801561016557600080fd5b50610180600480360381019061017b9190612e95565b610975565b60405161018d91906130f0565b60405180910390f35b3480156101a257600080fd5b506101bd60048036038101906101b89190613112565b610bd7565b6040516101d097969594939291906131c9565b60405180910390f35b3480156101e557600080fd5b506101ee610d80565b6040516101fb9190613246565b60405180910390f35b34801561021057600080fd5b50610219610d86565b6040516102269190613246565b60405180910390f35b34801561023b57600080fd5b50610244610d8c565b6040516102519190613246565b60405180910390f35b34801561026657600080fd5b5061026f610d98565b60405161027c9190613246565b60405180910390f35b34801561029157600080fd5b5061029a610d9e565b005b3480156102a857600080fd5b506102b1610f35565b6040516102be9190613246565b60405180910390f35b3480156102d357600080fd5b506102ee60048036038101906102e9919061328d565b610f3a565b005b3480156102fc57600080fd5b50610305611313565b60405161031291906132cd565b60405180910390f35b34801561032757600080fd5b5061033061133d565b60405161033d9190613246565b60405180910390f35b34801561035257600080fd5b5061035b611342565b6040516103689190613246565b60405180910390f35b61038b6004803603810190610386919061341d565b61134d565b005b34801561039957600080fd5b506103b460048036038101906103af91906134a8565b6116ca565b005b3480156103c257600080fd5b506103cb6119c7565b6040516103d89190613246565b60405180910390f35b3480156103ed57600080fd5b5061040860048036038101906104039190612e95565b6119cd565b005b6104126119e1565b6000600e5411610457576040517f08c379a000000000000000000000000000000000000000000000000000000000815260040161044e90613521565b60405180910390fd5b6000600e5490506000600e819055506000610470611313565b73ffffffffffffffffffffffffffffffffffffffff168260405161049390613572565b60006040518083038185875af1925050503d80600081146104d0576040519150601f19603f3d011682016040523d82523d6000602084013e6104d5565b606091505b5050905080610519576040517f08c379a0000000000000000000000000000000000000000000000000000000008152600401610510906135d3565b60405180910390fd5b610521611313565b73ffffffffffffffffffffffffffffffffffffffff167fcdcaff67ac16639664e5f9343c9223a1dc9c972ec367b69ae9fc1325c7be5474836040516105669190613246565b60405180910390a25050565b816005600082815260200190815260200160002060009054906101000a900473ffffffffffffffffffffffffffffffffffffffff1673ffffffffffffffffffffffffffffffffffffffff163373ffffffffffffffffffffffffffffffffffffffff1614610614576040517f08c379a000000000000000000000000000000000000000000000000000000000815260040161060b90613665565b60405180910390fd5b6005600082815260200190815260200160002060006101000a81549073ffffffffffffffffffffffffffffffffffffffff0219169055807f7cc135e0cebb02c3480ae5d74d377283180a2601f8f644edf7987b009316c63a60405160405180910390a26012600084815260200190815260200160002060009054906101000a900460ff16156106d8576040517f08c379a00000000000000000000000000000000000000000000000000000000081526004016106cf906136d1565b60405180910390fd5b60006010600085815260200190815260200160002060009054906101000a900473ffffffffffffffffffffffffffffffffffffffff1690506000601160008681526020019081526020016000205490506000600f60008473ffffffffffffffffffffffffffffffffffffffff1673ffffffffffffffffffffffffffffffffffffffff168152602001908152602001600020828154811061077b5761077a6136f1565b5b9060005260206000209060060201905060018160050160006101000a81548160ff021916908315150217905550857f929defe9c1d9365db5456a875a719ed5fd79142a86396d5bec9bc6aefb6f4d91866040516107d89190613246565b60405180910390a26078851061096d576000606460fa83600401546107fd919061374f565b61080791906137c0565b90508047101561084c576040517f08c379a00000000000000000000000000000000000000000000000000000000081526004016108439061383d565b60405180910390fd5b80600d600082825461085e919061385d565b9250508190555060008473ffffffffffffffffffffffffffffffffffffffff168260405161088b90613572565b60006040518083038185875af1925050503d80600081146108c8576040519150601f19603f3d011682016040523d82523d6000602084013e6108cd565b606091505b5050905080610911576040517f08c379a0000000000000000000000000000000000000000000000000000000008152600401610908906138dd565b60405180910390fd5b8473ffffffffffffffffffffffffffffffffffffffff167fb919d606d1cba5c14767dfe98797ebf263d5d8376b5d4a69b0ee28ca341e812884600101856003015485604051610962939291906139f6565b60405180910390a250505b505050505050565b6060600f60008373ffffffffffffffffffffffffffffffffffffffff1673ffffffffffffffffffffffffffffffffffffffff168152602001908152602001600020805480602002602001604051908101604052809291908181526020016000905b82821015610bcc57838290600052602060002090600602016040518060e00160405290816000820160009054906101000a900473ffffffffffffffffffffffffffffffffffffffff1673ffffffffffffffffffffffffffffffffffffffff1673ffffffffffffffffffffffffffffffffffffffff168152602001600182018054610a5f9061392c565b80601f0160208091040260200160405190810160405280929190818152602001828054610a8b9061392c565b8015610ad85780601f10610aad57610100808354040283529160200191610ad8565b820191906000526020600020905b815481529060010190602001808311610abb57829003601f168201915b50505050508152602001600282018054610af19061392c565b80601f0160208091040260200160405190810160405280929190818152602001828054610b1d9061392c565b8015610b6a5780601f10610b3f57610100808354040283529160200191610b6a565b820191906000526020600020905b815481529060010190602001808311610b4d57829003601f168201915b5050505050815260200160038201548152602001600482015481526020016005820160009054906101000a900460ff161515151581526020016005820160019054906101000a900460ff161515151581525050815260200190600101906109d6565b505050509050919050565b600f6020528160005260406000208181548110610bf357600080fd5b9060005260206000209060060201600091509150508060000160009054906101000a900473ffffffffffffffffffffffffffffffffffffffff1690806001018054610c3d9061392c565b80601f0160208091040260200160405190810160405280929190818152602001828054610c699061392c565b8015610cb65780601f10610c8b57610100808354040283529160200191610cb6565b820191906000526020600020905b815481529060010190602001808311610c9957829003601f168201915b505050505090806002018054610ccb9061392c565b80601f0160208091040260200160405190810160405280929190818152602001828054610cf79061392c565b8015610d445780601f10610d1957610100808354040283529160200191610d44565b820191906000526020600020905b815481529060010190602001808311610d2757829003601f168201915b5050505050908060030154908060040154908060050160009054906101000a900460ff16908060050160019054906101000a900460ff16905087565b600d5481565b600e5481565b670de0b6b3a764000081565b600c5481565b600760009054906101000a900473ffffffffffffffffffffffffffffffffffffffff1673ffffffffffffffffffffffffffffffffffffffff163373ffffffffffffffffffffffffffffffffffffffff1614610e2e576040517f08c379a0000000000000000000000000000000000000000000000000000000008152600401610e2590613a80565b60405180910390fd5b6000600660009054906101000a900473ffffffffffffffffffffffffffffffffffffffff16905033600660006101000a81548173ffffffffffffffffffffffffffffffffffffffff021916908373ffffffffffffffffffffffffffffffffffffffff1602179055506000600760006101000a81548173ffffffffffffffffffffffffffffffffffffffff021916908373ffffffffffffffffffffffffffffffffffffffff1602179055503373ffffffffffffffffffffffffffffffffffffffff168173ffffffffffffffffffffffffffffffffffffffff167f8be0079c531659141344cd1fd0a4f28419497f9722a3daafe3b4186f6b6457e060405160405180910390a350565b60fa81565b816005600082815260200190815260200160002060009054906101000a900473ffffffffffffffffffffffffffffffffffffffff1673ffffffffffffffffffffffffffffffffffffffff163373ffffffffffffffffffffffffffffffffffffffff1614610fdc576040517f08c379a0000000000000000000000000000000000000000000000000000000008152600401610fd390613665565b60405180910390fd5b6005600082815260200190815260200160002060006101000a81549073ffffffffffffffffffffffffffffffffffffffff0219169055807f7cc135e0cebb02c3480ae5d74d377283180a2601f8f644edf7987b009316c63a60405160405180910390a26012600084815260200190815260200160002060009054906101000a900460ff1661109f576040517f08c379a000000000000000000000000000000000000000000000000000000000815260040161109690613aec565b60405180910390fd5b60006010600085815260200190815260200160002060009054906101000a900473ffffffffffffffffffffffffffffffffffffffff16905060006011600086815260200190815260200160002054905083600f60008473ffffffffffffffffffffffffffffffffffffffff1673ffffffffffffffffffffffffffffffffffffffff1681526020019081526020016000208281548110611141576111406136f1565b5b906000526020600020906006020160050160016101000a81548160ff021916908315150217905550836112d4576000600f60008473ffffffffffffffffffffffffffffffffffffffff1673ffffffffffffffffffffffffffffffffffffffff16815260200190815260200160002082815481106111c1576111c06136f1565b5b9060005260206000209060060201905060008160040154905080600c60008282546111ec9190613b0c565b925050819055506064600582611202919061374f565b61120c91906137c0565b600e600082825461121d9190613b0c565b9250508190555060008473ffffffffffffffffffffffffffffffffffffffff168260405161124a90613572565b60006040518083038185875af1925050503d8060008114611287576040519150601f19603f3d011682016040523d82523d6000602084013e61128c565b606091505b50509050806112d0576040517f08c379a00000000000000000000000000000000000000000000000000000000081526004016112c790613b8c565b60405180910390fd5b5050505b847f4958809311a2e36b3888fe094f405da9f89cb228e0e424c2157639de04f8ac20856040516113049190613bac565b60405180910390a25050505050565b6000600660009054906101000a900473ffffffffffffffffffffffffffffffffffffffff16905090565b607881565b662386f26fc1000081565b662386f26fc10000341015611397576040517f08c379a000000000000000000000000000000000000000000000000000000000815260040161138e90613c13565b60405180910390fd5b670de0b6b3a76400003411156113e2576040517f08c379a00000000000000000000000000000000000000000000000000000000081526004016113d990613c7f565b60405180910390fd5b428111611424576040517f08c379a000000000000000000000000000000000000000000000000000000000815260040161141b90613ceb565b60405180910390fd5b60006040518060e001604052803373ffffffffffffffffffffffffffffffffffffffff168152602001848152602001858152602001838152602001348152602001600015158152602001600015158152509050600f60003373ffffffffffffffffffffffffffffffffffffffff1673ffffffffffffffffffffffffffffffffffffffff16815260200190815260200160002081908060018154018082558091505060019003906000526020600020906006020160009091909190915060008201518160000160006101000a81548173ffffffffffffffffffffffffffffffffffffffff021916908373ffffffffffffffffffffffffffffffffffffffff160217905550602082015181600101908161153c9190613ea2565b5060408201518160020190816115529190613ea2565b50606082015181600301556080820151816004015560a08201518160050160006101000a81548160ff02191690831515021790555060c08201518160050160016101000a81548160ff021916908315150217905550505060006001600f60003373ffffffffffffffffffffffffffffffffffffffff1673ffffffffffffffffffffffffffffffffffffffff168152602001908152602001600020805490506115fa9190613b0c565b90506116093382878787611a73565b600b600081548092919061161c90613f74565b919050555034600c6000828254611633919061385d565b925050819055506000606460053461164b919061374f565b61165591906137c0565b905080600e6000828254611669919061385d565b925050819055503373ffffffffffffffffffffffffffffffffffffffff167f653778451a7e54e55cca5d74c18b0b3407acc88229339379af985ce57c8735ef8686346040516116ba93929190613fbc565b60405180910390a2505050505050565b600f60003373ffffffffffffffffffffffffffffffffffffffff1673ffffffffffffffffffffffffffffffffffffffff16815260200190815260200160002080549050811061174e576040517f08c379a000000000000000000000000000000000000000000000000000000000815260040161174590614046565b60405180910390fd5b6000600f60003373ffffffffffffffffffffffffffffffffffffffff1673ffffffffffffffffffffffffffffffffffffffff16815260200190815260200160002082815481106117a1576117a06136f1565b5b906000526020600020906006020190508060050160019054906101000a900460ff16611802576040517f08c379a00000000000000000000000000000000000000000000000000000000081526004016117f9906140b2565b60405180910390fd5b8060050160009054906101000a900460ff1615611854576040517f08c379a000000000000000000000000000000000000000000000000000000000815260040161184b9061411e565b60405180910390fd5b8060030154421161189a576040517f08c379a00000000000000000000000000000000000000000000000000000000081526004016118919061418a565b60405180910390fd5b6119c333838360020180546118ae9061392c565b80601f01602080910402602001604051908101604052809291908181526020018280546118da9061392c565b80156119275780601f106118fc57610100808354040283529160200191611927565b820191906000526020600020905b81548152906001019060200180831161190a57829003601f168201915b505050505084600101805461193b9061392c565b80601f01602080910402602001604051908101604052809291908181526020018280546119679061392c565b80156119b45780601f10611989576101008083540402835291602001916119b4565b820191906000526020600020905b81548152906001019060200180831161199757829003601f168201915b50505050508560030154611d0c565b5050565b600b5481565b6119d56119e1565b6119de81611efb565b50565b600660009054906101000a900473ffffffffffffffffffffffffffffffffffffffff1673ffffffffffffffffffffffffffffffffffffffff163373ffffffffffffffffffffffffffffffffffffffff1614611a71576040517f08c379a0000000000000000000000000000000000000000000000000000000008152600401611a68906141f6565b60405180910390fd5b565b6000611a89600854306380a7850660e01b612029565b90506000611a968361205a565b90506000600a604051602001611aac91906142f0565b6040516020818303038152906040529050611b076040518060400160405280600481526020017f706f73740000000000000000000000000000000000000000000000000000000081525082856123629092919063ffffffff16565b611b696040518060400160405280600781526020017f6865616465727300000000000000000000000000000000000000000000000000815250604051806060016040528060248152602001614c4360249139856123629092919063ffffffff16565b6000868684604051602001611b8093929190614473565b6040516020818303038152906040529050611bdb6040518060400160405280600481526020017f626f64790000000000000000000000000000000000000000000000000000000081525082866123629092919063ffffffff16565b611c5a6040518060400160405280600481526020017f70617468000000000000000000000000000000000000000000000000000000008152506040518060400160405280600581526020017f76616c6964000000000000000000000000000000000000000000000000000000815250866123629092919063ffffffff16565b6000611c6885600954612395565b9050896010600083815260200190815260200160002060006101000a81548173ffffffffffffffffffffffffffffffffffffffff021916908373ffffffffffffffffffffffffffffffffffffffff16021790555088601160008381526020019081526020016000208190555060016012600083815260200190815260200160002060006101000a81548160ff02191690831515021790555050505050505050505050565b6000611d22600854306313c48e4260e01b612029565b90506000611d2f8361205a565b905060008585604051602001611d469291906144d0565b60405160208183030381529060405290506000600a8284604051602001611d6f9392919061458c565b6040516020818303038152906040529050611dca6040518060400160405280600381526020017f676574000000000000000000000000000000000000000000000000000000000081525082866123629092919063ffffffff16565b611e496040518060400160405280600481526020017f70617468000000000000000000000000000000000000000000000000000000008152506040518060400160405280600d81526020017f64656c61795f6d696e7574657300000000000000000000000000000000000000815250866123629092919063ffffffff16565b6000611e5785600954612395565b9050896010600083815260200190815260200160002060006101000a81548173ffffffffffffffffffffffffffffffffffffffff021916908373ffffffffffffffffffffffffffffffffffffffff16021790555088601160008381526020019081526020016000208190555060006012600083815260200190815260200160002060006101000a81548160ff02191690831515021790555050505050505050505050565b3373ffffffffffffffffffffffffffffffffffffffff168173ffffffffffffffffffffffffffffffffffffffff1603611f69576040517f08c379a0000000000000000000000000000000000000000000000000000000008152600401611f609061461f565b60405180910390fd5b80600760006101000a81548173ffffffffffffffffffffffffffffffffffffffff021916908373ffffffffffffffffffffffffffffffffffffffff1602179055508073ffffffffffffffffffffffffffffffffffffffff16600660009054906101000a900473ffffffffffffffffffffffffffffffffffffffff1673ffffffffffffffffffffffffffffffffffffffff167fed8889f560326eb138920d842192f0eb3dd22b4f139c87a2c57538e05bae127860405160405180910390a350565b612031612cf0565b612039612cf0565b612050858585846123cc909392919063ffffffff16565b9150509392505050565b606060006107b2905060006001905060006001905060006201518090506000818761208591906137c0565b90505b61016d8110612124576000806004876120a1919061463f565b1480156120d3575060006064876120b8919061463f565b1415806120d257506000610190876120d0919061463f565b145b5b90506000816120e45761016d6120e8565b61016e5b61ffff1690508083106121165780836121019190613b0c565b9250868061210e90613f74565b97505061211d565b5050612124565b5050612088565b6000604051806101800160405280601f60ff168152602001601c60ff168152602001601f60ff168152602001601e60ff168152602001601f60ff168152602001601e60ff168152602001601f60ff168152602001601f60ff168152602001601e60ff168152602001601f60ff168152602001601e60ff168152602001601f60ff16815250905060006004876121b9919061463f565b1480156121eb575060006064876121d0919061463f565b1415806121ea57506000610190876121e8919061463f565b145b5b1561221857601d816001600c8110612206576122056136f1565b5b602002019060ff16908160ff16815250505b5b600c851161229f578060018661222f9190613b0c565b600c81106122405761223f6136f1565b5b602002015160ff168210612295578060018661225c9190613b0c565b600c811061226d5761226c6136f1565b5b602002015160ff16826122809190613b0c565b9150848061228d90613f74565b95505061229a565b61229f565b612219565b81846122ab919061385d565b93506122b68661247c565b600a86106122cc576122c78661247c565b6122f5565b6122d58661247c565b6040516020016122e591906146bc565b6040516020818303038152906040525b600a861061230b576123068661247c565b612334565b6123148661247c565b60405160200161232491906146bc565b6040516020818303038152906040525b6040516020016123469392919061472a565b6040516020818303038152906040529650505050505050919050565b61237982846080015161260490919063ffffffff16565b61239081846080015161260490919063ffffffff16565b505050565b60006123c4600360009054906101000a900473ffffffffffffffffffffffffffffffffffffffff168484612629565b905092915050565b6123d4612cf0565b6123e485608001516101006126f5565b508385600001818152505082856020019073ffffffffffffffffffffffffffffffffffffffff16908173ffffffffffffffffffffffffffffffffffffffff16815250508185604001907bffffffffffffffffffffffffffffffffffffffffffffffffffffffff191690817bffffffffffffffffffffffffffffffffffffffffffffffffffffffff191681525050849050949350505050565b6060600082036124c3576040518060400160405280600181526020017f300000000000000000000000000000000000000000000000000000000000000081525090506125ff565b600082905060005b600082146124f55780806124de90613f74565b915050600a826124ee91906137c0565b91506124cb565b60008167ffffffffffffffff811115612511576125106132f2565b5b6040519080825280601f01601f1916602001820160405280156125435781602001600182028036833780820191505090505b50905060008290505b600086146125f7576001816125619190613b0c565b90506000600a808861257391906137c0565b61257d919061374f565b876125889190613b0c565b6030612594919061477e565b905060008160f81b9050808484815181106125b2576125b16136f1565b5b60200101907effffffffffffffffffffffffffffffffffffffffffffffffffffffffffffff1916908160001a905350600a886125ee91906137c0565b9750505061254c565b819450505050505b919050565b612611826003835161275f565b61262481836128e490919063ffffffff16565b505050565b600080600454905060018161263e919061385d565b6004819055506000634042994660e01b60008087600001513089604001518760018c608001516000015160405160240161267f989796959493929190614852565b604051602081830303815290604052907bffffffffffffffffffffffffffffffffffffffffffffffffffffffff19166020820180517bffffffffffffffffffffffffffffffffffffffffffffffffffffffff838183161783525050505090506126ea86838684612906565b925050509392505050565b6126fd612d5d565b600060208361270c919061463f565b146127385760208261271e919061463f565b602061272a9190613b0c565b82612735919061385d565b91505b81836020018181525050604051808452600081528281016020016040525082905092915050565b60178167ffffffffffffffff1611612796576127908160058460ff16901b60ff161784612a9b90919063ffffffff16565b506128df565b60ff8167ffffffffffffffff16116127ec576127c5601860058460ff16901b1784612a9b90919063ffffffff16565b506127e68167ffffffffffffffff16600185612abb9092919063ffffffff16565b506128de565b61ffff8167ffffffffffffffff16116128435761281c601960058460ff16901b1784612a9b90919063ffffffff16565b5061283d8167ffffffffffffffff16600285612abb9092919063ffffffff16565b506128dd565b63ffffffff8167ffffffffffffffff161161289c57612875601a60058460ff16901b1784612a9b90919063ffffffff16565b506128968167ffffffffffffffff16600485612abb9092919063ffffffff16565b506128dc565b6128b9601b60058460ff16901b1784612a9b90919063ffffffff16565b506128da8167ffffffffffffffff16600885612abb9092919063ffffffff16565b505b5b5b5b505050565b6128ec612d5d565b6128fe83846000015151848551612add565b905092915050565b6000308460405160200161291b929190614986565b604051602081830303815290604052805190602001209050846005600083815260200190815260200160002060006101000a81548173ffffffffffffffffffffffffffffffffffffffff021916908373ffffffffffffffffffffffffffffffffffffffff160217905550807fb5e6e01e79f91267dc17b4e6314d5d4d03593d2ceee0fbb452b750bd70ea5af960405160405180910390a2600260009054906101000a900473ffffffffffffffffffffffffffffffffffffffff1673ffffffffffffffffffffffffffffffffffffffff16634000aea08685856040518463ffffffff1660e01b8152600401612a11939291906149b2565b6020604051808303816000875af1158015612a30573d6000803e3d6000fd5b505050506040513d601f19601f82011682018060405250810190612a549190614a05565b612a93576040517f08c379a0000000000000000000000000000000000000000000000000000000008152600401612a8a90614aa4565b60405180910390fd5b949350505050565b612aa3612d5d565b612ab38384600001515184612bcc565b905092915050565b612ac3612d5d565b612ad4848560000151518585612c22565b90509392505050565b612ae5612d5d565b8251821115612af357600080fd5b84602001518285612b04919061385d565b1115612b3957612b38856002612b2988602001518887612b24919061385d565b612cb0565b612b33919061374f565b612ccc565b5b600080865180518760208301019350808887011115612b585787860182525b60208701925050505b60208410612b9f5780518252602082612b7a919061385d565b9150602081612b89919061385d565b9050602084612b989190613b0c565b9350612b61565b60006001856020036101000a03905080198251168184511681811785525050508692505050949350505050565b612bd4612d5d565b83602001518310612bfa57612bf98460028660200151612bf4919061374f565b612ccc565b5b83518051602085830101848153818603612c15576001820183525b5050508390509392505050565b612c2a612d5d565b84602001518483612c3b919061385d565b1115612c6357612c628560028685612c53919061385d565b612c5d919061374f565b612ccc565b5b6000600183610100612c759190614bf7565b612c7f9190613b0c565b90508551838682010185831982511617815281518588011115612ca25784870182525b505085915050949350505050565b600081831115612cc257829050612cc6565b8190505b92915050565b600082600001519050612cdf83836126f5565b50612cea83826128e4565b50505050565b6040518060a0016040528060008019168152602001600073ffffffffffffffffffffffffffffffffffffffff16815260200160007bffffffffffffffffffffffffffffffffffffffffffffffffffffffff1916815260200160008152602001612d57612d5d565b81525090565b604051806040016040528060608152602001600081525090565b6000604051905090565b600080fd5b600080fd5b6000819050919050565b612d9e81612d8b565b8114612da957600080fd5b50565b600081359050612dbb81612d95565b92915050565b6000819050919050565b612dd481612dc1565b8114612ddf57600080fd5b50565b600081359050612df181612dcb565b92915050565b60008060408385031215612e0e57612e0d612d81565b5b6000612e1c85828601612dac565b9250506020612e2d85828601612de2565b9150509250929050565b600073ffffffffffffffffffffffffffffffffffffffff82169050919050565b6000612e6282612e37565b9050919050565b612e7281612e57565b8114612e7d57600080fd5b50565b600081359050612e8f81612e69565b92915050565b600060208284031215612eab57612eaa612d81565b5b6000612eb984828501612e80565b91505092915050565b600081519050919050565b600082825260208201905092915050565b6000819050602082019050919050565b612ef781612e57565b82525050565b600081519050919050565b600082825260208201905092915050565b60005b83811015612f37578082015181840152602081019050612f1c565b60008484015250505050565b6000601f19601f8301169050919050565b6000612f5f82612efd565b612f698185612f08565b9350612f79818560208601612f19565b612f8281612f43565b840191505092915050565b612f9681612dc1565b82525050565b60008115159050919050565b612fb181612f9c565b82525050565b600060e083016000830151612fcf6000860182612eee565b5060208301518482036020860152612fe78282612f54565b915050604083015184820360408601526130018282612f54565b91505060608301516130166060860182612f8d565b5060808301516130296080860182612f8d565b5060a083015161303c60a0860182612fa8565b5060c083015161304f60c0860182612fa8565b508091505092915050565b60006130668383612fb7565b905092915050565b6000602082019050919050565b600061308682612ec2565b6130908185612ecd565b9350836020820285016130a285612ede565b8060005b858110156130de57848403895281516130bf858261305a565b94506130ca8361306e565b925060208a019950506001810190506130a6565b50829750879550505050505092915050565b6000602082019050818103600083015261310a818461307b565b905092915050565b6000806040838503121561312957613128612d81565b5b600061313785828601612e80565b925050602061314885828601612de2565b9150509250929050565b61315b81612e57565b82525050565b600082825260208201905092915050565b600061317d82612efd565b6131878185613161565b9350613197818560208601612f19565b6131a081612f43565b840191505092915050565b6131b481612dc1565b82525050565b6131c381612f9c565b82525050565b600060e0820190506131de600083018a613152565b81810360208301526131f08189613172565b905081810360408301526132048188613172565b905061321360608301876131ab565b61322060808301866131ab565b61322d60a08301856131ba565b61323a60c08301846131ba565b98975050505050505050565b600060208201905061325b60008301846131ab565b92915050565b61326a81612f9c565b811461327557600080fd5b50565b60008135905061328781613261565b92915050565b600080604083850312156132a4576132a3612d81565b5b60006132b285828601612dac565b92505060206132c385828601613278565b9150509250929050565b60006020820190506132e26000830184613152565b92915050565b600080fd5b600080fd5b7f4e487b7100000000000000000000000000000000000000000000000000000000600052604160045260246000fd5b61332a82612f43565b810181811067ffffffffffffffff82111715613349576133486132f2565b5b80604052505050565b600061335c612d77565b90506133688282613321565b919050565b600067ffffffffffffffff821115613388576133876132f2565b5b61339182612f43565b9050602081019050919050565b82818337600083830152505050565b60006133c06133bb8461336d565b613352565b9050828152602081018484840111156133dc576133db6132ed565b5b6133e784828561339e565b509392505050565b600082601f830112613404576134036132e8565b5b81356134148482602086016133ad565b91505092915050565b60008060006060848603121561343657613435612d81565b5b600084013567ffffffffffffffff81111561345457613453612d86565b5b613460868287016133ef565b935050602084013567ffffffffffffffff81111561348157613480612d86565b5b61348d868287016133ef565b925050604061349e86828701612de2565b9150509250925092565b6000602082840312156134be576134bd612d81565b5b60006134cc84828501612de2565b91505092915050565b7f4e6f206665657320746f20776974686472617700000000000000000000000000600082015250565b600061350b601383613161565b9150613516826134d5565b602082019050919050565b6000602082019050818103600083015261353a816134fe565b9050919050565b600081905092915050565b50565b600061355c600083613541565b91506135678261354c565b600082019050919050565b600061357d8261354f565b9150819050919050565b7f41646d696e20666565207472616e73666572206661696c656400000000000000600082015250565b60006135bd601983613161565b91506135c882613587565b602082019050919050565b600060208201905081810360008301526135ec816135b0565b9050919050565b7f536f75726365206d75737420626520746865206f7261636c65206f662074686560008201527f2072657175657374000000000000000000000000000000000000000000000000602082015250565b600061364f602883613161565b915061365a826135f3565b604082019050919050565b6000602082019050818103600083015261367e81613642565b9050919050565b7f52657175657374206e6f7420666f722064656c617920636865636b0000000000600082015250565b60006136bb601b83613161565b91506136c682613685565b602082019050919050565b600060208201905081810360008301526136ea816136ae565b9050919050565b7f4e487b7100000000000000000000000000000000000000000000000000000000600052603260045260246000fd5b7f4e487b7100000000000000000000000000000000000000000000000000000000600052601160045260246000fd5b600061375a82612dc1565b915061376583612dc1565b925082820261377381612dc1565b9150828204841483151761378a57613789613720565b5b5092915050565b7f4e487b7100000000000000000000000000000000000000000000000000000000600052601260045260246000fd5b60006137cb82612dc1565b91506137d683612dc1565b9250826137e6576137e5613791565b5b828204905092915050565b7f496e73756666696369656e7420636f6e74726163742062616c616e6365000000600082015250565b6000613827601d83613161565b9150613832826137f1565b602082019050919050565b600060208201905081810360008301526138568161381a565b9050919050565b600061386882612dc1565b915061387383612dc1565b925082820190508082111561388b5761388a613720565b5b92915050565b7f5061796f7574207472616e73666572206661696c656400000000000000000000600082015250565b60006138c7601683613161565b91506138d282613891565b602082019050919050565b600060208201905081810360008301526138f6816138ba565b9050919050565b7f4e487b7100000000000000000000000000000000000000000000000000000000600052602260045260246000fd5b6000600282049050600182168061394457607f821691505b602082108103613957576139566138fd565b5b50919050565b60008190508160005260206000209050919050565b6000815461397f8161392c565b6139898186613161565b945060018216600081146139a457600181146139ba576139ed565b60ff1983168652811515602002860193506139ed565b6139c38561395d565b60005b838110156139e5578154818901526001820191506020810190506139c6565b808801955050505b50505092915050565b60006060820190508181036000830152613a108186613972565b9050613a1f60208301856131ab565b613a2c60408301846131ab565b949350505050565b7f4d7573742062652070726f706f736564206f776e657200000000000000000000600082015250565b6000613a6a601683613161565b9150613a7582613a34565b602082019050919050565b60006020820190508181036000830152613a9981613a5d565b9050919050565b7f52657175657374206e6f7420666f7220766572696669636174696f6e00000000600082015250565b6000613ad6601c83613161565b9150613ae182613aa0565b602082019050919050565b60006020820190508181036000830152613b0581613ac9565b9050919050565b6000613b1782612dc1565b9150613b2283612dc1565b9250828203905081811115613b3a57613b39613720565b5b92915050565b7f526566756e64207472616e73666572206661696c656400000000000000000000600082015250565b6000613b76601683613161565b9150613b8182613b40565b602082019050919050565b60006020820190508181036000830152613ba581613b69565b9050919050565b6000602082019050613bc160008301846131ba565b92915050565b7f5072656d69756d20746f6f206c6f770000000000000000000000000000000000600082015250565b6000613bfd600f83613161565b9150613c0882613bc7565b602082019050919050565b60006020820190508181036000830152613c2c81613bf0565b9050919050565b7f5072656d69756d20746f6f206869676800000000000000000000000000000000600082015250565b6000613c69601083613161565b9150613c7482613c33565b602082019050919050565b60006020820190508181036000830152613c9881613c5c565b9050919050565b7f466c69676874206d75737420626520696e207468652066757475726500000000600082015250565b6000613cd5601c83613161565b9150613ce082613c9f565b602082019050919050565b60006020820190508181036000830152613d0481613cc8565b9050919050565b60006020601f8301049050919050565b600082821b905092915050565b600060088302613d587fffffffffffffffffffffffffffffffffffffffffffffffffffffffffffffffff82613d1b565b613d628683613d1b565b95508019841693508086168417925050509392505050565b6000819050919050565b6000613d9f613d9a613d9584612dc1565b613d7a565b612dc1565b9050919050565b6000819050919050565b613db983613d84565b613dcd613dc582613da6565b848454613d28565b825550505050565b600090565b613de2613dd5565b613ded818484613db0565b505050565b5b81811015613e1157613e06600082613dda565b600181019050613df3565b5050565b601f821115613e5657613e278161395d565b613e3084613d0b565b81016020851015613e3f578190505b613e53613e4b85613d0b565b830182613df2565b50505b505050565b600082821c905092915050565b6000613e7960001984600802613e5b565b1980831691505092915050565b6000613e928383613e68565b9150826002028217905092915050565b613eab82612efd565b67ffffffffffffffff811115613ec457613ec36132f2565b5b613ece825461392c565b613ed9828285613e15565b600060209050601f831160018114613f0c5760008415613efa578287015190505b613f048582613e86565b865550613f6c565b601f198416613f1a8661395d565b60005b82811015613f4257848901518255600182019150602085019450602081019050613f1d565b86831015613f5f5784890151613f5b601f891682613e68565b8355505b6001600288020188555050505b505050505050565b6000613f7f82612dc1565b91507fffffffffffffffffffffffffffffffffffffffffffffffffffffffffffffffff8203613fb157613fb0613720565b5b600182019050919050565b60006060820190508181036000830152613fd68186613172565b9050613fe560208301856131ab565b613ff260408301846131ab565b949350505050565b7f496e76616c696420706f6c69637920696e646578000000000000000000000000600082015250565b6000614030601483613161565b915061403b82613ffa565b602082019050919050565b6000602082019050818103600083015261405f81614023565b9050919050565b7f466c69676874206e6f7420766572696669656400000000000000000000000000600082015250565b600061409c601383613161565b91506140a782614066565b602082019050919050565b600060208201905081810360008301526140cb8161408f565b9050919050565b7f436c61696d20616c72656164792070726f636573736564000000000000000000600082015250565b6000614108601783613161565b9150614113826140d2565b602082019050919050565b60006020820190508181036000830152614137816140fb565b9050919050565b7f466c69676874206861736e277420646570617274656420796574000000000000600082015250565b6000614174601a83613161565b915061417f8261413e565b602082019050919050565b600060208201905081810360008301526141a381614167565b9050919050565b7f4f6e6c792063616c6c61626c65206279206f776e657200000000000000000000600082015250565b60006141e0601683613161565b91506141eb826141aa565b602082019050919050565b6000602082019050818103600083015261420f816141d3565b9050919050565b600081905092915050565b6000815461422e8161392c565b6142388186614216565b9450600182166000811461425357600181146142685761429b565b60ff198316865281151582028601935061429b565b6142718561395d565b60005b8381101561429357815481890152600182019150602081019050614274565b838801955050505b50505092915050565b7f2f6170692f7665726966792d666c696768740000000000000000000000000000600082015250565b60006142da601283614216565b91506142e5826142a4565b601282019050919050565b60006142fc8284614221565b9150614307826142cd565b915081905092915050565b7f7b226169726c696e655f69617461223a22000000000000000000000000000000600082015250565b6000614348601183614216565b915061435382614312565b601182019050919050565b600061436982612efd565b6143738185614216565b9350614383818560208601612f19565b80840191505092915050565b7f222c22666c696768745f6e756d626572223a2200000000000000000000000000600082015250565b60006143c5601383614216565b91506143d08261438f565b601382019050919050565b7f222c226465706172747572655f64617465223a22000000000000000000000000600082015250565b6000614411601483614216565b915061441c826143db565b601482019050919050565b7f227d000000000000000000000000000000000000000000000000000000000000600082015250565b600061445d600283614216565b915061446882614427565b600282019050919050565b600061447e8261433b565b915061448a828661435e565b9150614495826143b8565b91506144a1828561435e565b91506144ac82614404565b91506144b8828461435e565b91506144c382614450565b9150819050949350505050565b60006144dc828561435e565b91506144e8828461435e565b91508190509392505050565b7f2f6170692f666c696768742d64656c61793f666c696768745f696174613d0000600082015250565b600061452a601e83614216565b9150614535826144f4565b601e82019050919050565b7f266465706172747572655f646174653d00000000000000000000000000000000600082015250565b6000614576601083614216565b915061458182614540565b601082019050919050565b60006145988286614221565b91506145a38261451d565b91506145af828561435e565b91506145ba82614569565b91506145c6828461435e565b9150819050949350505050565b7f43616e6e6f74207472616e7366657220746f2073656c66000000000000000000600082015250565b6000614609601783613161565b9150614614826145d3565b602082019050919050565b60006020820190508181036000830152614638816145fc565b9050919050565b600061464a82612dc1565b915061465583612dc1565b92508261466557614664613791565b5b828206905092915050565b7f3000000000000000000000000000000000000000000000000000000000000000600082015250565b60006146a6600183614216565b91506146b182614670565b600182019050919050565b60006146c782614699565b91506146d3828461435e565b915081905092915050565b7f2d00000000000000000000000000000000000000000000000000000000000000600082015250565b6000614714600183614216565b915061471f826146de565b600182019050919050565b6000614736828661435e565b915061474182614707565b915061474d828561435e565b915061475882614707565b9150614764828461435e565b9150819050949350505050565b600060ff82169050919050565b600061478982614771565b915061479483614771565b9250828201905060ff8111156147ad576147ac613720565b5b92915050565b6147bc81612d8b565b82525050565b60007fffffffff0000000000000000000000000000000000000000000000000000000082169050919050565b6147f7816147c2565b82525050565b600081519050919050565b600082825260208201905092915050565b6000614824826147fd565b61482e8185614808565b935061483e818560208601612f19565b61484781612f43565b840191505092915050565b600061010082019050614868600083018b613152565b614875602083018a6131ab565b61488260408301896147b3565b61488f6060830188613152565b61489c60808301876147ee565b6148a960a08301866131ab565b6148b660c08301856131ab565b81810360e08301526148c88184614819565b90509998505050505050505050565b60006148f26148ed6148e884612e37565b613d7a565b612e37565b9050919050565b6000614904826148d7565b9050919050565b6000614916826148f9565b9050919050565b60008160601b9050919050565b60006149358261491d565b9050919050565b60006149478261492a565b9050919050565b61495f61495a8261490b565b61493c565b82525050565b6000819050919050565b61498061497b82612dc1565b614965565b82525050565b6000614992828561494e565b6014820191506149a2828461496f565b6020820191508190509392505050565b60006060820190506149c76000830186613152565b6149d460208301856131ab565b81810360408301526149e68184614819565b9050949350505050565b6000815190506149ff81613261565b92915050565b600060208284031215614a1b57614a1a612d81565b5b6000614a29848285016149f0565b91505092915050565b7f756e61626c6520746f207472616e73666572416e6443616c6c20746f206f726160008201527f636c650000000000000000000000000000000000000000000000000000000000602082015250565b6000614a8e602383613161565b9150614a9982614a32565b604082019050919050565b60006020820190508181036000830152614abd81614a81565b9050919050565b60008160011c9050919050565b6000808291508390505b6001851115614b1b57808604811115614af757614af6613720565b5b6001851615614b065780820291505b8081029050614b1485614ac4565b9450614adb565b94509492505050565b600082614b345760019050614bf0565b81614b425760009050614bf0565b8160018114614b585760028114614b6257614b91565b6001915050614bf0565b60ff841115614b7457614b73613720565b5b8360020a915084821115614b8b57614b8a613720565b5b50614bf0565b5060208310610133831016604e8410600b8410161715614bc65782820a905083811115614bc157614bc0613720565b5b614bf0565b614bd38484846001614ad1565b92509050818404811115614bea57614be9613720565b5b81810290505b9392505050565b6000614c0282612dc1565b9150614c0d83612dc1565b9250614c3a7fffffffffffffffffffffffffffffffffffffffffffffffffffffffffffffffff8484614b24565b90509291505056fe7b22436f6e74656e742d54797065223a20226170706c69636174696f6e2f6a736f6e227da26469706673582212205c7b5062debf3df9eaa02e124a433838516d4b6bdb8807870dbedb1382460ed264736f6c634300081c003368747470733a2f2f646563656e747261666c696768746170692e6f6e72656e6465722e636f6d","opcodes":"PUSH1 0x80 PUSH1 0x40 MSTORE PUSH1 0x1 PUSH1 0x4 SSTORE PUSH1 0x40 MLOAD DUP1 PUSH1 0x60 ADD PUSH1 0x40 MSTORE DUP1 PUSH1 0x26 DUP2 MSTORE PUSH1 0x20 ADD PUSH2 0x5425 PUSH1 0x26 SWAP2 CODECOPY PUSH1 0xA SWAP1 DUP2 PUSH2 0x30 SWAP2 SWAP1 PUSH2 0x5BF JUMP JUMPDEST POP CALLVALUE DUP1 ISZERO PUSH2 0x3D JUMPI PUSH1 0x0 DUP1 REVERT JUMPDEST POP CALLER DUP1 PUSH1 0x0 DUP1 PUSH20 0xFFFFFFFFFFFFFFFFFFFFFFFFFFFFFFFFFFFFFFFF AND DUP3 PUSH20 0xFFFFFFFFFFFFFFFFFFFFFFFFFFFFFFFFFFFFFFFF AND SUB PUSH2 0xB0 JUMPI PUSH1 0x40 MLOAD PUSH32 0x8C379A000000000000000000000000000000000000000000000000000000000 DUP2 MSTORE PUSH1 0x4 ADD PUSH2 0xA7 SWAP1 PUSH2 0x6EE JUMP JUMPDEST PUSH1 0x40 MLOAD DUP1 SWAP2 SUB SWAP1 REVERT JUMPDEST DUP2 PUSH1 0x6 PUSH1 0x0 PUSH2 0x100 EXP DUP2 SLOAD DUP2 PUSH20 0xFFFFFFFFFFFFFFFFFFFFFFFFFFFFFFFFFFFFFFFF MUL NOT AND SWAP1 DUP4 PUSH20 0xFFFFFFFFFFFFFFFFFFFFFFFFFFFFFFFFFFFFFFFF AND MUL OR SWAP1 SSTORE POP PUSH1 0x0 PUSH20 0xFFFFFFFFFFFFFFFFFFFFFFFFFFFFFFFFFFFFFFFF AND DUP2 PUSH20 0xFFFFFFFFFFFFFFFFFFFFFFFFFFFFFFFFFFFFFFFF AND EQ PUSH2 0x135 JUMPI PUSH2 0x134 DUP2 PUSH2 0x1B9 PUSH1 0x20 SHL PUSH1 0x20 SHR JUMP JUMPDEST JUMPDEST POP POP POP PUSH2 0x15B PUSH20 0x326C977E6EFC84E512BB9C30F76E30C160ED06FB PUSH2 0x2E7 PUSH1 0x20 SHL PUSH1 0x20 SHR JUMP JUMPDEST PUSH2 0x17E PUSH20 0xD36C6B1777C7F3DB1B3201BDD87081A9045B7B46 PUSH2 0x32B PUSH1 0x20 SHL PUSH1 0x20 SHR JUMP JUMPDEST PUSH32 0x6138333536663438353639633433346561613461633566636234646235636330 PUSH1 0x8 DUP2 SWAP1 SSTORE POP PUSH8 0x16345785D8A0000 PUSH1 0x9 DUP2 SWAP1 SSTORE POP PUSH2 0x77A JUMP JUMPDEST CALLER PUSH20 0xFFFFFFFFFFFFFFFFFFFFFFFFFFFFFFFFFFFFFFFF AND DUP2 PUSH20 0xFFFFFFFFFFFFFFFFFFFFFFFFFFFFFFFFFFFFFFFF AND SUB PUSH2 0x227 JUMPI PUSH1 0x40 MLOAD PUSH32 0x8C379A000000000000000000000000000000000000000000000000000000000 DUP2 MSTORE PUSH1 0x4 ADD PUSH2 0x21E SWAP1 PUSH2 0x75A JUMP JUMPDEST PUSH1 0x40 MLOAD DUP1 SWAP2 SUB SWAP1 REVERT JUMPDEST DUP1 PUSH1 0x7 PUSH1 0x0 PUSH2 0x100 EXP DUP2 SLOAD DUP2 PUSH20 0xFFFFFFFFFFFFFFFFFFFFFFFFFFFFFFFFFFFFFFFF MUL NOT AND SWAP1 DUP4 PUSH20 0xFFFFFFFFFFFFFFFFFFFFFFFFFFFFFFFFFFFFFFFF AND MUL OR SWAP1 SSTORE POP DUP1 PUSH20 0xFFFFFFFFFFFFFFFFFFFFFFFFFFFFFFFFFFFFFFFF AND PUSH1 0x6 PUSH1 0x0 SWAP1 SLOAD SWAP1 PUSH2 0x100 EXP SWAP1 DIV PUSH20 0xFFFFFFFFFFFFFFFFFFFFFFFFFFFFFFFFFFFFFFFF AND PUSH20 0xFFFFFFFFFFFFFFFFFFFFFFFFFFFFFFFFFFFFFFFF AND PUSH32 0xED8889F560326EB138920D842192F0EB3DD22B4F139C87A2C57538E05BAE1278 PUSH1 0x40 MLOAD PUSH1 0x40 MLOAD DUP1 SWAP2 SUB SWAP1 LOG3 POP JUMP JUMPDEST DUP1 PUSH1 0x2 PUSH1 0x0 PUSH2 0x100 EXP DUP2 SLOAD DUP2 PUSH20 0xFFFFFFFFFFFFFFFFFFFFFFFFFFFFFFFFFFFFFFFF MUL NOT AND SWAP1 DUP4 PUSH20 0xFFFFFFFFFFFFFFFFFFFFFFFFFFFFFFFFFFFFFFFF AND MUL OR SWAP1 SSTORE POP POP JUMP JUMPDEST DUP1 PUSH1 0x3 PUSH1 0x0 PUSH2 0x100 EXP DUP2 SLOAD DUP2 PUSH20 0xFFFFFFFFFFFFFFFFFFFFFFFFFFFFFFFFFFFFFFFF MUL NOT AND SWAP1 DUP4 PUSH20 0xFFFFFFFFFFFFFFFFFFFFFFFFFFFFFFFFFFFFFFFF AND MUL OR SWAP1 SSTORE POP POP JUMP JUMPDEST PUSH1 0x0 DUP2 MLOAD SWAP1 POP SWAP2 SWAP1 POP JUMP JUMPDEST PUSH32 0x4E487B7100000000000000000000000000000000000000000000000000000000 PUSH1 0x0 MSTORE PUSH1 0x41 PUSH1 0x4 MSTORE PUSH1 0x24 PUSH1 0x0 REVERT JUMPDEST PUSH32 0x4E487B7100000000000000000000000000000000000000000000000000000000 PUSH1 0x0 MSTORE PUSH1 0x22 PUSH1 0x4 MSTORE PUSH1 0x24 PUSH1 0x0 REVERT JUMPDEST PUSH1 0x0 PUSH1 0x2 DUP3 DIV SWAP1 POP PUSH1 0x1 DUP3 AND DUP1 PUSH2 0x3F0 JUMPI PUSH1 0x7F DUP3 AND SWAP2 POP JUMPDEST PUSH1 0x20 DUP3 LT DUP2 SUB PUSH2 0x403 JUMPI PUSH2 0x402 PUSH2 0x3A9 JUMP JUMPDEST JUMPDEST POP SWAP2 SWAP1 POP JUMP JUMPDEST PUSH1 0x0 DUP2 SWAP1 POP DUP2 PUSH1 0x0 MSTORE PUSH1 0x20 PUSH1 0x0 KECCAK256 SWAP1 POP SWAP2 SWAP1 POP JUMP JUMPDEST PUSH1 0x0 PUSH1 0x20 PUSH1 0x1F DUP4 ADD DIV SWAP1 POP SWAP2 SWAP1 POP JUMP JUMPDEST PUSH1 0x0 DUP3 DUP3 SHL SWAP1 POP SWAP3 SWAP2 POP POP JUMP JUMPDEST PUSH1 0x0 PUSH1 0x8 DUP4 MUL PUSH2 0x46B PUSH32 0xFFFFFFFFFFFFFFFFFFFFFFFFFFFFFFFFFFFFFFFFFFFFFFFFFFFFFFFFFFFFFFFF DUP3 PUSH2 0x42E JUMP JUMPDEST PUSH2 0x475 DUP7 DUP4 PUSH2 0x42E JUMP JUMPDEST SWAP6 POP DUP1 NOT DUP5 AND SWAP4 POP DUP1 DUP7 AND DUP5 OR SWAP3 POP POP POP SWAP4 SWAP3 POP POP POP JUMP JUMPDEST PUSH1 0x0 DUP2 SWAP1 POP SWAP2 SWAP1 POP JUMP JUMPDEST PUSH1 0x0 DUP2 SWAP1 POP SWAP2 SWAP1 POP JUMP JUMPDEST PUSH1 0x0 PUSH2 0x4BC PUSH2 0x4B7 PUSH2 0x4B2 DUP5 PUSH2 0x48D JUMP JUMPDEST PUSH2 0x497 JUMP JUMPDEST PUSH2 0x48D JUMP JUMPDEST SWAP1 POP SWAP2 SWAP1 POP JUMP JUMPDEST PUSH1 0x0 DUP2 SWAP1 POP SWAP2 SWAP1 POP JUMP JUMPDEST PUSH2 0x4D6 DUP4 PUSH2 0x4A1 JUMP JUMPDEST PUSH2 0x4EA PUSH2 0x4E2 DUP3 PUSH2 0x4C3 JUMP JUMPDEST DUP5 DUP5 SLOAD PUSH2 0x43B JUMP JUMPDEST DUP3 SSTORE POP POP POP POP JUMP JUMPDEST PUSH1 0x0 SWAP1 JUMP JUMPDEST PUSH2 0x4FF PUSH2 0x4F2 JUMP JUMPDEST PUSH2 0x50A DUP2 DUP5 DUP5 PUSH2 0x4CD JUMP JUMPDEST POP POP POP JUMP JUMPDEST JUMPDEST DUP2 DUP2 LT ISZERO PUSH2 0x52E JUMPI PUSH2 0x523 PUSH1 0x0 DUP3 PUSH2 0x4F7 JUMP JUMPDEST PUSH1 0x1 DUP2 ADD SWAP1 POP PUSH2 0x510 JUMP JUMPDEST POP POP JUMP JUMPDEST PUSH1 0x1F DUP3 GT ISZERO PUSH2 0x573 JUMPI PUSH2 0x544 DUP2 PUSH2 0x409 JUMP JUMPDEST PUSH2 0x54D DUP5 PUSH2 0x41E JUMP JUMPDEST DUP2 ADD PUSH1 0x20 DUP6 LT ISZERO PUSH2 0x55C JUMPI DUP2 SWAP1 POP JUMPDEST PUSH2 0x570 PUSH2 0x568 DUP6 PUSH2 0x41E JUMP JUMPDEST DUP4 ADD DUP3 PUSH2 0x50F JUMP JUMPDEST POP POP JUMPDEST POP POP POP JUMP JUMPDEST PUSH1 0x0 DUP3 DUP3 SHR SWAP1 POP SWAP3 SWAP2 POP POP JUMP JUMPDEST PUSH1 0x0 PUSH2 0x596 PUSH1 0x0 NOT DUP5 PUSH1 0x8 MUL PUSH2 0x578 JUMP JUMPDEST NOT DUP1 DUP4 AND SWAP2 POP POP SWAP3 SWAP2 POP POP JUMP JUMPDEST PUSH1 0x0 PUSH2 0x5AF DUP4 DUP4 PUSH2 0x585 JUMP JUMPDEST SWAP2 POP DUP3 PUSH1 0x2 MUL DUP3 OR SWAP1 POP SWAP3 SWAP2 POP POP JUMP JUMPDEST PUSH2 0x5C8 DUP3 PUSH2 0x36F JUMP JUMPDEST PUSH8 0xFFFFFFFFFFFFFFFF DUP2 GT ISZERO PUSH2 0x5E1 JUMPI PUSH2 0x5E0 PUSH2 0x37A JUMP JUMPDEST JUMPDEST PUSH2 0x5EB DUP3 SLOAD PUSH2 0x3D8 JUMP JUMPDEST PUSH2 0x5F6 DUP3 DUP3 DUP6 PUSH2 0x532 JUMP JUMPDEST PUSH1 0x0 PUSH1 0x20 SWAP1 POP PUSH1 0x1F DUP4 GT PUSH1 0x1 DUP2 EQ PUSH2 0x629 JUMPI PUSH1 0x0 DUP5 ISZERO PUSH2 0x617 JUMPI DUP3 DUP8 ADD MLOAD SWAP1 POP JUMPDEST PUSH2 0x621 DUP6 DUP3 PUSH2 0x5A3 JUMP JUMPDEST DUP7 SSTORE POP PUSH2 0x689 JUMP JUMPDEST PUSH1 0x1F NOT DUP5 AND PUSH2 0x637 DUP7 PUSH2 0x409 JUMP JUMPDEST PUSH1 0x0 JUMPDEST DUP3 DUP2 LT ISZERO PUSH2 0x65F JUMPI DUP5 DUP10 ADD MLOAD DUP3 SSTORE PUSH1 0x1 DUP3 ADD SWAP2 POP PUSH1 0x20 DUP6 ADD SWAP5 POP PUSH1 0x20 DUP2 ADD SWAP1 POP PUSH2 0x63A JUMP JUMPDEST DUP7 DUP4 LT ISZERO PUSH2 0x67C JUMPI DUP5 DUP10 ADD MLOAD PUSH2 0x678 PUSH1 0x1F DUP10 AND DUP3 PUSH2 0x585 JUMP JUMPDEST DUP4 SSTORE POP JUMPDEST PUSH1 0x1 PUSH1 0x2 DUP9 MUL ADD DUP9 SSTORE POP POP POP JUMPDEST POP POP POP POP POP POP JUMP JUMPDEST PUSH1 0x0 DUP3 DUP3 MSTORE PUSH1 0x20 DUP3 ADD SWAP1 POP SWAP3 SWAP2 POP POP JUMP JUMPDEST PUSH32 0x43616E6E6F7420736574206F776E657220746F207A65726F0000000000000000 PUSH1 0x0 DUP3 ADD MSTORE POP JUMP JUMPDEST PUSH1 0x0 PUSH2 0x6D8 PUSH1 0x18 DUP4 PUSH2 0x691 JUMP JUMPDEST SWAP2 POP PUSH2 0x6E3 DUP3 PUSH2 0x6A2 JUMP JUMPDEST PUSH1 0x20 DUP3 ADD SWAP1 POP SWAP2 SWAP1 POP JUMP JUMPDEST PUSH1 0x0 PUSH1 0x20 DUP3 ADD SWAP1 POP DUP2 DUP2 SUB PUSH1 0x0 DUP4 ADD MSTORE PUSH2 0x707 DUP2 PUSH2 0x6CB JUMP JUMPDEST SWAP1 POP SWAP2 SWAP1 POP JUMP JUMPDEST PUSH32 0x43616E6E6F74207472616E7366657220746F2073656C66000000000000000000 PUSH1 0x0 DUP3 ADD MSTORE POP JUMP JUMPDEST PUSH1 0x0 PUSH2 0x744 PUSH1 0x17 DUP4 PUSH2 0x691 JUMP JUMPDEST SWAP2 POP PUSH2 0x74F DUP3 PUSH2 0x70E JUMP JUMPDEST PUSH1 0x20 DUP3 ADD SWAP1 POP SWAP2 SWAP1 POP JUMP JUMPDEST PUSH1 0x0 PUSH1 0x20 DUP3 ADD SWAP1 POP DUP2 DUP2 SUB PUSH1 0x0 DUP4 ADD MSTORE PUSH2 0x773 DUP2 PUSH2 0x737 JUMP JUMPDEST SWAP1 POP SWAP2 SWAP1 POP JUMP JUMPDEST PUSH2 0x4C9C DUP1 PUSH2 0x789 PUSH1 0x0 CODECOPY PUSH1 0x0 RETURN INVALID PUSH1 0x80 PUSH1 0x40 MSTORE PUSH1 0x4 CALLDATASIZE LT PUSH2 0x10D JUMPI PUSH1 0x0 CALLDATALOAD PUSH1 0xE0 SHR DUP1 PUSH4 0x7AB22360 GT PUSH2 0x95 JUMPI DUP1 PUSH4 0xBE5C8F44 GT PUSH2 0x64 JUMPI DUP1 PUSH4 0xBE5C8F44 EQ PUSH2 0x346 JUMPI DUP1 PUSH4 0xCF4B4CF7 EQ PUSH2 0x371 JUMPI DUP1 PUSH4 0xD61909F9 EQ PUSH2 0x38D JUMPI DUP1 PUSH4 0xF059D78E EQ PUSH2 0x3B6 JUMPI DUP1 PUSH4 0xF2FDE38B EQ PUSH2 0x3E1 JUMPI PUSH2 0x114 JUMP JUMPDEST DUP1 PUSH4 0x7AB22360 EQ PUSH2 0x29C JUMPI DUP1 PUSH4 0x80A78506 EQ PUSH2 0x2C7 JUMPI DUP1 PUSH4 0x8DA5CB5B EQ PUSH2 0x2F0 JUMPI DUP1 PUSH4 0xAED0ACEE EQ PUSH2 0x31B JUMPI PUSH2 0x114 JUMP JUMPDEST DUP1 PUSH4 0x4089B170 GT PUSH2 0xDC JUMPI DUP1 PUSH4 0x4089B170 EQ PUSH2 0x1D9 JUMPI DUP1 PUSH4 0x4BC92D6C EQ PUSH2 0x204 JUMPI DUP1 PUSH4 0x4CDABB16 EQ PUSH2 0x22F JUMPI DUP1 PUSH4 0x5BDA1584 EQ PUSH2 0x25A JUMPI DUP1 PUSH4 0x79BA5097 EQ PUSH2 0x285 JUMPI PUSH2 0x114 JUMP JUMPDEST DUP1 PUSH4 0x419B45A EQ PUSH2 0x119 JUMPI DUP1 PUSH4 0x13C48E42 EQ PUSH2 0x130 JUMPI DUP1 PUSH4 0x19AC4614 EQ PUSH2 0x159 JUMPI DUP1 PUSH4 0x3D36ADC5 EQ PUSH2 0x196 JUMPI PUSH2 0x114 JUMP JUMPDEST CALLDATASIZE PUSH2 0x114 JUMPI STOP JUMPDEST PUSH1 0x0 DUP1 REVERT JUMPDEST CALLVALUE DUP1 ISZERO PUSH2 0x125 JUMPI PUSH1 0x0 DUP1 REVERT JUMPDEST POP PUSH2 0x12E PUSH2 0x40A JUMP JUMPDEST STOP JUMPDEST CALLVALUE DUP1 ISZERO PUSH2 0x13C JUMPI PUSH1 0x0 DUP1 REVERT JUMPDEST POP PUSH2 0x157 PUSH1 0x4 DUP1 CALLDATASIZE SUB DUP2 ADD SWAP1 PUSH2 0x152 SWAP2 SWAP1 PUSH2 0x2DF7 JUMP JUMPDEST PUSH2 0x572 JUMP JUMPDEST STOP JUMPDEST CALLVALUE DUP1 ISZERO PUSH2 0x165 JUMPI PUSH1 0x0 DUP1 REVERT JUMPDEST POP PUSH2 0x180 PUSH1 0x4 DUP1 CALLDATASIZE SUB DUP2 ADD SWAP1 PUSH2 0x17B SWAP2 SWAP1 PUSH2 0x2E95 JUMP JUMPDEST PUSH2 0x975 JUMP JUMPDEST PUSH1 0x40 MLOAD PUSH2 0x18D SWAP2 SWAP1 PUSH2 0x30F0 JUMP JUMPDEST PUSH1 0x40 MLOAD DUP1 SWAP2 SUB SWAP1 RETURN JUMPDEST CALLVALUE DUP1 ISZERO PUSH2 0x1A2 JUMPI PUSH1 0x0 DUP1 REVERT JUMPDEST POP PUSH2 0x1BD PUSH1 0x4 DUP1 CALLDATASIZE SUB DUP2 ADD SWAP1 PUSH2 0x1B8 SWAP2 SWAP1 PUSH2 0x3112 JUMP JUMPDEST PUSH2 0xBD7 JUMP JUMPDEST PUSH1 0x40 MLOAD PUSH2 0x1D0 SWAP8 SWAP7 SWAP6 SWAP5 SWAP4 SWAP3 SWAP2 SWAP1 PUSH2 0x31C9 JUMP JUMPDEST PUSH1 0x40 MLOAD DUP1 SWAP2 SUB SWAP1 RETURN JUMPDEST CALLVALUE DUP1 ISZERO PUSH2 0x1E5 JUMPI PUSH1 0x0 DUP1 REVERT JUMPDEST POP PUSH2 0x1EE PUSH2 0xD80 JUMP JUMPDEST PUSH1 0x40 MLOAD PUSH2 0x1FB SWAP2 SWAP1 PUSH2 0x3246 JUMP JUMPDEST PUSH1 0x40 MLOAD DUP1 SWAP2 SUB SWAP1 RETURN JUMPDEST CALLVALUE DUP1 ISZERO PUSH2 0x210 JUMPI PUSH1 0x0 DUP1 REVERT JUMPDEST POP PUSH2 0x219 PUSH2 0xD86 JUMP JUMPDEST PUSH1 0x40 MLOAD PUSH2 0x226 SWAP2 SWAP1 PUSH2 0x3246 JUMP JUMPDEST PUSH1 0x40 MLOAD DUP1 SWAP2 SUB SWAP1 RETURN JUMPDEST CALLVALUE DUP1 ISZERO PUSH2 0x23B JUMPI PUSH1 0x0 DUP1 REVERT JUMPDEST POP PUSH2 0x244 PUSH2 0xD8C JUMP JUMPDEST PUSH1 0x40 MLOAD PUSH2 0x251 SWAP2 SWAP1 PUSH2 0x3246 JUMP JUMPDEST PUSH1 0x40 MLOAD DUP1 SWAP2 SUB SWAP1 RETURN JUMPDEST CALLVALUE DUP1 ISZERO PUSH2 0x266 JUMPI PUSH1 0x0 DUP1 REVERT JUMPDEST POP PUSH2 0x26F PUSH2 0xD98 JUMP JUMPDEST PUSH1 0x40 MLOAD PUSH2 0x27C SWAP2 SWAP1 PUSH2 0x3246 JUMP JUMPDEST PUSH1 0x40 MLOAD DUP1 SWAP2 SUB SWAP1 RETURN JUMPDEST CALLVALUE DUP1 ISZERO PUSH2 0x291 JUMPI PUSH1 0x0 DUP1 REVERT JUMPDEST POP PUSH2 0x29A PUSH2 0xD9E JUMP JUMPDEST STOP JUMPDEST CALLVALUE DUP1 ISZERO PUSH2 0x2A8 JUMPI PUSH1 0x0 DUP1 REVERT JUMPDEST POP PUSH2 0x2B1 PUSH2 0xF35 JUMP JUMPDEST PUSH1 0x40 MLOAD PUSH2 0x2BE SWAP2 SWAP1 PUSH2 0x3246 JUMP JUMPDEST PUSH1 0x40 MLOAD DUP1 SWAP2 SUB SWAP1 RETURN JUMPDEST CALLVALUE DUP1 ISZERO PUSH2 0x2D3 JUMPI PUSH1 0x0 DUP1 REVERT JUMPDEST POP PUSH2 0x2EE PUSH1 0x4 DUP1 CALLDATASIZE SUB DUP2 ADD SWAP1 PUSH2 0x2E9 SWAP2 SWAP1 PUSH2 0x328D JUMP JUMPDEST PUSH2 0xF3A JUMP JUMPDEST STOP JUMPDEST CALLVALUE DUP1 ISZERO PUSH2 0x2FC JUMPI PUSH1 0x0 DUP1 REVERT JUMPDEST POP PUSH2 0x305 PUSH2 0x1313 JUMP JUMPDEST PUSH1 0x40 MLOAD PUSH2 0x312 SWAP2 SWAP1 PUSH2 0x32CD JUMP JUMPDEST PUSH1 0x40 MLOAD DUP1 SWAP2 SUB SWAP1 RETURN JUMPDEST CALLVALUE DUP1 ISZERO PUSH2 0x327 JUMPI PUSH1 0x0 DUP1 REVERT JUMPDEST POP PUSH2 0x330 PUSH2 0x133D JUMP JUMPDEST PUSH1 0x40 MLOAD PUSH2 0x33D SWAP2 SWAP1 PUSH2 0x3246 JUMP JUMPDEST PUSH1 0x40 MLOAD DUP1 SWAP2 SUB SWAP1 RETURN JUMPDEST CALLVALUE DUP1 ISZERO PUSH2 0x352 JUMPI PUSH1 0x0 DUP1 REVERT JUMPDEST POP PUSH2 0x35B PUSH2 0x1342 JUMP JUMPDEST PUSH1 0x40 MLOAD PUSH2 0x368 SWAP2 SWAP1 PUSH2 0x3246 JUMP JUMPDEST PUSH1 0x40 MLOAD DUP1 SWAP2 SUB SWAP1 RETURN JUMPDEST PUSH2 0x38B PUSH1 0x4 DUP1 CALLDATASIZE SUB DUP2 ADD SWAP1 PUSH2 0x386 SWAP2 SWAP1 PUSH2 0x341D JUMP JUMPDEST PUSH2 0x134D JUMP JUMPDEST STOP JUMPDEST CALLVALUE DUP1 ISZERO PUSH2 0x399 JUMPI PUSH1 0x0 DUP1 REVERT JUMPDEST POP PUSH2 0x3B4 PUSH1 0x4 DUP1 CALLDATASIZE SUB DUP2 ADD SWAP1 PUSH2 0x3AF SWAP2 SWAP1 PUSH2 0x34A8 JUMP JUMPDEST PUSH2 0x16CA JUMP JUMPDEST STOP JUMPDEST CALLVALUE DUP1 ISZERO PUSH2 0x3C2 JUMPI PUSH1 0x0 DUP1 REVERT JUMPDEST POP PUSH2 0x3CB PUSH2 0x19C7 JUMP JUMPDEST PUSH1 0x40 MLOAD PUSH2 0x3D8 SWAP2 SWAP1 PUSH2 0x3246 JUMP JUMPDEST PUSH1 0x40 MLOAD DUP1 SWAP2 SUB SWAP1 RETURN JUMPDEST CALLVALUE DUP1 ISZERO PUSH2 0x3ED JUMPI PUSH1 0x0 DUP1 REVERT JUMPDEST POP PUSH2 0x408 PUSH1 0x4 DUP1 CALLDATASIZE SUB DUP2 ADD SWAP1 PUSH2 0x403 SWAP2 SWAP1 PUSH2 0x2E95 JUMP JUMPDEST PUSH2 0x19CD JUMP JUMPDEST STOP JUMPDEST PUSH2 0x412 PUSH2 0x19E1 JUMP JUMPDEST PUSH1 0x0 PUSH1 0xE SLOAD GT PUSH2 0x457 JUMPI PUSH1 0x40 MLOAD PUSH32 0x8C379A000000000000000000000000000000000000000000000000000000000 DUP2 MSTORE PUSH1 0x4 ADD PUSH2 0x44E SWAP1 PUSH2 0x3521 JUMP JUMPDEST PUSH1 0x40 MLOAD DUP1 SWAP2 SUB SWAP1 REVERT JUMPDEST PUSH1 0x0 PUSH1 0xE SLOAD SWAP1 POP PUSH1 0x0 PUSH1 0xE DUP2 SWAP1 SSTORE POP PUSH1 0x0 PUSH2 0x470 PUSH2 0x1313 JUMP JUMPDEST PUSH20 0xFFFFFFFFFFFFFFFFFFFFFFFFFFFFFFFFFFFFFFFF AND DUP3 PUSH1 0x40 MLOAD PUSH2 0x493 SWAP1 PUSH2 0x3572 JUMP JUMPDEST PUSH1 0x0 PUSH1 0x40 MLOAD DUP1 DUP4 SUB DUP2 DUP6 DUP8 GAS CALL SWAP3 POP POP POP RETURNDATASIZE DUP1 PUSH1 0x0 DUP2 EQ PUSH2 0x4D0 JUMPI PUSH1 0x40 MLOAD SWAP2 POP PUSH1 0x1F NOT PUSH1 0x3F RETURNDATASIZE ADD AND DUP3 ADD PUSH1 0x40 MSTORE RETURNDATASIZE DUP3 MSTORE RETURNDATASIZE PUSH1 0x0 PUSH1 0x20 DUP5 ADD RETURNDATACOPY PUSH2 0x4D5 JUMP JUMPDEST PUSH1 0x60 SWAP2 POP JUMPDEST POP POP SWAP1 POP DUP1 PUSH2 0x519 JUMPI PUSH1 0x40 MLOAD PUSH32 0x8C379A000000000000000000000000000000000000000000000000000000000 DUP2 MSTORE PUSH1 0x4 ADD PUSH2 0x510 SWAP1 PUSH2 0x35D3 JUMP JUMPDEST PUSH1 0x40 MLOAD DUP1 SWAP2 SUB SWAP1 REVERT JUMPDEST PUSH2 0x521 PUSH2 0x1313 JUMP JUMPDEST PUSH20 0xFFFFFFFFFFFFFFFFFFFFFFFFFFFFFFFFFFFFFFFF AND PUSH32 0xCDCAFF67AC16639664E5F9343C9223A1DC9C972EC367B69AE9FC1325C7BE5474 DUP4 PUSH1 0x40 MLOAD PUSH2 0x566 SWAP2 SWAP1 PUSH2 0x3246 JUMP JUMPDEST PUSH1 0x40 MLOAD DUP1 SWAP2 SUB SWAP1 LOG2 POP POP JUMP JUMPDEST DUP2 PUSH1 0x5 PUSH1 0x0 DUP3 DUP2 MSTORE PUSH1 0x20 ADD SWAP1 DUP2 MSTORE PUSH1 0x20 ADD PUSH1 0x0 KECCAK256 PUSH1 0x0 SWAP1 SLOAD SWAP1 PUSH2 0x100 EXP SWAP1 DIV PUSH20 0xFFFFFFFFFFFFFFFFFFFFFFFFFFFFFFFFFFFFFFFF AND PUSH20 0xFFFFFFFFFFFFFFFFFFFFFFFFFFFFFFFFFFFFFFFF AND CALLER PUSH20 0xFFFFFFFFFFFFFFFFFFFFFFFFFFFFFFFFFFFFFFFF AND EQ PUSH2 0x614 JUMPI PUSH1 0x40 MLOAD PUSH32 0x8C379A000000000000000000000000000000000000000000000000000000000 DUP2 MSTORE PUSH1 0x4 ADD PUSH2 0x60B SWAP1 PUSH2 0x3665 JUMP JUMPDEST PUSH1 0x40 MLOAD DUP1 SWAP2 SUB SWAP1 REVERT JUMPDEST PUSH1 0x5 PUSH1 0x0 DUP3 DUP2 MSTORE PUSH1 0x20 ADD SWAP1 DUP2 MSTORE PUSH1 0x20 ADD PUSH1 0x0 KECCAK256 PUSH1 0x0 PUSH2 0x100 EXP DUP2 SLOAD SWAP1 PUSH20 0xFFFFFFFFFFFFFFFFFFFFFFFFFFFFFFFFFFFFFFFF MUL NOT AND SWAP1 SSTORE DUP1 PUSH32 0x7CC135E0CEBB02C3480AE5D74D377283180A2601F8F644EDF7987B009316C63A PUSH1 0x40 MLOAD PUSH1 0x40 MLOAD DUP1 SWAP2 SUB SWAP1 LOG2 PUSH1 0x12 PUSH1 0x0 DUP5 DUP2 MSTORE PUSH1 0x20 ADD SWAP1 DUP2 MSTORE PUSH1 0x20 ADD PUSH1 0x0 KECCAK256 PUSH1 0x0 SWAP1 SLOAD SWAP1 PUSH2 0x100 EXP SWAP1 DIV PUSH1 0xFF AND ISZERO PUSH2 0x6D8 JUMPI PUSH1 0x40 MLOAD PUSH32 0x8C379A000000000000000000000000000000000000000000000000000000000 DUP2 MSTORE PUSH1 0x4 ADD PUSH2 0x6CF SWAP1 PUSH2 0x36D1 JUMP JUMPDEST PUSH1 0x40 MLOAD DUP1 SWAP2 SUB SWAP1 REVERT JUMPDEST PUSH1 0x0 PUSH1 0x10 PUSH1 0x0 DUP6 DUP2 MSTORE PUSH1 0x20 ADD SWAP1 DUP2 MSTORE PUSH1 0x20 ADD PUSH1 0x0 KECCAK256 PUSH1 0x0 SWAP1 SLOAD SWAP1 PUSH2 0x100 EXP SWAP1 DIV PUSH20 0xFFFFFFFFFFFFFFFFFFFFFFFFFFFFFFFFFFFFFFFF AND SWAP1 POP PUSH1 0x0 PUSH1 0x11 PUSH1 0x0 DUP7 DUP2 MSTORE PUSH1 0x20 ADD SWAP1 DUP2 MSTORE PUSH1 0x20 ADD PUSH1 0x0 KECCAK256 SLOAD SWAP1 POP PUSH1 0x0 PUSH1 0xF PUSH1 0x0 DUP5 PUSH20 0xFFFFFFFFFFFFFFFFFFFFFFFFFFFFFFFFFFFFFFFF AND PUSH20 0xFFFFFFFFFFFFFFFFFFFFFFFFFFFFFFFFFFFFFFFF AND DUP2 MSTORE PUSH1 0x20 ADD SWAP1 DUP2 MSTORE PUSH1 0x20 ADD PUSH1 0x0 KECCAK256 DUP3 DUP2 SLOAD DUP2 LT PUSH2 0x77B JUMPI PUSH2 0x77A PUSH2 0x36F1 JUMP JUMPDEST JUMPDEST SWAP1 PUSH1 0x0 MSTORE PUSH1 0x20 PUSH1 0x0 KECCAK256 SWAP1 PUSH1 0x6 MUL ADD SWAP1 POP PUSH1 0x1 DUP2 PUSH1 0x5 ADD PUSH1 0x0 PUSH2 0x100 EXP DUP2 SLOAD DUP2 PUSH1 0xFF MUL NOT AND SWAP1 DUP4 ISZERO ISZERO MUL OR SWAP1 SSTORE POP DUP6 PUSH32 0x929DEFE9C1D9365DB5456A875A719ED5FD79142A86396D5BEC9BC6AEFB6F4D91 DUP7 PUSH1 0x40 MLOAD PUSH2 0x7D8 SWAP2 SWAP1 PUSH2 0x3246 JUMP JUMPDEST PUSH1 0x40 MLOAD DUP1 SWAP2 SUB SWAP1 LOG2 PUSH1 0x78 DUP6 LT PUSH2 0x96D JUMPI PUSH1 0x0 PUSH1 0x64 PUSH1 0xFA DUP4 PUSH1 0x4 ADD SLOAD PUSH2 0x7FD SWAP2 SWAP1 PUSH2 0x374F JUMP JUMPDEST PUSH2 0x807 SWAP2 SWAP1 PUSH2 0x37C0 JUMP JUMPDEST SWAP1 POP DUP1 SELFBALANCE LT ISZERO PUSH2 0x84C JUMPI PUSH1 0x40 MLOAD PUSH32 0x8C379A000000000000000000000000000000000000000000000000000000000 DUP2 MSTORE PUSH1 0x4 ADD PUSH2 0x843 SWAP1 PUSH2 0x383D JUMP JUMPDEST PUSH1 0x40 MLOAD DUP1 SWAP2 SUB SWAP1 REVERT JUMPDEST DUP1 PUSH1 0xD PUSH1 0x0 DUP3 DUP3 SLOAD PUSH2 0x85E SWAP2 SWAP1 PUSH2 0x385D JUMP JUMPDEST SWAP3 POP POP DUP2 SWAP1 SSTORE POP PUSH1 0x0 DUP5 PUSH20 0xFFFFFFFFFFFFFFFFFFFFFFFFFFFFFFFFFFFFFFFF AND DUP3 PUSH1 0x40 MLOAD PUSH2 0x88B SWAP1 PUSH2 0x3572 JUMP JUMPDEST PUSH1 0x0 PUSH1 0x40 MLOAD DUP1 DUP4 SUB DUP2 DUP6 DUP8 GAS CALL SWAP3 POP POP POP RETURNDATASIZE DUP1 PUSH1 0x0 DUP2 EQ PUSH2 0x8C8 JUMPI PUSH1 0x40 MLOAD SWAP2 POP PUSH1 0x1F NOT PUSH1 0x3F RETURNDATASIZE ADD AND DUP3 ADD PUSH1 0x40 MSTORE RETURNDATASIZE DUP3 MSTORE RETURNDATASIZE PUSH1 0x0 PUSH1 0x20 DUP5 ADD RETURNDATACOPY PUSH2 0x8CD JUMP JUMPDEST PUSH1 0x60 SWAP2 POP JUMPDEST POP POP SWAP1 POP DUP1 PUSH2 0x911 JUMPI PUSH1 0x40 MLOAD PUSH32 0x8C379A000000000000000000000000000000000000000000000000000000000 DUP2 MSTORE PUSH1 0x4 ADD PUSH2 0x908 SWAP1 PUSH2 0x38DD JUMP JUMPDEST PUSH1 0x40 MLOAD DUP1 SWAP2 SUB SWAP1 REVERT JUMPDEST DUP5 PUSH20 0xFFFFFFFFFFFFFFFFFFFFFFFFFFFFFFFFFFFFFFFF AND PUSH32 0xB919D606D1CBA5C14767DFE98797EBF263D5D8376B5D4A69B0EE28CA341E8128 DUP5 PUSH1 0x1 ADD DUP6 PUSH1 0x3 ADD SLOAD DUP6 PUSH1 0x40 MLOAD PUSH2 0x962 SWAP4 SWAP3 SWAP2 SWAP1 PUSH2 0x39F6 JUMP JUMPDEST PUSH1 0x40 MLOAD DUP1 SWAP2 SUB SWAP1 LOG2 POP POP JUMPDEST POP POP POP POP POP POP JUMP JUMPDEST PUSH1 0x60 PUSH1 0xF PUSH1 0x0 DUP4 PUSH20 0xFFFFFFFFFFFFFFFFFFFFFFFFFFFFFFFFFFFFFFFF AND PUSH20 0xFFFFFFFFFFFFFFFFFFFFFFFFFFFFFFFFFFFFFFFF AND DUP2 MSTORE PUSH1 0x20 ADD SWAP1 DUP2 MSTORE PUSH1 0x20 ADD PUSH1 0x0 KECCAK256 DUP1 SLOAD DUP1 PUSH1 0x20 MUL PUSH1 0x20 ADD PUSH1 0x40 MLOAD SWAP1 DUP2 ADD PUSH1 0x40 MSTORE DUP1 SWAP3 SWAP2 SWAP1 DUP2 DUP2 MSTORE PUSH1 0x20 ADD PUSH1 0x0 SWAP1 JUMPDEST DUP3 DUP3 LT ISZERO PUSH2 0xBCC JUMPI DUP4 DUP3 SWAP1 PUSH1 0x0 MSTORE PUSH1 0x20 PUSH1 0x0 KECCAK256 SWAP1 PUSH1 0x6 MUL ADD PUSH1 0x40 MLOAD DUP1 PUSH1 0xE0 ADD PUSH1 0x40 MSTORE SWAP1 DUP2 PUSH1 0x0 DUP3 ADD PUSH1 0x0 SWAP1 SLOAD SWAP1 PUSH2 0x100 EXP SWAP1 DIV PUSH20 0xFFFFFFFFFFFFFFFFFFFFFFFFFFFFFFFFFFFFFFFF AND PUSH20 0xFFFFFFFFFFFFFFFFFFFFFFFFFFFFFFFFFFFFFFFF AND PUSH20 0xFFFFFFFFFFFFFFFFFFFFFFFFFFFFFFFFFFFFFFFF AND DUP2 MSTORE PUSH1 0x20 ADD PUSH1 0x1 DUP3 ADD DUP1 SLOAD PUSH2 0xA5F SWAP1 PUSH2 0x392C JUMP JUMPDEST DUP1 PUSH1 0x1F ADD PUSH1 0x20 DUP1 SWAP2 DIV MUL PUSH1 0x20 ADD PUSH1 0x40 MLOAD SWAP1 DUP2 ADD PUSH1 0x40 MSTORE DUP1 SWAP3 SWAP2 SWAP1 DUP2 DUP2 MSTORE PUSH1 0x20 ADD DUP3 DUP1 SLOAD PUSH2 0xA8B SWAP1 PUSH2 0x392C JUMP JUMPDEST DUP1 ISZERO PUSH2 0xAD8 JUMPI DUP1 PUSH1 0x1F LT PUSH2 0xAAD JUMPI PUSH2 0x100 DUP1 DUP4 SLOAD DIV MUL DUP4 MSTORE SWAP2 PUSH1 0x20 ADD SWAP2 PUSH2 0xAD8 JUMP JUMPDEST DUP3 ADD SWAP2 SWAP1 PUSH1 0x0 MSTORE PUSH1 0x20 PUSH1 0x0 KECCAK256 SWAP1 JUMPDEST DUP2 SLOAD DUP2 MSTORE SWAP1 PUSH1 0x1 ADD SWAP1 PUSH1 0x20 ADD DUP1 DUP4 GT PUSH2 0xABB JUMPI DUP3 SWAP1 SUB PUSH1 0x1F AND DUP3 ADD SWAP2 JUMPDEST POP POP POP POP POP DUP2 MSTORE PUSH1 0x20 ADD PUSH1 0x2 DUP3 ADD DUP1 SLOAD PUSH2 0xAF1 SWAP1 PUSH2 0x392C JUMP JUMPDEST DUP1 PUSH1 0x1F ADD PUSH1 0x20 DUP1 SWAP2 DIV MUL PUSH1 0x20 ADD PUSH1 0x40 MLOAD SWAP1 DUP2 ADD PUSH1 0x40 MSTORE DUP1 SWAP3 SWAP2 SWAP1 DUP2 DUP2 MSTORE PUSH1 0x20 ADD DUP3 DUP1 SLOAD PUSH2 0xB1D SWAP1 PUSH2 0x392C JUMP JUMPDEST DUP1 ISZERO PUSH2 0xB6A JUMPI DUP1 PUSH1 0x1F LT PUSH2 0xB3F JUMPI PUSH2 0x100 DUP1 DUP4 SLOAD DIV MUL DUP4 MSTORE SWAP2 PUSH1 0x20 ADD SWAP2 PUSH2 0xB6A JUMP JUMPDEST DUP3 ADD SWAP2 SWAP1 PUSH1 0x0 MSTORE PUSH1 0x20 PUSH1 0x0 KECCAK256 SWAP1 JUMPDEST DUP2 SLOAD DUP2 MSTORE SWAP1 PUSH1 0x1 ADD SWAP1 PUSH1 0x20 ADD DUP1 DUP4 GT PUSH2 0xB4D JUMPI DUP3 SWAP1 SUB PUSH1 0x1F AND DUP3 ADD SWAP2 JUMPDEST POP POP POP POP POP DUP2 MSTORE PUSH1 0x20 ADD PUSH1 0x3 DUP3 ADD SLOAD DUP2 MSTORE PUSH1 0x20 ADD PUSH1 0x4 DUP3 ADD SLOAD DUP2 MSTORE PUSH1 0x20 ADD PUSH1 0x5 DUP3 ADD PUSH1 0x0 SWAP1 SLOAD SWAP1 PUSH2 0x100 EXP SWAP1 DIV PUSH1 0xFF AND ISZERO ISZERO ISZERO ISZERO DUP2 MSTORE PUSH1 0x20 ADD PUSH1 0x5 DUP3 ADD PUSH1 0x1 SWAP1 SLOAD SWAP1 PUSH2 0x100 EXP SWAP1 DIV PUSH1 0xFF AND ISZERO ISZERO ISZERO ISZERO DUP2 MSTORE POP POP DUP2 MSTORE PUSH1 0x20 ADD SWAP1 PUSH1 0x1 ADD SWAP1 PUSH2 0x9D6 JUMP JUMPDEST POP POP POP POP SWAP1 POP SWAP2 SWAP1 POP JUMP JUMPDEST PUSH1 0xF PUSH1 0x20 MSTORE DUP2 PUSH1 0x0 MSTORE PUSH1 0x40 PUSH1 0x0 KECCAK256 DUP2 DUP2 SLOAD DUP2 LT PUSH2 0xBF3 JUMPI PUSH1 0x0 DUP1 REVERT JUMPDEST SWAP1 PUSH1 0x0 MSTORE PUSH1 0x20 PUSH1 0x0 KECCAK256 SWAP1 PUSH1 0x6 MUL ADD PUSH1 0x0 SWAP2 POP SWAP2 POP POP DUP1 PUSH1 0x0 ADD PUSH1 0x0 SWAP1 SLOAD SWAP1 PUSH2 0x100 EXP SWAP1 DIV PUSH20 0xFFFFFFFFFFFFFFFFFFFFFFFFFFFFFFFFFFFFFFFF AND SWAP1 DUP1 PUSH1 0x1 ADD DUP1 SLOAD PUSH2 0xC3D SWAP1 PUSH2 0x392C JUMP JUMPDEST DUP1 PUSH1 0x1F ADD PUSH1 0x20 DUP1 SWAP2 DIV MUL PUSH1 0x20 ADD PUSH1 0x40 MLOAD SWAP1 DUP2 ADD PUSH1 0x40 MSTORE DUP1 SWAP3 SWAP2 SWAP1 DUP2 DUP2 MSTORE PUSH1 0x20 ADD DUP3 DUP1 SLOAD PUSH2 0xC69 SWAP1 PUSH2 0x392C JUMP JUMPDEST DUP1 ISZERO PUSH2 0xCB6 JUMPI DUP1 PUSH1 0x1F LT PUSH2 0xC8B JUMPI PUSH2 0x100 DUP1 DUP4 SLOAD DIV MUL DUP4 MSTORE SWAP2 PUSH1 0x20 ADD SWAP2 PUSH2 0xCB6 JUMP JUMPDEST DUP3 ADD SWAP2 SWAP1 PUSH1 0x0 MSTORE PUSH1 0x20 PUSH1 0x0 KECCAK256 SWAP1 JUMPDEST DUP2 SLOAD DUP2 MSTORE SWAP1 PUSH1 0x1 ADD SWAP1 PUSH1 0x20 ADD DUP1 DUP4 GT PUSH2 0xC99 JUMPI DUP3 SWAP1 SUB PUSH1 0x1F AND DUP3 ADD SWAP2 JUMPDEST POP POP POP POP POP SWAP1 DUP1 PUSH1 0x2 ADD DUP1 SLOAD PUSH2 0xCCB SWAP1 PUSH2 0x392C JUMP JUMPDEST DUP1 PUSH1 0x1F ADD PUSH1 0x20 DUP1 SWAP2 DIV MUL PUSH1 0x20 ADD PUSH1 0x40 MLOAD SWAP1 DUP2 ADD PUSH1 0x40 MSTORE DUP1 SWAP3 SWAP2 SWAP1 DUP2 DUP2 MSTORE PUSH1 0x20 ADD DUP3 DUP1 SLOAD PUSH2 0xCF7 SWAP1 PUSH2 0x392C JUMP JUMPDEST DUP1 ISZERO PUSH2 0xD44 JUMPI DUP1 PUSH1 0x1F LT PUSH2 0xD19 JUMPI PUSH2 0x100 DUP1 DUP4 SLOAD DIV MUL DUP4 MSTORE SWAP2 PUSH1 0x20 ADD SWAP2 PUSH2 0xD44 JUMP JUMPDEST DUP3 ADD SWAP2 SWAP1 PUSH1 0x0 MSTORE PUSH1 0x20 PUSH1 0x0 KECCAK256 SWAP1 JUMPDEST DUP2 SLOAD DUP2 MSTORE SWAP1 PUSH1 0x1 ADD SWAP1 PUSH1 0x20 ADD DUP1 DUP4 GT PUSH2 0xD27 JUMPI DUP3 SWAP1 SUB PUSH1 0x1F AND DUP3 ADD SWAP2 JUMPDEST POP POP POP POP POP SWAP1 DUP1 PUSH1 0x3 ADD SLOAD SWAP1 DUP1 PUSH1 0x4 ADD SLOAD SWAP1 DUP1 PUSH1 0x5 ADD PUSH1 0x0 SWAP1 SLOAD SWAP1 PUSH2 0x100 EXP SWAP1 DIV PUSH1 0xFF AND SWAP1 DUP1 PUSH1 0x5 ADD PUSH1 0x1 SWAP1 SLOAD SWAP1 PUSH2 0x100 EXP SWAP1 DIV PUSH1 0xFF AND SWAP1 POP DUP8 JUMP JUMPDEST PUSH1 0xD SLOAD DUP2 JUMP JUMPDEST PUSH1 0xE SLOAD DUP2 JUMP JUMPDEST PUSH8 0xDE0B6B3A7640000 DUP2 JUMP JUMPDEST PUSH1 0xC SLOAD DUP2 JUMP JUMPDEST PUSH1 0x7 PUSH1 0x0 SWAP1 SLOAD SWAP1 PUSH2 0x100 EXP SWAP1 DIV PUSH20 0xFFFFFFFFFFFFFFFFFFFFFFFFFFFFFFFFFFFFFFFF AND PUSH20 0xFFFFFFFFFFFFFFFFFFFFFFFFFFFFFFFFFFFFFFFF AND CALLER PUSH20 0xFFFFFFFFFFFFFFFFFFFFFFFFFFFFFFFFFFFFFFFF AND EQ PUSH2 0xE2E JUMPI PUSH1 0x40 MLOAD PUSH32 0x8C379A000000000000000000000000000000000000000000000000000000000 DUP2 MSTORE PUSH1 0x4 ADD PUSH2 0xE25 SWAP1 PUSH2 0x3A80 JUMP JUMPDEST PUSH1 0x40 MLOAD DUP1 SWAP2 SUB SWAP1 REVERT JUMPDEST PUSH1 0x0 PUSH1 0x6 PUSH1 0x0 SWAP1 SLOAD SWAP1 PUSH2 0x100 EXP SWAP1 DIV PUSH20 0xFFFFFFFFFFFFFFFFFFFFFFFFFFFFFFFFFFFFFFFF AND SWAP1 POP CALLER PUSH1 0x6 PUSH1 0x0 PUSH2 0x100 EXP DUP2 SLOAD DUP2 PUSH20 0xFFFFFFFFFFFFFFFFFFFFFFFFFFFFFFFFFFFFFFFF MUL NOT AND SWAP1 DUP4 PUSH20 0xFFFFFFFFFFFFFFFFFFFFFFFFFFFFFFFFFFFFFFFF AND MUL OR SWAP1 SSTORE POP PUSH1 0x0 PUSH1 0x7 PUSH1 0x0 PUSH2 0x100 EXP DUP2 SLOAD DUP2 PUSH20 0xFFFFFFFFFFFFFFFFFFFFFFFFFFFFFFFFFFFFFFFF MUL NOT AND SWAP1 DUP4 PUSH20 0xFFFFFFFFFFFFFFFFFFFFFFFFFFFFFFFFFFFFFFFF AND MUL OR SWAP1 SSTORE POP CALLER PUSH20 0xFFFFFFFFFFFFFFFFFFFFFFFFFFFFFFFFFFFFFFFF AND DUP2 PUSH20 0xFFFFFFFFFFFFFFFFFFFFFFFFFFFFFFFFFFFFFFFF AND PUSH32 0x8BE0079C531659141344CD1FD0A4F28419497F9722A3DAAFE3B4186F6B6457E0 PUSH1 0x40 MLOAD PUSH1 0x40 MLOAD DUP1 SWAP2 SUB SWAP1 LOG3 POP JUMP JUMPDEST PUSH1 0xFA DUP2 JUMP JUMPDEST DUP2 PUSH1 0x5 PUSH1 0x0 DUP3 DUP2 MSTORE PUSH1 0x20 ADD SWAP1 DUP2 MSTORE PUSH1 0x20 ADD PUSH1 0x0 KECCAK256 PUSH1 0x0 SWAP1 SLOAD SWAP1 PUSH2 0x100 EXP SWAP1 DIV PUSH20 0xFFFFFFFFFFFFFFFFFFFFFFFFFFFFFFFFFFFFFFFF AND PUSH20 0xFFFFFFFFFFFFFFFFFFFFFFFFFFFFFFFFFFFFFFFF AND CALLER PUSH20 0xFFFFFFFFFFFFFFFFFFFFFFFFFFFFFFFFFFFFFFFF AND EQ PUSH2 0xFDC JUMPI PUSH1 0x40 MLOAD PUSH32 0x8C379A000000000000000000000000000000000000000000000000000000000 DUP2 MSTORE PUSH1 0x4 ADD PUSH2 0xFD3 SWAP1 PUSH2 0x3665 JUMP JUMPDEST PUSH1 0x40 MLOAD DUP1 SWAP2 SUB SWAP1 REVERT JUMPDEST PUSH1 0x5 PUSH1 0x0 DUP3 DUP2 MSTORE PUSH1 0x20 ADD SWAP1 DUP2 MSTORE PUSH1 0x20 ADD PUSH1 0x0 KECCAK256 PUSH1 0x0 PUSH2 0x100 EXP DUP2 SLOAD SWAP1 PUSH20 0xFFFFFFFFFFFFFFFFFFFFFFFFFFFFFFFFFFFFFFFF MUL NOT AND SWAP1 SSTORE DUP1 PUSH32 0x7CC135E0CEBB02C3480AE5D74D377283180A2601F8F644EDF7987B009316C63A PUSH1 0x40 MLOAD PUSH1 0x40 MLOAD DUP1 SWAP2 SUB SWAP1 LOG2 PUSH1 0x12 PUSH1 0x0 DUP5 DUP2 MSTORE PUSH1 0x20 ADD SWAP1 DUP2 MSTORE PUSH1 0x20 ADD PUSH1 0x0 KECCAK256 PUSH1 0x0 SWAP1 SLOAD SWAP1 PUSH2 0x100 EXP SWAP1 DIV PUSH1 0xFF AND PUSH2 0x109F JUMPI PUSH1 0x40 MLOAD PUSH32 0x8C379A000000000000000000000000000000000000000000000000000000000 DUP2 MSTORE PUSH1 0x4 ADD PUSH2 0x1096 SWAP1 PUSH2 0x3AEC JUMP JUMPDEST PUSH1 0x40 MLOAD DUP1 SWAP2 SUB SWAP1 REVERT JUMPDEST PUSH1 0x0 PUSH1 0x10 PUSH1 0x0 DUP6 DUP2 MSTORE PUSH1 0x20 ADD SWAP1 DUP2 MSTORE PUSH1 0x20 ADD PUSH1 0x0 KECCAK256 PUSH1 0x0 SWAP1 SLOAD SWAP1 PUSH2 0x100 EXP SWAP1 DIV PUSH20 0xFFFFFFFFFFFFFFFFFFFFFFFFFFFFFFFFFFFFFFFF AND SWAP1 POP PUSH1 0x0 PUSH1 0x11 PUSH1 0x0 DUP7 DUP2 MSTORE PUSH1 0x20 ADD SWAP1 DUP2 MSTORE PUSH1 0x20 ADD PUSH1 0x0 KECCAK256 SLOAD SWAP1 POP DUP4 PUSH1 0xF PUSH1 0x0 DUP5 PUSH20 0xFFFFFFFFFFFFFFFFFFFFFFFFFFFFFFFFFFFFFFFF AND PUSH20 0xFFFFFFFFFFFFFFFFFFFFFFFFFFFFFFFFFFFFFFFF AND DUP2 MSTORE PUSH1 0x20 ADD SWAP1 DUP2 MSTORE PUSH1 0x20 ADD PUSH1 0x0 KECCAK256 DUP3 DUP2 SLOAD DUP2 LT PUSH2 0x1141 JUMPI PUSH2 0x1140 PUSH2 0x36F1 JUMP JUMPDEST JUMPDEST SWAP1 PUSH1 0x0 MSTORE PUSH1 0x20 PUSH1 0x0 KECCAK256 SWAP1 PUSH1 0x6 MUL ADD PUSH1 0x5 ADD PUSH1 0x1 PUSH2 0x100 EXP DUP2 SLOAD DUP2 PUSH1 0xFF MUL NOT AND SWAP1 DUP4 ISZERO ISZERO MUL OR SWAP1 SSTORE POP DUP4 PUSH2 0x12D4 JUMPI PUSH1 0x0 PUSH1 0xF PUSH1 0x0 DUP5 PUSH20 0xFFFFFFFFFFFFFFFFFFFFFFFFFFFFFFFFFFFFFFFF AND PUSH20 0xFFFFFFFFFFFFFFFFFFFFFFFFFFFFFFFFFFFFFFFF AND DUP2 MSTORE PUSH1 0x20 ADD SWAP1 DUP2 MSTORE PUSH1 0x20 ADD PUSH1 0x0 KECCAK256 DUP3 DUP2 SLOAD DUP2 LT PUSH2 0x11C1 JUMPI PUSH2 0x11C0 PUSH2 0x36F1 JUMP JUMPDEST JUMPDEST SWAP1 PUSH1 0x0 MSTORE PUSH1 0x20 PUSH1 0x0 KECCAK256 SWAP1 PUSH1 0x6 MUL ADD SWAP1 POP PUSH1 0x0 DUP2 PUSH1 0x4 ADD SLOAD SWAP1 POP DUP1 PUSH1 0xC PUSH1 0x0 DUP3 DUP3 SLOAD PUSH2 0x11EC SWAP2 SWAP1 PUSH2 0x3B0C JUMP JUMPDEST SWAP3 POP POP DUP2 SWAP1 SSTORE POP PUSH1 0x64 PUSH1 0x5 DUP3 PUSH2 0x1202 SWAP2 SWAP1 PUSH2 0x374F JUMP JUMPDEST PUSH2 0x120C SWAP2 SWAP1 PUSH2 0x37C0 JUMP JUMPDEST PUSH1 0xE PUSH1 0x0 DUP3 DUP3 SLOAD PUSH2 0x121D SWAP2 SWAP1 PUSH2 0x3B0C JUMP JUMPDEST SWAP3 POP POP DUP2 SWAP1 SSTORE POP PUSH1 0x0 DUP5 PUSH20 0xFFFFFFFFFFFFFFFFFFFFFFFFFFFFFFFFFFFFFFFF AND DUP3 PUSH1 0x40 MLOAD PUSH2 0x124A SWAP1 PUSH2 0x3572 JUMP JUMPDEST PUSH1 0x0 PUSH1 0x40 MLOAD DUP1 DUP4 SUB DUP2 DUP6 DUP8 GAS CALL SWAP3 POP POP POP RETURNDATASIZE DUP1 PUSH1 0x0 DUP2 EQ PUSH2 0x1287 JUMPI PUSH1 0x40 MLOAD SWAP2 POP PUSH1 0x1F NOT PUSH1 0x3F RETURNDATASIZE ADD AND DUP3 ADD PUSH1 0x40 MSTORE RETURNDATASIZE DUP3 MSTORE RETURNDATASIZE PUSH1 0x0 PUSH1 0x20 DUP5 ADD RETURNDATACOPY PUSH2 0x128C JUMP JUMPDEST PUSH1 0x60 SWAP2 POP JUMPDEST POP POP SWAP1 POP DUP1 PUSH2 0x12D0 JUMPI PUSH1 0x40 MLOAD PUSH32 0x8C379A000000000000000000000000000000000000000000000000000000000 DUP2 MSTORE PUSH1 0x4 ADD PUSH2 0x12C7 SWAP1 PUSH2 0x3B8C JUMP JUMPDEST PUSH1 0x40 MLOAD DUP1 SWAP2 SUB SWAP1 REVERT JUMPDEST POP POP POP JUMPDEST DUP5 PUSH32 0x4958809311A2E36B3888FE094F405DA9F89CB228E0E424C2157639DE04F8AC20 DUP6 PUSH1 0x40 MLOAD PUSH2 0x1304 SWAP2 SWAP1 PUSH2 0x3BAC JUMP JUMPDEST PUSH1 0x40 MLOAD DUP1 SWAP2 SUB SWAP1 LOG2 POP POP POP POP POP JUMP JUMPDEST PUSH1 0x0 PUSH1 0x6 PUSH1 0x0 SWAP1 SLOAD SWAP1 PUSH2 0x100 EXP SWAP1 DIV PUSH20 0xFFFFFFFFFFFFFFFFFFFFFFFFFFFFFFFFFFFFFFFF AND SWAP1 POP SWAP1 JUMP JUMPDEST PUSH1 0x78 DUP2 JUMP JUMPDEST PUSH7 0x2386F26FC10000 DUP2 JUMP JUMPDEST PUSH7 0x2386F26FC10000 CALLVALUE LT ISZERO PUSH2 0x1397 JUMPI PUSH1 0x40 MLOAD PUSH32 0x8C379A000000000000000000000000000000000000000000000000000000000 DUP2 MSTORE PUSH1 0x4 ADD PUSH2 0x138E SWAP1 PUSH2 0x3C13 JUMP JUMPDEST PUSH1 0x40 MLOAD DUP1 SWAP2 SUB SWAP1 REVERT JUMPDEST PUSH8 0xDE0B6B3A7640000 CALLVALUE GT ISZERO PUSH2 0x13E2 JUMPI PUSH1 0x40 MLOAD PUSH32 0x8C379A000000000000000000000000000000000000000000000000000000000 DUP2 MSTORE PUSH1 0x4 ADD PUSH2 0x13D9 SWAP1 PUSH2 0x3C7F JUMP JUMPDEST PUSH1 0x40 MLOAD DUP1 SWAP2 SUB SWAP1 REVERT JUMPDEST TIMESTAMP DUP2 GT PUSH2 0x1424 JUMPI PUSH1 0x40 MLOAD PUSH32 0x8C379A000000000000000000000000000000000000000000000000000000000 DUP2 MSTORE PUSH1 0x4 ADD PUSH2 0x141B SWAP1 PUSH2 0x3CEB JUMP JUMPDEST PUSH1 0x40 MLOAD DUP1 SWAP2 SUB SWAP1 REVERT JUMPDEST PUSH1 0x0 PUSH1 0x40 MLOAD DUP1 PUSH1 0xE0 ADD PUSH1 0x40 MSTORE DUP1 CALLER PUSH20 0xFFFFFFFFFFFFFFFFFFFFFFFFFFFFFFFFFFFFFFFF AND DUP2 MSTORE PUSH1 0x20 ADD DUP5 DUP2 MSTORE PUSH1 0x20 ADD DUP6 DUP2 MSTORE PUSH1 0x20 ADD DUP4 DUP2 MSTORE PUSH1 0x20 ADD CALLVALUE DUP2 MSTORE PUSH1 0x20 ADD PUSH1 0x0 ISZERO ISZERO DUP2 MSTORE PUSH1 0x20 ADD PUSH1 0x0 ISZERO ISZERO DUP2 MSTORE POP SWAP1 POP PUSH1 0xF PUSH1 0x0 CALLER PUSH20 0xFFFFFFFFFFFFFFFFFFFFFFFFFFFFFFFFFFFFFFFF AND PUSH20 0xFFFFFFFFFFFFFFFFFFFFFFFFFFFFFFFFFFFFFFFF AND DUP2 MSTORE PUSH1 0x20 ADD SWAP1 DUP2 MSTORE PUSH1 0x20 ADD PUSH1 0x0 KECCAK256 DUP2 SWAP1 DUP1 PUSH1 0x1 DUP2 SLOAD ADD DUP1 DUP3 SSTORE DUP1 SWAP2 POP POP PUSH1 0x1 SWAP1 SUB SWAP1 PUSH1 0x0 MSTORE PUSH1 0x20 PUSH1 0x0 KECCAK256 SWAP1 PUSH1 0x6 MUL ADD PUSH1 0x0 SWAP1 SWAP2 SWAP1 SWAP2 SWAP1 SWAP2 POP PUSH1 0x0 DUP3 ADD MLOAD DUP2 PUSH1 0x0 ADD PUSH1 0x0 PUSH2 0x100 EXP DUP2 SLOAD DUP2 PUSH20 0xFFFFFFFFFFFFFFFFFFFFFFFFFFFFFFFFFFFFFFFF MUL NOT AND SWAP1 DUP4 PUSH20 0xFFFFFFFFFFFFFFFFFFFFFFFFFFFFFFFFFFFFFFFF AND MUL OR SWAP1 SSTORE POP PUSH1 0x20 DUP3 ADD MLOAD DUP2 PUSH1 0x1 ADD SWAP1 DUP2 PUSH2 0x153C SWAP2 SWAP1 PUSH2 0x3EA2 JUMP JUMPDEST POP PUSH1 0x40 DUP3 ADD MLOAD DUP2 PUSH1 0x2 ADD SWAP1 DUP2 PUSH2 0x1552 SWAP2 SWAP1 PUSH2 0x3EA2 JUMP JUMPDEST POP PUSH1 0x60 DUP3 ADD MLOAD DUP2 PUSH1 0x3 ADD SSTORE PUSH1 0x80 DUP3 ADD MLOAD DUP2 PUSH1 0x4 ADD SSTORE PUSH1 0xA0 DUP3 ADD MLOAD DUP2 PUSH1 0x5 ADD PUSH1 0x0 PUSH2 0x100 EXP DUP2 SLOAD DUP2 PUSH1 0xFF MUL NOT AND SWAP1 DUP4 ISZERO ISZERO MUL OR SWAP1 SSTORE POP PUSH1 0xC0 DUP3 ADD MLOAD DUP2 PUSH1 0x5 ADD PUSH1 0x1 PUSH2 0x100 EXP DUP2 SLOAD DUP2 PUSH1 0xFF MUL NOT AND SWAP1 DUP4 ISZERO ISZERO MUL OR SWAP1 SSTORE POP POP POP PUSH1 0x0 PUSH1 0x1 PUSH1 0xF PUSH1 0x0 CALLER PUSH20 0xFFFFFFFFFFFFFFFFFFFFFFFFFFFFFFFFFFFFFFFF AND PUSH20 0xFFFFFFFFFFFFFFFFFFFFFFFFFFFFFFFFFFFFFFFF AND DUP2 MSTORE PUSH1 0x20 ADD SWAP1 DUP2 MSTORE PUSH1 0x20 ADD PUSH1 0x0 KECCAK256 DUP1 SLOAD SWAP1 POP PUSH2 0x15FA SWAP2 SWAP1 PUSH2 0x3B0C JUMP JUMPDEST SWAP1 POP PUSH2 0x1609 CALLER DUP3 DUP8 DUP8 DUP8 PUSH2 0x1A73 JUMP JUMPDEST PUSH1 0xB PUSH1 0x0 DUP2 SLOAD DUP1 SWAP3 SWAP2 SWAP1 PUSH2 0x161C SWAP1 PUSH2 0x3F74 JUMP JUMPDEST SWAP2 SWAP1 POP SSTORE POP CALLVALUE PUSH1 0xC PUSH1 0x0 DUP3 DUP3 SLOAD PUSH2 0x1633 SWAP2 SWAP1 PUSH2 0x385D JUMP JUMPDEST SWAP3 POP POP DUP2 SWAP1 SSTORE POP PUSH1 0x0 PUSH1 0x64 PUSH1 0x5 CALLVALUE PUSH2 0x164B SWAP2 SWAP1 PUSH2 0x374F JUMP JUMPDEST PUSH2 0x1655 SWAP2 SWAP1 PUSH2 0x37C0 JUMP JUMPDEST SWAP1 POP DUP1 PUSH1 0xE PUSH1 0x0 DUP3 DUP3 SLOAD PUSH2 0x1669 SWAP2 SWAP1 PUSH2 0x385D JUMP JUMPDEST SWAP3 POP POP DUP2 SWAP1 SSTORE POP CALLER PUSH20 0xFFFFFFFFFFFFFFFFFFFFFFFFFFFFFFFFFFFFFFFF AND PUSH32 0x653778451A7E54E55CCA5D74C18B0B3407ACC88229339379AF985CE57C8735EF DUP7 DUP7 CALLVALUE PUSH1 0x40 MLOAD PUSH2 0x16BA SWAP4 SWAP3 SWAP2 SWAP1 PUSH2 0x3FBC JUMP JUMPDEST PUSH1 0x40 MLOAD DUP1 SWAP2 SUB SWAP1 LOG2 POP POP POP POP POP POP JUMP JUMPDEST PUSH1 0xF PUSH1 0x0 CALLER PUSH20 0xFFFFFFFFFFFFFFFFFFFFFFFFFFFFFFFFFFFFFFFF AND PUSH20 0xFFFFFFFFFFFFFFFFFFFFFFFFFFFFFFFFFFFFFFFF AND DUP2 MSTORE PUSH1 0x20 ADD SWAP1 DUP2 MSTORE PUSH1 0x20 ADD PUSH1 0x0 KECCAK256 DUP1 SLOAD SWAP1 POP DUP2 LT PUSH2 0x174E JUMPI PUSH1 0x40 MLOAD PUSH32 0x8C379A000000000000000000000000000000000000000000000000000000000 DUP2 MSTORE PUSH1 0x4 ADD PUSH2 0x1745 SWAP1 PUSH2 0x4046 JUMP JUMPDEST PUSH1 0x40 MLOAD DUP1 SWAP2 SUB SWAP1 REVERT JUMPDEST PUSH1 0x0 PUSH1 0xF PUSH1 0x0 CALLER PUSH20 0xFFFFFFFFFFFFFFFFFFFFFFFFFFFFFFFFFFFFFFFF AND PUSH20 0xFFFFFFFFFFFFFFFFFFFFFFFFFFFFFFFFFFFFFFFF AND DUP2 MSTORE PUSH1 0x20 ADD SWAP1 DUP2 MSTORE PUSH1 0x20 ADD PUSH1 0x0 KECCAK256 DUP3 DUP2 SLOAD DUP2 LT PUSH2 0x17A1 JUMPI PUSH2 0x17A0 PUSH2 0x36F1 JUMP JUMPDEST JUMPDEST SWAP1 PUSH1 0x0 MSTORE PUSH1 0x20 PUSH1 0x0 KECCAK256 SWAP1 PUSH1 0x6 MUL ADD SWAP1 POP DUP1 PUSH1 0x5 ADD PUSH1 0x1 SWAP1 SLOAD SWAP1 PUSH2 0x100 EXP SWAP1 DIV PUSH1 0xFF AND PUSH2 0x1802 JUMPI PUSH1 0x40 MLOAD PUSH32 0x8C379A000000000000000000000000000000000000000000000000000000000 DUP2 MSTORE PUSH1 0x4 ADD PUSH2 0x17F9 SWAP1 PUSH2 0x40B2 JUMP JUMPDEST PUSH1 0x40 MLOAD DUP1 SWAP2 SUB SWAP1 REVERT JUMPDEST DUP1 PUSH1 0x5 ADD PUSH1 0x0 SWAP1 SLOAD SWAP1 PUSH2 0x100 EXP SWAP1 DIV PUSH1 0xFF AND ISZERO PUSH2 0x1854 JUMPI PUSH1 0x40 MLOAD PUSH32 0x8C379A000000000000000000000000000000000000000000000000000000000 DUP2 MSTORE PUSH1 0x4 ADD PUSH2 0x184B SWAP1 PUSH2 0x411E JUMP JUMPDEST PUSH1 0x40 MLOAD DUP1 SWAP2 SUB SWAP1 REVERT JUMPDEST DUP1 PUSH1 0x3 ADD SLOAD TIMESTAMP GT PUSH2 0x189A JUMPI PUSH1 0x40 MLOAD PUSH32 0x8C379A000000000000000000000000000000000000000000000000000000000 DUP2 MSTORE PUSH1 0x4 ADD PUSH2 0x1891 SWAP1 PUSH2 0x418A JUMP JUMPDEST PUSH1 0x40 MLOAD DUP1 SWAP2 SUB SWAP1 REVERT JUMPDEST PUSH2 0x19C3 CALLER DUP4 DUP4 PUSH1 0x2 ADD DUP1 SLOAD PUSH2 0x18AE SWAP1 PUSH2 0x392C JUMP JUMPDEST DUP1 PUSH1 0x1F ADD PUSH1 0x20 DUP1 SWAP2 DIV MUL PUSH1 0x20 ADD PUSH1 0x40 MLOAD SWAP1 DUP2 ADD PUSH1 0x40 MSTORE DUP1 SWAP3 SWAP2 SWAP1 DUP2 DUP2 MSTORE PUSH1 0x20 ADD DUP3 DUP1 SLOAD PUSH2 0x18DA SWAP1 PUSH2 0x392C JUMP JUMPDEST DUP1 ISZERO PUSH2 0x1927 JUMPI DUP1 PUSH1 0x1F LT PUSH2 0x18FC JUMPI PUSH2 0x100 DUP1 DUP4 SLOAD DIV MUL DUP4 MSTORE SWAP2 PUSH1 0x20 ADD SWAP2 PUSH2 0x1927 JUMP JUMPDEST DUP3 ADD SWAP2 SWAP1 PUSH1 0x0 MSTORE PUSH1 0x20 PUSH1 0x0 KECCAK256 SWAP1 JUMPDEST DUP2 SLOAD DUP2 MSTORE SWAP1 PUSH1 0x1 ADD SWAP1 PUSH1 0x20 ADD DUP1 DUP4 GT PUSH2 0x190A JUMPI DUP3 SWAP1 SUB PUSH1 0x1F AND DUP3 ADD SWAP2 JUMPDEST POP POP POP POP POP DUP5 PUSH1 0x1 ADD DUP1 SLOAD PUSH2 0x193B SWAP1 PUSH2 0x392C JUMP JUMPDEST DUP1 PUSH1 0x1F ADD PUSH1 0x20 DUP1 SWAP2 DIV MUL PUSH1 0x20 ADD PUSH1 0x40 MLOAD SWAP1 DUP2 ADD PUSH1 0x40 MSTORE DUP1 SWAP3 SWAP2 SWAP1 DUP2 DUP2 MSTORE PUSH1 0x20 ADD DUP3 DUP1 SLOAD PUSH2 0x1967 SWAP1 PUSH2 0x392C JUMP JUMPDEST DUP1 ISZERO PUSH2 0x19B4 JUMPI DUP1 PUSH1 0x1F LT PUSH2 0x1989 JUMPI PUSH2 0x100 DUP1 DUP4 SLOAD DIV MUL DUP4 MSTORE SWAP2 PUSH1 0x20 ADD SWAP2 PUSH2 0x19B4 JUMP JUMPDEST DUP3 ADD SWAP2 SWAP1 PUSH1 0x0 MSTORE PUSH1 0x20 PUSH1 0x0 KECCAK256 SWAP1 JUMPDEST DUP2 SLOAD DUP2 MSTORE SWAP1 PUSH1 0x1 ADD SWAP1 PUSH1 0x20 ADD DUP1 DUP4 GT PUSH2 0x1997 JUMPI DUP3 SWAP1 SUB PUSH1 0x1F AND DUP3 ADD SWAP2 JUMPDEST POP POP POP POP POP DUP6 PUSH1 0x3 ADD SLOAD PUSH2 0x1D0C JUMP JUMPDEST POP POP JUMP JUMPDEST PUSH1 0xB SLOAD DUP2 JUMP JUMPDEST PUSH2 0x19D5 PUSH2 0x19E1 JUMP JUMPDEST PUSH2 0x19DE DUP2 PUSH2 0x1EFB JUMP JUMPDEST POP JUMP JUMPDEST PUSH1 0x6 PUSH1 0x0 SWAP1 SLOAD SWAP1 PUSH2 0x100 EXP SWAP1 DIV PUSH20 0xFFFFFFFFFFFFFFFFFFFFFFFFFFFFFFFFFFFFFFFF AND PUSH20 0xFFFFFFFFFFFFFFFFFFFFFFFFFFFFFFFFFFFFFFFF AND CALLER PUSH20 0xFFFFFFFFFFFFFFFFFFFFFFFFFFFFFFFFFFFFFFFF AND EQ PUSH2 0x1A71 JUMPI PUSH1 0x40 MLOAD PUSH32 0x8C379A000000000000000000000000000000000000000000000000000000000 DUP2 MSTORE PUSH1 0x4 ADD PUSH2 0x1A68 SWAP1 PUSH2 0x41F6 JUMP JUMPDEST PUSH1 0x40 MLOAD DUP1 SWAP2 SUB SWAP1 REVERT JUMPDEST JUMP JUMPDEST PUSH1 0x0 PUSH2 0x1A89 PUSH1 0x8 SLOAD ADDRESS PUSH4 0x80A78506 PUSH1 0xE0 SHL PUSH2 0x2029 JUMP JUMPDEST SWAP1 POP PUSH1 0x0 PUSH2 0x1A96 DUP4 PUSH2 0x205A JUMP JUMPDEST SWAP1 POP PUSH1 0x0 PUSH1 0xA PUSH1 0x40 MLOAD PUSH1 0x20 ADD PUSH2 0x1AAC SWAP2 SWAP1 PUSH2 0x42F0 JUMP JUMPDEST PUSH1 0x40 MLOAD PUSH1 0x20 DUP2 DUP4 SUB SUB DUP2 MSTORE SWAP1 PUSH1 0x40 MSTORE SWAP1 POP PUSH2 0x1B07 PUSH1 0x40 MLOAD DUP1 PUSH1 0x40 ADD PUSH1 0x40 MSTORE DUP1 PUSH1 0x4 DUP2 MSTORE PUSH1 0x20 ADD PUSH32 0x706F737400000000000000000000000000000000000000000000000000000000 DUP2 MSTORE POP DUP3 DUP6 PUSH2 0x2362 SWAP1 SWAP3 SWAP2 SWAP1 PUSH4 0xFFFFFFFF AND JUMP JUMPDEST PUSH2 0x1B69 PUSH1 0x40 MLOAD DUP1 PUSH1 0x40 ADD PUSH1 0x40 MSTORE DUP1 PUSH1 0x7 DUP2 MSTORE PUSH1 0x20 ADD PUSH32 0x6865616465727300000000000000000000000000000000000000000000000000 DUP2 MSTORE POP PUSH1 0x40 MLOAD DUP1 PUSH1 0x60 ADD PUSH1 0x40 MSTORE DUP1 PUSH1 0x24 DUP2 MSTORE PUSH1 0x20 ADD PUSH2 0x4C43 PUSH1 0x24 SWAP2 CODECOPY DUP6 PUSH2 0x2362 SWAP1 SWAP3 SWAP2 SWAP1 PUSH4 0xFFFFFFFF AND JUMP JUMPDEST PUSH1 0x0 DUP7 DUP7 DUP5 PUSH1 0x40 MLOAD PUSH1 0x20 ADD PUSH2 0x1B80 SWAP4 SWAP3 SWAP2 SWAP1 PUSH2 0x4473 JUMP JUMPDEST PUSH1 0x40 MLOAD PUSH1 0x20 DUP2 DUP4 SUB SUB DUP2 MSTORE SWAP1 PUSH1 0x40 MSTORE SWAP1 POP PUSH2 0x1BDB PUSH1 0x40 MLOAD DUP1 PUSH1 0x40 ADD PUSH1 0x40 MSTORE DUP1 PUSH1 0x4 DUP2 MSTORE PUSH1 0x20 ADD PUSH32 0x626F647900000000000000000000000000000000000000000000000000000000 DUP2 MSTORE POP DUP3 DUP7 PUSH2 0x2362 SWAP1 SWAP3 SWAP2 SWAP1 PUSH4 0xFFFFFFFF AND JUMP JUMPDEST PUSH2 0x1C5A PUSH1 0x40 MLOAD DUP1 PUSH1 0x40 ADD PUSH1 0x40 MSTORE DUP1 PUSH1 0x4 DUP2 MSTORE PUSH1 0x20 ADD PUSH32 0x7061746800000000000000000000000000000000000000000000000000000000 DUP2 MSTORE POP PUSH1 0x40 MLOAD DUP1 PUSH1 0x40 ADD PUSH1 0x40 MSTORE DUP1 PUSH1 0x5 DUP2 MSTORE PUSH1 0x20 ADD PUSH32 0x76616C6964000000000000000000000000000000000000000000000000000000 DUP2 MSTORE POP DUP7 PUSH2 0x2362 SWAP1 SWAP3 SWAP2 SWAP1 PUSH4 0xFFFFFFFF AND JUMP JUMPDEST PUSH1 0x0 PUSH2 0x1C68 DUP6 PUSH1 0x9 SLOAD PUSH2 0x2395 JUMP JUMPDEST SWAP1 POP DUP10 PUSH1 0x10 PUSH1 0x0 DUP4 DUP2 MSTORE PUSH1 0x20 ADD SWAP1 DUP2 MSTORE PUSH1 0x20 ADD PUSH1 0x0 KECCAK256 PUSH1 0x0 PUSH2 0x100 EXP DUP2 SLOAD DUP2 PUSH20 0xFFFFFFFFFFFFFFFFFFFFFFFFFFFFFFFFFFFFFFFF MUL NOT AND SWAP1 DUP4 PUSH20 0xFFFFFFFFFFFFFFFFFFFFFFFFFFFFFFFFFFFFFFFF AND MUL OR SWAP1 SSTORE POP DUP9 PUSH1 0x11 PUSH1 0x0 DUP4 DUP2 MSTORE PUSH1 0x20 ADD SWAP1 DUP2 MSTORE PUSH1 0x20 ADD PUSH1 0x0 KECCAK256 DUP2 SWAP1 SSTORE POP PUSH1 0x1 PUSH1 0x12 PUSH1 0x0 DUP4 DUP2 MSTORE PUSH1 0x20 ADD SWAP1 DUP2 MSTORE PUSH1 0x20 ADD PUSH1 0x0 KECCAK256 PUSH1 0x0 PUSH2 0x100 EXP DUP2 SLOAD DUP2 PUSH1 0xFF MUL NOT AND SWAP1 DUP4 ISZERO ISZERO MUL OR SWAP1 SSTORE POP POP POP POP POP POP POP POP POP POP POP JUMP JUMPDEST PUSH1 0x0 PUSH2 0x1D22 PUSH1 0x8 SLOAD ADDRESS PUSH4 0x13C48E42 PUSH1 0xE0 SHL PUSH2 0x2029 JUMP JUMPDEST SWAP1 POP PUSH1 0x0 PUSH2 0x1D2F DUP4 PUSH2 0x205A JUMP JUMPDEST SWAP1 POP PUSH1 0x0 DUP6 DUP6 PUSH1 0x40 MLOAD PUSH1 0x20 ADD PUSH2 0x1D46 SWAP3 SWAP2 SWAP1 PUSH2 0x44D0 JUMP JUMPDEST PUSH1 0x40 MLOAD PUSH1 0x20 DUP2 DUP4 SUB SUB DUP2 MSTORE SWAP1 PUSH1 0x40 MSTORE SWAP1 POP PUSH1 0x0 PUSH1 0xA DUP3 DUP5 PUSH1 0x40 MLOAD PUSH1 0x20 ADD PUSH2 0x1D6F SWAP4 SWAP3 SWAP2 SWAP1 PUSH2 0x458C JUMP JUMPDEST PUSH1 0x40 MLOAD PUSH1 0x20 DUP2 DUP4 SUB SUB DUP2 MSTORE SWAP1 PUSH1 0x40 MSTORE SWAP1 POP PUSH2 0x1DCA PUSH1 0x40 MLOAD DUP1 PUSH1 0x40 ADD PUSH1 0x40 MSTORE DUP1 PUSH1 0x3 DUP2 MSTORE PUSH1 0x20 ADD PUSH32 0x6765740000000000000000000000000000000000000000000000000000000000 DUP2 MSTORE POP DUP3 DUP7 PUSH2 0x2362 SWAP1 SWAP3 SWAP2 SWAP1 PUSH4 0xFFFFFFFF AND JUMP JUMPDEST PUSH2 0x1E49 PUSH1 0x40 MLOAD DUP1 PUSH1 0x40 ADD PUSH1 0x40 MSTORE DUP1 PUSH1 0x4 DUP2 MSTORE PUSH1 0x20 ADD PUSH32 0x7061746800000000000000000000000000000000000000000000000000000000 DUP2 MSTORE POP PUSH1 0x40 MLOAD DUP1 PUSH1 0x40 ADD PUSH1 0x40 MSTORE DUP1 PUSH1 0xD DUP2 MSTORE PUSH1 0x20 ADD PUSH32 0x64656C61795F6D696E7574657300000000000000000000000000000000000000 DUP2 MSTORE POP DUP7 PUSH2 0x2362 SWAP1 SWAP3 SWAP2 SWAP1 PUSH4 0xFFFFFFFF AND JUMP JUMPDEST PUSH1 0x0 PUSH2 0x1E57 DUP6 PUSH1 0x9 SLOAD PUSH2 0x2395 JUMP JUMPDEST SWAP1 POP DUP10 PUSH1 0x10 PUSH1 0x0 DUP4 DUP2 MSTORE PUSH1 0x20 ADD SWAP1 DUP2 MSTORE PUSH1 0x20 ADD PUSH1 0x0 KECCAK256 PUSH1 0x0 PUSH2 0x100 EXP DUP2 SLOAD DUP2 PUSH20 0xFFFFFFFFFFFFFFFFFFFFFFFFFFFFFFFFFFFFFFFF MUL NOT AND SWAP1 DUP4 PUSH20 0xFFFFFFFFFFFFFFFFFFFFFFFFFFFFFFFFFFFFFFFF AND MUL OR SWAP1 SSTORE POP DUP9 PUSH1 0x11 PUSH1 0x0 DUP4 DUP2 MSTORE PUSH1 0x20 ADD SWAP1 DUP2 MSTORE PUSH1 0x20 ADD PUSH1 0x0 KECCAK256 DUP2 SWAP1 SSTORE POP PUSH1 0x0 PUSH1 0x12 PUSH1 0x0 DUP4 DUP2 MSTORE PUSH1 0x20 ADD SWAP1 DUP2 MSTORE PUSH1 0x20 ADD PUSH1 0x0 KECCAK256 PUSH1 0x0 PUSH2 0x100 EXP DUP2 SLOAD DUP2 PUSH1 0xFF MUL NOT AND SWAP1 DUP4 ISZERO ISZERO MUL OR SWAP1 SSTORE POP POP POP POP POP POP POP POP POP POP POP JUMP JUMPDEST CALLER PUSH20 0xFFFFFFFFFFFFFFFFFFFFFFFFFFFFFFFFFFFFFFFF AND DUP2 PUSH20 0xFFFFFFFFFFFFFFFFFFFFFFFFFFFFFFFFFFFFFFFF AND SUB PUSH2 0x1F69 JUMPI PUSH1 0x40 MLOAD PUSH32 0x8C379A000000000000000000000000000000000000000000000000000000000 DUP2 MSTORE PUSH1 0x4 ADD PUSH2 0x1F60 SWAP1 PUSH2 0x461F JUMP JUMPDEST PUSH1 0x40 MLOAD DUP1 SWAP2 SUB SWAP1 REVERT JUMPDEST DUP1 PUSH1 0x7 PUSH1 0x0 PUSH2 0x100 EXP DUP2 SLOAD DUP2 PUSH20 0xFFFFFFFFFFFFFFFFFFFFFFFFFFFFFFFFFFFFFFFF MUL NOT AND SWAP1 DUP4 PUSH20 0xFFFFFFFFFFFFFFFFFFFFFFFFFFFFFFFFFFFFFFFF AND MUL OR SWAP1 SSTORE POP DUP1 PUSH20 0xFFFFFFFFFFFFFFFFFFFFFFFFFFFFFFFFFFFFFFFF AND PUSH1 0x6 PUSH1 0x0 SWAP1 SLOAD SWAP1 PUSH2 0x100 EXP SWAP1 DIV PUSH20 0xFFFFFFFFFFFFFFFFFFFFFFFFFFFFFFFFFFFFFFFF AND PUSH20 0xFFFFFFFFFFFFFFFFFFFFFFFFFFFFFFFFFFFFFFFF AND PUSH32 0xED8889F560326EB138920D842192F0EB3DD22B4F139C87A2C57538E05BAE1278 PUSH1 0x40 MLOAD PUSH1 0x40 MLOAD DUP1 SWAP2 SUB SWAP1 LOG3 POP JUMP JUMPDEST PUSH2 0x2031 PUSH2 0x2CF0 JUMP JUMPDEST PUSH2 0x2039 PUSH2 0x2CF0 JUMP JUMPDEST PUSH2 0x2050 DUP6 DUP6 DUP6 DUP5 PUSH2 0x23CC SWAP1 SWAP4 SWAP3 SWAP2 SWAP1 PUSH4 0xFFFFFFFF AND JUMP JUMPDEST SWAP2 POP POP SWAP4 SWAP3 POP POP POP JUMP JUMPDEST PUSH1 0x60 PUSH1 0x0 PUSH2 0x7B2 SWAP1 POP PUSH1 0x0 PUSH1 0x1 SWAP1 POP PUSH1 0x0 PUSH1 0x1 SWAP1 POP PUSH1 0x0 PUSH3 0x15180 SWAP1 POP PUSH1 0x0 DUP2 DUP8 PUSH2 0x2085 SWAP2 SWAP1 PUSH2 0x37C0 JUMP JUMPDEST SWAP1 POP JUMPDEST PUSH2 0x16D DUP2 LT PUSH2 0x2124 JUMPI PUSH1 0x0 DUP1 PUSH1 0x4 DUP8 PUSH2 0x20A1 SWAP2 SWAP1 PUSH2 0x463F JUMP JUMPDEST EQ DUP1 ISZERO PUSH2 0x20D3 JUMPI POP PUSH1 0x0 PUSH1 0x64 DUP8 PUSH2 0x20B8 SWAP2 SWAP1 PUSH2 0x463F JUMP JUMPDEST EQ ISZERO DUP1 PUSH2 0x20D2 JUMPI POP PUSH1 0x0 PUSH2 0x190 DUP8 PUSH2 0x20D0 SWAP2 SWAP1 PUSH2 0x463F JUMP JUMPDEST EQ JUMPDEST JUMPDEST SWAP1 POP PUSH1 0x0 DUP2 PUSH2 0x20E4 JUMPI PUSH2 0x16D PUSH2 0x20E8 JUMP JUMPDEST PUSH2 0x16E JUMPDEST PUSH2 0xFFFF AND SWAP1 POP DUP1 DUP4 LT PUSH2 0x2116 JUMPI DUP1 DUP4 PUSH2 0x2101 SWAP2 SWAP1 PUSH2 0x3B0C JUMP JUMPDEST SWAP3 POP DUP7 DUP1 PUSH2 0x210E SWAP1 PUSH2 0x3F74 JUMP JUMPDEST SWAP8 POP POP PUSH2 0x211D JUMP JUMPDEST POP POP PUSH2 0x2124 JUMP JUMPDEST POP POP PUSH2 0x2088 JUMP JUMPDEST PUSH1 0x0 PUSH1 0x40 MLOAD DUP1 PUSH2 0x180 ADD PUSH1 0x40 MSTORE DUP1 PUSH1 0x1F PUSH1 0xFF AND DUP2 MSTORE PUSH1 0x20 ADD PUSH1 0x1C PUSH1 0xFF AND DUP2 MSTORE PUSH1 0x20 ADD PUSH1 0x1F PUSH1 0xFF AND DUP2 MSTORE PUSH1 0x20 ADD PUSH1 0x1E PUSH1 0xFF AND DUP2 MSTORE PUSH1 0x20 ADD PUSH1 0x1F PUSH1 0xFF AND DUP2 MSTORE PUSH1 0x20 ADD PUSH1 0x1E PUSH1 0xFF AND DUP2 MSTORE PUSH1 0x20 ADD PUSH1 0x1F PUSH1 0xFF AND DUP2 MSTORE PUSH1 0x20 ADD PUSH1 0x1F PUSH1 0xFF AND DUP2 MSTORE PUSH1 0x20 ADD PUSH1 0x1E PUSH1 0xFF AND DUP2 MSTORE PUSH1 0x20 ADD PUSH1 0x1F PUSH1 0xFF AND DUP2 MSTORE PUSH1 0x20 ADD PUSH1 0x1E PUSH1 0xFF AND DUP2 MSTORE PUSH1 0x20 ADD PUSH1 0x1F PUSH1 0xFF AND DUP2 MSTORE POP SWAP1 POP PUSH1 0x0 PUSH1 0x4 DUP8 PUSH2 0x21B9 SWAP2 SWAP1 PUSH2 0x463F JUMP JUMPDEST EQ DUP1 ISZERO PUSH2 0x21EB JUMPI POP PUSH1 0x0 PUSH1 0x64 DUP8 PUSH2 0x21D0 SWAP2 SWAP1 PUSH2 0x463F JUMP JUMPDEST EQ ISZERO DUP1 PUSH2 0x21EA JUMPI POP PUSH1 0x0 PUSH2 0x190 DUP8 PUSH2 0x21E8 SWAP2 SWAP1 PUSH2 0x463F JUMP JUMPDEST EQ JUMPDEST JUMPDEST ISZERO PUSH2 0x2218 JUMPI PUSH1 0x1D DUP2 PUSH1 0x1 PUSH1 0xC DUP2 LT PUSH2 0x2206 JUMPI PUSH2 0x2205 PUSH2 0x36F1 JUMP JUMPDEST JUMPDEST PUSH1 0x20 MUL ADD SWAP1 PUSH1 0xFF AND SWAP1 DUP2 PUSH1 0xFF AND DUP2 MSTORE POP POP JUMPDEST JUMPDEST PUSH1 0xC DUP6 GT PUSH2 0x229F JUMPI DUP1 PUSH1 0x1 DUP7 PUSH2 0x222F SWAP2 SWAP1 PUSH2 0x3B0C JUMP JUMPDEST PUSH1 0xC DUP2 LT PUSH2 0x2240 JUMPI PUSH2 0x223F PUSH2 0x36F1 JUMP JUMPDEST JUMPDEST PUSH1 0x20 MUL ADD MLOAD PUSH1 0xFF AND DUP3 LT PUSH2 0x2295 JUMPI DUP1 PUSH1 0x1 DUP7 PUSH2 0x225C SWAP2 SWAP1 PUSH2 0x3B0C JUMP JUMPDEST PUSH1 0xC DUP2 LT PUSH2 0x226D JUMPI PUSH2 0x226C PUSH2 0x36F1 JUMP JUMPDEST JUMPDEST PUSH1 0x20 MUL ADD MLOAD PUSH1 0xFF AND DUP3 PUSH2 0x2280 SWAP2 SWAP1 PUSH2 0x3B0C JUMP JUMPDEST SWAP2 POP DUP5 DUP1 PUSH2 0x228D SWAP1 PUSH2 0x3F74 JUMP JUMPDEST SWAP6 POP POP PUSH2 0x229A JUMP JUMPDEST PUSH2 0x229F JUMP JUMPDEST PUSH2 0x2219 JUMP JUMPDEST DUP2 DUP5 PUSH2 0x22AB SWAP2 SWAP1 PUSH2 0x385D JUMP JUMPDEST SWAP4 POP PUSH2 0x22B6 DUP7 PUSH2 0x247C JUMP JUMPDEST PUSH1 0xA DUP7 LT PUSH2 0x22CC JUMPI PUSH2 0x22C7 DUP7 PUSH2 0x247C JUMP JUMPDEST PUSH2 0x22F5 JUMP JUMPDEST PUSH2 0x22D5 DUP7 PUSH2 0x247C JUMP JUMPDEST PUSH1 0x40 MLOAD PUSH1 0x20 ADD PUSH2 0x22E5 SWAP2 SWAP1 PUSH2 0x46BC JUMP JUMPDEST PUSH1 0x40 MLOAD PUSH1 0x20 DUP2 DUP4 SUB SUB DUP2 MSTORE SWAP1 PUSH1 0x40 MSTORE JUMPDEST PUSH1 0xA DUP7 LT PUSH2 0x230B JUMPI PUSH2 0x2306 DUP7 PUSH2 0x247C JUMP JUMPDEST PUSH2 0x2334 JUMP JUMPDEST PUSH2 0x2314 DUP7 PUSH2 0x247C JUMP JUMPDEST PUSH1 0x40 MLOAD PUSH1 0x20 ADD PUSH2 0x2324 SWAP2 SWAP1 PUSH2 0x46BC JUMP JUMPDEST PUSH1 0x40 MLOAD PUSH1 0x20 DUP2 DUP4 SUB SUB DUP2 MSTORE SWAP1 PUSH1 0x40 MSTORE JUMPDEST PUSH1 0x40 MLOAD PUSH1 0x20 ADD PUSH2 0x2346 SWAP4 SWAP3 SWAP2 SWAP1 PUSH2 0x472A JUMP JUMPDEST PUSH1 0x40 MLOAD PUSH1 0x20 DUP2 DUP4 SUB SUB DUP2 MSTORE SWAP1 PUSH1 0x40 MSTORE SWAP7 POP POP POP POP POP POP POP SWAP2 SWAP1 POP JUMP JUMPDEST PUSH2 0x2379 DUP3 DUP5 PUSH1 0x80 ADD MLOAD PUSH2 0x2604 SWAP1 SWAP2 SWAP1 PUSH4 0xFFFFFFFF AND JUMP JUMPDEST PUSH2 0x2390 DUP2 DUP5 PUSH1 0x80 ADD MLOAD PUSH2 0x2604 SWAP1 SWAP2 SWAP1 PUSH4 0xFFFFFFFF AND JUMP JUMPDEST POP POP POP JUMP JUMPDEST PUSH1 0x0 PUSH2 0x23C4 PUSH1 0x3 PUSH1 0x0 SWAP1 SLOAD SWAP1 PUSH2 0x100 EXP SWAP1 DIV PUSH20 0xFFFFFFFFFFFFFFFFFFFFFFFFFFFFFFFFFFFFFFFF AND DUP5 DUP5 PUSH2 0x2629 JUMP JUMPDEST SWAP1 POP SWAP3 SWAP2 POP POP JUMP JUMPDEST PUSH2 0x23D4 PUSH2 0x2CF0 JUMP JUMPDEST PUSH2 0x23E4 DUP6 PUSH1 0x80 ADD MLOAD PUSH2 0x100 PUSH2 0x26F5 JUMP JUMPDEST POP DUP4 DUP6 PUSH1 0x0 ADD DUP2 DUP2 MSTORE POP POP DUP3 DUP6 PUSH1 0x20 ADD SWAP1 PUSH20 0xFFFFFFFFFFFFFFFFFFFFFFFFFFFFFFFFFFFFFFFF AND SWAP1 DUP2 PUSH20 0xFFFFFFFFFFFFFFFFFFFFFFFFFFFFFFFFFFFFFFFF AND DUP2 MSTORE POP POP DUP2 DUP6 PUSH1 0x40 ADD SWAP1 PUSH28 0xFFFFFFFFFFFFFFFFFFFFFFFFFFFFFFFFFFFFFFFFFFFFFFFFFFFFFFFF NOT AND SWAP1 DUP2 PUSH28 0xFFFFFFFFFFFFFFFFFFFFFFFFFFFFFFFFFFFFFFFFFFFFFFFFFFFFFFFF NOT AND DUP2 MSTORE POP POP DUP5 SWAP1 POP SWAP5 SWAP4 POP POP POP POP JUMP JUMPDEST PUSH1 0x60 PUSH1 0x0 DUP3 SUB PUSH2 0x24C3 JUMPI PUSH1 0x40 MLOAD DUP1 PUSH1 0x40 ADD PUSH1 0x40 MSTORE DUP1 PUSH1 0x1 DUP2 MSTORE PUSH1 0x20 ADD PUSH32 0x3000000000000000000000000000000000000000000000000000000000000000 DUP2 MSTORE POP SWAP1 POP PUSH2 0x25FF JUMP JUMPDEST PUSH1 0x0 DUP3 SWAP1 POP PUSH1 0x0 JUMPDEST PUSH1 0x0 DUP3 EQ PUSH2 0x24F5 JUMPI DUP1 DUP1 PUSH2 0x24DE SWAP1 PUSH2 0x3F74 JUMP JUMPDEST SWAP2 POP POP PUSH1 0xA DUP3 PUSH2 0x24EE SWAP2 SWAP1 PUSH2 0x37C0 JUMP JUMPDEST SWAP2 POP PUSH2 0x24CB JUMP JUMPDEST PUSH1 0x0 DUP2 PUSH8 0xFFFFFFFFFFFFFFFF DUP2 GT ISZERO PUSH2 0x2511 JUMPI PUSH2 0x2510 PUSH2 0x32F2 JUMP JUMPDEST JUMPDEST PUSH1 0x40 MLOAD SWAP1 DUP1 DUP3 MSTORE DUP1 PUSH1 0x1F ADD PUSH1 0x1F NOT AND PUSH1 0x20 ADD DUP3 ADD PUSH1 0x40 MSTORE DUP1 ISZERO PUSH2 0x2543 JUMPI DUP2 PUSH1 0x20 ADD PUSH1 0x1 DUP3 MUL DUP1 CALLDATASIZE DUP4 CALLDATACOPY DUP1 DUP3 ADD SWAP2 POP POP SWAP1 POP JUMPDEST POP SWAP1 POP PUSH1 0x0 DUP3 SWAP1 POP JUMPDEST PUSH1 0x0 DUP7 EQ PUSH2 0x25F7 JUMPI PUSH1 0x1 DUP2 PUSH2 0x2561 SWAP2 SWAP1 PUSH2 0x3B0C JUMP JUMPDEST SWAP1 POP PUSH1 0x0 PUSH1 0xA DUP1 DUP9 PUSH2 0x2573 SWAP2 SWAP1 PUSH2 0x37C0 JUMP JUMPDEST PUSH2 0x257D SWAP2 SWAP1 PUSH2 0x374F JUMP JUMPDEST DUP8 PUSH2 0x2588 SWAP2 SWAP1 PUSH2 0x3B0C JUMP JUMPDEST PUSH1 0x30 PUSH2 0x2594 SWAP2 SWAP1 PUSH2 0x477E JUMP JUMPDEST SWAP1 POP PUSH1 0x0 DUP2 PUSH1 0xF8 SHL SWAP1 POP DUP1 DUP5 DUP5 DUP2 MLOAD DUP2 LT PUSH2 0x25B2 JUMPI PUSH2 0x25B1 PUSH2 0x36F1 JUMP JUMPDEST JUMPDEST PUSH1 0x20 ADD ADD SWAP1 PUSH31 0xFFFFFFFFFFFFFFFFFFFFFFFFFFFFFFFFFFFFFFFFFFFFFFFFFFFFFFFFFFFFFF NOT AND SWAP1 DUP2 PUSH1 0x0 BYTE SWAP1 MSTORE8 POP PUSH1 0xA DUP9 PUSH2 0x25EE SWAP2 SWAP1 PUSH2 0x37C0 JUMP JUMPDEST SWAP8 POP POP POP PUSH2 0x254C JUMP JUMPDEST DUP2 SWAP5 POP POP POP POP POP JUMPDEST SWAP2 SWAP1 POP JUMP JUMPDEST PUSH2 0x2611 DUP3 PUSH1 0x3 DUP4 MLOAD PUSH2 0x275F JUMP JUMPDEST PUSH2 0x2624 DUP2 DUP4 PUSH2 0x28E4 SWAP1 SWAP2 SWAP1 PUSH4 0xFFFFFFFF AND JUMP JUMPDEST POP POP POP JUMP JUMPDEST PUSH1 0x0 DUP1 PUSH1 0x4 SLOAD SWAP1 POP PUSH1 0x1 DUP2 PUSH2 0x263E SWAP2 SWAP1 PUSH2 0x385D JUMP JUMPDEST PUSH1 0x4 DUP2 SWAP1 SSTORE POP PUSH1 0x0 PUSH4 0x40429946 PUSH1 0xE0 SHL PUSH1 0x0 DUP1 DUP8 PUSH1 0x0 ADD MLOAD ADDRESS DUP10 PUSH1 0x40 ADD MLOAD DUP8 PUSH1 0x1 DUP13 PUSH1 0x80 ADD MLOAD PUSH1 0x0 ADD MLOAD PUSH1 0x40 MLOAD PUSH1 0x24 ADD PUSH2 0x267F SWAP9 SWAP8 SWAP7 SWAP6 SWAP5 SWAP4 SWAP3 SWAP2 SWAP1 PUSH2 0x4852 JUMP JUMPDEST PUSH1 0x40 MLOAD PUSH1 0x20 DUP2 DUP4 SUB SUB DUP2 MSTORE SWAP1 PUSH1 0x40 MSTORE SWAP1 PUSH28 0xFFFFFFFFFFFFFFFFFFFFFFFFFFFFFFFFFFFFFFFFFFFFFFFFFFFFFFFF NOT AND PUSH1 0x20 DUP3 ADD DUP1 MLOAD PUSH28 0xFFFFFFFFFFFFFFFFFFFFFFFFFFFFFFFFFFFFFFFFFFFFFFFFFFFFFFFF DUP4 DUP2 DUP4 AND OR DUP4 MSTORE POP POP POP POP SWAP1 POP PUSH2 0x26EA DUP7 DUP4 DUP7 DUP5 PUSH2 0x2906 JUMP JUMPDEST SWAP3 POP POP POP SWAP4 SWAP3 POP POP POP JUMP JUMPDEST PUSH2 0x26FD PUSH2 0x2D5D JUMP JUMPDEST PUSH1 0x0 PUSH1 0x20 DUP4 PUSH2 0x270C SWAP2 SWAP1 PUSH2 0x463F JUMP JUMPDEST EQ PUSH2 0x2738 JUMPI PUSH1 0x20 DUP3 PUSH2 0x271E SWAP2 SWAP1 PUSH2 0x463F JUMP JUMPDEST PUSH1 0x20 PUSH2 0x272A SWAP2 SWAP1 PUSH2 0x3B0C JUMP JUMPDEST DUP3 PUSH2 0x2735 SWAP2 SWAP1 PUSH2 0x385D JUMP JUMPDEST SWAP2 POP JUMPDEST DUP2 DUP4 PUSH1 0x20 ADD DUP2 DUP2 MSTORE POP POP PUSH1 0x40 MLOAD DUP1 DUP5 MSTORE PUSH1 0x0 DUP2 MSTORE DUP3 DUP2 ADD PUSH1 0x20 ADD PUSH1 0x40 MSTORE POP DUP3 SWAP1 POP SWAP3 SWAP2 POP POP JUMP JUMPDEST PUSH1 0x17 DUP2 PUSH8 0xFFFFFFFFFFFFFFFF AND GT PUSH2 0x2796 JUMPI PUSH2 0x2790 DUP2 PUSH1 0x5 DUP5 PUSH1 0xFF AND SWAP1 SHL PUSH1 0xFF AND OR DUP5 PUSH2 0x2A9B SWAP1 SWAP2 SWAP1 PUSH4 0xFFFFFFFF AND JUMP JUMPDEST POP PUSH2 0x28DF JUMP JUMPDEST PUSH1 0xFF DUP2 PUSH8 0xFFFFFFFFFFFFFFFF AND GT PUSH2 0x27EC JUMPI PUSH2 0x27C5 PUSH1 0x18 PUSH1 0x5 DUP5 PUSH1 0xFF AND SWAP1 SHL OR DUP5 PUSH2 0x2A9B SWAP1 SWAP2 SWAP1 PUSH4 0xFFFFFFFF AND JUMP JUMPDEST POP PUSH2 0x27E6 DUP2 PUSH8 0xFFFFFFFFFFFFFFFF AND PUSH1 0x1 DUP6 PUSH2 0x2ABB SWAP1 SWAP3 SWAP2 SWAP1 PUSH4 0xFFFFFFFF AND JUMP JUMPDEST POP PUSH2 0x28DE JUMP JUMPDEST PUSH2 0xFFFF DUP2 PUSH8 0xFFFFFFFFFFFFFFFF AND GT PUSH2 0x2843 JUMPI PUSH2 0x281C PUSH1 0x19 PUSH1 0x5 DUP5 PUSH1 0xFF AND SWAP1 SHL OR DUP5 PUSH2 0x2A9B SWAP1 SWAP2 SWAP1 PUSH4 0xFFFFFFFF AND JUMP JUMPDEST POP PUSH2 0x283D DUP2 PUSH8 0xFFFFFFFFFFFFFFFF AND PUSH1 0x2 DUP6 PUSH2 0x2ABB SWAP1 SWAP3 SWAP2 SWAP1 PUSH4 0xFFFFFFFF AND JUMP JUMPDEST POP PUSH2 0x28DD JUMP JUMPDEST PUSH4 0xFFFFFFFF DUP2 PUSH8 0xFFFFFFFFFFFFFFFF AND GT PUSH2 0x289C JUMPI PUSH2 0x2875 PUSH1 0x1A PUSH1 0x5 DUP5 PUSH1 0xFF AND SWAP1 SHL OR DUP5 PUSH2 0x2A9B SWAP1 SWAP2 SWAP1 PUSH4 0xFFFFFFFF AND JUMP JUMPDEST POP PUSH2 0x2896 DUP2 PUSH8 0xFFFFFFFFFFFFFFFF AND PUSH1 0x4 DUP6 PUSH2 0x2ABB SWAP1 SWAP3 SWAP2 SWAP1 PUSH4 0xFFFFFFFF AND JUMP JUMPDEST POP PUSH2 0x28DC JUMP JUMPDEST PUSH2 0x28B9 PUSH1 0x1B PUSH1 0x5 DUP5 PUSH1 0xFF AND SWAP1 SHL OR DUP5 PUSH2 0x2A9B SWAP1 SWAP2 SWAP1 PUSH4 0xFFFFFFFF AND JUMP JUMPDEST POP PUSH2 0x28DA DUP2 PUSH8 0xFFFFFFFFFFFFFFFF AND PUSH1 0x8 DUP6 PUSH2 0x2ABB SWAP1 SWAP3 SWAP2 SWAP1 PUSH4 0xFFFFFFFF AND JUMP JUMPDEST POP JUMPDEST JUMPDEST JUMPDEST JUMPDEST POP POP POP JUMP JUMPDEST PUSH2 0x28EC PUSH2 0x2D5D JUMP JUMPDEST PUSH2 0x28FE DUP4 DUP5 PUSH1 0x0 ADD MLOAD MLOAD DUP5 DUP6 MLOAD PUSH2 0x2ADD JUMP JUMPDEST SWAP1 POP SWAP3 SWAP2 POP POP JUMP JUMPDEST PUSH1 0x0 ADDRESS DUP5 PUSH1 0x40 MLOAD PUSH1 0x20 ADD PUSH2 0x291B SWAP3 SWAP2 SWAP1 PUSH2 0x4986 JUMP JUMPDEST PUSH1 0x40 MLOAD PUSH1 0x20 DUP2 DUP4 SUB SUB DUP2 MSTORE SWAP1 PUSH1 0x40 MSTORE DUP1 MLOAD SWAP1 PUSH1 0x20 ADD KECCAK256 SWAP1 POP DUP5 PUSH1 0x5 PUSH1 0x0 DUP4 DUP2 MSTORE PUSH1 0x20 ADD SWAP1 DUP2 MSTORE PUSH1 0x20 ADD PUSH1 0x0 KECCAK256 PUSH1 0x0 PUSH2 0x100 EXP DUP2 SLOAD DUP2 PUSH20 0xFFFFFFFFFFFFFFFFFFFFFFFFFFFFFFFFFFFFFFFF MUL NOT AND SWAP1 DUP4 PUSH20 0xFFFFFFFFFFFFFFFFFFFFFFFFFFFFFFFFFFFFFFFF AND MUL OR SWAP1 SSTORE POP DUP1 PUSH32 0xB5E6E01E79F91267DC17B4E6314D5D4D03593D2CEEE0FBB452B750BD70EA5AF9 PUSH1 0x40 MLOAD PUSH1 0x40 MLOAD DUP1 SWAP2 SUB SWAP1 LOG2 PUSH1 0x2 PUSH1 0x0 SWAP1 SLOAD SWAP1 PUSH2 0x100 EXP SWAP1 DIV PUSH20 0xFFFFFFFFFFFFFFFFFFFFFFFFFFFFFFFFFFFFFFFF AND PUSH20 0xFFFFFFFFFFFFFFFFFFFFFFFFFFFFFFFFFFFFFFFF AND PUSH4 0x4000AEA0 DUP7 DUP6 DUP6 PUSH1 0x40 MLOAD DUP5 PUSH4 0xFFFFFFFF AND PUSH1 0xE0 SHL DUP2 MSTORE PUSH1 0x4 ADD PUSH2 0x2A11 SWAP4 SWAP3 SWAP2 SWAP1 PUSH2 0x49B2 JUMP JUMPDEST PUSH1 0x20 PUSH1 0x40 MLOAD DUP1 DUP4 SUB DUP2 PUSH1 0x0 DUP8 GAS CALL ISZERO DUP1 ISZERO PUSH2 0x2A30 JUMPI RETURNDATASIZE PUSH1 0x0 DUP1 RETURNDATACOPY RETURNDATASIZE PUSH1 0x0 REVERT JUMPDEST POP POP POP POP PUSH1 0x40 MLOAD RETURNDATASIZE PUSH1 0x1F NOT PUSH1 0x1F DUP3 ADD AND DUP3 ADD DUP1 PUSH1 0x40 MSTORE POP DUP2 ADD SWAP1 PUSH2 0x2A54 SWAP2 SWAP1 PUSH2 0x4A05 JUMP JUMPDEST PUSH2 0x2A93 JUMPI PUSH1 0x40 MLOAD PUSH32 0x8C379A000000000000000000000000000000000000000000000000000000000 DUP2 MSTORE PUSH1 0x4 ADD PUSH2 0x2A8A SWAP1 PUSH2 0x4AA4 JUMP JUMPDEST PUSH1 0x40 MLOAD DUP1 SWAP2 SUB SWAP1 REVERT JUMPDEST SWAP5 SWAP4 POP POP POP POP JUMP JUMPDEST PUSH2 0x2AA3 PUSH2 0x2D5D JUMP JUMPDEST PUSH2 0x2AB3 DUP4 DUP5 PUSH1 0x0 ADD MLOAD MLOAD DUP5 PUSH2 0x2BCC JUMP JUMPDEST SWAP1 POP SWAP3 SWAP2 POP POP JUMP JUMPDEST PUSH2 0x2AC3 PUSH2 0x2D5D JUMP JUMPDEST PUSH2 0x2AD4 DUP5 DUP6 PUSH1 0x0 ADD MLOAD MLOAD DUP6 DUP6 PUSH2 0x2C22 JUMP JUMPDEST SWAP1 POP SWAP4 SWAP3 POP POP POP JUMP JUMPDEST PUSH2 0x2AE5 PUSH2 0x2D5D JUMP JUMPDEST DUP3 MLOAD DUP3 GT ISZERO PUSH2 0x2AF3 JUMPI PUSH1 0x0 DUP1 REVERT JUMPDEST DUP5 PUSH1 0x20 ADD MLOAD DUP3 DUP6 PUSH2 0x2B04 SWAP2 SWAP1 PUSH2 0x385D JUMP JUMPDEST GT ISZERO PUSH2 0x2B39 JUMPI PUSH2 0x2B38 DUP6 PUSH1 0x2 PUSH2 0x2B29 DUP9 PUSH1 0x20 ADD MLOAD DUP9 DUP8 PUSH2 0x2B24 SWAP2 SWAP1 PUSH2 0x385D JUMP JUMPDEST PUSH2 0x2CB0 JUMP JUMPDEST PUSH2 0x2B33 SWAP2 SWAP1 PUSH2 0x374F JUMP JUMPDEST PUSH2 0x2CCC JUMP JUMPDEST JUMPDEST PUSH1 0x0 DUP1 DUP7 MLOAD DUP1 MLOAD DUP8 PUSH1 0x20 DUP4 ADD ADD SWAP4 POP DUP1 DUP9 DUP8 ADD GT ISZERO PUSH2 0x2B58 JUMPI DUP8 DUP7 ADD DUP3 MSTORE JUMPDEST PUSH1 0x20 DUP8 ADD SWAP3 POP POP POP JUMPDEST PUSH1 0x20 DUP5 LT PUSH2 0x2B9F JUMPI DUP1 MLOAD DUP3 MSTORE PUSH1 0x20 DUP3 PUSH2 0x2B7A SWAP2 SWAP1 PUSH2 0x385D JUMP JUMPDEST SWAP2 POP PUSH1 0x20 DUP2 PUSH2 0x2B89 SWAP2 SWAP1 PUSH2 0x385D JUMP JUMPDEST SWAP1 POP PUSH1 0x20 DUP5 PUSH2 0x2B98 SWAP2 SWAP1 PUSH2 0x3B0C JUMP JUMPDEST SWAP4 POP PUSH2 0x2B61 JUMP JUMPDEST PUSH1 0x0 PUSH1 0x1 DUP6 PUSH1 0x20 SUB PUSH2 0x100 EXP SUB SWAP1 POP DUP1 NOT DUP3 MLOAD AND DUP2 DUP5 MLOAD AND DUP2 DUP2 OR DUP6 MSTORE POP POP POP DUP7 SWAP3 POP POP POP SWAP5 SWAP4 POP POP POP POP JUMP JUMPDEST PUSH2 0x2BD4 PUSH2 0x2D5D JUMP JUMPDEST DUP4 PUSH1 0x20 ADD MLOAD DUP4 LT PUSH2 0x2BFA JUMPI PUSH2 0x2BF9 DUP5 PUSH1 0x2 DUP7 PUSH1 0x20 ADD MLOAD PUSH2 0x2BF4 SWAP2 SWAP1 PUSH2 0x374F JUMP JUMPDEST PUSH2 0x2CCC JUMP JUMPDEST JUMPDEST DUP4 MLOAD DUP1 MLOAD PUSH1 0x20 DUP6 DUP4 ADD ADD DUP5 DUP2 MSTORE8 DUP2 DUP7 SUB PUSH2 0x2C15 JUMPI PUSH1 0x1 DUP3 ADD DUP4 MSTORE JUMPDEST POP POP POP DUP4 SWAP1 POP SWAP4 SWAP3 POP POP POP JUMP JUMPDEST PUSH2 0x2C2A PUSH2 0x2D5D JUMP JUMPDEST DUP5 PUSH1 0x20 ADD MLOAD DUP5 DUP4 PUSH2 0x2C3B SWAP2 SWAP1 PUSH2 0x385D JUMP JUMPDEST GT ISZERO PUSH2 0x2C63 JUMPI PUSH2 0x2C62 DUP6 PUSH1 0x2 DUP7 DUP6 PUSH2 0x2C53 SWAP2 SWAP1 PUSH2 0x385D JUMP JUMPDEST PUSH2 0x2C5D SWAP2 SWAP1 PUSH2 0x374F JUMP JUMPDEST PUSH2 0x2CCC JUMP JUMPDEST JUMPDEST PUSH1 0x0 PUSH1 0x1 DUP4 PUSH2 0x100 PUSH2 0x2C75 SWAP2 SWAP1 PUSH2 0x4BF7 JUMP JUMPDEST PUSH2 0x2C7F SWAP2 SWAP1 PUSH2 0x3B0C JUMP JUMPDEST SWAP1 POP DUP6 MLOAD DUP4 DUP7 DUP3 ADD ADD DUP6 DUP4 NOT DUP3 MLOAD AND OR DUP2 MSTORE DUP2 MLOAD DUP6 DUP9 ADD GT ISZERO PUSH2 0x2CA2 JUMPI DUP5 DUP8 ADD DUP3 MSTORE JUMPDEST POP POP DUP6 SWAP2 POP POP SWAP5 SWAP4 POP POP POP POP JUMP JUMPDEST PUSH1 0x0 DUP2 DUP4 GT ISZERO PUSH2 0x2CC2 JUMPI DUP3 SWAP1 POP PUSH2 0x2CC6 JUMP JUMPDEST DUP2 SWAP1 POP JUMPDEST SWAP3 SWAP2 POP POP JUMP JUMPDEST PUSH1 0x0 DUP3 PUSH1 0x0 ADD MLOAD SWAP1 POP PUSH2 0x2CDF DUP4 DUP4 PUSH2 0x26F5 JUMP JUMPDEST POP PUSH2 0x2CEA DUP4 DUP3 PUSH2 0x28E4 JUMP JUMPDEST POP POP POP POP JUMP JUMPDEST PUSH1 0x40 MLOAD DUP1 PUSH1 0xA0 ADD PUSH1 0x40 MSTORE DUP1 PUSH1 0x0 DUP1 NOT AND DUP2 MSTORE PUSH1 0x20 ADD PUSH1 0x0 PUSH20 0xFFFFFFFFFFFFFFFFFFFFFFFFFFFFFFFFFFFFFFFF AND DUP2 MSTORE PUSH1 0x20 ADD PUSH1 0x0 PUSH28 0xFFFFFFFFFFFFFFFFFFFFFFFFFFFFFFFFFFFFFFFFFFFFFFFFFFFFFFFF NOT AND DUP2 MSTORE PUSH1 0x20 ADD PUSH1 0x0 DUP2 MSTORE PUSH1 0x20 ADD PUSH2 0x2D57 PUSH2 0x2D5D JUMP JUMPDEST DUP2 MSTORE POP SWAP1 JUMP JUMPDEST PUSH1 0x40 MLOAD DUP1 PUSH1 0x40 ADD PUSH1 0x40 MSTORE DUP1 PUSH1 0x60 DUP2 MSTORE PUSH1 0x20 ADD PUSH1 0x0 DUP2 MSTORE POP SWAP1 JUMP JUMPDEST PUSH1 0x0 PUSH1 0x40 MLOAD SWAP1 POP SWAP1 JUMP JUMPDEST PUSH1 0x0 DUP1 REVERT JUMPDEST PUSH1 0x0 DUP1 REVERT JUMPDEST PUSH1 0x0 DUP2 SWAP1 POP SWAP2 SWAP1 POP JUMP JUMPDEST PUSH2 0x2D9E DUP2 PUSH2 0x2D8B JUMP JUMPDEST DUP2 EQ PUSH2 0x2DA9 JUMPI PUSH1 0x0 DUP1 REVERT JUMPDEST POP JUMP JUMPDEST PUSH1 0x0 DUP2 CALLDATALOAD SWAP1 POP PUSH2 0x2DBB DUP2 PUSH2 0x2D95 JUMP JUMPDEST SWAP3 SWAP2 POP POP JUMP JUMPDEST PUSH1 0x0 DUP2 SWAP1 POP SWAP2 SWAP1 POP JUMP JUMPDEST PUSH2 0x2DD4 DUP2 PUSH2 0x2DC1 JUMP JUMPDEST DUP2 EQ PUSH2 0x2DDF JUMPI PUSH1 0x0 DUP1 REVERT JUMPDEST POP JUMP JUMPDEST PUSH1 0x0 DUP2 CALLDATALOAD SWAP1 POP PUSH2 0x2DF1 DUP2 PUSH2 0x2DCB JUMP JUMPDEST SWAP3 SWAP2 POP POP JUMP JUMPDEST PUSH1 0x0 DUP1 PUSH1 0x40 DUP4 DUP6 SUB SLT ISZERO PUSH2 0x2E0E JUMPI PUSH2 0x2E0D PUSH2 0x2D81 JUMP JUMPDEST JUMPDEST PUSH1 0x0 PUSH2 0x2E1C DUP6 DUP3 DUP7 ADD PUSH2 0x2DAC JUMP JUMPDEST SWAP3 POP POP PUSH1 0x20 PUSH2 0x2E2D DUP6 DUP3 DUP7 ADD PUSH2 0x2DE2 JUMP JUMPDEST SWAP2 POP POP SWAP3 POP SWAP3 SWAP1 POP JUMP JUMPDEST PUSH1 0x0 PUSH20 0xFFFFFFFFFFFFFFFFFFFFFFFFFFFFFFFFFFFFFFFF DUP3 AND SWAP1 POP SWAP2 SWAP1 POP JUMP JUMPDEST PUSH1 0x0 PUSH2 0x2E62 DUP3 PUSH2 0x2E37 JUMP JUMPDEST SWAP1 POP SWAP2 SWAP1 POP JUMP JUMPDEST PUSH2 0x2E72 DUP2 PUSH2 0x2E57 JUMP JUMPDEST DUP2 EQ PUSH2 0x2E7D JUMPI PUSH1 0x0 DUP1 REVERT JUMPDEST POP JUMP JUMPDEST PUSH1 0x0 DUP2 CALLDATALOAD SWAP1 POP PUSH2 0x2E8F DUP2 PUSH2 0x2E69 JUMP JUMPDEST SWAP3 SWAP2 POP POP JUMP JUMPDEST PUSH1 0x0 PUSH1 0x20 DUP3 DUP5 SUB SLT ISZERO PUSH2 0x2EAB JUMPI PUSH2 0x2EAA PUSH2 0x2D81 JUMP JUMPDEST JUMPDEST PUSH1 0x0 PUSH2 0x2EB9 DUP5 DUP3 DUP6 ADD PUSH2 0x2E80 JUMP JUMPDEST SWAP2 POP POP SWAP3 SWAP2 POP POP JUMP JUMPDEST PUSH1 0x0 DUP2 MLOAD SWAP1 POP SWAP2 SWAP1 POP JUMP JUMPDEST PUSH1 0x0 DUP3 DUP3 MSTORE PUSH1 0x20 DUP3 ADD SWAP1 POP SWAP3 SWAP2 POP POP JUMP JUMPDEST PUSH1 0x0 DUP2 SWAP1 POP PUSH1 0x20 DUP3 ADD SWAP1 POP SWAP2 SWAP1 POP JUMP JUMPDEST PUSH2 0x2EF7 DUP2 PUSH2 0x2E57 JUMP JUMPDEST DUP3 MSTORE POP POP JUMP JUMPDEST PUSH1 0x0 DUP2 MLOAD SWAP1 POP SWAP2 SWAP1 POP JUMP JUMPDEST PUSH1 0x0 DUP3 DUP3 MSTORE PUSH1 0x20 DUP3 ADD SWAP1 POP SWAP3 SWAP2 POP POP JUMP JUMPDEST PUSH1 0x0 JUMPDEST DUP4 DUP2 LT ISZERO PUSH2 0x2F37 JUMPI DUP1 DUP3 ADD MLOAD DUP2 DUP5 ADD MSTORE PUSH1 0x20 DUP2 ADD SWAP1 POP PUSH2 0x2F1C JUMP JUMPDEST PUSH1 0x0 DUP5 DUP5 ADD MSTORE POP POP POP POP JUMP JUMPDEST PUSH1 0x0 PUSH1 0x1F NOT PUSH1 0x1F DUP4 ADD AND SWAP1 POP SWAP2 SWAP1 POP JUMP JUMPDEST PUSH1 0x0 PUSH2 0x2F5F DUP3 PUSH2 0x2EFD JUMP JUMPDEST PUSH2 0x2F69 DUP2 DUP6 PUSH2 0x2F08 JUMP JUMPDEST SWAP4 POP PUSH2 0x2F79 DUP2 DUP6 PUSH1 0x20 DUP7 ADD PUSH2 0x2F19 JUMP JUMPDEST PUSH2 0x2F82 DUP2 PUSH2 0x2F43 JUMP JUMPDEST DUP5 ADD SWAP2 POP POP SWAP3 SWAP2 POP POP JUMP JUMPDEST PUSH2 0x2F96 DUP2 PUSH2 0x2DC1 JUMP JUMPDEST DUP3 MSTORE POP POP JUMP JUMPDEST PUSH1 0x0 DUP2 ISZERO ISZERO SWAP1 POP SWAP2 SWAP1 POP JUMP JUMPDEST PUSH2 0x2FB1 DUP2 PUSH2 0x2F9C JUMP JUMPDEST DUP3 MSTORE POP POP JUMP JUMPDEST PUSH1 0x0 PUSH1 0xE0 DUP4 ADD PUSH1 0x0 DUP4 ADD MLOAD PUSH2 0x2FCF PUSH1 0x0 DUP7 ADD DUP3 PUSH2 0x2EEE JUMP JUMPDEST POP PUSH1 0x20 DUP4 ADD MLOAD DUP5 DUP3 SUB PUSH1 0x20 DUP7 ADD MSTORE PUSH2 0x2FE7 DUP3 DUP3 PUSH2 0x2F54 JUMP JUMPDEST SWAP2 POP POP PUSH1 0x40 DUP4 ADD MLOAD DUP5 DUP3 SUB PUSH1 0x40 DUP7 ADD MSTORE PUSH2 0x3001 DUP3 DUP3 PUSH2 0x2F54 JUMP JUMPDEST SWAP2 POP POP PUSH1 0x60 DUP4 ADD MLOAD PUSH2 0x3016 PUSH1 0x60 DUP7 ADD DUP3 PUSH2 0x2F8D JUMP JUMPDEST POP PUSH1 0x80 DUP4 ADD MLOAD PUSH2 0x3029 PUSH1 0x80 DUP7 ADD DUP3 PUSH2 0x2F8D JUMP JUMPDEST POP PUSH1 0xA0 DUP4 ADD MLOAD PUSH2 0x303C PUSH1 0xA0 DUP7 ADD DUP3 PUSH2 0x2FA8 JUMP JUMPDEST POP PUSH1 0xC0 DUP4 ADD MLOAD PUSH2 0x304F PUSH1 0xC0 DUP7 ADD DUP3 PUSH2 0x2FA8 JUMP JUMPDEST POP DUP1 SWAP2 POP POP SWAP3 SWAP2 POP POP JUMP JUMPDEST PUSH1 0x0 PUSH2 0x3066 DUP4 DUP4 PUSH2 0x2FB7 JUMP JUMPDEST SWAP1 POP SWAP3 SWAP2 POP POP JUMP JUMPDEST PUSH1 0x0 PUSH1 0x20 DUP3 ADD SWAP1 POP SWAP2 SWAP1 POP JUMP JUMPDEST PUSH1 0x0 PUSH2 0x3086 DUP3 PUSH2 0x2EC2 JUMP JUMPDEST PUSH2 0x3090 DUP2 DUP6 PUSH2 0x2ECD JUMP JUMPDEST SWAP4 POP DUP4 PUSH1 0x20 DUP3 MUL DUP6 ADD PUSH2 0x30A2 DUP6 PUSH2 0x2EDE JUMP JUMPDEST DUP1 PUSH1 0x0 JUMPDEST DUP6 DUP2 LT ISZERO PUSH2 0x30DE JUMPI DUP5 DUP5 SUB DUP10 MSTORE DUP2 MLOAD PUSH2 0x30BF DUP6 DUP3 PUSH2 0x305A JUMP JUMPDEST SWAP5 POP PUSH2 0x30CA DUP4 PUSH2 0x306E JUMP JUMPDEST SWAP3 POP PUSH1 0x20 DUP11 ADD SWAP10 POP POP PUSH1 0x1 DUP2 ADD SWAP1 POP PUSH2 0x30A6 JUMP JUMPDEST POP DUP3 SWAP8 POP DUP8 SWAP6 POP POP POP POP POP POP SWAP3 SWAP2 POP POP JUMP JUMPDEST PUSH1 0x0 PUSH1 0x20 DUP3 ADD SWAP1 POP DUP2 DUP2 SUB PUSH1 0x0 DUP4 ADD MSTORE PUSH2 0x310A DUP2 DUP5 PUSH2 0x307B JUMP JUMPDEST SWAP1 POP SWAP3 SWAP2 POP POP JUMP JUMPDEST PUSH1 0x0 DUP1 PUSH1 0x40 DUP4 DUP6 SUB SLT ISZERO PUSH2 0x3129 JUMPI PUSH2 0x3128 PUSH2 0x2D81 JUMP JUMPDEST JUMPDEST PUSH1 0x0 PUSH2 0x3137 DUP6 DUP3 DUP7 ADD PUSH2 0x2E80 JUMP JUMPDEST SWAP3 POP POP PUSH1 0x20 PUSH2 0x3148 DUP6 DUP3 DUP7 ADD PUSH2 0x2DE2 JUMP JUMPDEST SWAP2 POP POP SWAP3 POP SWAP3 SWAP1 POP JUMP JUMPDEST PUSH2 0x315B DUP2 PUSH2 0x2E57 JUMP JUMPDEST DUP3 MSTORE POP POP JUMP JUMPDEST PUSH1 0x0 DUP3 DUP3 MSTORE PUSH1 0x20 DUP3 ADD SWAP1 POP SWAP3 SWAP2 POP POP JUMP JUMPDEST PUSH1 0x0 PUSH2 0x317D DUP3 PUSH2 0x2EFD JUMP JUMPDEST PUSH2 0x3187 DUP2 DUP6 PUSH2 0x3161 JUMP JUMPDEST SWAP4 POP PUSH2 0x3197 DUP2 DUP6 PUSH1 0x20 DUP7 ADD PUSH2 0x2F19 JUMP JUMPDEST PUSH2 0x31A0 DUP2 PUSH2 0x2F43 JUMP JUMPDEST DUP5 ADD SWAP2 POP POP SWAP3 SWAP2 POP POP JUMP JUMPDEST PUSH2 0x31B4 DUP2 PUSH2 0x2DC1 JUMP JUMPDEST DUP3 MSTORE POP POP JUMP JUMPDEST PUSH2 0x31C3 DUP2 PUSH2 0x2F9C JUMP JUMPDEST DUP3 MSTORE POP POP JUMP JUMPDEST PUSH1 0x0 PUSH1 0xE0 DUP3 ADD SWAP1 POP PUSH2 0x31DE PUSH1 0x0 DUP4 ADD DUP11 PUSH2 0x3152 JUMP JUMPDEST DUP2 DUP2 SUB PUSH1 0x20 DUP4 ADD MSTORE PUSH2 0x31F0 DUP2 DUP10 PUSH2 0x3172 JUMP JUMPDEST SWAP1 POP DUP2 DUP2 SUB PUSH1 0x40 DUP4 ADD MSTORE PUSH2 0x3204 DUP2 DUP9 PUSH2 0x3172 JUMP JUMPDEST SWAP1 POP PUSH2 0x3213 PUSH1 0x60 DUP4 ADD DUP8 PUSH2 0x31AB JUMP JUMPDEST PUSH2 0x3220 PUSH1 0x80 DUP4 ADD DUP7 PUSH2 0x31AB JUMP JUMPDEST PUSH2 0x322D PUSH1 0xA0 DUP4 ADD DUP6 PUSH2 0x31BA JUMP JUMPDEST PUSH2 0x323A PUSH1 0xC0 DUP4 ADD DUP5 PUSH2 0x31BA JUMP JUMPDEST SWAP9 SWAP8 POP POP POP POP POP POP POP POP JUMP JUMPDEST PUSH1 0x0 PUSH1 0x20 DUP3 ADD SWAP1 POP PUSH2 0x325B PUSH1 0x0 DUP4 ADD DUP5 PUSH2 0x31AB JUMP JUMPDEST SWAP3 SWAP2 POP POP JUMP JUMPDEST PUSH2 0x326A DUP2 PUSH2 0x2F9C JUMP JUMPDEST DUP2 EQ PUSH2 0x3275 JUMPI PUSH1 0x0 DUP1 REVERT JUMPDEST POP JUMP JUMPDEST PUSH1 0x0 DUP2 CALLDATALOAD SWAP1 POP PUSH2 0x3287 DUP2 PUSH2 0x3261 JUMP JUMPDEST SWAP3 SWAP2 POP POP JUMP JUMPDEST PUSH1 0x0 DUP1 PUSH1 0x40 DUP4 DUP6 SUB SLT ISZERO PUSH2 0x32A4 JUMPI PUSH2 0x32A3 PUSH2 0x2D81 JUMP JUMPDEST JUMPDEST PUSH1 0x0 PUSH2 0x32B2 DUP6 DUP3 DUP7 ADD PUSH2 0x2DAC JUMP JUMPDEST SWAP3 POP POP PUSH1 0x20 PUSH2 0x32C3 DUP6 DUP3 DUP7 ADD PUSH2 0x3278 JUMP JUMPDEST SWAP2 POP POP SWAP3 POP SWAP3 SWAP1 POP JUMP JUMPDEST PUSH1 0x0 PUSH1 0x20 DUP3 ADD SWAP1 POP PUSH2 0x32E2 PUSH1 0x0 DUP4 ADD DUP5 PUSH2 0x3152 JUMP JUMPDEST SWAP3 SWAP2 POP POP JUMP JUMPDEST PUSH1 0x0 DUP1 REVERT JUMPDEST PUSH1 0x0 DUP1 REVERT JUMPDEST PUSH32 0x4E487B7100000000000000000000000000000000000000000000000000000000 PUSH1 0x0 MSTORE PUSH1 0x41 PUSH1 0x4 MSTORE PUSH1 0x24 PUSH1 0x0 REVERT JUMPDEST PUSH2 0x332A DUP3 PUSH2 0x2F43 JUMP JUMPDEST DUP2 ADD DUP2 DUP2 LT PUSH8 0xFFFFFFFFFFFFFFFF DUP3 GT OR ISZERO PUSH2 0x3349 JUMPI PUSH2 0x3348 PUSH2 0x32F2 JUMP JUMPDEST JUMPDEST DUP1 PUSH1 0x40 MSTORE POP POP POP JUMP JUMPDEST PUSH1 0x0 PUSH2 0x335C PUSH2 0x2D77 JUMP JUMPDEST SWAP1 POP PUSH2 0x3368 DUP3 DUP3 PUSH2 0x3321 JUMP JUMPDEST SWAP2 SWAP1 POP JUMP JUMPDEST PUSH1 0x0 PUSH8 0xFFFFFFFFFFFFFFFF DUP3 GT ISZERO PUSH2 0x3388 JUMPI PUSH2 0x3387 PUSH2 0x32F2 JUMP JUMPDEST JUMPDEST PUSH2 0x3391 DUP3 PUSH2 0x2F43 JUMP JUMPDEST SWAP1 POP PUSH1 0x20 DUP2 ADD SWAP1 POP SWAP2 SWAP1 POP JUMP JUMPDEST DUP3 DUP2 DUP4 CALLDATACOPY PUSH1 0x0 DUP4 DUP4 ADD MSTORE POP POP POP JUMP JUMPDEST PUSH1 0x0 PUSH2 0x33C0 PUSH2 0x33BB DUP5 PUSH2 0x336D JUMP JUMPDEST PUSH2 0x3352 JUMP JUMPDEST SWAP1 POP DUP3 DUP2 MSTORE PUSH1 0x20 DUP2 ADD DUP5 DUP5 DUP5 ADD GT ISZERO PUSH2 0x33DC JUMPI PUSH2 0x33DB PUSH2 0x32ED JUMP JUMPDEST JUMPDEST PUSH2 0x33E7 DUP5 DUP3 DUP6 PUSH2 0x339E JUMP JUMPDEST POP SWAP4 SWAP3 POP POP POP JUMP JUMPDEST PUSH1 0x0 DUP3 PUSH1 0x1F DUP4 ADD SLT PUSH2 0x3404 JUMPI PUSH2 0x3403 PUSH2 0x32E8 JUMP JUMPDEST JUMPDEST DUP2 CALLDATALOAD PUSH2 0x3414 DUP5 DUP3 PUSH1 0x20 DUP7 ADD PUSH2 0x33AD JUMP JUMPDEST SWAP2 POP POP SWAP3 SWAP2 POP POP JUMP JUMPDEST PUSH1 0x0 DUP1 PUSH1 0x0 PUSH1 0x60 DUP5 DUP7 SUB SLT ISZERO PUSH2 0x3436 JUMPI PUSH2 0x3435 PUSH2 0x2D81 JUMP JUMPDEST JUMPDEST PUSH1 0x0 DUP5 ADD CALLDATALOAD PUSH8 0xFFFFFFFFFFFFFFFF DUP2 GT ISZERO PUSH2 0x3454 JUMPI PUSH2 0x3453 PUSH2 0x2D86 JUMP JUMPDEST JUMPDEST PUSH2 0x3460 DUP7 DUP3 DUP8 ADD PUSH2 0x33EF JUMP JUMPDEST SWAP4 POP POP PUSH1 0x20 DUP5 ADD CALLDATALOAD PUSH8 0xFFFFFFFFFFFFFFFF DUP2 GT ISZERO PUSH2 0x3481 JUMPI PUSH2 0x3480 PUSH2 0x2D86 JUMP JUMPDEST JUMPDEST PUSH2 0x348D DUP7 DUP3 DUP8 ADD PUSH2 0x33EF JUMP JUMPDEST SWAP3 POP POP PUSH1 0x40 PUSH2 0x349E DUP7 DUP3 DUP8 ADD PUSH2 0x2DE2 JUMP JUMPDEST SWAP2 POP POP SWAP3 POP SWAP3 POP SWAP3 JUMP JUMPDEST PUSH1 0x0 PUSH1 0x20 DUP3 DUP5 SUB SLT ISZERO PUSH2 0x34BE JUMPI PUSH2 0x34BD PUSH2 0x2D81 JUMP JUMPDEST JUMPDEST PUSH1 0x0 PUSH2 0x34CC DUP5 DUP3 DUP6 ADD PUSH2 0x2DE2 JUMP JUMPDEST SWAP2 POP POP SWAP3 SWAP2 POP POP JUMP JUMPDEST PUSH32 0x4E6F206665657320746F20776974686472617700000000000000000000000000 PUSH1 0x0 DUP3 ADD MSTORE POP JUMP JUMPDEST PUSH1 0x0 PUSH2 0x350B PUSH1 0x13 DUP4 PUSH2 0x3161 JUMP JUMPDEST SWAP2 POP PUSH2 0x3516 DUP3 PUSH2 0x34D5 JUMP JUMPDEST PUSH1 0x20 DUP3 ADD SWAP1 POP SWAP2 SWAP1 POP JUMP JUMPDEST PUSH1 0x0 PUSH1 0x20 DUP3 ADD SWAP1 POP DUP2 DUP2 SUB PUSH1 0x0 DUP4 ADD MSTORE PUSH2 0x353A DUP2 PUSH2 0x34FE JUMP JUMPDEST SWAP1 POP SWAP2 SWAP1 POP JUMP JUMPDEST PUSH1 0x0 DUP2 SWAP1 POP SWAP3 SWAP2 POP POP JUMP JUMPDEST POP JUMP JUMPDEST PUSH1 0x0 PUSH2 0x355C PUSH1 0x0 DUP4 PUSH2 0x3541 JUMP JUMPDEST SWAP2 POP PUSH2 0x3567 DUP3 PUSH2 0x354C JUMP JUMPDEST PUSH1 0x0 DUP3 ADD SWAP1 POP SWAP2 SWAP1 POP JUMP JUMPDEST PUSH1 0x0 PUSH2 0x357D DUP3 PUSH2 0x354F JUMP JUMPDEST SWAP2 POP DUP2 SWAP1 POP SWAP2 SWAP1 POP JUMP JUMPDEST PUSH32 0x41646D696E20666565207472616E73666572206661696C656400000000000000 PUSH1 0x0 DUP3 ADD MSTORE POP JUMP JUMPDEST PUSH1 0x0 PUSH2 0x35BD PUSH1 0x19 DUP4 PUSH2 0x3161 JUMP JUMPDEST SWAP2 POP PUSH2 0x35C8 DUP3 PUSH2 0x3587 JUMP JUMPDEST PUSH1 0x20 DUP3 ADD SWAP1 POP SWAP2 SWAP1 POP JUMP JUMPDEST PUSH1 0x0 PUSH1 0x20 DUP3 ADD SWAP1 POP DUP2 DUP2 SUB PUSH1 0x0 DUP4 ADD MSTORE PUSH2 0x35EC DUP2 PUSH2 0x35B0 JUMP JUMPDEST SWAP1 POP SWAP2 SWAP1 POP JUMP JUMPDEST PUSH32 0x536F75726365206D75737420626520746865206F7261636C65206F6620746865 PUSH1 0x0 DUP3 ADD MSTORE PUSH32 0x2072657175657374000000000000000000000000000000000000000000000000 PUSH1 0x20 DUP3 ADD MSTORE POP JUMP JUMPDEST PUSH1 0x0 PUSH2 0x364F PUSH1 0x28 DUP4 PUSH2 0x3161 JUMP JUMPDEST SWAP2 POP PUSH2 0x365A DUP3 PUSH2 0x35F3 JUMP JUMPDEST PUSH1 0x40 DUP3 ADD SWAP1 POP SWAP2 SWAP1 POP JUMP JUMPDEST PUSH1 0x0 PUSH1 0x20 DUP3 ADD SWAP1 POP DUP2 DUP2 SUB PUSH1 0x0 DUP4 ADD MSTORE PUSH2 0x367E DUP2 PUSH2 0x3642 JUMP JUMPDEST SWAP1 POP SWAP2 SWAP1 POP JUMP JUMPDEST PUSH32 0x52657175657374206E6F7420666F722064656C617920636865636B0000000000 PUSH1 0x0 DUP3 ADD MSTORE POP JUMP JUMPDEST PUSH1 0x0 PUSH2 0x36BB PUSH1 0x1B DUP4 PUSH2 0x3161 JUMP JUMPDEST SWAP2 POP PUSH2 0x36C6 DUP3 PUSH2 0x3685 JUMP JUMPDEST PUSH1 0x20 DUP3 ADD SWAP1 POP SWAP2 SWAP1 POP JUMP JUMPDEST PUSH1 0x0 PUSH1 0x20 DUP3 ADD SWAP1 POP DUP2 DUP2 SUB PUSH1 0x0 DUP4 ADD MSTORE PUSH2 0x36EA DUP2 PUSH2 0x36AE JUMP JUMPDEST SWAP1 POP SWAP2 SWAP1 POP JUMP JUMPDEST PUSH32 0x4E487B7100000000000000000000000000000000000000000000000000000000 PUSH1 0x0 MSTORE PUSH1 0x32 PUSH1 0x4 MSTORE PUSH1 0x24 PUSH1 0x0 REVERT JUMPDEST PUSH32 0x4E487B7100000000000000000000000000000000000000000000000000000000 PUSH1 0x0 MSTORE PUSH1 0x11 PUSH1 0x4 MSTORE PUSH1 0x24 PUSH1 0x0 REVERT JUMPDEST PUSH1 0x0 PUSH2 0x375A DUP3 PUSH2 0x2DC1 JUMP JUMPDEST SWAP2 POP PUSH2 0x3765 DUP4 PUSH2 0x2DC1 JUMP JUMPDEST SWAP3 POP DUP3 DUP3 MUL PUSH2 0x3773 DUP2 PUSH2 0x2DC1 JUMP JUMPDEST SWAP2 POP DUP3 DUP3 DIV DUP5 EQ DUP4 ISZERO OR PUSH2 0x378A JUMPI PUSH2 0x3789 PUSH2 0x3720 JUMP JUMPDEST JUMPDEST POP SWAP3 SWAP2 POP POP JUMP JUMPDEST PUSH32 0x4E487B7100000000000000000000000000000000000000000000000000000000 PUSH1 0x0 MSTORE PUSH1 0x12 PUSH1 0x4 MSTORE PUSH1 0x24 PUSH1 0x0 REVERT JUMPDEST PUSH1 0x0 PUSH2 0x37CB DUP3 PUSH2 0x2DC1 JUMP JUMPDEST SWAP2 POP PUSH2 0x37D6 DUP4 PUSH2 0x2DC1 JUMP JUMPDEST SWAP3 POP DUP3 PUSH2 0x37E6 JUMPI PUSH2 0x37E5 PUSH2 0x3791 JUMP JUMPDEST JUMPDEST DUP3 DUP3 DIV SWAP1 POP SWAP3 SWAP2 POP POP JUMP JUMPDEST PUSH32 0x496E73756666696369656E7420636F6E74726163742062616C616E6365000000 PUSH1 0x0 DUP3 ADD MSTORE POP JUMP JUMPDEST PUSH1 0x0 PUSH2 0x3827 PUSH1 0x1D DUP4 PUSH2 0x3161 JUMP JUMPDEST SWAP2 POP PUSH2 0x3832 DUP3 PUSH2 0x37F1 JUMP JUMPDEST PUSH1 0x20 DUP3 ADD SWAP1 POP SWAP2 SWAP1 POP JUMP JUMPDEST PUSH1 0x0 PUSH1 0x20 DUP3 ADD SWAP1 POP DUP2 DUP2 SUB PUSH1 0x0 DUP4 ADD MSTORE PUSH2 0x3856 DUP2 PUSH2 0x381A JUMP JUMPDEST SWAP1 POP SWAP2 SWAP1 POP JUMP JUMPDEST PUSH1 0x0 PUSH2 0x3868 DUP3 PUSH2 0x2DC1 JUMP JUMPDEST SWAP2 POP PUSH2 0x3873 DUP4 PUSH2 0x2DC1 JUMP JUMPDEST SWAP3 POP DUP3 DUP3 ADD SWAP1 POP DUP1 DUP3 GT ISZERO PUSH2 0x388B JUMPI PUSH2 0x388A PUSH2 0x3720 JUMP JUMPDEST JUMPDEST SWAP3 SWAP2 POP POP JUMP JUMPDEST PUSH32 0x5061796F7574207472616E73666572206661696C656400000000000000000000 PUSH1 0x0 DUP3 ADD MSTORE POP JUMP JUMPDEST PUSH1 0x0 PUSH2 0x38C7 PUSH1 0x16 DUP4 PUSH2 0x3161 JUMP JUMPDEST SWAP2 POP PUSH2 0x38D2 DUP3 PUSH2 0x3891 JUMP JUMPDEST PUSH1 0x20 DUP3 ADD SWAP1 POP SWAP2 SWAP1 POP JUMP JUMPDEST PUSH1 0x0 PUSH1 0x20 DUP3 ADD SWAP1 POP DUP2 DUP2 SUB PUSH1 0x0 DUP4 ADD MSTORE PUSH2 0x38F6 DUP2 PUSH2 0x38BA JUMP JUMPDEST SWAP1 POP SWAP2 SWAP1 POP JUMP JUMPDEST PUSH32 0x4E487B7100000000000000000000000000000000000000000000000000000000 PUSH1 0x0 MSTORE PUSH1 0x22 PUSH1 0x4 MSTORE PUSH1 0x24 PUSH1 0x0 REVERT JUMPDEST PUSH1 0x0 PUSH1 0x2 DUP3 DIV SWAP1 POP PUSH1 0x1 DUP3 AND DUP1 PUSH2 0x3944 JUMPI PUSH1 0x7F DUP3 AND SWAP2 POP JUMPDEST PUSH1 0x20 DUP3 LT DUP2 SUB PUSH2 0x3957 JUMPI PUSH2 0x3956 PUSH2 0x38FD JUMP JUMPDEST JUMPDEST POP SWAP2 SWAP1 POP JUMP JUMPDEST PUSH1 0x0 DUP2 SWAP1 POP DUP2 PUSH1 0x0 MSTORE PUSH1 0x20 PUSH1 0x0 KECCAK256 SWAP1 POP SWAP2 SWAP1 POP JUMP JUMPDEST PUSH1 0x0 DUP2 SLOAD PUSH2 0x397F DUP2 PUSH2 0x392C JUMP JUMPDEST PUSH2 0x3989 DUP2 DUP7 PUSH2 0x3161 JUMP JUMPDEST SWAP5 POP PUSH1 0x1 DUP3 AND PUSH1 0x0 DUP2 EQ PUSH2 0x39A4 JUMPI PUSH1 0x1 DUP2 EQ PUSH2 0x39BA JUMPI PUSH2 0x39ED JUMP JUMPDEST PUSH1 0xFF NOT DUP4 AND DUP7 MSTORE DUP2 ISZERO ISZERO PUSH1 0x20 MUL DUP7 ADD SWAP4 POP PUSH2 0x39ED JUMP JUMPDEST PUSH2 0x39C3 DUP6 PUSH2 0x395D JUMP JUMPDEST PUSH1 0x0 JUMPDEST DUP4 DUP2 LT ISZERO PUSH2 0x39E5 JUMPI DUP2 SLOAD DUP2 DUP10 ADD MSTORE PUSH1 0x1 DUP3 ADD SWAP2 POP PUSH1 0x20 DUP2 ADD SWAP1 POP PUSH2 0x39C6 JUMP JUMPDEST DUP1 DUP9 ADD SWAP6 POP POP POP JUMPDEST POP POP POP SWAP3 SWAP2 POP POP JUMP JUMPDEST PUSH1 0x0 PUSH1 0x60 DUP3 ADD SWAP1 POP DUP2 DUP2 SUB PUSH1 0x0 DUP4 ADD MSTORE PUSH2 0x3A10 DUP2 DUP7 PUSH2 0x3972 JUMP JUMPDEST SWAP1 POP PUSH2 0x3A1F PUSH1 0x20 DUP4 ADD DUP6 PUSH2 0x31AB JUMP JUMPDEST PUSH2 0x3A2C PUSH1 0x40 DUP4 ADD DUP5 PUSH2 0x31AB JUMP JUMPDEST SWAP5 SWAP4 POP POP POP POP JUMP JUMPDEST PUSH32 0x4D7573742062652070726F706F736564206F776E657200000000000000000000 PUSH1 0x0 DUP3 ADD MSTORE POP JUMP JUMPDEST PUSH1 0x0 PUSH2 0x3A6A PUSH1 0x16 DUP4 PUSH2 0x3161 JUMP JUMPDEST SWAP2 POP PUSH2 0x3A75 DUP3 PUSH2 0x3A34 JUMP JUMPDEST PUSH1 0x20 DUP3 ADD SWAP1 POP SWAP2 SWAP1 POP JUMP JUMPDEST PUSH1 0x0 PUSH1 0x20 DUP3 ADD SWAP1 POP DUP2 DUP2 SUB PUSH1 0x0 DUP4 ADD MSTORE PUSH2 0x3A99 DUP2 PUSH2 0x3A5D JUMP JUMPDEST SWAP1 POP SWAP2 SWAP1 POP JUMP JUMPDEST PUSH32 0x52657175657374206E6F7420666F7220766572696669636174696F6E00000000 PUSH1 0x0 DUP3 ADD MSTORE POP JUMP JUMPDEST PUSH1 0x0 PUSH2 0x3AD6 PUSH1 0x1C DUP4 PUSH2 0x3161 JUMP JUMPDEST SWAP2 POP PUSH2 0x3AE1 DUP3 PUSH2 0x3AA0 JUMP JUMPDEST PUSH1 0x20 DUP3 ADD SWAP1 POP SWAP2 SWAP1 POP JUMP JUMPDEST PUSH1 0x0 PUSH1 0x20 DUP3 ADD SWAP1 POP DUP2 DUP2 SUB PUSH1 0x0 DUP4 ADD MSTORE PUSH2 0x3B05 DUP2 PUSH2 0x3AC9 JUMP JUMPDEST SWAP1 POP SWAP2 SWAP1 POP JUMP JUMPDEST PUSH1 0x0 PUSH2 0x3B17 DUP3 PUSH2 0x2DC1 JUMP JUMPDEST SWAP2 POP PUSH2 0x3B22 DUP4 PUSH2 0x2DC1 JUMP JUMPDEST SWAP3 POP DUP3 DUP3 SUB SWAP1 POP DUP2 DUP2 GT ISZERO PUSH2 0x3B3A JUMPI PUSH2 0x3B39 PUSH2 0x3720 JUMP JUMPDEST JUMPDEST SWAP3 SWAP2 POP POP JUMP JUMPDEST PUSH32 0x526566756E64207472616E73666572206661696C656400000000000000000000 PUSH1 0x0 DUP3 ADD MSTORE POP JUMP JUMPDEST PUSH1 0x0 PUSH2 0x3B76 PUSH1 0x16 DUP4 PUSH2 0x3161 JUMP JUMPDEST SWAP2 POP PUSH2 0x3B81 DUP3 PUSH2 0x3B40 JUMP JUMPDEST PUSH1 0x20 DUP3 ADD SWAP1 POP SWAP2 SWAP1 POP JUMP JUMPDEST PUSH1 0x0 PUSH1 0x20 DUP3 ADD SWAP1 POP DUP2 DUP2 SUB PUSH1 0x0 DUP4 ADD MSTORE PUSH2 0x3BA5 DUP2 PUSH2 0x3B69 JUMP JUMPDEST SWAP1 POP SWAP2 SWAP1 POP JUMP JUMPDEST PUSH1 0x0 PUSH1 0x20 DUP3 ADD SWAP1 POP PUSH2 0x3BC1 PUSH1 0x0 DUP4 ADD DUP5 PUSH2 0x31BA JUMP JUMPDEST SWAP3 SWAP2 POP POP JUMP JUMPDEST PUSH32 0x5072656D69756D20746F6F206C6F770000000000000000000000000000000000 PUSH1 0x0 DUP3 ADD MSTORE POP JUMP JUMPDEST PUSH1 0x0 PUSH2 0x3BFD PUSH1 0xF DUP4 PUSH2 0x3161 JUMP JUMPDEST SWAP2 POP PUSH2 0x3C08 DUP3 PUSH2 0x3BC7 JUMP JUMPDEST PUSH1 0x20 DUP3 ADD SWAP1 POP SWAP2 SWAP1 POP JUMP JUMPDEST PUSH1 0x0 PUSH1 0x20 DUP3 ADD SWAP1 POP DUP2 DUP2 SUB PUSH1 0x0 DUP4 ADD MSTORE PUSH2 0x3C2C DUP2 PUSH2 0x3BF0 JUMP JUMPDEST SWAP1 POP SWAP2 SWAP1 POP JUMP JUMPDEST PUSH32 0x5072656D69756D20746F6F206869676800000000000000000000000000000000 PUSH1 0x0 DUP3 ADD MSTORE POP JUMP JUMPDEST PUSH1 0x0 PUSH2 0x3C69 PUSH1 0x10 DUP4 PUSH2 0x3161 JUMP JUMPDEST SWAP2 POP PUSH2 0x3C74 DUP3 PUSH2 0x3C33 JUMP JUMPDEST PUSH1 0x20 DUP3 ADD SWAP1 POP SWAP2 SWAP1 POP JUMP JUMPDEST PUSH1 0x0 PUSH1 0x20 DUP3 ADD SWAP1 POP DUP2 DUP2 SUB PUSH1 0x0 DUP4 ADD MSTORE PUSH2 0x3C98 DUP2 PUSH2 0x3C5C JUMP JUMPDEST SWAP1 POP SWAP2 SWAP1 POP JUMP JUMPDEST PUSH32 0x466C69676874206D75737420626520696E207468652066757475726500000000 PUSH1 0x0 DUP3 ADD MSTORE POP JUMP JUMPDEST PUSH1 0x0 PUSH2 0x3CD5 PUSH1 0x1C DUP4 PUSH2 0x3161 JUMP JUMPDEST SWAP2 POP PUSH2 0x3CE0 DUP3 PUSH2 0x3C9F JUMP JUMPDEST PUSH1 0x20 DUP3 ADD SWAP1 POP SWAP2 SWAP1 POP JUMP JUMPDEST PUSH1 0x0 PUSH1 0x20 DUP3 ADD SWAP1 POP DUP2 DUP2 SUB PUSH1 0x0 DUP4 ADD MSTORE PUSH2 0x3D04 DUP2 PUSH2 0x3CC8 JUMP JUMPDEST SWAP1 POP SWAP2 SWAP1 POP JUMP JUMPDEST PUSH1 0x0 PUSH1 0x20 PUSH1 0x1F DUP4 ADD DIV SWAP1 POP SWAP2 SWAP1 POP JUMP JUMPDEST PUSH1 0x0 DUP3 DUP3 SHL SWAP1 POP SWAP3 SWAP2 POP POP JUMP JUMPDEST PUSH1 0x0 PUSH1 0x8 DUP4 MUL PUSH2 0x3D58 PUSH32 0xFFFFFFFFFFFFFFFFFFFFFFFFFFFFFFFFFFFFFFFFFFFFFFFFFFFFFFFFFFFFFFFF DUP3 PUSH2 0x3D1B JUMP JUMPDEST PUSH2 0x3D62 DUP7 DUP4 PUSH2 0x3D1B JUMP JUMPDEST SWAP6 POP DUP1 NOT DUP5 AND SWAP4 POP DUP1 DUP7 AND DUP5 OR SWAP3 POP POP POP SWAP4 SWAP3 POP POP POP JUMP JUMPDEST PUSH1 0x0 DUP2 SWAP1 POP SWAP2 SWAP1 POP JUMP JUMPDEST PUSH1 0x0 PUSH2 0x3D9F PUSH2 0x3D9A PUSH2 0x3D95 DUP5 PUSH2 0x2DC1 JUMP JUMPDEST PUSH2 0x3D7A JUMP JUMPDEST PUSH2 0x2DC1 JUMP JUMPDEST SWAP1 POP SWAP2 SWAP1 POP JUMP JUMPDEST PUSH1 0x0 DUP2 SWAP1 POP SWAP2 SWAP1 POP JUMP JUMPDEST PUSH2 0x3DB9 DUP4 PUSH2 0x3D84 JUMP JUMPDEST PUSH2 0x3DCD PUSH2 0x3DC5 DUP3 PUSH2 0x3DA6 JUMP JUMPDEST DUP5 DUP5 SLOAD PUSH2 0x3D28 JUMP JUMPDEST DUP3 SSTORE POP POP POP POP JUMP JUMPDEST PUSH1 0x0 SWAP1 JUMP JUMPDEST PUSH2 0x3DE2 PUSH2 0x3DD5 JUMP JUMPDEST PUSH2 0x3DED DUP2 DUP5 DUP5 PUSH2 0x3DB0 JUMP JUMPDEST POP POP POP JUMP JUMPDEST JUMPDEST DUP2 DUP2 LT ISZERO PUSH2 0x3E11 JUMPI PUSH2 0x3E06 PUSH1 0x0 DUP3 PUSH2 0x3DDA JUMP JUMPDEST PUSH1 0x1 DUP2 ADD SWAP1 POP PUSH2 0x3DF3 JUMP JUMPDEST POP POP JUMP JUMPDEST PUSH1 0x1F DUP3 GT ISZERO PUSH2 0x3E56 JUMPI PUSH2 0x3E27 DUP2 PUSH2 0x395D JUMP JUMPDEST PUSH2 0x3E30 DUP5 PUSH2 0x3D0B JUMP JUMPDEST DUP2 ADD PUSH1 0x20 DUP6 LT ISZERO PUSH2 0x3E3F JUMPI DUP2 SWAP1 POP JUMPDEST PUSH2 0x3E53 PUSH2 0x3E4B DUP6 PUSH2 0x3D0B JUMP JUMPDEST DUP4 ADD DUP3 PUSH2 0x3DF2 JUMP JUMPDEST POP POP JUMPDEST POP POP POP JUMP JUMPDEST PUSH1 0x0 DUP3 DUP3 SHR SWAP1 POP SWAP3 SWAP2 POP POP JUMP JUMPDEST PUSH1 0x0 PUSH2 0x3E79 PUSH1 0x0 NOT DUP5 PUSH1 0x8 MUL PUSH2 0x3E5B JUMP JUMPDEST NOT DUP1 DUP4 AND SWAP2 POP POP SWAP3 SWAP2 POP POP JUMP JUMPDEST PUSH1 0x0 PUSH2 0x3E92 DUP4 DUP4 PUSH2 0x3E68 JUMP JUMPDEST SWAP2 POP DUP3 PUSH1 0x2 MUL DUP3 OR SWAP1 POP SWAP3 SWAP2 POP POP JUMP JUMPDEST PUSH2 0x3EAB DUP3 PUSH2 0x2EFD JUMP JUMPDEST PUSH8 0xFFFFFFFFFFFFFFFF DUP2 GT ISZERO PUSH2 0x3EC4 JUMPI PUSH2 0x3EC3 PUSH2 0x32F2 JUMP JUMPDEST JUMPDEST PUSH2 0x3ECE DUP3 SLOAD PUSH2 0x392C JUMP JUMPDEST PUSH2 0x3ED9 DUP3 DUP3 DUP6 PUSH2 0x3E15 JUMP JUMPDEST PUSH1 0x0 PUSH1 0x20 SWAP1 POP PUSH1 0x1F DUP4 GT PUSH1 0x1 DUP2 EQ PUSH2 0x3F0C JUMPI PUSH1 0x0 DUP5 ISZERO PUSH2 0x3EFA JUMPI DUP3 DUP8 ADD MLOAD SWAP1 POP JUMPDEST PUSH2 0x3F04 DUP6 DUP3 PUSH2 0x3E86 JUMP JUMPDEST DUP7 SSTORE POP PUSH2 0x3F6C JUMP JUMPDEST PUSH1 0x1F NOT DUP5 AND PUSH2 0x3F1A DUP7 PUSH2 0x395D JUMP JUMPDEST PUSH1 0x0 JUMPDEST DUP3 DUP2 LT ISZERO PUSH2 0x3F42 JUMPI DUP5 DUP10 ADD MLOAD DUP3 SSTORE PUSH1 0x1 DUP3 ADD SWAP2 POP PUSH1 0x20 DUP6 ADD SWAP5 POP PUSH1 0x20 DUP2 ADD SWAP1 POP PUSH2 0x3F1D JUMP JUMPDEST DUP7 DUP4 LT ISZERO PUSH2 0x3F5F JUMPI DUP5 DUP10 ADD MLOAD PUSH2 0x3F5B PUSH1 0x1F DUP10 AND DUP3 PUSH2 0x3E68 JUMP JUMPDEST DUP4 SSTORE POP JUMPDEST PUSH1 0x1 PUSH1 0x2 DUP9 MUL ADD DUP9 SSTORE POP POP POP JUMPDEST POP POP POP POP POP POP JUMP JUMPDEST PUSH1 0x0 PUSH2 0x3F7F DUP3 PUSH2 0x2DC1 JUMP JUMPDEST SWAP2 POP PUSH32 0xFFFFFFFFFFFFFFFFFFFFFFFFFFFFFFFFFFFFFFFFFFFFFFFFFFFFFFFFFFFFFFFF DUP3 SUB PUSH2 0x3FB1 JUMPI PUSH2 0x3FB0 PUSH2 0x3720 JUMP JUMPDEST JUMPDEST PUSH1 0x1 DUP3 ADD SWAP1 POP SWAP2 SWAP1 POP JUMP JUMPDEST PUSH1 0x0 PUSH1 0x60 DUP3 ADD SWAP1 POP DUP2 DUP2 SUB PUSH1 0x0 DUP4 ADD MSTORE PUSH2 0x3FD6 DUP2 DUP7 PUSH2 0x3172 JUMP JUMPDEST SWAP1 POP PUSH2 0x3FE5 PUSH1 0x20 DUP4 ADD DUP6 PUSH2 0x31AB JUMP JUMPDEST PUSH2 0x3FF2 PUSH1 0x40 DUP4 ADD DUP5 PUSH2 0x31AB JUMP JUMPDEST SWAP5 SWAP4 POP POP POP POP JUMP JUMPDEST PUSH32 0x496E76616C696420706F6C69637920696E646578000000000000000000000000 PUSH1 0x0 DUP3 ADD MSTORE POP JUMP JUMPDEST PUSH1 0x0 PUSH2 0x4030 PUSH1 0x14 DUP4 PUSH2 0x3161 JUMP JUMPDEST SWAP2 POP PUSH2 0x403B DUP3 PUSH2 0x3FFA JUMP JUMPDEST PUSH1 0x20 DUP3 ADD SWAP1 POP SWAP2 SWAP1 POP JUMP JUMPDEST PUSH1 0x0 PUSH1 0x20 DUP3 ADD SWAP1 POP DUP2 DUP2 SUB PUSH1 0x0 DUP4 ADD MSTORE PUSH2 0x405F DUP2 PUSH2 0x4023 JUMP JUMPDEST SWAP1 POP SWAP2 SWAP1 POP JUMP JUMPDEST PUSH32 0x466C69676874206E6F7420766572696669656400000000000000000000000000 PUSH1 0x0 DUP3 ADD MSTORE POP JUMP JUMPDEST PUSH1 0x0 PUSH2 0x409C PUSH1 0x13 DUP4 PUSH2 0x3161 JUMP JUMPDEST SWAP2 POP PUSH2 0x40A7 DUP3 PUSH2 0x4066 JUMP JUMPDEST PUSH1 0x20 DUP3 ADD SWAP1 POP SWAP2 SWAP1 POP JUMP JUMPDEST PUSH1 0x0 PUSH1 0x20 DUP3 ADD SWAP1 POP DUP2 DUP2 SUB PUSH1 0x0 DUP4 ADD MSTORE PUSH2 0x40CB DUP2 PUSH2 0x408F JUMP JUMPDEST SWAP1 POP SWAP2 SWAP1 POP JUMP JUMPDEST PUSH32 0x436C61696D20616C72656164792070726F636573736564000000000000000000 PUSH1 0x0 DUP3 ADD MSTORE POP JUMP JUMPDEST PUSH1 0x0 PUSH2 0x4108 PUSH1 0x17 DUP4 PUSH2 0x3161 JUMP JUMPDEST SWAP2 POP PUSH2 0x4113 DUP3 PUSH2 0x40D2 JUMP JUMPDEST PUSH1 0x20 DUP3 ADD SWAP1 POP SWAP2 SWAP1 POP JUMP JUMPDEST PUSH1 0x0 PUSH1 0x20 DUP3 ADD SWAP1 POP DUP2 DUP2 SUB PUSH1 0x0 DUP4 ADD MSTORE PUSH2 0x4137 DUP2 PUSH2 0x40FB JUMP JUMPDEST SWAP1 POP SWAP2 SWAP1 POP JUMP JUMPDEST PUSH32 0x466C69676874206861736E277420646570617274656420796574000000000000 PUSH1 0x0 DUP3 ADD MSTORE POP JUMP JUMPDEST PUSH1 0x0 PUSH2 0x4174 PUSH1 0x1A DUP4 PUSH2 0x3161 JUMP JUMPDEST SWAP2 POP PUSH2 0x417F DUP3 PUSH2 0x413E JUMP JUMPDEST PUSH1 0x20 DUP3 ADD SWAP1 POP SWAP2 SWAP1 POP JUMP JUMPDEST PUSH1 0x0 PUSH1 0x20 DUP3 ADD SWAP1 POP DUP2 DUP2 SUB PUSH1 0x0 DUP4 ADD MSTORE PUSH2 0x41A3 DUP2 PUSH2 0x4167 JUMP JUMPDEST SWAP1 POP SWAP2 SWAP1 POP JUMP JUMPDEST PUSH32 0x4F6E6C792063616C6C61626C65206279206F776E657200000000000000000000 PUSH1 0x0 DUP3 ADD MSTORE POP JUMP JUMPDEST PUSH1 0x0 PUSH2 0x41E0 PUSH1 0x16 DUP4 PUSH2 0x3161 JUMP JUMPDEST SWAP2 POP PUSH2 0x41EB DUP3 PUSH2 0x41AA JUMP JUMPDEST PUSH1 0x20 DUP3 ADD SWAP1 POP SWAP2 SWAP1 POP JUMP JUMPDEST PUSH1 0x0 PUSH1 0x20 DUP3 ADD SWAP1 POP DUP2 DUP2 SUB PUSH1 0x0 DUP4 ADD MSTORE PUSH2 0x420F DUP2 PUSH2 0x41D3 JUMP JUMPDEST SWAP1 POP SWAP2 SWAP1 POP JUMP JUMPDEST PUSH1 0x0 DUP2 SWAP1 POP SWAP3 SWAP2 POP POP JUMP JUMPDEST PUSH1 0x0 DUP2 SLOAD PUSH2 0x422E DUP2 PUSH2 0x392C JUMP JUMPDEST PUSH2 0x4238 DUP2 DUP7 PUSH2 0x4216 JUMP JUMPDEST SWAP5 POP PUSH1 0x1 DUP3 AND PUSH1 0x0 DUP2 EQ PUSH2 0x4253 JUMPI PUSH1 0x1 DUP2 EQ PUSH2 0x4268 JUMPI PUSH2 0x429B JUMP JUMPDEST PUSH1 0xFF NOT DUP4 AND DUP7 MSTORE DUP2 ISZERO ISZERO DUP3 MUL DUP7 ADD SWAP4 POP PUSH2 0x429B JUMP JUMPDEST PUSH2 0x4271 DUP6 PUSH2 0x395D JUMP JUMPDEST PUSH1 0x0 JUMPDEST DUP4 DUP2 LT ISZERO PUSH2 0x4293 JUMPI DUP2 SLOAD DUP2 DUP10 ADD MSTORE PUSH1 0x1 DUP3 ADD SWAP2 POP PUSH1 0x20 DUP2 ADD SWAP1 POP PUSH2 0x4274 JUMP JUMPDEST DUP4 DUP9 ADD SWAP6 POP POP POP JUMPDEST POP POP POP SWAP3 SWAP2 POP POP JUMP JUMPDEST PUSH32 0x2F6170692F7665726966792D666C696768740000000000000000000000000000 PUSH1 0x0 DUP3 ADD MSTORE POP JUMP JUMPDEST PUSH1 0x0 PUSH2 0x42DA PUSH1 0x12 DUP4 PUSH2 0x4216 JUMP JUMPDEST SWAP2 POP PUSH2 0x42E5 DUP3 PUSH2 0x42A4 JUMP JUMPDEST PUSH1 0x12 DUP3 ADD SWAP1 POP SWAP2 SWAP1 POP JUMP JUMPDEST PUSH1 0x0 PUSH2 0x42FC DUP3 DUP5 PUSH2 0x4221 JUMP JUMPDEST SWAP2 POP PUSH2 0x4307 DUP3 PUSH2 0x42CD JUMP JUMPDEST SWAP2 POP DUP2 SWAP1 POP SWAP3 SWAP2 POP POP JUMP JUMPDEST PUSH32 0x7B226169726C696E655F69617461223A22000000000000000000000000000000 PUSH1 0x0 DUP3 ADD MSTORE POP JUMP JUMPDEST PUSH1 0x0 PUSH2 0x4348 PUSH1 0x11 DUP4 PUSH2 0x4216 JUMP JUMPDEST SWAP2 POP PUSH2 0x4353 DUP3 PUSH2 0x4312 JUMP JUMPDEST PUSH1 0x11 DUP3 ADD SWAP1 POP SWAP2 SWAP1 POP JUMP JUMPDEST PUSH1 0x0 PUSH2 0x4369 DUP3 PUSH2 0x2EFD JUMP JUMPDEST PUSH2 0x4373 DUP2 DUP6 PUSH2 0x4216 JUMP JUMPDEST SWAP4 POP PUSH2 0x4383 DUP2 DUP6 PUSH1 0x20 DUP7 ADD PUSH2 0x2F19 JUMP JUMPDEST DUP1 DUP5 ADD SWAP2 POP POP SWAP3 SWAP2 POP POP JUMP JUMPDEST PUSH32 0x222C22666C696768745F6E756D626572223A2200000000000000000000000000 PUSH1 0x0 DUP3 ADD MSTORE POP JUMP JUMPDEST PUSH1 0x0 PUSH2 0x43C5 PUSH1 0x13 DUP4 PUSH2 0x4216 JUMP JUMPDEST SWAP2 POP PUSH2 0x43D0 DUP3 PUSH2 0x438F JUMP JUMPDEST PUSH1 0x13 DUP3 ADD SWAP1 POP SWAP2 SWAP1 POP JUMP JUMPDEST PUSH32 0x222C226465706172747572655F64617465223A22000000000000000000000000 PUSH1 0x0 DUP3 ADD MSTORE POP JUMP JUMPDEST PUSH1 0x0 PUSH2 0x4411 PUSH1 0x14 DUP4 PUSH2 0x4216 JUMP JUMPDEST SWAP2 POP PUSH2 0x441C DUP3 PUSH2 0x43DB JUMP JUMPDEST PUSH1 0x14 DUP3 ADD SWAP1 POP SWAP2 SWAP1 POP JUMP JUMPDEST PUSH32 0x227D000000000000000000000000000000000000000000000000000000000000 PUSH1 0x0 DUP3 ADD MSTORE POP JUMP JUMPDEST PUSH1 0x0 PUSH2 0x445D PUSH1 0x2 DUP4 PUSH2 0x4216 JUMP JUMPDEST SWAP2 POP PUSH2 0x4468 DUP3 PUSH2 0x4427 JUMP JUMPDEST PUSH1 0x2 DUP3 ADD SWAP1 POP SWAP2 SWAP1 POP JUMP JUMPDEST PUSH1 0x0 PUSH2 0x447E DUP3 PUSH2 0x433B JUMP JUMPDEST SWAP2 POP PUSH2 0x448A DUP3 DUP7 PUSH2 0x435E JUMP JUMPDEST SWAP2 POP PUSH2 0x4495 DUP3 PUSH2 0x43B8 JUMP JUMPDEST SWAP2 POP PUSH2 0x44A1 DUP3 DUP6 PUSH2 0x435E JUMP JUMPDEST SWAP2 POP PUSH2 0x44AC DUP3 PUSH2 0x4404 JUMP JUMPDEST SWAP2 POP PUSH2 0x44B8 DUP3 DUP5 PUSH2 0x435E JUMP JUMPDEST SWAP2 POP PUSH2 0x44C3 DUP3 PUSH2 0x4450 JUMP JUMPDEST SWAP2 POP DUP2 SWAP1 POP SWAP5 SWAP4 POP POP POP POP JUMP JUMPDEST PUSH1 0x0 PUSH2 0x44DC DUP3 DUP6 PUSH2 0x435E JUMP JUMPDEST SWAP2 POP PUSH2 0x44E8 DUP3 DUP5 PUSH2 0x435E JUMP JUMPDEST SWAP2 POP DUP2 SWAP1 POP SWAP4 SWAP3 POP POP POP JUMP JUMPDEST PUSH32 0x2F6170692F666C696768742D64656C61793F666C696768745F696174613D0000 PUSH1 0x0 DUP3 ADD MSTORE POP JUMP JUMPDEST PUSH1 0x0 PUSH2 0x452A PUSH1 0x1E DUP4 PUSH2 0x4216 JUMP JUMPDEST SWAP2 POP PUSH2 0x4535 DUP3 PUSH2 0x44F4 JUMP JUMPDEST PUSH1 0x1E DUP3 ADD SWAP1 POP SWAP2 SWAP1 POP JUMP JUMPDEST PUSH32 0x266465706172747572655F646174653D00000000000000000000000000000000 PUSH1 0x0 DUP3 ADD MSTORE POP JUMP JUMPDEST PUSH1 0x0 PUSH2 0x4576 PUSH1 0x10 DUP4 PUSH2 0x4216 JUMP JUMPDEST SWAP2 POP PUSH2 0x4581 DUP3 PUSH2 0x4540 JUMP JUMPDEST PUSH1 0x10 DUP3 ADD SWAP1 POP SWAP2 SWAP1 POP JUMP JUMPDEST PUSH1 0x0 PUSH2 0x4598 DUP3 DUP7 PUSH2 0x4221 JUMP JUMPDEST SWAP2 POP PUSH2 0x45A3 DUP3 PUSH2 0x451D JUMP JUMPDEST SWAP2 POP PUSH2 0x45AF DUP3 DUP6 PUSH2 0x435E JUMP JUMPDEST SWAP2 POP PUSH2 0x45BA DUP3 PUSH2 0x4569 JUMP JUMPDEST SWAP2 POP PUSH2 0x45C6 DUP3 DUP5 PUSH2 0x435E JUMP JUMPDEST SWAP2 POP DUP2 SWAP1 POP SWAP5 SWAP4 POP POP POP POP JUMP JUMPDEST PUSH32 0x43616E6E6F74207472616E7366657220746F2073656C66000000000000000000 PUSH1 0x0 DUP3 ADD MSTORE POP JUMP JUMPDEST PUSH1 0x0 PUSH2 0x4609 PUSH1 0x17 DUP4 PUSH2 0x3161 JUMP JUMPDEST SWAP2 POP PUSH2 0x4614 DUP3 PUSH2 0x45D3 JUMP JUMPDEST PUSH1 0x20 DUP3 ADD SWAP1 POP SWAP2 SWAP1 POP JUMP JUMPDEST PUSH1 0x0 PUSH1 0x20 DUP3 ADD SWAP1 POP DUP2 DUP2 SUB PUSH1 0x0 DUP4 ADD MSTORE PUSH2 0x4638 DUP2 PUSH2 0x45FC JUMP JUMPDEST SWAP1 POP SWAP2 SWAP1 POP JUMP JUMPDEST PUSH1 0x0 PUSH2 0x464A DUP3 PUSH2 0x2DC1 JUMP JUMPDEST SWAP2 POP PUSH2 0x4655 DUP4 PUSH2 0x2DC1 JUMP JUMPDEST SWAP3 POP DUP3 PUSH2 0x4665 JUMPI PUSH2 0x4664 PUSH2 0x3791 JUMP JUMPDEST JUMPDEST DUP3 DUP3 MOD SWAP1 POP SWAP3 SWAP2 POP POP JUMP JUMPDEST PUSH32 0x3000000000000000000000000000000000000000000000000000000000000000 PUSH1 0x0 DUP3 ADD MSTORE POP JUMP JUMPDEST PUSH1 0x0 PUSH2 0x46A6 PUSH1 0x1 DUP4 PUSH2 0x4216 JUMP JUMPDEST SWAP2 POP PUSH2 0x46B1 DUP3 PUSH2 0x4670 JUMP JUMPDEST PUSH1 0x1 DUP3 ADD SWAP1 POP SWAP2 SWAP1 POP JUMP JUMPDEST PUSH1 0x0 PUSH2 0x46C7 DUP3 PUSH2 0x4699 JUMP JUMPDEST SWAP2 POP PUSH2 0x46D3 DUP3 DUP5 PUSH2 0x435E JUMP JUMPDEST SWAP2 POP DUP2 SWAP1 POP SWAP3 SWAP2 POP POP JUMP JUMPDEST PUSH32 0x2D00000000000000000000000000000000000000000000000000000000000000 PUSH1 0x0 DUP3 ADD MSTORE POP JUMP JUMPDEST PUSH1 0x0 PUSH2 0x4714 PUSH1 0x1 DUP4 PUSH2 0x4216 JUMP JUMPDEST SWAP2 POP PUSH2 0x471F DUP3 PUSH2 0x46DE JUMP JUMPDEST PUSH1 0x1 DUP3 ADD SWAP1 POP SWAP2 SWAP1 POP JUMP JUMPDEST PUSH1 0x0 PUSH2 0x4736 DUP3 DUP7 PUSH2 0x435E JUMP JUMPDEST SWAP2 POP PUSH2 0x4741 DUP3 PUSH2 0x4707 JUMP JUMPDEST SWAP2 POP PUSH2 0x474D DUP3 DUP6 PUSH2 0x435E JUMP JUMPDEST SWAP2 POP PUSH2 0x4758 DUP3 PUSH2 0x4707 JUMP JUMPDEST SWAP2 POP PUSH2 0x4764 DUP3 DUP5 PUSH2 0x435E JUMP JUMPDEST SWAP2 POP DUP2 SWAP1 POP SWAP5 SWAP4 POP POP POP POP JUMP JUMPDEST PUSH1 0x0 PUSH1 0xFF DUP3 AND SWAP1 POP SWAP2 SWAP1 POP JUMP JUMPDEST PUSH1 0x0 PUSH2 0x4789 DUP3 PUSH2 0x4771 JUMP JUMPDEST SWAP2 POP PUSH2 0x4794 DUP4 PUSH2 0x4771 JUMP JUMPDEST SWAP3 POP DUP3 DUP3 ADD SWAP1 POP PUSH1 0xFF DUP2 GT ISZERO PUSH2 0x47AD JUMPI PUSH2 0x47AC PUSH2 0x3720 JUMP JUMPDEST JUMPDEST SWAP3 SWAP2 POP POP JUMP JUMPDEST PUSH2 0x47BC DUP2 PUSH2 0x2D8B JUMP JUMPDEST DUP3 MSTORE POP POP JUMP JUMPDEST PUSH1 0x0 PUSH32 0xFFFFFFFF00000000000000000000000000000000000000000000000000000000 DUP3 AND SWAP1 POP SWAP2 SWAP1 POP JUMP JUMPDEST PUSH2 0x47F7 DUP2 PUSH2 0x47C2 JUMP JUMPDEST DUP3 MSTORE POP POP JUMP JUMPDEST PUSH1 0x0 DUP2 MLOAD SWAP1 POP SWAP2 SWAP1 POP JUMP JUMPDEST PUSH1 0x0 DUP3 DUP3 MSTORE PUSH1 0x20 DUP3 ADD SWAP1 POP SWAP3 SWAP2 POP POP JUMP JUMPDEST PUSH1 0x0 PUSH2 0x4824 DUP3 PUSH2 0x47FD JUMP JUMPDEST PUSH2 0x482E DUP2 DUP6 PUSH2 0x4808 JUMP JUMPDEST SWAP4 POP PUSH2 0x483E DUP2 DUP6 PUSH1 0x20 DUP7 ADD PUSH2 0x2F19 JUMP JUMPDEST PUSH2 0x4847 DUP2 PUSH2 0x2F43 JUMP JUMPDEST DUP5 ADD SWAP2 POP POP SWAP3 SWAP2 POP POP JUMP JUMPDEST PUSH1 0x0 PUSH2 0x100 DUP3 ADD SWAP1 POP PUSH2 0x4868 PUSH1 0x0 DUP4 ADD DUP12 PUSH2 0x3152 JUMP JUMPDEST PUSH2 0x4875 PUSH1 0x20 DUP4 ADD DUP11 PUSH2 0x31AB JUMP JUMPDEST PUSH2 0x4882 PUSH1 0x40 DUP4 ADD DUP10 PUSH2 0x47B3 JUMP JUMPDEST PUSH2 0x488F PUSH1 0x60 DUP4 ADD DUP9 PUSH2 0x3152 JUMP JUMPDEST PUSH2 0x489C PUSH1 0x80 DUP4 ADD DUP8 PUSH2 0x47EE JUMP JUMPDEST PUSH2 0x48A9 PUSH1 0xA0 DUP4 ADD DUP7 PUSH2 0x31AB JUMP JUMPDEST PUSH2 0x48B6 PUSH1 0xC0 DUP4 ADD DUP6 PUSH2 0x31AB JUMP JUMPDEST DUP2 DUP2 SUB PUSH1 0xE0 DUP4 ADD MSTORE PUSH2 0x48C8 DUP2 DUP5 PUSH2 0x4819 JUMP JUMPDEST SWAP1 POP SWAP10 SWAP9 POP POP POP POP POP POP POP POP POP JUMP JUMPDEST PUSH1 0x0 PUSH2 0x48F2 PUSH2 0x48ED PUSH2 0x48E8 DUP5 PUSH2 0x2E37 JUMP JUMPDEST PUSH2 0x3D7A JUMP JUMPDEST PUSH2 0x2E37 JUMP JUMPDEST SWAP1 POP SWAP2 SWAP1 POP JUMP JUMPDEST PUSH1 0x0 PUSH2 0x4904 DUP3 PUSH2 0x48D7 JUMP JUMPDEST SWAP1 POP SWAP2 SWAP1 POP JUMP JUMPDEST PUSH1 0x0 PUSH2 0x4916 DUP3 PUSH2 0x48F9 JUMP JUMPDEST SWAP1 POP SWAP2 SWAP1 POP JUMP JUMPDEST PUSH1 0x0 DUP2 PUSH1 0x60 SHL SWAP1 POP SWAP2 SWAP1 POP JUMP JUMPDEST PUSH1 0x0 PUSH2 0x4935 DUP3 PUSH2 0x491D JUMP JUMPDEST SWAP1 POP SWAP2 SWAP1 POP JUMP JUMPDEST PUSH1 0x0 PUSH2 0x4947 DUP3 PUSH2 0x492A JUMP JUMPDEST SWAP1 POP SWAP2 SWAP1 POP JUMP JUMPDEST PUSH2 0x495F PUSH2 0x495A DUP3 PUSH2 0x490B JUMP JUMPDEST PUSH2 0x493C JUMP JUMPDEST DUP3 MSTORE POP POP JUMP JUMPDEST PUSH1 0x0 DUP2 SWAP1 POP SWAP2 SWAP1 POP JUMP JUMPDEST PUSH2 0x4980 PUSH2 0x497B DUP3 PUSH2 0x2DC1 JUMP JUMPDEST PUSH2 0x4965 JUMP JUMPDEST DUP3 MSTORE POP POP JUMP JUMPDEST PUSH1 0x0 PUSH2 0x4992 DUP3 DUP6 PUSH2 0x494E JUMP JUMPDEST PUSH1 0x14 DUP3 ADD SWAP2 POP PUSH2 0x49A2 DUP3 DUP5 PUSH2 0x496F JUMP JUMPDEST PUSH1 0x20 DUP3 ADD SWAP2 POP DUP2 SWAP1 POP SWAP4 SWAP3 POP POP POP JUMP JUMPDEST PUSH1 0x0 PUSH1 0x60 DUP3 ADD SWAP1 POP PUSH2 0x49C7 PUSH1 0x0 DUP4 ADD DUP7 PUSH2 0x3152 JUMP JUMPDEST PUSH2 0x49D4 PUSH1 0x20 DUP4 ADD DUP6 PUSH2 0x31AB JUMP JUMPDEST DUP2 DUP2 SUB PUSH1 0x40 DUP4 ADD MSTORE PUSH2 0x49E6 DUP2 DUP5 PUSH2 0x4819 JUMP JUMPDEST SWAP1 POP SWAP5 SWAP4 POP POP POP POP JUMP JUMPDEST PUSH1 0x0 DUP2 MLOAD SWAP1 POP PUSH2 0x49FF DUP2 PUSH2 0x3261 JUMP JUMPDEST SWAP3 SWAP2 POP POP JUMP JUMPDEST PUSH1 0x0 PUSH1 0x20 DUP3 DUP5 SUB SLT ISZERO PUSH2 0x4A1B JUMPI PUSH2 0x4A1A PUSH2 0x2D81 JUMP JUMPDEST JUMPDEST PUSH1 0x0 PUSH2 0x4A29 DUP5 DUP3 DUP6 ADD PUSH2 0x49F0 JUMP JUMPDEST SWAP2 POP POP SWAP3 SWAP2 POP POP JUMP JUMPDEST PUSH32 0x756E61626C6520746F207472616E73666572416E6443616C6C20746F206F7261 PUSH1 0x0 DUP3 ADD MSTORE PUSH32 0x636C650000000000000000000000000000000000000000000000000000000000 PUSH1 0x20 DUP3 ADD MSTORE POP JUMP JUMPDEST PUSH1 0x0 PUSH2 0x4A8E PUSH1 0x23 DUP4 PUSH2 0x3161 JUMP JUMPDEST SWAP2 POP PUSH2 0x4A99 DUP3 PUSH2 0x4A32 JUMP JUMPDEST PUSH1 0x40 DUP3 ADD SWAP1 POP SWAP2 SWAP1 POP JUMP JUMPDEST PUSH1 0x0 PUSH1 0x20 DUP3 ADD SWAP1 POP DUP2 DUP2 SUB PUSH1 0x0 DUP4 ADD MSTORE PUSH2 0x4ABD DUP2 PUSH2 0x4A81 JUMP JUMPDEST SWAP1 POP SWAP2 SWAP1 POP JUMP JUMPDEST PUSH1 0x0 DUP2 PUSH1 0x1 SHR SWAP1 POP SWAP2 SWAP1 POP JUMP JUMPDEST PUSH1 0x0 DUP1 DUP3 SWAP2 POP DUP4 SWAP1 POP JUMPDEST PUSH1 0x1 DUP6 GT ISZERO PUSH2 0x4B1B JUMPI DUP1 DUP7 DIV DUP2 GT ISZERO PUSH2 0x4AF7 JUMPI PUSH2 0x4AF6 PUSH2 0x3720 JUMP JUMPDEST JUMPDEST PUSH1 0x1 DUP6 AND ISZERO PUSH2 0x4B06 JUMPI DUP1 DUP3 MUL SWAP2 POP JUMPDEST DUP1 DUP2 MUL SWAP1 POP PUSH2 0x4B14 DUP6 PUSH2 0x4AC4 JUMP JUMPDEST SWAP5 POP PUSH2 0x4ADB JUMP JUMPDEST SWAP5 POP SWAP5 SWAP3 POP POP POP JUMP JUMPDEST PUSH1 0x0 DUP3 PUSH2 0x4B34 JUMPI PUSH1 0x1 SWAP1 POP PUSH2 0x4BF0 JUMP JUMPDEST DUP2 PUSH2 0x4B42 JUMPI PUSH1 0x0 SWAP1 POP PUSH2 0x4BF0 JUMP JUMPDEST DUP2 PUSH1 0x1 DUP2 EQ PUSH2 0x4B58 JUMPI PUSH1 0x2 DUP2 EQ PUSH2 0x4B62 JUMPI PUSH2 0x4B91 JUMP JUMPDEST PUSH1 0x1 SWAP2 POP POP PUSH2 0x4BF0 JUMP JUMPDEST PUSH1 0xFF DUP5 GT ISZERO PUSH2 0x4B74 JUMPI PUSH2 0x4B73 PUSH2 0x3720 JUMP JUMPDEST JUMPDEST DUP4 PUSH1 0x2 EXP SWAP2 POP DUP5 DUP3 GT ISZERO PUSH2 0x4B8B JUMPI PUSH2 0x4B8A PUSH2 0x3720 JUMP JUMPDEST JUMPDEST POP PUSH2 0x4BF0 JUMP JUMPDEST POP PUSH1 0x20 DUP4 LT PUSH2 0x133 DUP4 LT AND PUSH1 0x4E DUP5 LT PUSH1 0xB DUP5 LT AND OR ISZERO PUSH2 0x4BC6 JUMPI DUP3 DUP3 EXP SWAP1 POP DUP4 DUP2 GT ISZERO PUSH2 0x4BC1 JUMPI PUSH2 0x4BC0 PUSH2 0x3720 JUMP JUMPDEST JUMPDEST PUSH2 0x4BF0 JUMP JUMPDEST PUSH2 0x4BD3 DUP5 DUP5 DUP5 PUSH1 0x1 PUSH2 0x4AD1 JUMP JUMPDEST SWAP3 POP SWAP1 POP DUP2 DUP5 DIV DUP2 GT ISZERO PUSH2 0x4BEA JUMPI PUSH2 0x4BE9 PUSH2 0x3720 JUMP JUMPDEST JUMPDEST DUP2 DUP2 MUL SWAP1 POP JUMPDEST SWAP4 SWAP3 POP POP POP JUMP JUMPDEST PUSH1 0x0 PUSH2 0x4C02 DUP3 PUSH2 0x2DC1 JUMP JUMPDEST SWAP2 POP PUSH2 0x4C0D DUP4 PUSH2 0x2DC1 JUMP JUMPDEST SWAP3 POP PUSH2 0x4C3A PUSH32 0xFFFFFFFFFFFFFFFFFFFFFFFFFFFFFFFFFFFFFFFFFFFFFFFFFFFFFFFFFFFFFFFF DUP5 DUP5 PUSH2 0x4B24 JUMP JUMPDEST SWAP1 POP SWAP3 SWAP2 POP POP JUMP INVALID PUSH28 0x22436F6E74656E742D54797065223A20226170706C69636174696F6E 0x2F PUSH11 0x736F6E227DA26469706673 PC 0x22 SLT KECCAK256 TLOAD PUSH28 0x5062DEBF3DF9EAA02E124A433838516D4B6BDB8807870DBEDB138246 0xE 0xD2 PUSH5 0x736F6C6343 STOP ADDMOD SHR STOP CALLER PUSH9 0x747470733A2F2F6465 PUSH4 0x656E7472 PUSH2 0x666C PUSH10 0x6768746170692E6F6E72 PUSH6 0x6E6465722E63 PUSH16 0x6D000000000000000000000000000000 "},"methodIdentifiers":{"DELAY_THRESHOLD()":"aed0acee","MAX_PREMIUM()":"4cdabb16","MIN_PREMIUM()":"be5c8f44","PAYOUT_MULTIPLIER()":"7ab22360","acceptOwnership()":"79ba5097","adminFees()":"4bc92d6c","fileClaim(uint256)":"d61909f9","fulfillFlightDelay(bytes32,uint256)":"13c48e42","fulfillFlightVerification(bytes32,bool)":"80a78506","getUserPolicies(address)":"19ac4614","owner()":"8da5cb5b","purchasePolicy(string,string,uint256)":"cf4b4cf7","totalPayouts()":"4089b170","totalPolicies()":"f059d78e","totalPremiums()":"5bda1584","transferOwnership(address)":"f2fde38b","userPolicies(address,uint256)":"3d36adc5","withdrawAdminFees()":"0419b45a"}}}}}