{"contracts/FlightDelayInsurance.sol":{"FlightDelayInsurance":{"abi":[{"inputs":[],"stateMutability":"nonpayable","type":"constructor"},{"inputs":[{"internalType":"address","name":"owner","type":"address"}],"name":"OwnableInvalidOwner","type":"error"},{"inputs":[{"internalType":"address","name":"account","type":"address"}],"name":"OwnableUnauthorizedAccount","type":"error"},{"inputs":[],"name":"ReentrancyGuardReentrantCall","type":"error"},{"anonymous":false,"inputs":[{"indexed":true,"internalType":"bytes32","name":"id","type":"bytes32"}],"name":"ChainlinkCancelled","type":"event"},{"anonymous":false,"inputs":[{"indexed":true,"internalType":"bytes32","name":"id","type":"bytes32"}],"name":"ChainlinkFulfilled","type":"event"},{"anonymous":false,"inputs":[{"indexed":true,"internalType":"bytes32","name":"id","type":"bytes32"}],"name":"ChainlinkRequested","type":"event"},{"anonymous":false,"inputs":[{"indexed":false,"internalType":"bytes32","name":"policyId","type":"bytes32"},{"indexed":false,"internalType":"string","name":"flightIata","type":"string"},{"indexed":false,"internalType":"enum FlightDelayInsurance.FlightStatus","name":"status","type":"uint8"},{"indexed":false,"internalType":"uint256","name":"delayMinutes","type":"uint256"}],"name":"FlightStatusChecked","type":"event"},{"anonymous":false,"inputs":[{"indexed":true,"internalType":"address","name":"admin","type":"address"},{"indexed":false,"internalType":"uint256","name":"amount","type":"uint256"},{"indexed":false,"internalType":"uint256","name":"timestamp","type":"uint256"}],"name":"FundsWithdrawn","type":"event"},{"anonymous":false,"inputs":[{"indexed":true,"internalType":"address","name":"depositor","type":"address"},{"indexed":false,"internalType":"uint256","name":"amount","type":"uint256"}],"name":"InitialDeposit","type":"event"},{"anonymous":false,"inputs":[{"indexed":true,"internalType":"address","name":"previousOwner","type":"address"},{"indexed":true,"internalType":"address","name":"newOwner","type":"address"}],"name":"OwnershipTransferred","type":"event"},{"anonymous":false,"inputs":[{"indexed":false,"internalType":"bytes32","name":"policyId","type":"bytes32"},{"indexed":false,"internalType":"address","name":"policyholder","type":"address"},{"indexed":false,"internalType":"uint256","name":"payoutAmount","type":"uint256"}],"name":"PolicyClaimed","type":"event"},{"anonymous":false,"inputs":[{"indexed":false,"internalType":"bytes32","name":"policyId","type":"bytes32"},{"indexed":false,"internalType":"address","name":"policyholder","type":"address"},{"indexed":false,"internalType":"string","name":"flightIata","type":"string"},{"indexed":false,"internalType":"uint256","name":"premium","type":"uint256"},{"indexed":false,"internalType":"uint256","name":"protocolFee","type":"uint256"}],"name":"PolicyCreated","type":"event"},{"anonymous":false,"inputs":[{"indexed":true,"internalType":"address","name":"user","type":"address"},{"indexed":false,"internalType":"bytes32","name":"policyId","type":"bytes32"},{"indexed":false,"internalType":"string","name":"flightNumber","type":"string"}],"name":"PolicyPurchased","type":"event"},{"inputs":[],"name":"ADMIN_WALLET","outputs":[{"internalType":"address","name":"","type":"address"}],"stateMutability":"view","type":"function"},{"inputs":[],"name":"MIN_DELAY_MINUTES","outputs":[{"internalType":"uint256","name":"","type":"uint256"}],"stateMutability":"view","type":"function"},{"inputs":[],"name":"PAYOUT_PERCENTAGE","outputs":[{"internalType":"uint256","name":"","type":"uint256"}],"stateMutability":"view","type":"function"},{"inputs":[],"name":"PROTOCOL_FEE_PERCENTAGE","outputs":[{"internalType":"uint256","name":"","type":"uint256"}],"stateMutability":"view","type":"function"},{"inputs":[{"internalType":"uint256","name":"","type":"uint256"}],"name":"allPolicyIds","outputs":[{"internalType":"bytes32","name":"","type":"bytes32"}],"stateMutability":"view","type":"function"},{"inputs":[{"internalType":"string","name":"flightNumber","type":"string"},{"internalType":"uint256","name":"departureDate","type":"uint256"},{"internalType":"uint256","name":"","type":"uint256"},{"internalType":"string","name":"","type":"string"}],"name":"buyInsurance","outputs":[],"stateMutability":"payable","type":"function"},{"inputs":[],"name":"checkInterval","outputs":[{"internalType":"uint256","name":"","type":"uint256"}],"stateMutability":"view","type":"function"},{"inputs":[{"internalType":"bytes","name":"","type":"bytes"}],"name":"checkUpkeep","outputs":[{"internalType":"bool","name":"upkeepNeeded","type":"bool"},{"internalType":"bytes","name":"performData","type":"bytes"}],"stateMutability":"view","type":"function"},{"inputs":[{"internalType":"bytes32","name":"policyId","type":"bytes32"}],"name":"forceRecheck","outputs":[],"stateMutability":"nonpayable","type":"function"},{"inputs":[{"internalType":"bytes32","name":"_requestId","type":"bytes32"},{"internalType":"uint256","name":"_delayMinutes","type":"uint256"}],"name":"fulfill","outputs":[],"stateMutability":"nonpayable","type":"function"},{"inputs":[],"name":"getAvailableRevenue","outputs":[{"internalType":"uint256","name":"","type":"uint256"}],"stateMutability":"view","type":"function"},{"inputs":[{"internalType":"address","name":"_owner","type":"address"}],"name":"getPoliciesByOwner","outputs":[{"internalType":"bytes32[]","name":"","type":"bytes32[]"}],"stateMutability":"view","type":"function"},{"inputs":[{"internalType":"bytes32","name":"policyId","type":"bytes32"}],"name":"getPolicyDetails","outputs":[{"internalType":"address","name":"policyholder","type":"address"},{"internalType":"string","name":"flightIata","type":"string"},{"internalType":"uint256","name":"premium","type":"uint256"},{"internalType":"uint256","name":"flightDate","type":"uint256"},{"internalType":"uint256","name":"lastChecked","type":"uint256"},{"internalType":"uint256","name":"delayMinutes","type":"uint256"},{"internalType":"enum FlightDelayInsurance.FlightStatus","name":"status","type":"uint8"}],"stateMutability":"view","type":"function"},{"inputs":[{"internalType":"address","name":"user","type":"address"},{"internalType":"string","name":"flightIata","type":"string"},{"internalType":"uint256","name":"flightDate","type":"uint256"}],"name":"hasPolicyForFlight","outputs":[{"internalType":"bool","name":"","type":"bool"}],"stateMutability":"view","type":"function"},{"inputs":[],"name":"lastCheckTimestamp","outputs":[{"internalType":"uint256","name":"","type":"uint256"}],"stateMutability":"view","type":"function"},{"inputs":[],"name":"lastCheckedIndex","outputs":[{"internalType":"uint256","name":"","type":"uint256"}],"stateMutability":"view","type":"function"},{"inputs":[],"name":"owner","outputs":[{"internalType":"address","name":"","type":"address"}],"stateMutability":"view","type":"function"},{"inputs":[{"internalType":"bytes","name":"performData","type":"bytes"}],"name":"performUpkeep","outputs":[],"stateMutability":"nonpayable","type":"function"},{"inputs":[{"internalType":"bytes32","name":"","type":"bytes32"}],"name":"policies","outputs":[{"internalType":"address","name":"policyholder","type":"address"},{"internalType":"string","name":"flightIata","type":"string"},{"internalType":"uint256","name":"premium","type":"uint256"},{"internalType":"uint256","name":"purchaseDate","type":"uint256"},{"internalType":"uint256","name":"flightDate","type":"uint256"},{"internalType":"uint256","name":"lastCheckedTimestamp","type":"uint256"},{"internalType":"uint256","name":"delayMinutes","type":"uint256"},{"internalType":"enum FlightDelayInsurance.FlightStatus","name":"status","type":"uint8"}],"stateMutability":"view","type":"function"},{"inputs":[{"internalType":"string","name":"flightIata","type":"string"},{"internalType":"uint256","name":"flightDate","type":"uint256"}],"name":"purchasePolicy","outputs":[],"stateMutability":"payable","type":"function"},{"inputs":[],"name":"recheckInterval","outputs":[{"internalType":"uint256","name":"","type":"uint256"}],"stateMutability":"view","type":"function"},{"inputs":[],"name":"renounceOwnership","outputs":[],"stateMutability":"nonpayable","type":"function"},{"inputs":[{"internalType":"bytes32","name":"policyId","type":"bytes32"}],"name":"requestFlightData","outputs":[],"stateMutability":"nonpayable","type":"function"},{"inputs":[{"internalType":"uint256","name":"newInterval","type":"uint256"}],"name":"setCheckInterval","outputs":[],"stateMutability":"nonpayable","type":"function"},{"inputs":[{"internalType":"uint256","name":"newInterval","type":"uint256"}],"name":"setRecheckInterval","outputs":[],"stateMutability":"nonpayable","type":"function"},{"inputs":[],"name":"totalClaimedFunds","outputs":[{"internalType":"uint256","name":"","type":"uint256"}],"stateMutability":"view","type":"function"},{"inputs":[],"name":"totalPolicies","outputs":[{"internalType":"uint256","name":"","type":"uint256"}],"stateMutability":"view","type":"function"},{"inputs":[],"name":"totalPoliciesSold","outputs":[{"internalType":"uint256","name":"","type":"uint256"}],"stateMutability":"view","type":"function"},{"inputs":[],"name":"totalPoolFunds","outputs":[{"internalType":"uint256","name":"","type":"uint256"}],"stateMutability":"view","type":"function"},{"inputs":[],"name":"totalRevenueFunds","outputs":[{"internalType":"uint256","name":"","type":"uint256"}],"stateMutability":"view","type":"function"},{"inputs":[{"internalType":"address","name":"newOwner","type":"address"}],"name":"transferOwnership","outputs":[],"stateMutability":"nonpayable","type":"function"},{"inputs":[{"internalType":"bytes32","name":"policyId","type":"bytes32"},{"internalType":"uint256","name":"newFlightDate","type":"uint256"}],"name":"updateFlightDateForTesting","outputs":[],"stateMutability":"nonpayable","type":"function"},{"inputs":[{"internalType":"address","name":"","type":"address"},{"internalType":"string","name":"","type":"string"},{"internalType":"uint256","name":"","type":"uint256"}],"name":"userFlightPolicies","outputs":[{"internalType":"bool","name":"","type":"bool"}],"stateMutability":"view","type":"function"},{"inputs":[{"internalType":"address","name":"","type":"address"},{"internalType":"uint256","name":"","type":"uint256"}],"name":"userPolicies","outputs":[{"internalType":"bytes32","name":"","type":"bytes32"}],"stateMutability":"view","type":"function"},{"inputs":[{"internalType":"uint256","name":"amount","type":"uint256"}],"name":"withdrawExcessFunds","outputs":[],"stateMutability":"nonpayable","type":"function"},{"stateMutability":"payable","type":"receive"}],"evm":{"bytecode":{"linkReferences":{},"object":"60a06040526001600455610708601255610e1060135534801561002157600080fd5b5033600073ffffffffffffffffffffffffffffffffffffffff168173ffffffffffffffffffffffffffffffffffffffff16036100955760006040517f1e4fbdf700000000000000000000000000000000000000000000000000000000815260040161008c91906103dc565b60405180910390fd5b6100a48161029160201b60201c565b50600160078190555073f51ee95f3cea7d1f474fe678720d3e126fed364b73ffffffffffffffffffffffffffffffffffffffff1660808173ffffffffffffffffffffffffffffffffffffffff1681525050610118730fd9e8d3af1aaee056eb9e802c3a762a667b190461035760201b60201c565b73d36c6b1777c7f3db1b3201bdd87081a9045b7b46601560006101000a81548173ffffffffffffffffffffffffffffffffffffffff021916908373ffffffffffffffffffffffffffffffffffffffff1602179055506040518060400160405280602081526020017f61383335366634383536396334333465616134616335666362346462356363308152506101ac9061043e565b601681905550662386f26fc10000601781905550426014819055506000670de0b6b3a7640000905080600f60008282546101e691906104de565b925050819055503373ffffffffffffffffffffffffffffffffffffffff167f1aa88527987680f71e6ace8f3d2ab4871db1862850458125715e5175f088c609826040516102339190610521565b60405180910390a23373ffffffffffffffffffffffffffffffffffffffff167ffbc3a599b784fe88772fc5abcc07223f64ca0b13acc341f4fb1e46bef0510eb4824260405161028392919061053c565b60405180910390a250610565565b6000600660009054906101000a900473ffffffffffffffffffffffffffffffffffffffff16905081600660006101000a81548173ffffffffffffffffffffffffffffffffffffffff021916908373ffffffffffffffffffffffffffffffffffffffff1602179055508173ffffffffffffffffffffffffffffffffffffffff168173ffffffffffffffffffffffffffffffffffffffff167f8be0079c531659141344cd1fd0a4f28419497f9722a3daafe3b4186f6b6457e060405160405180910390a35050565b80600260006101000a81548173ffffffffffffffffffffffffffffffffffffffff021916908373ffffffffffffffffffffffffffffffffffffffff16021790555050565b600073ffffffffffffffffffffffffffffffffffffffff82169050919050565b60006103c68261039b565b9050919050565b6103d6816103bb565b82525050565b60006020820190506103f160008301846103cd565b92915050565b600081519050919050565b6000819050602082019050919050565b6000819050919050565b60006104288251610412565b80915050919050565b600082821b905092915050565b6000610449826103f7565b8261045384610402565b905061045e8161041c565b9250602082101561049e576104997fffffffffffffffffffffffffffffffffffffffffffffffffffffffffffffffff83602003600802610431565b831692505b5050919050565b6000819050919050565b7f4e487b7100000000000000000000000000000000000000000000000000000000600052601160045260246000fd5b60006104e9826104a5565b91506104f4836104a5565b925082820190508082111561050c5761050b6104af565b5b92915050565b61051b816104a5565b82525050565b60006020820190506105366000830184610512565b92915050565b60006040820190506105516000830185610512565b61055e6020830184610512565b9392505050565b60805161556b610595600039600081816117fe01528181611ad401528181611bc20152611c8c015261556b6000f3fe6080604052600436106102085760003560e01c806383bab57011610118578063ddbfd8ef116100a0578063f059d78e1161006f578063f059d78e14610794578063f1139d0f146107bf578063f2fde38b146107ea578063f3cbe29314610813578063fdfbfd3d1461083c57610227565b8063ddbfd8ef146106de578063e4d7d6dc14610722578063e8646f541461074d578063ef9606d91461076957610227565b8063acd88349116100e7578063acd88349146105f9578063b52d35bc14610624578063c2cd4a071461064d578063cb79925814610678578063d1a5ea56146106b557610227565b806383bab5701461053b57806387afb99b146105665780638da5cb5b146105a35780638e83f1d2146105ce57610227565b80634357855e1161019b5780636e04ff0d1161016a5780636e04ff0d14610462578063704d0285146104a0578063715018a6146104dd57806378fe4e87146104f4578063838c29b61461051057610227565b80634357855e146103aa5780634585e33b146103d35780634e5a8417146103fc5780636551d4e51461043957610227565b806322f6c121116101d757806322f6c121146102d45780633d36adc5146102ff57806340fac30c1461033c5780634210dbc61461037f57610227565b80630c3c98fb1461022c5780630d2f2e861461025557806315a604f4146102805780631bb877c4146102ab57610227565b366102275734600f600082825461021f91906134f4565b925050819055005b600080fd5b34801561023857600080fd5b50610253600480360381019061024e9190613572565b610867565b005b34801561026157600080fd5b5061026a610d48565b60405161027791906135ae565b60405180910390f35b34801561028c57600080fd5b50610295610d52565b6040516102a291906135ae565b60405180910390f35b3480156102b757600080fd5b506102d260048036038101906102cd91906135f5565b610d57565b005b3480156102e057600080fd5b506102e9610e17565b6040516102f691906135ae565b60405180910390f35b34801561030b57600080fd5b5061032660048036038101906103219190613693565b610e1d565b60405161033391906136e2565b60405180910390f35b34801561034857600080fd5b50610363600480360381019061035e9190613572565b610e4e565b6040516103769796959493929190613813565b60405180910390f35b34801561038b57600080fd5b50610394610f65565b6040516103a191906135ae565b60405180910390f35b3480156103b657600080fd5b506103d160048036038101906103cc91906135f5565b610f6b565b005b3480156103df57600080fd5b506103fa60048036038101906103f591906138ee565b6111fe565b005b34801561040857600080fd5b50610423600480360381019061041e9190613a6b565b61135b565b6040516104309190613af5565b60405180910390f35b34801561044557600080fd5b50610460600480360381019061045b9190613b10565b6113e0565b005b34801561046e57600080fd5b50610489600480360381019061048491906138ee565b611436565b604051610497929190613b92565b60405180910390f35b3480156104ac57600080fd5b506104c760048036038101906104c29190613a6b565b6115d0565b6040516104d49190613af5565b60405180910390f35b3480156104e957600080fd5b506104f2611622565b005b61050e60048036038101906105099190613bc2565b611636565b005b34801561051c57600080fd5b50610525611656565b60405161053291906135ae565b60405180910390f35b34801561054757600080fd5b5061055061165c565b60405161055d91906135ae565b60405180910390f35b34801561057257600080fd5b5061058d60048036038101906105889190613b10565b611662565b60405161059a91906136e2565b60405180910390f35b3480156105af57600080fd5b506105b8611686565b6040516105c59190613c61565b60405180910390f35b3480156105da57600080fd5b506105e36116b0565b6040516105f091906135ae565b60405180910390f35b34801561060557600080fd5b5061060e6116b6565b60405161061b91906135ae565b60405180910390f35b34801561063057600080fd5b5061064b60048036038101906106469190613572565b6116bc565b005b34801561065957600080fd5b506106626117fc565b60405161066f9190613c61565b60405180910390f35b34801561068457600080fd5b5061069f600480360381019061069a9190613c7c565b611820565b6040516106ac9190613d67565b60405180910390f35b3480156106c157600080fd5b506106dc60048036038101906106d79190613b10565b6118b7565b005b3480156106ea57600080fd5b5061070560048036038101906107009190613572565b61190e565b604051610719989796959493929190613d89565b60405180910390f35b34801561072e57600080fd5b50610737611a0b565b60405161074491906135ae565b60405180910390f35b61076760048036038101906107629190613e0e565b611a10565b005b34801561077557600080fd5b5061077e611a2e565b60405161078b91906135ae565b60405180910390f35b3480156107a057600080fd5b506107a9611a34565b6040516107b691906135ae565b60405180910390f35b3480156107cb57600080fd5b506107d4611a3e565b6040516107e191906135ae565b60405180910390f35b3480156107f657600080fd5b50610811600480360381019061080c9190613c7c565b611a44565b005b34801561081f57600080fd5b5061083a60048036038101906108359190613b10565b611aca565b005b34801561084857600080fd5b50610851611d06565b60405161085e91906135ae565b60405180910390f35b6000600860008381526020019081526020016000209050600073ffffffffffffffffffffffffffffffffffffffff168160000160009054906101000a900473ffffffffffffffffffffffffffffffffffffffff1673ffffffffffffffffffffffffffffffffffffffff1603610911576040517f08c379a000000000000000000000000000000000000000000000000000000000815260040161090890613eb6565b60405180910390fd5b8060040154421015610958576040517f08c379a000000000000000000000000000000000000000000000000000000000815260040161094f90613f22565b60405180910390fd5b60038081111561096b5761096a61379c565b5b8160070160009054906101000a900460ff16600381111561098f5761098e61379c565b5b141580156109bd57506000816005015414806109bc575060125481600501546109b891906134f4565b4210155b5b6109fc576040517f08c379a00000000000000000000000000000000000000000000000000000000081526004016109f390613fb4565b60405180910390fd5b4281600501819055506000610a1b60165430634357855e60e01b611d0c565b90506000610a2c8360040154611d3d565b905060008360010182604051602001610a469291906141ec565b6040516020818303038152906040529050610ad66040518060400160405280600681526020017f6d6574686f6400000000000000000000000000000000000000000000000000008152506040518060400160405280600381526020017f474554000000000000000000000000000000000000000000000000000000000081525085611e179092919063ffffffff16565b610b206040518060400160405280600381526020017f75726c00000000000000000000000000000000000000000000000000000000008152508285611e179092919063ffffffff16565b610b796040518060400160405280600781526020017f68656164657273000000000000000000000000000000000000000000000000008152506040518060200160405280600081525085611e179092919063ffffffff16565b610bd26040518060400160405280600481526020017f626f6479000000000000000000000000000000000000000000000000000000008152506040518060200160405280600081525085611e179092919063ffffffff16565b610c516040518060400160405280600481526020017f70617468000000000000000000000000000000000000000000000000000000008152506040518060400160405280600d81526020017f64656c61795f6d696e757465730000000000000000000000000000000000000081525085611e179092919063ffffffff16565b610c9c6040518060400160405280600a81526020017f6d756c7469706c69657200000000000000000000000000000000000000000000815250600185611e4a9092919063ffffffff16565b610cf56040518060400160405280600781526020017f636f6e74616374000000000000000000000000000000000000000000000000008152506040518060200160405280600081525085611e179092919063ffffffff16565b6000610d26601560009054906101000a900473ffffffffffffffffffffffffffffffffffffffff1685601754611e7d565b9050856009600083815260200190815260200160002081905550505050505050565b6000600f54905090565b607881565b610d5f611f49565b6000600860008481526020019081526020016000209050600073ffffffffffffffffffffffffffffffffffffffff168160000160009054906101000a900473ffffffffffffffffffffffffffffffffffffffff1673ffffffffffffffffffffffffffffffffffffffff1603610e09576040517f08c379a0000000000000000000000000000000000000000000000000000000008152600401610e0090613eb6565b60405180910390fd5b818160040181905550505050565b60115481565b600a6020528160005260406000208181548110610e3957600080fd5b90600052602060002001600091509150505481565b60006060600080600080600080600860008a815260200190815260200160002090508060000160009054906101000a900473ffffffffffffffffffffffffffffffffffffffff168160010182600201548360040154846005015485600601548660070160009054906101000a900460ff16858054610ecb906140a6565b80601f0160208091040260200160405190810160405280929190818152602001828054610ef7906140a6565b8015610f445780601f10610f1957610100808354040283529160200191610f44565b820191906000526020600020905b815481529060010190602001808311610f2757829003601f168201915b50505050509550975097509750975097509750975050919395979092949650565b60125481565b816005600082815260200190815260200160002060009054906101000a900473ffffffffffffffffffffffffffffffffffffffff1673ffffffffffffffffffffffffffffffffffffffff163373ffffffffffffffffffffffffffffffffffffffff161461100d576040517f08c379a000000000000000000000000000000000000000000000000000000000815260040161100490614298565b60405180910390fd5b6005600082815260200190815260200160002060006101000a81549073ffffffffffffffffffffffffffffffffffffffff0219169055807f7cc135e0cebb02c3480ae5d74d377283180a2601f8f644edf7987b009316c63a60405160405180910390a26000600960008581526020019081526020016000205490506000801b81036110cd576040517f08c379a00000000000000000000000000000000000000000000000000000000081526004016110c490614304565b60405180910390fd5b6000600860008381526020019081526020016000209050838160060181905550607884106111715760028160070160006101000a81548160ff0219169083600381111561111d5761111c61379c565b5b02179055507f8f83a66be1cf452c7a5b0e8ce1b41cc37e1074ab39cf2b1fb786fdaf84ff3d2e828260010160028760405161115b94939291906143a8565b60405180910390a161116c82611fd0565b6111e0565b60018160070160006101000a81548160ff021916908360038111156111995761119861379c565b5b02179055507f8f83a66be1cf452c7a5b0e8ce1b41cc37e1074ab39cf2b1fb786fdaf84ff3d2e82826001016001876040516111d794939291906143a8565b60405180910390a15b60096000868152602001908152602001600020600090555050505050565b600080838381019061121091906144b7565b9150915060005b825181101561134657600083828151811061123557611234614513565b5b602002602001015190506000600860008381526020019081526020016000209050600073ffffffffffffffffffffffffffffffffffffffff168160000160009054906101000a900473ffffffffffffffffffffffffffffffffffffffff1673ffffffffffffffffffffffffffffffffffffffff16141580156112bb575080600401544210155b80156112fc57506003808111156112d5576112d461379c565b5b8160070160009054906101000a900460ff1660038111156112f9576112f861379c565b5b14155b801561132857506000816005015414806113275750601254816005015461132391906134f4565b4210155b5b156113375761133682610867565b5b50508080600101915050611217565b5080600d819055504260148190555050505050565b6000600b60008573ffffffffffffffffffffffffffffffffffffffff1673ffffffffffffffffffffffffffffffffffffffff168152602001908152602001600020836040516113aa9190614542565b9081526020016040518091039020600083815260200190815260200160002060009054906101000a900460ff1690509392505050565b6113e8611f49565b603c81101561142c576040517f08c379a0000000000000000000000000000000000000000000000000000000008152600401611423906145a5565b60405180910390fd5b8060138190555050565b6000606060006013546014544261144d91906145c5565b10159050600080600c805490501190508180156114675750805b93508361148b576000604051806020016040528060008152509350935050506115c9565b6000600a90506000600c80549050600d546114a69190614628565b9050600082826114b691906134f4565b9050600c805490508111156114ce57600c8054905090505b600082826114dc91906145c5565b67ffffffffffffffff8111156114f5576114f4613940565b5b6040519080825280602002602001820160405280156115235781602001602082028036833780820191505090505b50905060008390505b8281101561158a57600c818154811061154857611547614513565b5b906000526020600020015482858361156091906145c5565b8151811061157157611570614513565b5b602002602001018181525050808060010191505061152c565b508781600c805490508461159e9190614628565b6040516020016115af929190614659565b604051602081830303815290604052975097505050505050505b9250929050565b600b60205282600052604060002082805160208101820180518482526020830160208501208183528095505050505050602052806000526040600020600092509250509054906101000a900460ff1681565b61162a611f49565b611634600061224c565b565b61163e612312565b6116488484612358565b611650612823565b50505050565b60135481565b60105481565b600c818154811061167257600080fd5b906000526020600020016000915090505481565b6000600660009054906101000a900473ffffffffffffffffffffffffffffffffffffffff16905090565b60145481565b600d5481565b6116c4611f49565b6000600860008381526020019081526020016000209050600073ffffffffffffffffffffffffffffffffffffffff168160000160009054906101000a900473ffffffffffffffffffffffffffffffffffffffff1673ffffffffffffffffffffffffffffffffffffffff160361176e576040517f08c379a000000000000000000000000000000000000000000000000000000000815260040161176590613eb6565b60405180910390fd5b6003808111156117815761178061379c565b5b8160070160009054906101000a900460ff1660038111156117a5576117a461379c565b5b036117e5576040517f08c379a00000000000000000000000000000000000000000000000000000000081526004016117dc906146d5565b60405180910390fd5b600081600501819055506117f882610867565b5050565b7f000000000000000000000000000000000000000000000000000000000000000081565b6060600a60008373ffffffffffffffffffffffffffffffffffffffff1673ffffffffffffffffffffffffffffffffffffffff1681526020019081526020016000208054806020026020016040519081016040528092919081815260200182805480156118ab57602002820191906000526020600020905b815481526020019060010190808311611897575b50505050509050919050565b6118bf611f49565b61012c811015611904576040517f08c379a00000000000000000000000000000000000000000000000000000000081526004016118fb906145a5565b60405180910390fd5b8060128190555050565b60086020528060005260406000206000915090508060000160009054906101000a900473ffffffffffffffffffffffffffffffffffffffff1690806001018054611957906140a6565b80601f0160208091040260200160405190810160405280929190818152602001828054611983906140a6565b80156119d05780601f106119a5576101008083540402835291602001916119d0565b820191906000526020600020905b8154815290600101906020018083116119b357829003601f168201915b5050505050908060020154908060030154908060040154908060050154908060060154908060070160009054906101000a900460ff16905088565b601481565b611a18612312565b611a228282612358565b611a2a612823565b5050565b61012c81565b6000601154905090565b600e5481565b611a4c611f49565b600073ffffffffffffffffffffffffffffffffffffffff168173ffffffffffffffffffffffffffffffffffffffff1603611abe5760006040517f1e4fbdf7000000000000000000000000000000000000000000000000000000008152600401611ab59190613c61565b60405180910390fd5b611ac78161224c565b50565b611ad2612312565b7f000000000000000000000000000000000000000000000000000000000000000073ffffffffffffffffffffffffffffffffffffffff163373ffffffffffffffffffffffffffffffffffffffff1614611b60576040517f08c379a0000000000000000000000000000000000000000000000000000000008152600401611b5790614741565b60405180910390fd5b600f54811115611ba5576040517f08c379a0000000000000000000000000000000000000000000000000000000008152600401611b9c906147d3565b60405180910390fd5b80600f6000828254611bb791906145c5565b9250508190555060007f000000000000000000000000000000000000000000000000000000000000000073ffffffffffffffffffffffffffffffffffffffff1682604051611c0490614824565b60006040518083038185875af1925050503d8060008114611c41576040519150601f19603f3d011682016040523d82523d6000602084013e611c46565b606091505b5050905080611c8a576040517f08c379a0000000000000000000000000000000000000000000000000000000008152600401611c8190614885565b60405180910390fd5b7f000000000000000000000000000000000000000000000000000000000000000073ffffffffffffffffffffffffffffffffffffffff167ffbc3a599b784fe88772fc5abcc07223f64ca0b13acc341f4fb1e46bef0510eb48342604051611cf29291906148a5565b60405180910390a250611d03612823565b50565b600f5481565b611d14613434565b611d1c613434565b611d338585858461282d909392919063ffffffff16565b9150509392505050565b60606000806000611d4d856128dd565b9250925092506000611d5e84612a7b565b90506000600a8410611d7857611d7384612a7b565b611da1565b611d8184612a7b565b604051602001611d91919061491a565b6040516020818303038152906040525b90506000600a8410611dbb57611db684612a7b565b611de4565b611dc484612a7b565b604051602001611dd4919061491a565b6040516020818303038152906040525b9050828282604051602001611dfb93929190614988565b6040516020818303038152906040529650505050505050919050565b611e2e828460800151612bdb90919063ffffffff16565b611e45818460800151612bdb90919063ffffffff16565b505050565b611e61828460800151612bdb90919063ffffffff16565b611e78818460800151612c0090919063ffffffff16565b505050565b6000806004549050600181611e9291906134f4565b6004819055506000634042994660e01b60008087600001513089604001518760018c6080015160000151604051602401611ed3989796959493929190614a0a565b604051602081830303815290604052907bffffffffffffffffffffffffffffffffffffffffffffffffffffffff19166020820180517bffffffffffffffffffffffffffffffffffffffffffffffffffffffff83818316178352505050509050611f3e86838684612cad565b925050509392505050565b611f51612e42565b73ffffffffffffffffffffffffffffffffffffffff16611f6f611686565b73ffffffffffffffffffffffffffffffffffffffff1614611fce57611f92612e42565b6040517f118cdaa7000000000000000000000000000000000000000000000000000000008152600401611fc59190613c61565b60405180910390fd5b565b600060086000838152602001908152602001600020905060026003811115611ffb57611ffa61379c565b5b8160070160009054906101000a900460ff16600381111561201f5761201e61379c565b5b1461205f576040517f08c379a000000000000000000000000000000000000000000000000000000000815260040161205690614adb565b60405180910390fd5b6000606461012c83600201546120759190614afb565b61207f9190614b3d565b905060038260070160006101000a81548160ff021916908360038111156120a9576120a861379c565b5b021790555060006064601484600201546120c39190614afb565b6120cd9190614b3d565b905060008184600201546120e191906145c5565b905080600e60008282546120f591906145c5565b92505081905550826010600082825461210e91906134f4565b9250508190555060008460000160009054906101000a900473ffffffffffffffffffffffffffffffffffffffff1673ffffffffffffffffffffffffffffffffffffffff168460405161215f90614824565b60006040518083038185875af1925050503d806000811461219c576040519150601f19603f3d011682016040523d82523d6000602084013e6121a1565b606091505b50509050806121e5576040517f08c379a00000000000000000000000000000000000000000000000000000000081526004016121dc90614bba565b60405180910390fd5b7ffc2e5a4f14afb617147f5e5e83d18cf2c49c2e8d308425798d2c75b429ff555b868660000160009054906101000a900473ffffffffffffffffffffffffffffffffffffffff168660405161223c93929190614bda565b60405180910390a1505050505050565b6000600660009054906101000a900473ffffffffffffffffffffffffffffffffffffffff16905081600660006101000a81548173ffffffffffffffffffffffffffffffffffffffff021916908373ffffffffffffffffffffffffffffffffffffffff1602179055508173ffffffffffffffffffffffffffffffffffffffff168173ffffffffffffffffffffffffffffffffffffffff167f8be0079c531659141344cd1fd0a4f28419497f9722a3daafe3b4186f6b6457e060405160405180910390a35050565b60026007540361234e576040517f3ee5aeb500000000000000000000000000000000000000000000000000000000815260040160405180910390fd5b6002600781905550565b6000341161239b576040517f08c379a000000000000000000000000000000000000000000000000000000000815260040161239290614c5d565b60405180910390fd5b4281116123dd576040517f08c379a00000000000000000000000000000000000000000000000000000000081526004016123d490614cef565b60405180910390fd5b600b60003373ffffffffffffffffffffffffffffffffffffffff1673ffffffffffffffffffffffffffffffffffffffff1681526020019081526020016000208260405161242a9190614542565b9081526020016040518091039020600082815260200190815260200160002060009054906101000a900460ff1615612497576040517f08c379a000000000000000000000000000000000000000000000000000000000815260040161248e90614d81565b60405180910390fd5b6000338383426040516020016124b09493929190614e0a565b6040516020818303038152906040528051906020012090506001600b60003373ffffffffffffffffffffffffffffffffffffffff1673ffffffffffffffffffffffffffffffffffffffff168152602001908152602001600020846040516125179190614542565b9081526020016040518091039020600084815260200190815260200160002060006101000a81548160ff0219169083151502179055506000606460143461255e9190614afb565b6125689190614b3d565b90506000813461257891906145c5565b90506040518061010001604052803373ffffffffffffffffffffffffffffffffffffffff1681526020018681526020013481526020014281526020018581526020016000815260200160008152602001600060038111156125dc576125db61379c565b5b8152506008600085815260200190815260200160002060008201518160000160006101000a81548173ffffffffffffffffffffffffffffffffffffffff021916908373ffffffffffffffffffffffffffffffffffffffff160217905550602082015181600101908161264e9190614feb565b5060408201518160020155606082015181600301556080820151816004015560a0820151816005015560c0820151816006015560e08201518160070160006101000a81548160ff021916908360038111156126ac576126ab61379c565b5b0217905550905050600a60003373ffffffffffffffffffffffffffffffffffffffff1673ffffffffffffffffffffffffffffffffffffffff168152602001908152602001600020839080600181540180825580915050600190039060005260206000200160009091909190915055600c83908060018154018082558091505060019003906000526020600020016000909190919091505580600e600082825461275591906134f4565b9250508190555081600f600082825461276e91906134f4565b9250508190555060116000815480929190612788906150bd565b91905055503373ffffffffffffffffffffffffffffffffffffffff167f76f0e963ce27584989820c2a5670a31aba23a3d68276e11c78868f0e4f79ecf384876040516127d5929190615105565b60405180910390a27f5ac9517012abe610ce4ae10e132d74c23a1c23fb86b06dcb395374a5dad283de8333873486604051612814959493929190615135565b60405180910390a15050505050565b6001600781905550565b612835613434565b6128458560800151610100612e4a565b508385600001818152505082856020019073ffffffffffffffffffffffffffffffffffffffff16908173ffffffffffffffffffffffffffffffffffffffff16815250508185604001907bffffffffffffffffffffffffffffffffffffffffffffffffffffffff191690817bffffffffffffffffffffffffffffffffffffffffffffffffffffffff191681525050849050949350505050565b600080600080600062015180866128f49190614b3d565b905061016d816129049190614b3d565b6107b261291191906134f4565b9450600091505b61016d61292486612eb4565b92508261293191906134f4565b81106129655761016d8261294591906134f4565b8161295091906145c5565b9050848061295d906150bd565b955050612918565b6000604051806101800160405280601f8152602001601c8152602001601f8152602001601e8152602001601f8152602001601e8152602001601f8152602001601f8152602001601e8152602001601f8152602001601e8152602001601f81525090506129d086612f07565b156129f557601d816001600c81106129eb576129ea614513565b5b6020020181815250505b600094505b600c851015612a53578085600c8110612a1657612a15614513565b5b60200201518210612a53578085600c8110612a3457612a33614513565b5b602002015182612a4491906145c5565b915084806001019550506129fa565b600185612a6091906134f4565b9450600182612a6f91906134f4565b93505050509193909250565b606060008203612ac2576040518060400160405280600181526020017f30000000000000000000000000000000000000000000000000000000000000008152509050612bd6565b600082905060005b60008214612af4578080612add906150bd565b915050600a82612aed9190614b3d565b9150612aca565b60008167ffffffffffffffff811115612b1057612b0f613940565b5b6040519080825280601f01601f191660200182016040528015612b425781602001600182028036833780820191505090505b5090505b60008514612bcf57600182612b5b91906145c5565b9150600a85612b6a9190614628565b6030612b7691906134f4565b60f81b818381518110612b8c57612b8b614513565b5b60200101907effffffffffffffffffffffffffffffffffffffffffffffffffffffffffffff1916908160001a905350600a85612bc89190614b3d565b9450612b46565b8093505050505b919050565b612be88260038351612f50565b612bfb81836130d590919063ffffffff16565b505050565b7fffffffffffffffffffffffffffffffffffffffffffffffff0000000000000000811215612c3757612c3282826130f7565b612ca9565b67ffffffffffffffff811315612c5657612c51828261316e565b612ca8565b60008112612c6f57612c6a82600083612f50565b612ca7565b612ca6826001837fffffffffffffffffffffffffffffffffffffffffffffffffffffffffffffffff612ca19190615199565b612f50565b5b5b5b5050565b60003084604051602001612cc2929190615239565b604051602081830303815290604052805190602001209050846005600083815260200190815260200160002060006101000a81548173ffffffffffffffffffffffffffffffffffffffff021916908373ffffffffffffffffffffffffffffffffffffffff160217905550807fb5e6e01e79f91267dc17b4e6314d5d4d03593d2ceee0fbb452b750bd70ea5af960405160405180910390a2600260009054906101000a900473ffffffffffffffffffffffffffffffffffffffff1673ffffffffffffffffffffffffffffffffffffffff16634000aea08685856040518463ffffffff1660e01b8152600401612db893929190615265565b6020604051808303816000875af1158015612dd7573d6000803e3d6000fd5b505050506040513d601f19601f82011682018060405250810190612dfb91906152cf565b612e3a576040517f08c379a0000000000000000000000000000000000000000000000000000000008152600401612e319061536e565b60405180910390fd5b949350505050565b600033905090565b612e526134a1565b6000602083612e619190614628565b14612e8d57602082612e739190614628565b6020612e7f91906145c5565b82612e8a91906134f4565b91505b81836020018181525050604051808452600081528281016020016040525082905092915050565b60008180612ec19061538e565b92505061019082612ed29190614b3d565b606483612edf9190614b3d565b600484612eec9190614b3d565b612ef691906145c5565b612f0091906134f4565b9050919050565b600080600483612f179190614628565b148015612f3157506000606483612f2e9190614628565b14155b80612f495750600061019083612f479190614628565b145b9050919050565b60178167ffffffffffffffff1611612f8757612f818160058460ff16901b60ff1617846131ba90919063ffffffff16565b506130d0565b60ff8167ffffffffffffffff1611612fdd57612fb6601860058460ff16901b17846131ba90919063ffffffff16565b50612fd78167ffffffffffffffff166001856131da9092919063ffffffff16565b506130cf565b61ffff8167ffffffffffffffff16116130345761300d601960058460ff16901b17846131ba90919063ffffffff16565b5061302e8167ffffffffffffffff166002856131da9092919063ffffffff16565b506130ce565b63ffffffff8167ffffffffffffffff161161308d57613066601a60058460ff16901b17846131ba90919063ffffffff16565b506130878167ffffffffffffffff166004856131da9092919063ffffffff16565b506130cd565b6130aa601b60058460ff16901b17846131ba90919063ffffffff16565b506130cb8167ffffffffffffffff166008856131da9092919063ffffffff16565b505b5b5b5b505050565b6130dd6134a1565b6130ef838460000151518485516131fc565b905092915050565b61311560036005600660ff16901b17836131ba90919063ffffffff16565b5061316a82827fffffffffffffffffffffffffffffffffffffffffffffffffffffffffffffffff6131469190615199565b60405160200161315691906135ae565b6040516020818303038152906040526132eb565b5050565b61318c60026005600660ff16901b17836131ba90919063ffffffff16565b506131b682826040516020016131a291906135ae565b6040516020818303038152906040526132eb565b5050565b6131c26134a1565b6131d28384600001515184613310565b905092915050565b6131e26134a1565b6131f3848560000151518585613366565b90509392505050565b6132046134a1565b825182111561321257600080fd5b8460200151828561322391906134f4565b1115613258576132578560026132488860200151888761324391906134f4565b6133f4565b6132529190614afb565b613410565b5b6000808651805187602083010193508088870111156132775787860182525b60208701925050505b602084106132be578051825260208261329991906134f4565b91506020816132a891906134f4565b90506020846132b791906145c5565b9350613280565b60006001856020036101000a03905080198251168184511681811785525050508692505050949350505050565b6132f88260028351612f50565b61330b81836130d590919063ffffffff16565b505050565b6133186134a1565b8360200151831061333e5761333d84600286602001516133389190614afb565b613410565b5b83518051602085830101848153818603613359576001820183525b5050508390509392505050565b61336e6134a1565b8460200151848361337f91906134f4565b11156133a7576133a6856002868561339791906134f4565b6133a19190614afb565b613410565b5b60006001836101006133b991906154ea565b6133c391906145c5565b905085518386820101858319825116178152815185880111156133e65784870182525b505085915050949350505050565b6000818311156134065782905061340a565b8190505b92915050565b6000826000015190506134238383612e4a565b5061342e83826130d5565b50505050565b6040518060a0016040528060008019168152602001600073ffffffffffffffffffffffffffffffffffffffff16815260200160007bffffffffffffffffffffffffffffffffffffffffffffffffffffffff191681526020016000815260200161349b6134a1565b81525090565b604051806040016040528060608152602001600081525090565b6000819050919050565b7f4e487b7100000000000000000000000000000000000000000000000000000000600052601160045260246000fd5b60006134ff826134bb565b915061350a836134bb565b9250828201905080821115613522576135216134c5565b5b92915050565b6000604051905090565b600080fd5b600080fd5b6000819050919050565b61354f8161353c565b811461355a57600080fd5b50565b60008135905061356c81613546565b92915050565b60006020828403121561358857613587613532565b5b60006135968482850161355d565b91505092915050565b6135a8816134bb565b82525050565b60006020820190506135c3600083018461359f565b92915050565b6135d2816134bb565b81146135dd57600080fd5b50565b6000813590506135ef816135c9565b92915050565b6000806040838503121561360c5761360b613532565b5b600061361a8582860161355d565b925050602061362b858286016135e0565b9150509250929050565b600073ffffffffffffffffffffffffffffffffffffffff82169050919050565b600061366082613635565b9050919050565b61367081613655565b811461367b57600080fd5b50565b60008135905061368d81613667565b92915050565b600080604083850312156136aa576136a9613532565b5b60006136b88582860161367e565b92505060206136c9858286016135e0565b9150509250929050565b6136dc8161353c565b82525050565b60006020820190506136f760008301846136d3565b92915050565b61370681613655565b82525050565b600081519050919050565b600082825260208201905092915050565b60005b8381101561374657808201518184015260208101905061372b565b60008484015250505050565b6000601f19601f8301169050919050565b600061376e8261370c565b6137788185613717565b9350613788818560208601613728565b61379181613752565b840191505092915050565b7f4e487b7100000000000000000000000000000000000000000000000000000000600052602160045260246000fd5b600481106137dc576137db61379c565b5b50565b60008190506137ed826137cb565b919050565b60006137fd826137df565b9050919050565b61380d816137f2565b82525050565b600060e082019050613828600083018a6136fd565b818103602083015261383a8189613763565b9050613849604083018861359f565b613856606083018761359f565b613863608083018661359f565b61387060a083018561359f565b61387d60c0830184613804565b98975050505050505050565b600080fd5b600080fd5b600080fd5b60008083601f8401126138ae576138ad613889565b5b8235905067ffffffffffffffff8111156138cb576138ca61388e565b5b6020830191508360018202830111156138e7576138e6613893565b5b9250929050565b6000806020838503121561390557613904613532565b5b600083013567ffffffffffffffff81111561392357613922613537565b5b61392f85828601613898565b92509250509250929050565b600080fd5b7f4e487b7100000000000000000000000000000000000000000000000000000000600052604160045260246000fd5b61397882613752565b810181811067ffffffffffffffff8211171561399757613996613940565b5b80604052505050565b60006139aa613528565b90506139b6828261396f565b919050565b600067ffffffffffffffff8211156139d6576139d5613940565b5b6139df82613752565b9050602081019050919050565b82818337600083830152505050565b6000613a0e613a09846139bb565b6139a0565b905082815260208101848484011115613a2a57613a2961393b565b5b613a358482856139ec565b509392505050565b600082601f830112613a5257613a51613889565b5b8135613a628482602086016139fb565b91505092915050565b600080600060608486031215613a8457613a83613532565b5b6000613a928682870161367e565b935050602084013567ffffffffffffffff811115613ab357613ab2613537565b5b613abf86828701613a3d565b9250506040613ad0868287016135e0565b9150509250925092565b60008115159050919050565b613aef81613ada565b82525050565b6000602082019050613b0a6000830184613ae6565b92915050565b600060208284031215613b2657613b25613532565b5b6000613b34848285016135e0565b91505092915050565b600081519050919050565b600082825260208201905092915050565b6000613b6482613b3d565b613b6e8185613b48565b9350613b7e818560208601613728565b613b8781613752565b840191505092915050565b6000604082019050613ba76000830185613ae6565b8181036020830152613bb98184613b59565b90509392505050565b60008060008060808587031215613bdc57613bdb613532565b5b600085013567ffffffffffffffff811115613bfa57613bf9613537565b5b613c0687828801613a3d565b9450506020613c17878288016135e0565b9350506040613c28878288016135e0565b925050606085013567ffffffffffffffff811115613c4957613c48613537565b5b613c5587828801613a3d565b91505092959194509250565b6000602082019050613c7660008301846136fd565b92915050565b600060208284031215613c9257613c91613532565b5b6000613ca08482850161367e565b91505092915050565b600081519050919050565b600082825260208201905092915050565b6000819050602082019050919050565b613cde8161353c565b82525050565b6000613cf08383613cd5565b60208301905092915050565b6000602082019050919050565b6000613d1482613ca9565b613d1e8185613cb4565b9350613d2983613cc5565b8060005b83811015613d5a578151613d418882613ce4565b9750613d4c83613cfc565b925050600181019050613d2d565b5085935050505092915050565b60006020820190508181036000830152613d818184613d09565b905092915050565b600061010082019050613d9f600083018b6136fd565b8181036020830152613db1818a613763565b9050613dc0604083018961359f565b613dcd606083018861359f565b613dda608083018761359f565b613de760a083018661359f565b613df460c083018561359f565b613e0160e0830184613804565b9998505050505050505050565b60008060408385031215613e2557613e24613532565b5b600083013567ffffffffffffffff811115613e4357613e42613537565b5b613e4f85828601613a3d565b9250506020613e60858286016135e0565b9150509250929050565b7f506f6c696379206e6f7420666f756e6400000000000000000000000000000000600082015250565b6000613ea0601083613717565b9150613eab82613e6a565b602082019050919050565b60006020820190508181036000830152613ecf81613e93565b9050919050565b7f466c696768742064617465206e6f742072656163686564000000000000000000600082015250565b6000613f0c601783613717565b9150613f1782613ed6565b602082019050919050565b60006020820190508181036000830152613f3b81613eff565b9050919050565b7f546f6f20736f6f6e20746f207265636865636b206f7220616c7265616479206360008201527f6c61696d65640000000000000000000000000000000000000000000000000000602082015250565b6000613f9e602683613717565b9150613fa982613f42565b604082019050919050565b60006020820190508181036000830152613fcd81613f91565b9050919050565b600081905092915050565b7f68747470733a2f2f646563656e747261666c696768746170692e6f6e72656e6460008201527f65722e636f6d2f6170692f666c696768742d64656c61793f666c696768745f6960208201527f6174613d00000000000000000000000000000000000000000000000000000000604082015250565b6000614061604483613fd4565b915061406c82613fdf565b604482019050919050565b7f4e487b7100000000000000000000000000000000000000000000000000000000600052602260045260246000fd5b600060028204905060018216806140be57607f821691505b6020821081036140d1576140d0614077565b5b50919050565b60008190508160005260206000209050919050565b600081546140f9816140a6565b6141038186613fd4565b9450600182166000811461411e576001811461413357614166565b60ff1983168652811515820286019350614166565b61413c856140d7565b60005b8381101561415e5781548189015260018201915060208101905061413f565b838801955050505b50505092915050565b7f266465706172747572655f646174653d00000000000000000000000000000000600082015250565b60006141a5601083613fd4565b91506141b08261416f565b601082019050919050565b60006141c68261370c565b6141d08185613fd4565b93506141e0818560208601613728565b80840191505092915050565b60006141f782614054565b915061420382856140ec565b915061420e82614198565b915061421a82846141bb565b91508190509392505050565b7f536f75726365206d75737420626520746865206f7261636c65206f662074686560008201527f2072657175657374000000000000000000000000000000000000000000000000602082015250565b6000614282602883613717565b915061428d82614226565b604082019050919050565b600060208201905081810360008301526142b181614275565b9050919050565b7f556e6b6e6f776e20726571756573742049440000000000000000000000000000600082015250565b60006142ee601283613717565b91506142f9826142b8565b602082019050919050565b6000602082019050818103600083015261431d816142e1565b9050919050565b60008154614331816140a6565b61433b8186613717565b94506001821660008114614356576001811461436c5761439f565b60ff19831686528115156020028601935061439f565b614375856140d7565b60005b8381101561439757815481890152600182019150602081019050614378565b808801955050505b50505092915050565b60006080820190506143bd60008301876136d3565b81810360208301526143cf8186614324565b90506143de6040830185613804565b6143eb606083018461359f565b95945050505050565b600067ffffffffffffffff82111561440f5761440e613940565b5b602082029050602081019050919050565b600061443361442e846143f4565b6139a0565b9050808382526020820190506020840283018581111561445657614455613893565b5b835b8181101561447f578061446b888261355d565b845260208401935050602081019050614458565b5050509392505050565b600082601f83011261449e5761449d613889565b5b81356144ae848260208601614420565b91505092915050565b600080604083850312156144ce576144cd613532565b5b600083013567ffffffffffffffff8111156144ec576144eb613537565b5b6144f885828601614489565b9250506020614509858286016135e0565b9150509250929050565b7f4e487b7100000000000000000000000000000000000000000000000000000000600052603260045260246000fd5b600061454e82846141bb565b915081905092915050565b7f496e74657276616c20746f6f2073686f72740000000000000000000000000000600082015250565b600061458f601283613717565b915061459a82614559565b602082019050919050565b600060208201905081810360008301526145be81614582565b9050919050565b60006145d0826134bb565b91506145db836134bb565b92508282039050818111156145f3576145f26134c5565b5b92915050565b7f4e487b7100000000000000000000000000000000000000000000000000000000600052601260045260246000fd5b6000614633826134bb565b915061463e836134bb565b92508261464e5761464d6145f9565b5b828206905092915050565b600060408201905081810360008301526146738185613d09565b9050614682602083018461359f565b9392505050565b7f506f6c69637920616c726561647920636c61696d656400000000000000000000600082015250565b60006146bf601683613717565b91506146ca82614689565b602082019050919050565b600060208201905081810360008301526146ee816146b2565b9050919050565b7f4f6e6c792061646d696e2063616e207769746864726177000000000000000000600082015250565b600061472b601783613717565b9150614736826146f5565b602082019050919050565b6000602082019050818103600083015261475a8161471e565b9050919050565b7f43616e6e6f74207769746864726177206d6f7265207468616e20617661696c6160008201527f626c6520726576656e75652066756e6473000000000000000000000000000000602082015250565b60006147bd603183613717565b91506147c882614761565b604082019050919050565b600060208201905081810360008301526147ec816147b0565b9050919050565b600081905092915050565b50565b600061480e6000836147f3565b9150614819826147fe565b600082019050919050565b600061482f82614801565b9150819050919050565b7f5769746864726177616c207472616e73666572206661696c6564000000000000600082015250565b600061486f601a83613717565b915061487a82614839565b602082019050919050565b6000602082019050818103600083015261489e81614862565b9050919050565b60006040820190506148ba600083018561359f565b6148c7602083018461359f565b9392505050565b7f3000000000000000000000000000000000000000000000000000000000000000600082015250565b6000614904600183613fd4565b915061490f826148ce565b600182019050919050565b6000614925826148f7565b915061493182846141bb565b915081905092915050565b7f2d00000000000000000000000000000000000000000000000000000000000000600082015250565b6000614972600183613fd4565b915061497d8261493c565b600182019050919050565b600061499482866141bb565b915061499f82614965565b91506149ab82856141bb565b91506149b682614965565b91506149c282846141bb565b9150819050949350505050565b60007fffffffff0000000000000000000000000000000000000000000000000000000082169050919050565b614a04816149cf565b82525050565b600061010082019050614a20600083018b6136fd565b614a2d602083018a61359f565b614a3a60408301896136d3565b614a4760608301886136fd565b614a5460808301876149fb565b614a6160a083018661359f565b614a6e60c083018561359f565b81810360e0830152614a808184613b59565b90509998505050505050505050565b7f466c69676874206e6f742064656c617965640000000000000000000000000000600082015250565b6000614ac5601283613717565b9150614ad082614a8f565b602082019050919050565b60006020820190508181036000830152614af481614ab8565b9050919050565b6000614b06826134bb565b9150614b11836134bb565b9250828202614b1f816134bb565b91508282048414831517614b3657614b356134c5565b5b5092915050565b6000614b48826134bb565b9150614b53836134bb565b925082614b6357614b626145f9565b5b828204905092915050565b7f5061796f7574207472616e73666572206661696c656400000000000000000000600082015250565b6000614ba4601683613717565b9150614baf82614b6e565b602082019050919050565b60006020820190508181036000830152614bd381614b97565b9050919050565b6000606082019050614bef60008301866136d3565b614bfc60208301856136fd565b614c09604083018461359f565b949350505050565b7f5072656d69756d206d7573742062652067726561746572207468616e20300000600082015250565b6000614c47601e83613717565b9150614c5282614c11565b602082019050919050565b60006020820190508181036000830152614c7681614c3a565b9050919050565b7f466c696768742064617465206d75737420626520696e2074686520667574757260008201527f6500000000000000000000000000000000000000000000000000000000000000602082015250565b6000614cd9602183613717565b9150614ce482614c7d565b604082019050919050565b60006020820190508181036000830152614d0881614ccc565b9050919050565b7f506f6c69637920666f72207468697320666c6967687420616c7265616479206560008201527f7869737473000000000000000000000000000000000000000000000000000000602082015250565b6000614d6b602583613717565b9150614d7682614d0f565b604082019050919050565b60006020820190508181036000830152614d9a81614d5e565b9050919050565b60008160601b9050919050565b6000614db982614da1565b9050919050565b6000614dcb82614dae565b9050919050565b614de3614dde82613655565b614dc0565b82525050565b6000819050919050565b614e04614dff826134bb565b614de9565b82525050565b6000614e168287614dd2565b601482019150614e2682866141bb565b9150614e328285614df3565b602082019150614e428284614df3565b60208201915081905095945050505050565b60006020601f8301049050919050565b600082821b905092915050565b600060088302614ea17fffffffffffffffffffffffffffffffffffffffffffffffffffffffffffffffff82614e64565b614eab8683614e64565b95508019841693508086168417925050509392505050565b6000819050919050565b6000614ee8614ee3614ede846134bb565b614ec3565b6134bb565b9050919050565b6000819050919050565b614f0283614ecd565b614f16614f0e82614eef565b848454614e71565b825550505050565b600090565b614f2b614f1e565b614f36818484614ef9565b505050565b5b81811015614f5a57614f4f600082614f23565b600181019050614f3c565b5050565b601f821115614f9f57614f70816140d7565b614f7984614e54565b81016020851015614f88578190505b614f9c614f9485614e54565b830182614f3b565b50505b505050565b600082821c905092915050565b6000614fc260001984600802614fa4565b1980831691505092915050565b6000614fdb8383614fb1565b9150826002028217905092915050565b614ff48261370c565b67ffffffffffffffff81111561500d5761500c613940565b5b61501782546140a6565b615022828285614f5e565b600060209050601f8311600181146150555760008415615043578287015190505b61504d8582614fcf565b8655506150b5565b601f198416615063866140d7565b60005b8281101561508b57848901518255600182019150602085019450602081019050615066565b868310156150a857848901516150a4601f891682614fb1565b8355505b6001600288020188555050505b505050505050565b60006150c8826134bb565b91507fffffffffffffffffffffffffffffffffffffffffffffffffffffffffffffffff82036150fa576150f96134c5565b5b600182019050919050565b600060408201905061511a60008301856136d3565b818103602083015261512c8184613763565b90509392505050565b600060a08201905061514a60008301886136d3565b61515760208301876136fd565b81810360408301526151698186613763565b9050615178606083018561359f565b615185608083018461359f565b9695505050505050565b6000819050919050565b60006151a48261518f565b91506151af8361518f565b92508282039050818112600084121682821360008512151617156151d6576151d56134c5565b5b92915050565b60006151f76151f26151ed84613635565b614ec3565b613635565b9050919050565b6000615209826151dc565b9050919050565b600061521b826151fe565b9050919050565b61523361522e82615210565b614dc0565b82525050565b60006152458285615222565b6014820191506152558284614df3565b6020820191508190509392505050565b600060608201905061527a60008301866136fd565b615287602083018561359f565b81810360408301526152998184613b59565b9050949350505050565b6152ac81613ada565b81146152b757600080fd5b50565b6000815190506152c9816152a3565b92915050565b6000602082840312156152e5576152e4613532565b5b60006152f3848285016152ba565b91505092915050565b7f756e61626c6520746f207472616e73666572416e6443616c6c20746f206f726160008201527f636c650000000000000000000000000000000000000000000000000000000000602082015250565b6000615358602383613717565b9150615363826152fc565b604082019050919050565b600060208201905081810360008301526153878161534b565b9050919050565b6000615399826134bb565b9150600082036153ac576153ab6134c5565b5b600182039050919050565b60008160011c9050919050565b6000808291508390505b600185111561540e578086048111156153ea576153e96134c5565b5b60018516156153f95780820291505b8081029050615407856153b7565b94506153ce565b94509492505050565b60008261542757600190506154e3565b8161543557600090506154e3565b816001811461544b576002811461545557615484565b60019150506154e3565b60ff841115615467576154666134c5565b5b8360020a91508482111561547e5761547d6134c5565b5b506154e3565b5060208310610133831016604e8410600b84101617156154b95782820a9050838111156154b4576154b36134c5565b5b6154e3565b6154c684848460016153c4565b925090508184048111156154dd576154dc6134c5565b5b81810290505b9392505050565b60006154f5826134bb565b9150615500836134bb565b925061552d7fffffffffffffffffffffffffffffffffffffffffffffffffffffffffffffffff8484615417565b90509291505056fea264697066735822122006e7e631b6571437f4a5ec8b3e47d2cc52b42933e5daad63fe7d04b95c4b605d64736f6c634300081c0033","opcodes":"PUSH1 0xA0 PUSH1 0x40 MSTORE PUSH1 0x1 PUSH1 0x4 SSTORE PUSH2 0x708 PUSH1 0x12 SSTORE PUSH2 0xE10 PUSH1 0x13 SSTORE CALLVALUE DUP1 ISZERO PUSH2 0x21 JUMPI PUSH1 0x0 DUP1 REVERT JUMPDEST POP CALLER PUSH1 0x0 PUSH20 0xFFFFFFFFFFFFFFFFFFFFFFFFFFFFFFFFFFFFFFFF AND DUP2 PUSH20 0xFFFFFFFFFFFFFFFFFFFFFFFFFFFFFFFFFFFFFFFF AND SUB PUSH2 0x95 JUMPI PUSH1 0x0 PUSH1 0x40 MLOAD PUSH32 0x1E4FBDF700000000000000000000000000000000000000000000000000000000 DUP2 MSTORE PUSH1 0x4 ADD PUSH2 0x8C SWAP2 SWAP1 PUSH2 0x3DC JUMP JUMPDEST PUSH1 0x40 MLOAD DUP1 SWAP2 SUB SWAP1 REVERT JUMPDEST PUSH2 0xA4 DUP2 PUSH2 0x291 PUSH1 0x20 SHL PUSH1 0x20 SHR JUMP JUMPDEST POP PUSH1 0x1 PUSH1 0x7 DUP2 SWAP1 SSTORE POP PUSH20 0xF51EE95F3CEA7D1F474FE678720D3E126FED364B PUSH20 0xFFFFFFFFFFFFFFFFFFFFFFFFFFFFFFFFFFFFFFFF AND PUSH1 0x80 DUP2 PUSH20 0xFFFFFFFFFFFFFFFFFFFFFFFFFFFFFFFFFFFFFFFF AND DUP2 MSTORE POP POP PUSH2 0x118 PUSH20 0xFD9E8D3AF1AAEE056EB9E802C3A762A667B1904 PUSH2 0x357 PUSH1 0x20 SHL PUSH1 0x20 SHR JUMP JUMPDEST PUSH20 0xD36C6B1777C7F3DB1B3201BDD87081A9045B7B46 PUSH1 0x15 PUSH1 0x0 PUSH2 0x100 EXP DUP2 SLOAD DUP2 PUSH20 0xFFFFFFFFFFFFFFFFFFFFFFFFFFFFFFFFFFFFFFFF MUL NOT AND SWAP1 DUP4 PUSH20 0xFFFFFFFFFFFFFFFFFFFFFFFFFFFFFFFFFFFFFFFF AND MUL OR SWAP1 SSTORE POP PUSH1 0x40 MLOAD DUP1 PUSH1 0x40 ADD PUSH1 0x40 MSTORE DUP1 PUSH1 0x20 DUP2 MSTORE PUSH1 0x20 ADD PUSH32 0x6138333536663438353639633433346561613461633566636234646235636330 DUP2 MSTORE POP PUSH2 0x1AC SWAP1 PUSH2 0x43E JUMP JUMPDEST PUSH1 0x16 DUP2 SWAP1 SSTORE POP PUSH7 0x2386F26FC10000 PUSH1 0x17 DUP2 SWAP1 SSTORE POP TIMESTAMP PUSH1 0x14 DUP2 SWAP1 SSTORE POP PUSH1 0x0 PUSH8 0xDE0B6B3A7640000 SWAP1 POP DUP1 PUSH1 0xF PUSH1 0x0 DUP3 DUP3 SLOAD PUSH2 0x1E6 SWAP2 SWAP1 PUSH2 0x4DE JUMP JUMPDEST SWAP3 POP POP DUP2 SWAP1 SSTORE POP CALLER PUSH20 0xFFFFFFFFFFFFFFFFFFFFFFFFFFFFFFFFFFFFFFFF AND PUSH32 0x1AA88527987680F71E6ACE8F3D2AB4871DB1862850458125715E5175F088C609 DUP3 PUSH1 0x40 MLOAD PUSH2 0x233 SWAP2 SWAP1 PUSH2 0x521 JUMP JUMPDEST PUSH1 0x40 MLOAD DUP1 SWAP2 SUB SWAP1 LOG2 CALLER PUSH20 0xFFFFFFFFFFFFFFFFFFFFFFFFFFFFFFFFFFFFFFFF AND PUSH32 0xFBC3A599B784FE88772FC5ABCC07223F64CA0B13ACC341F4FB1E46BEF0510EB4 DUP3 TIMESTAMP PUSH1 0x40 MLOAD PUSH2 0x283 SWAP3 SWAP2 SWAP1 PUSH2 0x53C JUMP JUMPDEST PUSH1 0x40 MLOAD DUP1 SWAP2 SUB SWAP1 LOG2 POP PUSH2 0x565 JUMP JUMPDEST PUSH1 0x0 PUSH1 0x6 PUSH1 0x0 SWAP1 SLOAD SWAP1 PUSH2 0x100 EXP SWAP1 DIV PUSH20 0xFFFFFFFFFFFFFFFFFFFFFFFFFFFFFFFFFFFFFFFF AND SWAP1 POP DUP2 PUSH1 0x6 PUSH1 0x0 PUSH2 0x100 EXP DUP2 SLOAD DUP2 PUSH20 0xFFFFFFFFFFFFFFFFFFFFFFFFFFFFFFFFFFFFFFFF MUL NOT AND SWAP1 DUP4 PUSH20 0xFFFFFFFFFFFFFFFFFFFFFFFFFFFFFFFFFFFFFFFF AND MUL OR SWAP1 SSTORE POP DUP2 PUSH20 0xFFFFFFFFFFFFFFFFFFFFFFFFFFFFFFFFFFFFFFFF AND DUP2 PUSH20 0xFFFFFFFFFFFFFFFFFFFFFFFFFFFFFFFFFFFFFFFF AND PUSH32 0x8BE0079C531659141344CD1FD0A4F28419497F9722A3DAAFE3B4186F6B6457E0 PUSH1 0x40 MLOAD PUSH1 0x40 MLOAD DUP1 SWAP2 SUB SWAP1 LOG3 POP POP JUMP JUMPDEST DUP1 PUSH1 0x2 PUSH1 0x0 PUSH2 0x100 EXP DUP2 SLOAD DUP2 PUSH20 0xFFFFFFFFFFFFFFFFFFFFFFFFFFFFFFFFFFFFFFFF MUL NOT AND SWAP1 DUP4 PUSH20 0xFFFFFFFFFFFFFFFFFFFFFFFFFFFFFFFFFFFFFFFF AND MUL OR SWAP1 SSTORE POP POP JUMP JUMPDEST PUSH1 0x0 PUSH20 0xFFFFFFFFFFFFFFFFFFFFFFFFFFFFFFFFFFFFFFFF DUP3 AND SWAP1 POP SWAP2 SWAP1 POP JUMP JUMPDEST PUSH1 0x0 PUSH2 0x3C6 DUP3 PUSH2 0x39B JUMP JUMPDEST SWAP1 POP SWAP2 SWAP1 POP JUMP JUMPDEST PUSH2 0x3D6 DUP2 PUSH2 0x3BB JUMP JUMPDEST DUP3 MSTORE POP POP JUMP JUMPDEST PUSH1 0x0 PUSH1 0x20 DUP3 ADD SWAP1 POP PUSH2 0x3F1 PUSH1 0x0 DUP4 ADD DUP5 PUSH2 0x3CD JUMP JUMPDEST SWAP3 SWAP2 POP POP JUMP JUMPDEST PUSH1 0x0 DUP2 MLOAD SWAP1 POP SWAP2 SWAP1 POP JUMP JUMPDEST PUSH1 0x0 DUP2 SWAP1 POP PUSH1 0x20 DUP3 ADD SWAP1 POP SWAP2 SWAP1 POP JUMP JUMPDEST PUSH1 0x0 DUP2 SWAP1 POP SWAP2 SWAP1 POP JUMP JUMPDEST PUSH1 0x0 PUSH2 0x428 DUP3 MLOAD PUSH2 0x412 JUMP JUMPDEST DUP1 SWAP2 POP POP SWAP2 SWAP1 POP JUMP JUMPDEST PUSH1 0x0 DUP3 DUP3 SHL SWAP1 POP SWAP3 SWAP2 POP POP JUMP JUMPDEST PUSH1 0x0 PUSH2 0x449 DUP3 PUSH2 0x3F7 JUMP JUMPDEST DUP3 PUSH2 0x453 DUP5 PUSH2 0x402 JUMP JUMPDEST SWAP1 POP PUSH2 0x45E DUP2 PUSH2 0x41C JUMP JUMPDEST SWAP3 POP PUSH1 0x20 DUP3 LT ISZERO PUSH2 0x49E JUMPI PUSH2 0x499 PUSH32 0xFFFFFFFFFFFFFFFFFFFFFFFFFFFFFFFFFFFFFFFFFFFFFFFFFFFFFFFFFFFFFFFF DUP4 PUSH1 0x20 SUB PUSH1 0x8 MUL PUSH2 0x431 JUMP JUMPDEST DUP4 AND SWAP3 POP JUMPDEST POP POP SWAP2 SWAP1 POP JUMP JUMPDEST PUSH1 0x0 DUP2 SWAP1 POP SWAP2 SWAP1 POP JUMP JUMPDEST PUSH32 0x4E487B7100000000000000000000000000000000000000000000000000000000 PUSH1 0x0 MSTORE PUSH1 0x11 PUSH1 0x4 MSTORE PUSH1 0x24 PUSH1 0x0 REVERT JUMPDEST PUSH1 0x0 PUSH2 0x4E9 DUP3 PUSH2 0x4A5 JUMP JUMPDEST SWAP2 POP PUSH2 0x4F4 DUP4 PUSH2 0x4A5 JUMP JUMPDEST SWAP3 POP DUP3 DUP3 ADD SWAP1 POP DUP1 DUP3 GT ISZERO PUSH2 0x50C JUMPI PUSH2 0x50B PUSH2 0x4AF JUMP JUMPDEST JUMPDEST SWAP3 SWAP2 POP POP JUMP JUMPDEST PUSH2 0x51B DUP2 PUSH2 0x4A5 JUMP JUMPDEST DUP3 MSTORE POP POP JUMP JUMPDEST PUSH1 0x0 PUSH1 0x20 DUP3 ADD SWAP1 POP PUSH2 0x536 PUSH1 0x0 DUP4 ADD DUP5 PUSH2 0x512 JUMP JUMPDEST SWAP3 SWAP2 POP POP JUMP JUMPDEST PUSH1 0x0 PUSH1 0x40 DUP3 ADD SWAP1 POP PUSH2 0x551 PUSH1 0x0 DUP4 ADD DUP6 PUSH2 0x512 JUMP JUMPDEST PUSH2 0x55E PUSH1 0x20 DUP4 ADD DUP5 PUSH2 0x512 JUMP JUMPDEST SWAP4 SWAP3 POP POP POP JUMP JUMPDEST PUSH1 0x80 MLOAD PUSH2 0x556B PUSH2 0x595 PUSH1 0x0 CODECOPY PUSH1 0x0 DUP2 DUP2 PUSH2 0x17FE ADD MSTORE DUP2 DUP2 PUSH2 0x1AD4 ADD MSTORE DUP2 DUP2 PUSH2 0x1BC2 ADD MSTORE PUSH2 0x1C8C ADD MSTORE PUSH2 0x556B PUSH1 0x0 RETURN INVALID PUSH1 0x80 PUSH1 0x40 MSTORE PUSH1 0x4 CALLDATASIZE LT PUSH2 0x208 JUMPI PUSH1 0x0 CALLDATALOAD PUSH1 0xE0 SHR DUP1 PUSH4 0x83BAB570 GT PUSH2 0x118 JUMPI DUP1 PUSH4 0xDDBFD8EF GT PUSH2 0xA0 JUMPI DUP1 PUSH4 0xF059D78E GT PUSH2 0x6F JUMPI DUP1 PUSH4 0xF059D78E EQ PUSH2 0x794 JUMPI DUP1 PUSH4 0xF1139D0F EQ PUSH2 0x7BF JUMPI DUP1 PUSH4 0xF2FDE38B EQ PUSH2 0x7EA JUMPI DUP1 PUSH4 0xF3CBE293 EQ PUSH2 0x813 JUMPI DUP1 PUSH4 0xFDFBFD3D EQ PUSH2 0x83C JUMPI PUSH2 0x227 JUMP JUMPDEST DUP1 PUSH4 0xDDBFD8EF EQ PUSH2 0x6DE JUMPI DUP1 PUSH4 0xE4D7D6DC EQ PUSH2 0x722 JUMPI DUP1 PUSH4 0xE8646F54 EQ PUSH2 0x74D JUMPI DUP1 PUSH4 0xEF9606D9 EQ PUSH2 0x769 JUMPI PUSH2 0x227 JUMP JUMPDEST DUP1 PUSH4 0xACD88349 GT PUSH2 0xE7 JUMPI DUP1 PUSH4 0xACD88349 EQ PUSH2 0x5F9 JUMPI DUP1 PUSH4 0xB52D35BC EQ PUSH2 0x624 JUMPI DUP1 PUSH4 0xC2CD4A07 EQ PUSH2 0x64D JUMPI DUP1 PUSH4 0xCB799258 EQ PUSH2 0x678 JUMPI DUP1 PUSH4 0xD1A5EA56 EQ PUSH2 0x6B5 JUMPI PUSH2 0x227 JUMP JUMPDEST DUP1 PUSH4 0x83BAB570 EQ PUSH2 0x53B JUMPI DUP1 PUSH4 0x87AFB99B EQ PUSH2 0x566 JUMPI DUP1 PUSH4 0x8DA5CB5B EQ PUSH2 0x5A3 JUMPI DUP1 PUSH4 0x8E83F1D2 EQ PUSH2 0x5CE JUMPI PUSH2 0x227 JUMP JUMPDEST DUP1 PUSH4 0x4357855E GT PUSH2 0x19B JUMPI DUP1 PUSH4 0x6E04FF0D GT PUSH2 0x16A JUMPI DUP1 PUSH4 0x6E04FF0D EQ PUSH2 0x462 JUMPI DUP1 PUSH4 0x704D0285 EQ PUSH2 0x4A0 JUMPI DUP1 PUSH4 0x715018A6 EQ PUSH2 0x4DD JUMPI DUP1 PUSH4 0x78FE4E87 EQ PUSH2 0x4F4 JUMPI DUP1 PUSH4 0x838C29B6 EQ PUSH2 0x510 JUMPI PUSH2 0x227 JUMP JUMPDEST DUP1 PUSH4 0x4357855E EQ PUSH2 0x3AA JUMPI DUP1 PUSH4 0x4585E33B EQ PUSH2 0x3D3 JUMPI DUP1 PUSH4 0x4E5A8417 EQ PUSH2 0x3FC JUMPI DUP1 PUSH4 0x6551D4E5 EQ PUSH2 0x439 JUMPI PUSH2 0x227 JUMP JUMPDEST DUP1 PUSH4 0x22F6C121 GT PUSH2 0x1D7 JUMPI DUP1 PUSH4 0x22F6C121 EQ PUSH2 0x2D4 JUMPI DUP1 PUSH4 0x3D36ADC5 EQ PUSH2 0x2FF JUMPI DUP1 PUSH4 0x40FAC30C EQ PUSH2 0x33C JUMPI DUP1 PUSH4 0x4210DBC6 EQ PUSH2 0x37F JUMPI PUSH2 0x227 JUMP JUMPDEST DUP1 PUSH4 0xC3C98FB EQ PUSH2 0x22C JUMPI DUP1 PUSH4 0xD2F2E86 EQ PUSH2 0x255 JUMPI DUP1 PUSH4 0x15A604F4 EQ PUSH2 0x280 JUMPI DUP1 PUSH4 0x1BB877C4 EQ PUSH2 0x2AB JUMPI PUSH2 0x227 JUMP JUMPDEST CALLDATASIZE PUSH2 0x227 JUMPI CALLVALUE PUSH1 0xF PUSH1 0x0 DUP3 DUP3 SLOAD PUSH2 0x21F SWAP2 SWAP1 PUSH2 0x34F4 JUMP JUMPDEST SWAP3 POP POP DUP2 SWAP1 SSTORE STOP JUMPDEST PUSH1 0x0 DUP1 REVERT JUMPDEST CALLVALUE DUP1 ISZERO PUSH2 0x238 JUMPI PUSH1 0x0 DUP1 REVERT JUMPDEST POP PUSH2 0x253 PUSH1 0x4 DUP1 CALLDATASIZE SUB DUP2 ADD SWAP1 PUSH2 0x24E SWAP2 SWAP1 PUSH2 0x3572 JUMP JUMPDEST PUSH2 0x867 JUMP JUMPDEST STOP JUMPDEST CALLVALUE DUP1 ISZERO PUSH2 0x261 JUMPI PUSH1 0x0 DUP1 REVERT JUMPDEST POP PUSH2 0x26A PUSH2 0xD48 JUMP JUMPDEST PUSH1 0x40 MLOAD PUSH2 0x277 SWAP2 SWAP1 PUSH2 0x35AE JUMP JUMPDEST PUSH1 0x40 MLOAD DUP1 SWAP2 SUB SWAP1 RETURN JUMPDEST CALLVALUE DUP1 ISZERO PUSH2 0x28C JUMPI PUSH1 0x0 DUP1 REVERT JUMPDEST POP PUSH2 0x295 PUSH2 0xD52 JUMP JUMPDEST PUSH1 0x40 MLOAD PUSH2 0x2A2 SWAP2 SWAP1 PUSH2 0x35AE JUMP JUMPDEST PUSH1 0x40 MLOAD DUP1 SWAP2 SUB SWAP1 RETURN JUMPDEST CALLVALUE DUP1 ISZERO PUSH2 0x2B7 JUMPI PUSH1 0x0 DUP1 REVERT JUMPDEST POP PUSH2 0x2D2 PUSH1 0x4 DUP1 CALLDATASIZE SUB DUP2 ADD SWAP1 PUSH2 0x2CD SWAP2 SWAP1 PUSH2 0x35F5 JUMP JUMPDEST PUSH2 0xD57 JUMP JUMPDEST STOP JUMPDEST CALLVALUE DUP1 ISZERO PUSH2 0x2E0 JUMPI PUSH1 0x0 DUP1 REVERT JUMPDEST POP PUSH2 0x2E9 PUSH2 0xE17 JUMP JUMPDEST PUSH1 0x40 MLOAD PUSH2 0x2F6 SWAP2 SWAP1 PUSH2 0x35AE JUMP JUMPDEST PUSH1 0x40 MLOAD DUP1 SWAP2 SUB SWAP1 RETURN JUMPDEST CALLVALUE DUP1 ISZERO PUSH2 0x30B JUMPI PUSH1 0x0 DUP1 REVERT JUMPDEST POP PUSH2 0x326 PUSH1 0x4 DUP1 CALLDATASIZE SUB DUP2 ADD SWAP1 PUSH2 0x321 SWAP2 SWAP1 PUSH2 0x3693 JUMP JUMPDEST PUSH2 0xE1D JUMP JUMPDEST PUSH1 0x40 MLOAD PUSH2 0x333 SWAP2 SWAP1 PUSH2 0x36E2 JUMP JUMPDEST PUSH1 0x40 MLOAD DUP1 SWAP2 SUB SWAP1 RETURN JUMPDEST CALLVALUE DUP1 ISZERO PUSH2 0x348 JUMPI PUSH1 0x0 DUP1 REVERT JUMPDEST POP PUSH2 0x363 PUSH1 0x4 DUP1 CALLDATASIZE SUB DUP2 ADD SWAP1 PUSH2 0x35E SWAP2 SWAP1 PUSH2 0x3572 JUMP JUMPDEST PUSH2 0xE4E JUMP JUMPDEST PUSH1 0x40 MLOAD PUSH2 0x376 SWAP8 SWAP7 SWAP6 SWAP5 SWAP4 SWAP3 SWAP2 SWAP1 PUSH2 0x3813 JUMP JUMPDEST PUSH1 0x40 MLOAD DUP1 SWAP2 SUB SWAP1 RETURN JUMPDEST CALLVALUE DUP1 ISZERO PUSH2 0x38B JUMPI PUSH1 0x0 DUP1 REVERT JUMPDEST POP PUSH2 0x394 PUSH2 0xF65 JUMP JUMPDEST PUSH1 0x40 MLOAD PUSH2 0x3A1 SWAP2 SWAP1 PUSH2 0x35AE JUMP JUMPDEST PUSH1 0x40 MLOAD DUP1 SWAP2 SUB SWAP1 RETURN JUMPDEST CALLVALUE DUP1 ISZERO PUSH2 0x3B6 JUMPI PUSH1 0x0 DUP1 REVERT JUMPDEST POP PUSH2 0x3D1 PUSH1 0x4 DUP1 CALLDATASIZE SUB DUP2 ADD SWAP1 PUSH2 0x3CC SWAP2 SWAP1 PUSH2 0x35F5 JUMP JUMPDEST PUSH2 0xF6B JUMP JUMPDEST STOP JUMPDEST CALLVALUE DUP1 ISZERO PUSH2 0x3DF JUMPI PUSH1 0x0 DUP1 REVERT JUMPDEST POP PUSH2 0x3FA PUSH1 0x4 DUP1 CALLDATASIZE SUB DUP2 ADD SWAP1 PUSH2 0x3F5 SWAP2 SWAP1 PUSH2 0x38EE JUMP JUMPDEST PUSH2 0x11FE JUMP JUMPDEST STOP JUMPDEST CALLVALUE DUP1 ISZERO PUSH2 0x408 JUMPI PUSH1 0x0 DUP1 REVERT JUMPDEST POP PUSH2 0x423 PUSH1 0x4 DUP1 CALLDATASIZE SUB DUP2 ADD SWAP1 PUSH2 0x41E SWAP2 SWAP1 PUSH2 0x3A6B JUMP JUMPDEST PUSH2 0x135B JUMP JUMPDEST PUSH1 0x40 MLOAD PUSH2 0x430 SWAP2 SWAP1 PUSH2 0x3AF5 JUMP JUMPDEST PUSH1 0x40 MLOAD DUP1 SWAP2 SUB SWAP1 RETURN JUMPDEST CALLVALUE DUP1 ISZERO PUSH2 0x445 JUMPI PUSH1 0x0 DUP1 REVERT JUMPDEST POP PUSH2 0x460 PUSH1 0x4 DUP1 CALLDATASIZE SUB DUP2 ADD SWAP1 PUSH2 0x45B SWAP2 SWAP1 PUSH2 0x3B10 JUMP JUMPDEST PUSH2 0x13E0 JUMP JUMPDEST STOP JUMPDEST CALLVALUE DUP1 ISZERO PUSH2 0x46E JUMPI PUSH1 0x0 DUP1 REVERT JUMPDEST POP PUSH2 0x489 PUSH1 0x4 DUP1 CALLDATASIZE SUB DUP2 ADD SWAP1 PUSH2 0x484 SWAP2 SWAP1 PUSH2 0x38EE JUMP JUMPDEST PUSH2 0x1436 JUMP JUMPDEST PUSH1 0x40 MLOAD PUSH2 0x497 SWAP3 SWAP2 SWAP1 PUSH2 0x3B92 JUMP JUMPDEST PUSH1 0x40 MLOAD DUP1 SWAP2 SUB SWAP1 RETURN JUMPDEST CALLVALUE DUP1 ISZERO PUSH2 0x4AC JUMPI PUSH1 0x0 DUP1 REVERT JUMPDEST POP PUSH2 0x4C7 PUSH1 0x4 DUP1 CALLDATASIZE SUB DUP2 ADD SWAP1 PUSH2 0x4C2 SWAP2 SWAP1 PUSH2 0x3A6B JUMP JUMPDEST PUSH2 0x15D0 JUMP JUMPDEST PUSH1 0x40 MLOAD PUSH2 0x4D4 SWAP2 SWAP1 PUSH2 0x3AF5 JUMP JUMPDEST PUSH1 0x40 MLOAD DUP1 SWAP2 SUB SWAP1 RETURN JUMPDEST CALLVALUE DUP1 ISZERO PUSH2 0x4E9 JUMPI PUSH1 0x0 DUP1 REVERT JUMPDEST POP PUSH2 0x4F2 PUSH2 0x1622 JUMP JUMPDEST STOP JUMPDEST PUSH2 0x50E PUSH1 0x4 DUP1 CALLDATASIZE SUB DUP2 ADD SWAP1 PUSH2 0x509 SWAP2 SWAP1 PUSH2 0x3BC2 JUMP JUMPDEST PUSH2 0x1636 JUMP JUMPDEST STOP JUMPDEST CALLVALUE DUP1 ISZERO PUSH2 0x51C JUMPI PUSH1 0x0 DUP1 REVERT JUMPDEST POP PUSH2 0x525 PUSH2 0x1656 JUMP JUMPDEST PUSH1 0x40 MLOAD PUSH2 0x532 SWAP2 SWAP1 PUSH2 0x35AE JUMP JUMPDEST PUSH1 0x40 MLOAD DUP1 SWAP2 SUB SWAP1 RETURN JUMPDEST CALLVALUE DUP1 ISZERO PUSH2 0x547 JUMPI PUSH1 0x0 DUP1 REVERT JUMPDEST POP PUSH2 0x550 PUSH2 0x165C JUMP JUMPDEST PUSH1 0x40 MLOAD PUSH2 0x55D SWAP2 SWAP1 PUSH2 0x35AE JUMP JUMPDEST PUSH1 0x40 MLOAD DUP1 SWAP2 SUB SWAP1 RETURN JUMPDEST CALLVALUE DUP1 ISZERO PUSH2 0x572 JUMPI PUSH1 0x0 DUP1 REVERT JUMPDEST POP PUSH2 0x58D PUSH1 0x4 DUP1 CALLDATASIZE SUB DUP2 ADD SWAP1 PUSH2 0x588 SWAP2 SWAP1 PUSH2 0x3B10 JUMP JUMPDEST PUSH2 0x1662 JUMP JUMPDEST PUSH1 0x40 MLOAD PUSH2 0x59A SWAP2 SWAP1 PUSH2 0x36E2 JUMP JUMPDEST PUSH1 0x40 MLOAD DUP1 SWAP2 SUB SWAP1 RETURN JUMPDEST CALLVALUE DUP1 ISZERO PUSH2 0x5AF JUMPI PUSH1 0x0 DUP1 REVERT JUMPDEST POP PUSH2 0x5B8 PUSH2 0x1686 JUMP JUMPDEST PUSH1 0x40 MLOAD PUSH2 0x5C5 SWAP2 SWAP1 PUSH2 0x3C61 JUMP JUMPDEST PUSH1 0x40 MLOAD DUP1 SWAP2 SUB SWAP1 RETURN JUMPDEST CALLVALUE DUP1 ISZERO PUSH2 0x5DA JUMPI PUSH1 0x0 DUP1 REVERT JUMPDEST POP PUSH2 0x5E3 PUSH2 0x16B0 JUMP JUMPDEST PUSH1 0x40 MLOAD PUSH2 0x5F0 SWAP2 SWAP1 PUSH2 0x35AE JUMP JUMPDEST PUSH1 0x40 MLOAD DUP1 SWAP2 SUB SWAP1 RETURN JUMPDEST CALLVALUE DUP1 ISZERO PUSH2 0x605 JUMPI PUSH1 0x0 DUP1 REVERT JUMPDEST POP PUSH2 0x60E PUSH2 0x16B6 JUMP JUMPDEST PUSH1 0x40 MLOAD PUSH2 0x61B SWAP2 SWAP1 PUSH2 0x35AE JUMP JUMPDEST PUSH1 0x40 MLOAD DUP1 SWAP2 SUB SWAP1 RETURN JUMPDEST CALLVALUE DUP1 ISZERO PUSH2 0x630 JUMPI PUSH1 0x0 DUP1 REVERT JUMPDEST POP PUSH2 0x64B PUSH1 0x4 DUP1 CALLDATASIZE SUB DUP2 ADD SWAP1 PUSH2 0x646 SWAP2 SWAP1 PUSH2 0x3572 JUMP JUMPDEST PUSH2 0x16BC JUMP JUMPDEST STOP JUMPDEST CALLVALUE DUP1 ISZERO PUSH2 0x659 JUMPI PUSH1 0x0 DUP1 REVERT JUMPDEST POP PUSH2 0x662 PUSH2 0x17FC JUMP JUMPDEST PUSH1 0x40 MLOAD PUSH2 0x66F SWAP2 SWAP1 PUSH2 0x3C61 JUMP JUMPDEST PUSH1 0x40 MLOAD DUP1 SWAP2 SUB SWAP1 RETURN JUMPDEST CALLVALUE DUP1 ISZERO PUSH2 0x684 JUMPI PUSH1 0x0 DUP1 REVERT JUMPDEST POP PUSH2 0x69F PUSH1 0x4 DUP1 CALLDATASIZE SUB DUP2 ADD SWAP1 PUSH2 0x69A SWAP2 SWAP1 PUSH2 0x3C7C JUMP JUMPDEST PUSH2 0x1820 JUMP JUMPDEST PUSH1 0x40 MLOAD PUSH2 0x6AC SWAP2 SWAP1 PUSH2 0x3D67 JUMP JUMPDEST PUSH1 0x40 MLOAD DUP1 SWAP2 SUB SWAP1 RETURN JUMPDEST CALLVALUE DUP1 ISZERO PUSH2 0x6C1 JUMPI PUSH1 0x0 DUP1 REVERT JUMPDEST POP PUSH2 0x6DC PUSH1 0x4 DUP1 CALLDATASIZE SUB DUP2 ADD SWAP1 PUSH2 0x6D7 SWAP2 SWAP1 PUSH2 0x3B10 JUMP JUMPDEST PUSH2 0x18B7 JUMP JUMPDEST STOP JUMPDEST CALLVALUE DUP1 ISZERO PUSH2 0x6EA JUMPI PUSH1 0x0 DUP1 REVERT JUMPDEST POP PUSH2 0x705 PUSH1 0x4 DUP1 CALLDATASIZE SUB DUP2 ADD SWAP1 PUSH2 0x700 SWAP2 SWAP1 PUSH2 0x3572 JUMP JUMPDEST PUSH2 0x190E JUMP JUMPDEST PUSH1 0x40 MLOAD PUSH2 0x719 SWAP9 SWAP8 SWAP7 SWAP6 SWAP5 SWAP4 SWAP3 SWAP2 SWAP1 PUSH2 0x3D89 JUMP JUMPDEST PUSH1 0x40 MLOAD DUP1 SWAP2 SUB SWAP1 RETURN JUMPDEST CALLVALUE DUP1 ISZERO PUSH2 0x72E JUMPI PUSH1 0x0 DUP1 REVERT JUMPDEST POP PUSH2 0x737 PUSH2 0x1A0B JUMP JUMPDEST PUSH1 0x40 MLOAD PUSH2 0x744 SWAP2 SWAP1 PUSH2 0x35AE JUMP JUMPDEST PUSH1 0x40 MLOAD DUP1 SWAP2 SUB SWAP1 RETURN JUMPDEST PUSH2 0x767 PUSH1 0x4 DUP1 CALLDATASIZE SUB DUP2 ADD SWAP1 PUSH2 0x762 SWAP2 SWAP1 PUSH2 0x3E0E JUMP JUMPDEST PUSH2 0x1A10 JUMP JUMPDEST STOP JUMPDEST CALLVALUE DUP1 ISZERO PUSH2 0x775 JUMPI PUSH1 0x0 DUP1 REVERT JUMPDEST POP PUSH2 0x77E PUSH2 0x1A2E JUMP JUMPDEST PUSH1 0x40 MLOAD PUSH2 0x78B SWAP2 SWAP1 PUSH2 0x35AE JUMP JUMPDEST PUSH1 0x40 MLOAD DUP1 SWAP2 SUB SWAP1 RETURN JUMPDEST CALLVALUE DUP1 ISZERO PUSH2 0x7A0 JUMPI PUSH1 0x0 DUP1 REVERT JUMPDEST POP PUSH2 0x7A9 PUSH2 0x1A34 JUMP JUMPDEST PUSH1 0x40 MLOAD PUSH2 0x7B6 SWAP2 SWAP1 PUSH2 0x35AE JUMP JUMPDEST PUSH1 0x40 MLOAD DUP1 SWAP2 SUB SWAP1 RETURN JUMPDEST CALLVALUE DUP1 ISZERO PUSH2 0x7CB JUMPI PUSH1 0x0 DUP1 REVERT JUMPDEST POP PUSH2 0x7D4 PUSH2 0x1A3E JUMP JUMPDEST PUSH1 0x40 MLOAD PUSH2 0x7E1 SWAP2 SWAP1 PUSH2 0x35AE JUMP JUMPDEST PUSH1 0x40 MLOAD DUP1 SWAP2 SUB SWAP1 RETURN JUMPDEST CALLVALUE DUP1 ISZERO PUSH2 0x7F6 JUMPI PUSH1 0x0 DUP1 REVERT JUMPDEST POP PUSH2 0x811 PUSH1 0x4 DUP1 CALLDATASIZE SUB DUP2 ADD SWAP1 PUSH2 0x80C SWAP2 SWAP1 PUSH2 0x3C7C JUMP JUMPDEST PUSH2 0x1A44 JUMP JUMPDEST STOP JUMPDEST CALLVALUE DUP1 ISZERO PUSH2 0x81F JUMPI PUSH1 0x0 DUP1 REVERT JUMPDEST POP PUSH2 0x83A PUSH1 0x4 DUP1 CALLDATASIZE SUB DUP2 ADD SWAP1 PUSH2 0x835 SWAP2 SWAP1 PUSH2 0x3B10 JUMP JUMPDEST PUSH2 0x1ACA JUMP JUMPDEST STOP JUMPDEST CALLVALUE DUP1 ISZERO PUSH2 0x848 JUMPI PUSH1 0x0 DUP1 REVERT JUMPDEST POP PUSH2 0x851 PUSH2 0x1D06 JUMP JUMPDEST PUSH1 0x40 MLOAD PUSH2 0x85E SWAP2 SWAP1 PUSH2 0x35AE JUMP JUMPDEST PUSH1 0x40 MLOAD DUP1 SWAP2 SUB SWAP1 RETURN JUMPDEST PUSH1 0x0 PUSH1 0x8 PUSH1 0x0 DUP4 DUP2 MSTORE PUSH1 0x20 ADD SWAP1 DUP2 MSTORE PUSH1 0x20 ADD PUSH1 0x0 KECCAK256 SWAP1 POP PUSH1 0x0 PUSH20 0xFFFFFFFFFFFFFFFFFFFFFFFFFFFFFFFFFFFFFFFF AND DUP2 PUSH1 0x0 ADD PUSH1 0x0 SWAP1 SLOAD SWAP1 PUSH2 0x100 EXP SWAP1 DIV PUSH20 0xFFFFFFFFFFFFFFFFFFFFFFFFFFFFFFFFFFFFFFFF AND PUSH20 0xFFFFFFFFFFFFFFFFFFFFFFFFFFFFFFFFFFFFFFFF AND SUB PUSH2 0x911 JUMPI PUSH1 0x40 MLOAD PUSH32 0x8C379A000000000000000000000000000000000000000000000000000000000 DUP2 MSTORE PUSH1 0x4 ADD PUSH2 0x908 SWAP1 PUSH2 0x3EB6 JUMP JUMPDEST PUSH1 0x40 MLOAD DUP1 SWAP2 SUB SWAP1 REVERT JUMPDEST DUP1 PUSH1 0x4 ADD SLOAD TIMESTAMP LT ISZERO PUSH2 0x958 JUMPI PUSH1 0x40 MLOAD PUSH32 0x8C379A000000000000000000000000000000000000000000000000000000000 DUP2 MSTORE PUSH1 0x4 ADD PUSH2 0x94F SWAP1 PUSH2 0x3F22 JUMP JUMPDEST PUSH1 0x40 MLOAD DUP1 SWAP2 SUB SWAP1 REVERT JUMPDEST PUSH1 0x3 DUP1 DUP2 GT ISZERO PUSH2 0x96B JUMPI PUSH2 0x96A PUSH2 0x379C JUMP JUMPDEST JUMPDEST DUP2 PUSH1 0x7 ADD PUSH1 0x0 SWAP1 SLOAD SWAP1 PUSH2 0x100 EXP SWAP1 DIV PUSH1 0xFF AND PUSH1 0x3 DUP2 GT ISZERO PUSH2 0x98F JUMPI PUSH2 0x98E PUSH2 0x379C JUMP JUMPDEST JUMPDEST EQ ISZERO DUP1 ISZERO PUSH2 0x9BD JUMPI POP PUSH1 0x0 DUP2 PUSH1 0x5 ADD SLOAD EQ DUP1 PUSH2 0x9BC JUMPI POP PUSH1 0x12 SLOAD DUP2 PUSH1 0x5 ADD SLOAD PUSH2 0x9B8 SWAP2 SWAP1 PUSH2 0x34F4 JUMP JUMPDEST TIMESTAMP LT ISZERO JUMPDEST JUMPDEST PUSH2 0x9FC JUMPI PUSH1 0x40 MLOAD PUSH32 0x8C379A000000000000000000000000000000000000000000000000000000000 DUP2 MSTORE PUSH1 0x4 ADD PUSH2 0x9F3 SWAP1 PUSH2 0x3FB4 JUMP JUMPDEST PUSH1 0x40 MLOAD DUP1 SWAP2 SUB SWAP1 REVERT JUMPDEST TIMESTAMP DUP2 PUSH1 0x5 ADD DUP2 SWAP1 SSTORE POP PUSH1 0x0 PUSH2 0xA1B PUSH1 0x16 SLOAD ADDRESS PUSH4 0x4357855E PUSH1 0xE0 SHL PUSH2 0x1D0C JUMP JUMPDEST SWAP1 POP PUSH1 0x0 PUSH2 0xA2C DUP4 PUSH1 0x4 ADD SLOAD PUSH2 0x1D3D JUMP JUMPDEST SWAP1 POP PUSH1 0x0 DUP4 PUSH1 0x1 ADD DUP3 PUSH1 0x40 MLOAD PUSH1 0x20 ADD PUSH2 0xA46 SWAP3 SWAP2 SWAP1 PUSH2 0x41EC JUMP JUMPDEST PUSH1 0x40 MLOAD PUSH1 0x20 DUP2 DUP4 SUB SUB DUP2 MSTORE SWAP1 PUSH1 0x40 MSTORE SWAP1 POP PUSH2 0xAD6 PUSH1 0x40 MLOAD DUP1 PUSH1 0x40 ADD PUSH1 0x40 MSTORE DUP1 PUSH1 0x6 DUP2 MSTORE PUSH1 0x20 ADD PUSH32 0x6D6574686F640000000000000000000000000000000000000000000000000000 DUP2 MSTORE POP PUSH1 0x40 MLOAD DUP1 PUSH1 0x40 ADD PUSH1 0x40 MSTORE DUP1 PUSH1 0x3 DUP2 MSTORE PUSH1 0x20 ADD PUSH32 0x4745540000000000000000000000000000000000000000000000000000000000 DUP2 MSTORE POP DUP6 PUSH2 0x1E17 SWAP1 SWAP3 SWAP2 SWAP1 PUSH4 0xFFFFFFFF AND JUMP JUMPDEST PUSH2 0xB20 PUSH1 0x40 MLOAD DUP1 PUSH1 0x40 ADD PUSH1 0x40 MSTORE DUP1 PUSH1 0x3 DUP2 MSTORE PUSH1 0x20 ADD PUSH32 0x75726C0000000000000000000000000000000000000000000000000000000000 DUP2 MSTORE POP DUP3 DUP6 PUSH2 0x1E17 SWAP1 SWAP3 SWAP2 SWAP1 PUSH4 0xFFFFFFFF AND JUMP JUMPDEST PUSH2 0xB79 PUSH1 0x40 MLOAD DUP1 PUSH1 0x40 ADD PUSH1 0x40 MSTORE DUP1 PUSH1 0x7 DUP2 MSTORE PUSH1 0x20 ADD PUSH32 0x6865616465727300000000000000000000000000000000000000000000000000 DUP2 MSTORE POP PUSH1 0x40 MLOAD DUP1 PUSH1 0x20 ADD PUSH1 0x40 MSTORE DUP1 PUSH1 0x0 DUP2 MSTORE POP DUP6 PUSH2 0x1E17 SWAP1 SWAP3 SWAP2 SWAP1 PUSH4 0xFFFFFFFF AND JUMP JUMPDEST PUSH2 0xBD2 PUSH1 0x40 MLOAD DUP1 PUSH1 0x40 ADD PUSH1 0x40 MSTORE DUP1 PUSH1 0x4 DUP2 MSTORE PUSH1 0x20 ADD PUSH32 0x626F647900000000000000000000000000000000000000000000000000000000 DUP2 MSTORE POP PUSH1 0x40 MLOAD DUP1 PUSH1 0x20 ADD PUSH1 0x40 MSTORE DUP1 PUSH1 0x0 DUP2 MSTORE POP DUP6 PUSH2 0x1E17 SWAP1 SWAP3 SWAP2 SWAP1 PUSH4 0xFFFFFFFF AND JUMP JUMPDEST PUSH2 0xC51 PUSH1 0x40 MLOAD DUP1 PUSH1 0x40 ADD PUSH1 0x40 MSTORE DUP1 PUSH1 0x4 DUP2 MSTORE PUSH1 0x20 ADD PUSH32 0x7061746800000000000000000000000000000000000000000000000000000000 DUP2 MSTORE POP PUSH1 0x40 MLOAD DUP1 PUSH1 0x40 ADD PUSH1 0x40 MSTORE DUP1 PUSH1 0xD DUP2 MSTORE PUSH1 0x20 ADD PUSH32 0x64656C61795F6D696E7574657300000000000000000000000000000000000000 DUP2 MSTORE POP DUP6 PUSH2 0x1E17 SWAP1 SWAP3 SWAP2 SWAP1 PUSH4 0xFFFFFFFF AND JUMP JUMPDEST PUSH2 0xC9C PUSH1 0x40 MLOAD DUP1 PUSH1 0x40 ADD PUSH1 0x40 MSTORE DUP1 PUSH1 0xA DUP2 MSTORE PUSH1 0x20 ADD PUSH32 0x6D756C7469706C69657200000000000000000000000000000000000000000000 DUP2 MSTORE POP PUSH1 0x1 DUP6 PUSH2 0x1E4A SWAP1 SWAP3 SWAP2 SWAP1 PUSH4 0xFFFFFFFF AND JUMP JUMPDEST PUSH2 0xCF5 PUSH1 0x40 MLOAD DUP1 PUSH1 0x40 ADD PUSH1 0x40 MSTORE DUP1 PUSH1 0x7 DUP2 MSTORE PUSH1 0x20 ADD PUSH32 0x636F6E7461637400000000000000000000000000000000000000000000000000 DUP2 MSTORE POP PUSH1 0x40 MLOAD DUP1 PUSH1 0x20 ADD PUSH1 0x40 MSTORE DUP1 PUSH1 0x0 DUP2 MSTORE POP DUP6 PUSH2 0x1E17 SWAP1 SWAP3 SWAP2 SWAP1 PUSH4 0xFFFFFFFF AND JUMP JUMPDEST PUSH1 0x0 PUSH2 0xD26 PUSH1 0x15 PUSH1 0x0 SWAP1 SLOAD SWAP1 PUSH2 0x100 EXP SWAP1 DIV PUSH20 0xFFFFFFFFFFFFFFFFFFFFFFFFFFFFFFFFFFFFFFFF AND DUP6 PUSH1 0x17 SLOAD PUSH2 0x1E7D JUMP JUMPDEST SWAP1 POP DUP6 PUSH1 0x9 PUSH1 0x0 DUP4 DUP2 MSTORE PUSH1 0x20 ADD SWAP1 DUP2 MSTORE PUSH1 0x20 ADD PUSH1 0x0 KECCAK256 DUP2 SWAP1 SSTORE POP POP POP POP POP POP POP JUMP JUMPDEST PUSH1 0x0 PUSH1 0xF SLOAD SWAP1 POP SWAP1 JUMP JUMPDEST PUSH1 0x78 DUP2 JUMP JUMPDEST PUSH2 0xD5F PUSH2 0x1F49 JUMP JUMPDEST PUSH1 0x0 PUSH1 0x8 PUSH1 0x0 DUP5 DUP2 MSTORE PUSH1 0x20 ADD SWAP1 DUP2 MSTORE PUSH1 0x20 ADD PUSH1 0x0 KECCAK256 SWAP1 POP PUSH1 0x0 PUSH20 0xFFFFFFFFFFFFFFFFFFFFFFFFFFFFFFFFFFFFFFFF AND DUP2 PUSH1 0x0 ADD PUSH1 0x0 SWAP1 SLOAD SWAP1 PUSH2 0x100 EXP SWAP1 DIV PUSH20 0xFFFFFFFFFFFFFFFFFFFFFFFFFFFFFFFFFFFFFFFF AND PUSH20 0xFFFFFFFFFFFFFFFFFFFFFFFFFFFFFFFFFFFFFFFF AND SUB PUSH2 0xE09 JUMPI PUSH1 0x40 MLOAD PUSH32 0x8C379A000000000000000000000000000000000000000000000000000000000 DUP2 MSTORE PUSH1 0x4 ADD PUSH2 0xE00 SWAP1 PUSH2 0x3EB6 JUMP JUMPDEST PUSH1 0x40 MLOAD DUP1 SWAP2 SUB SWAP1 REVERT JUMPDEST DUP2 DUP2 PUSH1 0x4 ADD DUP2 SWAP1 SSTORE POP POP POP POP JUMP JUMPDEST PUSH1 0x11 SLOAD DUP2 JUMP JUMPDEST PUSH1 0xA PUSH1 0x20 MSTORE DUP2 PUSH1 0x0 MSTORE PUSH1 0x40 PUSH1 0x0 KECCAK256 DUP2 DUP2 SLOAD DUP2 LT PUSH2 0xE39 JUMPI PUSH1 0x0 DUP1 REVERT JUMPDEST SWAP1 PUSH1 0x0 MSTORE PUSH1 0x20 PUSH1 0x0 KECCAK256 ADD PUSH1 0x0 SWAP2 POP SWAP2 POP POP SLOAD DUP2 JUMP JUMPDEST PUSH1 0x0 PUSH1 0x60 PUSH1 0x0 DUP1 PUSH1 0x0 DUP1 PUSH1 0x0 DUP1 PUSH1 0x8 PUSH1 0x0 DUP11 DUP2 MSTORE PUSH1 0x20 ADD SWAP1 DUP2 MSTORE PUSH1 0x20 ADD PUSH1 0x0 KECCAK256 SWAP1 POP DUP1 PUSH1 0x0 ADD PUSH1 0x0 SWAP1 SLOAD SWAP1 PUSH2 0x100 EXP SWAP1 DIV PUSH20 0xFFFFFFFFFFFFFFFFFFFFFFFFFFFFFFFFFFFFFFFF AND DUP2 PUSH1 0x1 ADD DUP3 PUSH1 0x2 ADD SLOAD DUP4 PUSH1 0x4 ADD SLOAD DUP5 PUSH1 0x5 ADD SLOAD DUP6 PUSH1 0x6 ADD SLOAD DUP7 PUSH1 0x7 ADD PUSH1 0x0 SWAP1 SLOAD SWAP1 PUSH2 0x100 EXP SWAP1 DIV PUSH1 0xFF AND DUP6 DUP1 SLOAD PUSH2 0xECB SWAP1 PUSH2 0x40A6 JUMP JUMPDEST DUP1 PUSH1 0x1F ADD PUSH1 0x20 DUP1 SWAP2 DIV MUL PUSH1 0x20 ADD PUSH1 0x40 MLOAD SWAP1 DUP2 ADD PUSH1 0x40 MSTORE DUP1 SWAP3 SWAP2 SWAP1 DUP2 DUP2 MSTORE PUSH1 0x20 ADD DUP3 DUP1 SLOAD PUSH2 0xEF7 SWAP1 PUSH2 0x40A6 JUMP JUMPDEST DUP1 ISZERO PUSH2 0xF44 JUMPI DUP1 PUSH1 0x1F LT PUSH2 0xF19 JUMPI PUSH2 0x100 DUP1 DUP4 SLOAD DIV MUL DUP4 MSTORE SWAP2 PUSH1 0x20 ADD SWAP2 PUSH2 0xF44 JUMP JUMPDEST DUP3 ADD SWAP2 SWAP1 PUSH1 0x0 MSTORE PUSH1 0x20 PUSH1 0x0 KECCAK256 SWAP1 JUMPDEST DUP2 SLOAD DUP2 MSTORE SWAP1 PUSH1 0x1 ADD SWAP1 PUSH1 0x20 ADD DUP1 DUP4 GT PUSH2 0xF27 JUMPI DUP3 SWAP1 SUB PUSH1 0x1F AND DUP3 ADD SWAP2 JUMPDEST POP POP POP POP POP SWAP6 POP SWAP8 POP SWAP8 POP SWAP8 POP SWAP8 POP SWAP8 POP SWAP8 POP SWAP8 POP POP SWAP2 SWAP4 SWAP6 SWAP8 SWAP1 SWAP3 SWAP5 SWAP7 POP JUMP JUMPDEST PUSH1 0x12 SLOAD DUP2 JUMP JUMPDEST DUP2 PUSH1 0x5 PUSH1 0x0 DUP3 DUP2 MSTORE PUSH1 0x20 ADD SWAP1 DUP2 MSTORE PUSH1 0x20 ADD PUSH1 0x0 KECCAK256 PUSH1 0x0 SWAP1 SLOAD SWAP1 PUSH2 0x100 EXP SWAP1 DIV PUSH20 0xFFFFFFFFFFFFFFFFFFFFFFFFFFFFFFFFFFFFFFFF AND PUSH20 0xFFFFFFFFFFFFFFFFFFFFFFFFFFFFFFFFFFFFFFFF AND CALLER PUSH20 0xFFFFFFFFFFFFFFFFFFFFFFFFFFFFFFFFFFFFFFFF AND EQ PUSH2 0x100D JUMPI PUSH1 0x40 MLOAD PUSH32 0x8C379A000000000000000000000000000000000000000000000000000000000 DUP2 MSTORE PUSH1 0x4 ADD PUSH2 0x1004 SWAP1 PUSH2 0x4298 JUMP JUMPDEST PUSH1 0x40 MLOAD DUP1 SWAP2 SUB SWAP1 REVERT JUMPDEST PUSH1 0x5 PUSH1 0x0 DUP3 DUP2 MSTORE PUSH1 0x20 ADD SWAP1 DUP2 MSTORE PUSH1 0x20 ADD PUSH1 0x0 KECCAK256 PUSH1 0x0 PUSH2 0x100 EXP DUP2 SLOAD SWAP1 PUSH20 0xFFFFFFFFFFFFFFFFFFFFFFFFFFFFFFFFFFFFFFFF MUL NOT AND SWAP1 SSTORE DUP1 PUSH32 0x7CC135E0CEBB02C3480AE5D74D377283180A2601F8F644EDF7987B009316C63A PUSH1 0x40 MLOAD PUSH1 0x40 MLOAD DUP1 SWAP2 SUB SWAP1 LOG2 PUSH1 0x0 PUSH1 0x9 PUSH1 0x0 DUP6 DUP2 MSTORE PUSH1 0x20 ADD SWAP1 DUP2 MSTORE PUSH1 0x20 ADD PUSH1 0x0 KECCAK256 SLOAD SWAP1 POP PUSH1 0x0 DUP1 SHL DUP2 SUB PUSH2 0x10CD JUMPI PUSH1 0x40 MLOAD PUSH32 0x8C379A000000000000000000000000000000000000000000000000000000000 DUP2 MSTORE PUSH1 0x4 ADD PUSH2 0x10C4 SWAP1 PUSH2 0x4304 JUMP JUMPDEST PUSH1 0x40 MLOAD DUP1 SWAP2 SUB SWAP1 REVERT JUMPDEST PUSH1 0x0 PUSH1 0x8 PUSH1 0x0 DUP4 DUP2 MSTORE PUSH1 0x20 ADD SWAP1 DUP2 MSTORE PUSH1 0x20 ADD PUSH1 0x0 KECCAK256 SWAP1 POP DUP4 DUP2 PUSH1 0x6 ADD DUP2 SWAP1 SSTORE POP PUSH1 0x78 DUP5 LT PUSH2 0x1171 JUMPI PUSH1 0x2 DUP2 PUSH1 0x7 ADD PUSH1 0x0 PUSH2 0x100 EXP DUP2 SLOAD DUP2 PUSH1 0xFF MUL NOT AND SWAP1 DUP4 PUSH1 0x3 DUP2 GT ISZERO PUSH2 0x111D JUMPI PUSH2 0x111C PUSH2 0x379C JUMP JUMPDEST JUMPDEST MUL OR SWAP1 SSTORE POP PUSH32 0x8F83A66BE1CF452C7A5B0E8CE1B41CC37E1074AB39CF2B1FB786FDAF84FF3D2E DUP3 DUP3 PUSH1 0x1 ADD PUSH1 0x2 DUP8 PUSH1 0x40 MLOAD PUSH2 0x115B SWAP5 SWAP4 SWAP3 SWAP2 SWAP1 PUSH2 0x43A8 JUMP JUMPDEST PUSH1 0x40 MLOAD DUP1 SWAP2 SUB SWAP1 LOG1 PUSH2 0x116C DUP3 PUSH2 0x1FD0 JUMP JUMPDEST PUSH2 0x11E0 JUMP JUMPDEST PUSH1 0x1 DUP2 PUSH1 0x7 ADD PUSH1 0x0 PUSH2 0x100 EXP DUP2 SLOAD DUP2 PUSH1 0xFF MUL NOT AND SWAP1 DUP4 PUSH1 0x3 DUP2 GT ISZERO PUSH2 0x1199 JUMPI PUSH2 0x1198 PUSH2 0x379C JUMP JUMPDEST JUMPDEST MUL OR SWAP1 SSTORE POP PUSH32 0x8F83A66BE1CF452C7A5B0E8CE1B41CC37E1074AB39CF2B1FB786FDAF84FF3D2E DUP3 DUP3 PUSH1 0x1 ADD PUSH1 0x1 DUP8 PUSH1 0x40 MLOAD PUSH2 0x11D7 SWAP5 SWAP4 SWAP3 SWAP2 SWAP1 PUSH2 0x43A8 JUMP JUMPDEST PUSH1 0x40 MLOAD DUP1 SWAP2 SUB SWAP1 LOG1 JUMPDEST PUSH1 0x9 PUSH1 0x0 DUP7 DUP2 MSTORE PUSH1 0x20 ADD SWAP1 DUP2 MSTORE PUSH1 0x20 ADD PUSH1 0x0 KECCAK256 PUSH1 0x0 SWAP1 SSTORE POP POP POP POP POP JUMP JUMPDEST PUSH1 0x0 DUP1 DUP4 DUP4 DUP2 ADD SWAP1 PUSH2 0x1210 SWAP2 SWAP1 PUSH2 0x44B7 JUMP JUMPDEST SWAP2 POP SWAP2 POP PUSH1 0x0 JUMPDEST DUP3 MLOAD DUP2 LT ISZERO PUSH2 0x1346 JUMPI PUSH1 0x0 DUP4 DUP3 DUP2 MLOAD DUP2 LT PUSH2 0x1235 JUMPI PUSH2 0x1234 PUSH2 0x4513 JUMP JUMPDEST JUMPDEST PUSH1 0x20 MUL PUSH1 0x20 ADD ADD MLOAD SWAP1 POP PUSH1 0x0 PUSH1 0x8 PUSH1 0x0 DUP4 DUP2 MSTORE PUSH1 0x20 ADD SWAP1 DUP2 MSTORE PUSH1 0x20 ADD PUSH1 0x0 KECCAK256 SWAP1 POP PUSH1 0x0 PUSH20 0xFFFFFFFFFFFFFFFFFFFFFFFFFFFFFFFFFFFFFFFF AND DUP2 PUSH1 0x0 ADD PUSH1 0x0 SWAP1 SLOAD SWAP1 PUSH2 0x100 EXP SWAP1 DIV PUSH20 0xFFFFFFFFFFFFFFFFFFFFFFFFFFFFFFFFFFFFFFFF AND PUSH20 0xFFFFFFFFFFFFFFFFFFFFFFFFFFFFFFFFFFFFFFFF AND EQ ISZERO DUP1 ISZERO PUSH2 0x12BB JUMPI POP DUP1 PUSH1 0x4 ADD SLOAD TIMESTAMP LT ISZERO JUMPDEST DUP1 ISZERO PUSH2 0x12FC JUMPI POP PUSH1 0x3 DUP1 DUP2 GT ISZERO PUSH2 0x12D5 JUMPI PUSH2 0x12D4 PUSH2 0x379C JUMP JUMPDEST JUMPDEST DUP2 PUSH1 0x7 ADD PUSH1 0x0 SWAP1 SLOAD SWAP1 PUSH2 0x100 EXP SWAP1 DIV PUSH1 0xFF AND PUSH1 0x3 DUP2 GT ISZERO PUSH2 0x12F9 JUMPI PUSH2 0x12F8 PUSH2 0x379C JUMP JUMPDEST JUMPDEST EQ ISZERO JUMPDEST DUP1 ISZERO PUSH2 0x1328 JUMPI POP PUSH1 0x0 DUP2 PUSH1 0x5 ADD SLOAD EQ DUP1 PUSH2 0x1327 JUMPI POP PUSH1 0x12 SLOAD DUP2 PUSH1 0x5 ADD SLOAD PUSH2 0x1323 SWAP2 SWAP1 PUSH2 0x34F4 JUMP JUMPDEST TIMESTAMP LT ISZERO JUMPDEST JUMPDEST ISZERO PUSH2 0x1337 JUMPI PUSH2 0x1336 DUP3 PUSH2 0x867 JUMP JUMPDEST JUMPDEST POP POP DUP1 DUP1 PUSH1 0x1 ADD SWAP2 POP POP PUSH2 0x1217 JUMP JUMPDEST POP DUP1 PUSH1 0xD DUP2 SWAP1 SSTORE POP TIMESTAMP PUSH1 0x14 DUP2 SWAP1 SSTORE POP POP POP POP POP JUMP JUMPDEST PUSH1 0x0 PUSH1 0xB PUSH1 0x0 DUP6 PUSH20 0xFFFFFFFFFFFFFFFFFFFFFFFFFFFFFFFFFFFFFFFF AND PUSH20 0xFFFFFFFFFFFFFFFFFFFFFFFFFFFFFFFFFFFFFFFF AND DUP2 MSTORE PUSH1 0x20 ADD SWAP1 DUP2 MSTORE PUSH1 0x20 ADD PUSH1 0x0 KECCAK256 DUP4 PUSH1 0x40 MLOAD PUSH2 0x13AA SWAP2 SWAP1 PUSH2 0x4542 JUMP JUMPDEST SWAP1 DUP2 MSTORE PUSH1 0x20 ADD PUSH1 0x40 MLOAD DUP1 SWAP2 SUB SWAP1 KECCAK256 PUSH1 0x0 DUP4 DUP2 MSTORE PUSH1 0x20 ADD SWAP1 DUP2 MSTORE PUSH1 0x20 ADD PUSH1 0x0 KECCAK256 PUSH1 0x0 SWAP1 SLOAD SWAP1 PUSH2 0x100 EXP SWAP1 DIV PUSH1 0xFF AND SWAP1 POP SWAP4 SWAP3 POP POP POP JUMP JUMPDEST PUSH2 0x13E8 PUSH2 0x1F49 JUMP JUMPDEST PUSH1 0x3C DUP2 LT ISZERO PUSH2 0x142C JUMPI PUSH1 0x40 MLOAD PUSH32 0x8C379A000000000000000000000000000000000000000000000000000000000 DUP2 MSTORE PUSH1 0x4 ADD PUSH2 0x1423 SWAP1 PUSH2 0x45A5 JUMP JUMPDEST PUSH1 0x40 MLOAD DUP1 SWAP2 SUB SWAP1 REVERT JUMPDEST DUP1 PUSH1 0x13 DUP2 SWAP1 SSTORE POP POP JUMP JUMPDEST PUSH1 0x0 PUSH1 0x60 PUSH1 0x0 PUSH1 0x13 SLOAD PUSH1 0x14 SLOAD TIMESTAMP PUSH2 0x144D SWAP2 SWAP1 PUSH2 0x45C5 JUMP JUMPDEST LT ISZERO SWAP1 POP PUSH1 0x0 DUP1 PUSH1 0xC DUP1 SLOAD SWAP1 POP GT SWAP1 POP DUP2 DUP1 ISZERO PUSH2 0x1467 JUMPI POP DUP1 JUMPDEST SWAP4 POP DUP4 PUSH2 0x148B JUMPI PUSH1 0x0 PUSH1 0x40 MLOAD DUP1 PUSH1 0x20 ADD PUSH1 0x40 MSTORE DUP1 PUSH1 0x0 DUP2 MSTORE POP SWAP4 POP SWAP4 POP POP POP PUSH2 0x15C9 JUMP JUMPDEST PUSH1 0x0 PUSH1 0xA SWAP1 POP PUSH1 0x0 PUSH1 0xC DUP1 SLOAD SWAP1 POP PUSH1 0xD SLOAD PUSH2 0x14A6 SWAP2 SWAP1 PUSH2 0x4628 JUMP JUMPDEST SWAP1 POP PUSH1 0x0 DUP3 DUP3 PUSH2 0x14B6 SWAP2 SWAP1 PUSH2 0x34F4 JUMP JUMPDEST SWAP1 POP PUSH1 0xC DUP1 SLOAD SWAP1 POP DUP2 GT ISZERO PUSH2 0x14CE JUMPI PUSH1 0xC DUP1 SLOAD SWAP1 POP SWAP1 POP JUMPDEST PUSH1 0x0 DUP3 DUP3 PUSH2 0x14DC SWAP2 SWAP1 PUSH2 0x45C5 JUMP JUMPDEST PUSH8 0xFFFFFFFFFFFFFFFF DUP2 GT ISZERO PUSH2 0x14F5 JUMPI PUSH2 0x14F4 PUSH2 0x3940 JUMP JUMPDEST JUMPDEST PUSH1 0x40 MLOAD SWAP1 DUP1 DUP3 MSTORE DUP1 PUSH1 0x20 MUL PUSH1 0x20 ADD DUP3 ADD PUSH1 0x40 MSTORE DUP1 ISZERO PUSH2 0x1523 JUMPI DUP2 PUSH1 0x20 ADD PUSH1 0x20 DUP3 MUL DUP1 CALLDATASIZE DUP4 CALLDATACOPY DUP1 DUP3 ADD SWAP2 POP POP SWAP1 POP JUMPDEST POP SWAP1 POP PUSH1 0x0 DUP4 SWAP1 POP JUMPDEST DUP3 DUP2 LT ISZERO PUSH2 0x158A JUMPI PUSH1 0xC DUP2 DUP2 SLOAD DUP2 LT PUSH2 0x1548 JUMPI PUSH2 0x1547 PUSH2 0x4513 JUMP JUMPDEST JUMPDEST SWAP1 PUSH1 0x0 MSTORE PUSH1 0x20 PUSH1 0x0 KECCAK256 ADD SLOAD DUP3 DUP6 DUP4 PUSH2 0x1560 SWAP2 SWAP1 PUSH2 0x45C5 JUMP JUMPDEST DUP2 MLOAD DUP2 LT PUSH2 0x1571 JUMPI PUSH2 0x1570 PUSH2 0x4513 JUMP JUMPDEST JUMPDEST PUSH1 0x20 MUL PUSH1 0x20 ADD ADD DUP2 DUP2 MSTORE POP POP DUP1 DUP1 PUSH1 0x1 ADD SWAP2 POP POP PUSH2 0x152C JUMP JUMPDEST POP DUP8 DUP2 PUSH1 0xC DUP1 SLOAD SWAP1 POP DUP5 PUSH2 0x159E SWAP2 SWAP1 PUSH2 0x4628 JUMP JUMPDEST PUSH1 0x40 MLOAD PUSH1 0x20 ADD PUSH2 0x15AF SWAP3 SWAP2 SWAP1 PUSH2 0x4659 JUMP JUMPDEST PUSH1 0x40 MLOAD PUSH1 0x20 DUP2 DUP4 SUB SUB DUP2 MSTORE SWAP1 PUSH1 0x40 MSTORE SWAP8 POP SWAP8 POP POP POP POP POP POP POP JUMPDEST SWAP3 POP SWAP3 SWAP1 POP JUMP JUMPDEST PUSH1 0xB PUSH1 0x20 MSTORE DUP3 PUSH1 0x0 MSTORE PUSH1 0x40 PUSH1 0x0 KECCAK256 DUP3 DUP1 MLOAD PUSH1 0x20 DUP2 ADD DUP3 ADD DUP1 MLOAD DUP5 DUP3 MSTORE PUSH1 0x20 DUP4 ADD PUSH1 0x20 DUP6 ADD KECCAK256 DUP2 DUP4 MSTORE DUP1 SWAP6 POP POP POP POP POP POP PUSH1 0x20 MSTORE DUP1 PUSH1 0x0 MSTORE PUSH1 0x40 PUSH1 0x0 KECCAK256 PUSH1 0x0 SWAP3 POP SWAP3 POP POP SWAP1 SLOAD SWAP1 PUSH2 0x100 EXP SWAP1 DIV PUSH1 0xFF AND DUP2 JUMP JUMPDEST PUSH2 0x162A PUSH2 0x1F49 JUMP JUMPDEST PUSH2 0x1634 PUSH1 0x0 PUSH2 0x224C JUMP JUMPDEST JUMP JUMPDEST PUSH2 0x163E PUSH2 0x2312 JUMP JUMPDEST PUSH2 0x1648 DUP5 DUP5 PUSH2 0x2358 JUMP JUMPDEST PUSH2 0x1650 PUSH2 0x2823 JUMP JUMPDEST POP POP POP POP JUMP JUMPDEST PUSH1 0x13 SLOAD DUP2 JUMP JUMPDEST PUSH1 0x10 SLOAD DUP2 JUMP JUMPDEST PUSH1 0xC DUP2 DUP2 SLOAD DUP2 LT PUSH2 0x1672 JUMPI PUSH1 0x0 DUP1 REVERT JUMPDEST SWAP1 PUSH1 0x0 MSTORE PUSH1 0x20 PUSH1 0x0 KECCAK256 ADD PUSH1 0x0 SWAP2 POP SWAP1 POP SLOAD DUP2 JUMP JUMPDEST PUSH1 0x0 PUSH1 0x6 PUSH1 0x0 SWAP1 SLOAD SWAP1 PUSH2 0x100 EXP SWAP1 DIV PUSH20 0xFFFFFFFFFFFFFFFFFFFFFFFFFFFFFFFFFFFFFFFF AND SWAP1 POP SWAP1 JUMP JUMPDEST PUSH1 0x14 SLOAD DUP2 JUMP JUMPDEST PUSH1 0xD SLOAD DUP2 JUMP JUMPDEST PUSH2 0x16C4 PUSH2 0x1F49 JUMP JUMPDEST PUSH1 0x0 PUSH1 0x8 PUSH1 0x0 DUP4 DUP2 MSTORE PUSH1 0x20 ADD SWAP1 DUP2 MSTORE PUSH1 0x20 ADD PUSH1 0x0 KECCAK256 SWAP1 POP PUSH1 0x0 PUSH20 0xFFFFFFFFFFFFFFFFFFFFFFFFFFFFFFFFFFFFFFFF AND DUP2 PUSH1 0x0 ADD PUSH1 0x0 SWAP1 SLOAD SWAP1 PUSH2 0x100 EXP SWAP1 DIV PUSH20 0xFFFFFFFFFFFFFFFFFFFFFFFFFFFFFFFFFFFFFFFF AND PUSH20 0xFFFFFFFFFFFFFFFFFFFFFFFFFFFFFFFFFFFFFFFF AND SUB PUSH2 0x176E JUMPI PUSH1 0x40 MLOAD PUSH32 0x8C379A000000000000000000000000000000000000000000000000000000000 DUP2 MSTORE PUSH1 0x4 ADD PUSH2 0x1765 SWAP1 PUSH2 0x3EB6 JUMP JUMPDEST PUSH1 0x40 MLOAD DUP1 SWAP2 SUB SWAP1 REVERT JUMPDEST PUSH1 0x3 DUP1 DUP2 GT ISZERO PUSH2 0x1781 JUMPI PUSH2 0x1780 PUSH2 0x379C JUMP JUMPDEST JUMPDEST DUP2 PUSH1 0x7 ADD PUSH1 0x0 SWAP1 SLOAD SWAP1 PUSH2 0x100 EXP SWAP1 DIV PUSH1 0xFF AND PUSH1 0x3 DUP2 GT ISZERO PUSH2 0x17A5 JUMPI PUSH2 0x17A4 PUSH2 0x379C JUMP JUMPDEST JUMPDEST SUB PUSH2 0x17E5 JUMPI PUSH1 0x40 MLOAD PUSH32 0x8C379A000000000000000000000000000000000000000000000000000000000 DUP2 MSTORE PUSH1 0x4 ADD PUSH2 0x17DC SWAP1 PUSH2 0x46D5 JUMP JUMPDEST PUSH1 0x40 MLOAD DUP1 SWAP2 SUB SWAP1 REVERT JUMPDEST PUSH1 0x0 DUP2 PUSH1 0x5 ADD DUP2 SWAP1 SSTORE POP PUSH2 0x17F8 DUP3 PUSH2 0x867 JUMP JUMPDEST POP POP JUMP JUMPDEST PUSH32 0x0 DUP2 JUMP JUMPDEST PUSH1 0x60 PUSH1 0xA PUSH1 0x0 DUP4 PUSH20 0xFFFFFFFFFFFFFFFFFFFFFFFFFFFFFFFFFFFFFFFF AND PUSH20 0xFFFFFFFFFFFFFFFFFFFFFFFFFFFFFFFFFFFFFFFF AND DUP2 MSTORE PUSH1 0x20 ADD SWAP1 DUP2 MSTORE PUSH1 0x20 ADD PUSH1 0x0 KECCAK256 DUP1 SLOAD DUP1 PUSH1 0x20 MUL PUSH1 0x20 ADD PUSH1 0x40 MLOAD SWAP1 DUP2 ADD PUSH1 0x40 MSTORE DUP1 SWAP3 SWAP2 SWAP1 DUP2 DUP2 MSTORE PUSH1 0x20 ADD DUP3 DUP1 SLOAD DUP1 ISZERO PUSH2 0x18AB JUMPI PUSH1 0x20 MUL DUP3 ADD SWAP2 SWAP1 PUSH1 0x0 MSTORE PUSH1 0x20 PUSH1 0x0 KECCAK256 SWAP1 JUMPDEST DUP2 SLOAD DUP2 MSTORE PUSH1 0x20 ADD SWAP1 PUSH1 0x1 ADD SWAP1 DUP1 DUP4 GT PUSH2 0x1897 JUMPI JUMPDEST POP POP POP POP POP SWAP1 POP SWAP2 SWAP1 POP JUMP JUMPDEST PUSH2 0x18BF PUSH2 0x1F49 JUMP JUMPDEST PUSH2 0x12C DUP2 LT ISZERO PUSH2 0x1904 JUMPI PUSH1 0x40 MLOAD PUSH32 0x8C379A000000000000000000000000000000000000000000000000000000000 DUP2 MSTORE PUSH1 0x4 ADD PUSH2 0x18FB SWAP1 PUSH2 0x45A5 JUMP JUMPDEST PUSH1 0x40 MLOAD DUP1 SWAP2 SUB SWAP1 REVERT JUMPDEST DUP1 PUSH1 0x12 DUP2 SWAP1 SSTORE POP POP JUMP JUMPDEST PUSH1 0x8 PUSH1 0x20 MSTORE DUP1 PUSH1 0x0 MSTORE PUSH1 0x40 PUSH1 0x0 KECCAK256 PUSH1 0x0 SWAP2 POP SWAP1 POP DUP1 PUSH1 0x0 ADD PUSH1 0x0 SWAP1 SLOAD SWAP1 PUSH2 0x100 EXP SWAP1 DIV PUSH20 0xFFFFFFFFFFFFFFFFFFFFFFFFFFFFFFFFFFFFFFFF AND SWAP1 DUP1 PUSH1 0x1 ADD DUP1 SLOAD PUSH2 0x1957 SWAP1 PUSH2 0x40A6 JUMP JUMPDEST DUP1 PUSH1 0x1F ADD PUSH1 0x20 DUP1 SWAP2 DIV MUL PUSH1 0x20 ADD PUSH1 0x40 MLOAD SWAP1 DUP2 ADD PUSH1 0x40 MSTORE DUP1 SWAP3 SWAP2 SWAP1 DUP2 DUP2 MSTORE PUSH1 0x20 ADD DUP3 DUP1 SLOAD PUSH2 0x1983 SWAP1 PUSH2 0x40A6 JUMP JUMPDEST DUP1 ISZERO PUSH2 0x19D0 JUMPI DUP1 PUSH1 0x1F LT PUSH2 0x19A5 JUMPI PUSH2 0x100 DUP1 DUP4 SLOAD DIV MUL DUP4 MSTORE SWAP2 PUSH1 0x20 ADD SWAP2 PUSH2 0x19D0 JUMP JUMPDEST DUP3 ADD SWAP2 SWAP1 PUSH1 0x0 MSTORE PUSH1 0x20 PUSH1 0x0 KECCAK256 SWAP1 JUMPDEST DUP2 SLOAD DUP2 MSTORE SWAP1 PUSH1 0x1 ADD SWAP1 PUSH1 0x20 ADD DUP1 DUP4 GT PUSH2 0x19B3 JUMPI DUP3 SWAP1 SUB PUSH1 0x1F AND DUP3 ADD SWAP2 JUMPDEST POP POP POP POP POP SWAP1 DUP1 PUSH1 0x2 ADD SLOAD SWAP1 DUP1 PUSH1 0x3 ADD SLOAD SWAP1 DUP1 PUSH1 0x4 ADD SLOAD SWAP1 DUP1 PUSH1 0x5 ADD SLOAD SWAP1 DUP1 PUSH1 0x6 ADD SLOAD SWAP1 DUP1 PUSH1 0x7 ADD PUSH1 0x0 SWAP1 SLOAD SWAP1 PUSH2 0x100 EXP SWAP1 DIV PUSH1 0xFF AND SWAP1 POP DUP9 JUMP JUMPDEST PUSH1 0x14 DUP2 JUMP JUMPDEST PUSH2 0x1A18 PUSH2 0x2312 JUMP JUMPDEST PUSH2 0x1A22 DUP3 DUP3 PUSH2 0x2358 JUMP JUMPDEST PUSH2 0x1A2A PUSH2 0x2823 JUMP JUMPDEST POP POP JUMP JUMPDEST PUSH2 0x12C DUP2 JUMP JUMPDEST PUSH1 0x0 PUSH1 0x11 SLOAD SWAP1 POP SWAP1 JUMP JUMPDEST PUSH1 0xE SLOAD DUP2 JUMP JUMPDEST PUSH2 0x1A4C PUSH2 0x1F49 JUMP JUMPDEST PUSH1 0x0 PUSH20 0xFFFFFFFFFFFFFFFFFFFFFFFFFFFFFFFFFFFFFFFF AND DUP2 PUSH20 0xFFFFFFFFFFFFFFFFFFFFFFFFFFFFFFFFFFFFFFFF AND SUB PUSH2 0x1ABE JUMPI PUSH1 0x0 PUSH1 0x40 MLOAD PUSH32 0x1E4FBDF700000000000000000000000000000000000000000000000000000000 DUP2 MSTORE PUSH1 0x4 ADD PUSH2 0x1AB5 SWAP2 SWAP1 PUSH2 0x3C61 JUMP JUMPDEST PUSH1 0x40 MLOAD DUP1 SWAP2 SUB SWAP1 REVERT JUMPDEST PUSH2 0x1AC7 DUP2 PUSH2 0x224C JUMP JUMPDEST POP JUMP JUMPDEST PUSH2 0x1AD2 PUSH2 0x2312 JUMP JUMPDEST PUSH32 0x0 PUSH20 0xFFFFFFFFFFFFFFFFFFFFFFFFFFFFFFFFFFFFFFFF AND CALLER PUSH20 0xFFFFFFFFFFFFFFFFFFFFFFFFFFFFFFFFFFFFFFFF AND EQ PUSH2 0x1B60 JUMPI PUSH1 0x40 MLOAD PUSH32 0x8C379A000000000000000000000000000000000000000000000000000000000 DUP2 MSTORE PUSH1 0x4 ADD PUSH2 0x1B57 SWAP1 PUSH2 0x4741 JUMP JUMPDEST PUSH1 0x40 MLOAD DUP1 SWAP2 SUB SWAP1 REVERT JUMPDEST PUSH1 0xF SLOAD DUP2 GT ISZERO PUSH2 0x1BA5 JUMPI PUSH1 0x40 MLOAD PUSH32 0x8C379A000000000000000000000000000000000000000000000000000000000 DUP2 MSTORE PUSH1 0x4 ADD PUSH2 0x1B9C SWAP1 PUSH2 0x47D3 JUMP JUMPDEST PUSH1 0x40 MLOAD DUP1 SWAP2 SUB SWAP1 REVERT JUMPDEST DUP1 PUSH1 0xF PUSH1 0x0 DUP3 DUP3 SLOAD PUSH2 0x1BB7 SWAP2 SWAP1 PUSH2 0x45C5 JUMP JUMPDEST SWAP3 POP POP DUP2 SWAP1 SSTORE POP PUSH1 0x0 PUSH32 0x0 PUSH20 0xFFFFFFFFFFFFFFFFFFFFFFFFFFFFFFFFFFFFFFFF AND DUP3 PUSH1 0x40 MLOAD PUSH2 0x1C04 SWAP1 PUSH2 0x4824 JUMP JUMPDEST PUSH1 0x0 PUSH1 0x40 MLOAD DUP1 DUP4 SUB DUP2 DUP6 DUP8 GAS CALL SWAP3 POP POP POP RETURNDATASIZE DUP1 PUSH1 0x0 DUP2 EQ PUSH2 0x1C41 JUMPI PUSH1 0x40 MLOAD SWAP2 POP PUSH1 0x1F NOT PUSH1 0x3F RETURNDATASIZE ADD AND DUP3 ADD PUSH1 0x40 MSTORE RETURNDATASIZE DUP3 MSTORE RETURNDATASIZE PUSH1 0x0 PUSH1 0x20 DUP5 ADD RETURNDATACOPY PUSH2 0x1C46 JUMP JUMPDEST PUSH1 0x60 SWAP2 POP JUMPDEST POP POP SWAP1 POP DUP1 PUSH2 0x1C8A JUMPI PUSH1 0x40 MLOAD PUSH32 0x8C379A000000000000000000000000000000000000000000000000000000000 DUP2 MSTORE PUSH1 0x4 ADD PUSH2 0x1C81 SWAP1 PUSH2 0x4885 JUMP JUMPDEST PUSH1 0x40 MLOAD DUP1 SWAP2 SUB SWAP1 REVERT JUMPDEST PUSH32 0x0 PUSH20 0xFFFFFFFFFFFFFFFFFFFFFFFFFFFFFFFFFFFFFFFF AND PUSH32 0xFBC3A599B784FE88772FC5ABCC07223F64CA0B13ACC341F4FB1E46BEF0510EB4 DUP4 TIMESTAMP PUSH1 0x40 MLOAD PUSH2 0x1CF2 SWAP3 SWAP2 SWAP1 PUSH2 0x48A5 JUMP JUMPDEST PUSH1 0x40 MLOAD DUP1 SWAP2 SUB SWAP1 LOG2 POP PUSH2 0x1D03 PUSH2 0x2823 JUMP JUMPDEST POP JUMP JUMPDEST PUSH1 0xF SLOAD DUP2 JUMP JUMPDEST PUSH2 0x1D14 PUSH2 0x3434 JUMP JUMPDEST PUSH2 0x1D1C PUSH2 0x3434 JUMP JUMPDEST PUSH2 0x1D33 DUP6 DUP6 DUP6 DUP5 PUSH2 0x282D SWAP1 SWAP4 SWAP3 SWAP2 SWAP1 PUSH4 0xFFFFFFFF AND JUMP JUMPDEST SWAP2 POP POP SWAP4 SWAP3 POP POP POP JUMP JUMPDEST PUSH1 0x60 PUSH1 0x0 DUP1 PUSH1 0x0 PUSH2 0x1D4D DUP6 PUSH2 0x28DD JUMP JUMPDEST SWAP3 POP SWAP3 POP SWAP3 POP PUSH1 0x0 PUSH2 0x1D5E DUP5 PUSH2 0x2A7B JUMP JUMPDEST SWAP1 POP PUSH1 0x0 PUSH1 0xA DUP5 LT PUSH2 0x1D78 JUMPI PUSH2 0x1D73 DUP5 PUSH2 0x2A7B JUMP JUMPDEST PUSH2 0x1DA1 JUMP JUMPDEST PUSH2 0x1D81 DUP5 PUSH2 0x2A7B JUMP JUMPDEST PUSH1 0x40 MLOAD PUSH1 0x20 ADD PUSH2 0x1D91 SWAP2 SWAP1 PUSH2 0x491A JUMP JUMPDEST PUSH1 0x40 MLOAD PUSH1 0x20 DUP2 DUP4 SUB SUB DUP2 MSTORE SWAP1 PUSH1 0x40 MSTORE JUMPDEST SWAP1 POP PUSH1 0x0 PUSH1 0xA DUP5 LT PUSH2 0x1DBB JUMPI PUSH2 0x1DB6 DUP5 PUSH2 0x2A7B JUMP JUMPDEST PUSH2 0x1DE4 JUMP JUMPDEST PUSH2 0x1DC4 DUP5 PUSH2 0x2A7B JUMP JUMPDEST PUSH1 0x40 MLOAD PUSH1 0x20 ADD PUSH2 0x1DD4 SWAP2 SWAP1 PUSH2 0x491A JUMP JUMPDEST PUSH1 0x40 MLOAD PUSH1 0x20 DUP2 DUP4 SUB SUB DUP2 MSTORE SWAP1 PUSH1 0x40 MSTORE JUMPDEST SWAP1 POP DUP3 DUP3 DUP3 PUSH1 0x40 MLOAD PUSH1 0x20 ADD PUSH2 0x1DFB SWAP4 SWAP3 SWAP2 SWAP1 PUSH2 0x4988 JUMP JUMPDEST PUSH1 0x40 MLOAD PUSH1 0x20 DUP2 DUP4 SUB SUB DUP2 MSTORE SWAP1 PUSH1 0x40 MSTORE SWAP7 POP POP POP POP POP POP POP SWAP2 SWAP1 POP JUMP JUMPDEST PUSH2 0x1E2E DUP3 DUP5 PUSH1 0x80 ADD MLOAD PUSH2 0x2BDB SWAP1 SWAP2 SWAP1 PUSH4 0xFFFFFFFF AND JUMP JUMPDEST PUSH2 0x1E45 DUP2 DUP5 PUSH1 0x80 ADD MLOAD PUSH2 0x2BDB SWAP1 SWAP2 SWAP1 PUSH4 0xFFFFFFFF AND JUMP JUMPDEST POP POP POP JUMP JUMPDEST PUSH2 0x1E61 DUP3 DUP5 PUSH1 0x80 ADD MLOAD PUSH2 0x2BDB SWAP1 SWAP2 SWAP1 PUSH4 0xFFFFFFFF AND JUMP JUMPDEST PUSH2 0x1E78 DUP2 DUP5 PUSH1 0x80 ADD MLOAD PUSH2 0x2C00 SWAP1 SWAP2 SWAP1 PUSH4 0xFFFFFFFF AND JUMP JUMPDEST POP POP POP JUMP JUMPDEST PUSH1 0x0 DUP1 PUSH1 0x4 SLOAD SWAP1 POP PUSH1 0x1 DUP2 PUSH2 0x1E92 SWAP2 SWAP1 PUSH2 0x34F4 JUMP JUMPDEST PUSH1 0x4 DUP2 SWAP1 SSTORE POP PUSH1 0x0 PUSH4 0x40429946 PUSH1 0xE0 SHL PUSH1 0x0 DUP1 DUP8 PUSH1 0x0 ADD MLOAD ADDRESS DUP10 PUSH1 0x40 ADD MLOAD DUP8 PUSH1 0x1 DUP13 PUSH1 0x80 ADD MLOAD PUSH1 0x0 ADD MLOAD PUSH1 0x40 MLOAD PUSH1 0x24 ADD PUSH2 0x1ED3 SWAP9 SWAP8 SWAP7 SWAP6 SWAP5 SWAP4 SWAP3 SWAP2 SWAP1 PUSH2 0x4A0A JUMP JUMPDEST PUSH1 0x40 MLOAD PUSH1 0x20 DUP2 DUP4 SUB SUB DUP2 MSTORE SWAP1 PUSH1 0x40 MSTORE SWAP1 PUSH28 0xFFFFFFFFFFFFFFFFFFFFFFFFFFFFFFFFFFFFFFFFFFFFFFFFFFFFFFFF NOT AND PUSH1 0x20 DUP3 ADD DUP1 MLOAD PUSH28 0xFFFFFFFFFFFFFFFFFFFFFFFFFFFFFFFFFFFFFFFFFFFFFFFFFFFFFFFF DUP4 DUP2 DUP4 AND OR DUP4 MSTORE POP POP POP POP SWAP1 POP PUSH2 0x1F3E DUP7 DUP4 DUP7 DUP5 PUSH2 0x2CAD JUMP JUMPDEST SWAP3 POP POP POP SWAP4 SWAP3 POP POP POP JUMP JUMPDEST PUSH2 0x1F51 PUSH2 0x2E42 JUMP JUMPDEST PUSH20 0xFFFFFFFFFFFFFFFFFFFFFFFFFFFFFFFFFFFFFFFF AND PUSH2 0x1F6F PUSH2 0x1686 JUMP JUMPDEST PUSH20 0xFFFFFFFFFFFFFFFFFFFFFFFFFFFFFFFFFFFFFFFF AND EQ PUSH2 0x1FCE JUMPI PUSH2 0x1F92 PUSH2 0x2E42 JUMP JUMPDEST PUSH1 0x40 MLOAD PUSH32 0x118CDAA700000000000000000000000000000000000000000000000000000000 DUP2 MSTORE PUSH1 0x4 ADD PUSH2 0x1FC5 SWAP2 SWAP1 PUSH2 0x3C61 JUMP JUMPDEST PUSH1 0x40 MLOAD DUP1 SWAP2 SUB SWAP1 REVERT JUMPDEST JUMP JUMPDEST PUSH1 0x0 PUSH1 0x8 PUSH1 0x0 DUP4 DUP2 MSTORE PUSH1 0x20 ADD SWAP1 DUP2 MSTORE PUSH1 0x20 ADD PUSH1 0x0 KECCAK256 SWAP1 POP PUSH1 0x2 PUSH1 0x3 DUP2 GT ISZERO PUSH2 0x1FFB JUMPI PUSH2 0x1FFA PUSH2 0x379C JUMP JUMPDEST JUMPDEST DUP2 PUSH1 0x7 ADD PUSH1 0x0 SWAP1 SLOAD SWAP1 PUSH2 0x100 EXP SWAP1 DIV PUSH1 0xFF AND PUSH1 0x3 DUP2 GT ISZERO PUSH2 0x201F JUMPI PUSH2 0x201E PUSH2 0x379C JUMP JUMPDEST JUMPDEST EQ PUSH2 0x205F JUMPI PUSH1 0x40 MLOAD PUSH32 0x8C379A000000000000000000000000000000000000000000000000000000000 DUP2 MSTORE PUSH1 0x4 ADD PUSH2 0x2056 SWAP1 PUSH2 0x4ADB JUMP JUMPDEST PUSH1 0x40 MLOAD DUP1 SWAP2 SUB SWAP1 REVERT JUMPDEST PUSH1 0x0 PUSH1 0x64 PUSH2 0x12C DUP4 PUSH1 0x2 ADD SLOAD PUSH2 0x2075 SWAP2 SWAP1 PUSH2 0x4AFB JUMP JUMPDEST PUSH2 0x207F SWAP2 SWAP1 PUSH2 0x4B3D JUMP JUMPDEST SWAP1 POP PUSH1 0x3 DUP3 PUSH1 0x7 ADD PUSH1 0x0 PUSH2 0x100 EXP DUP2 SLOAD DUP2 PUSH1 0xFF MUL NOT AND SWAP1 DUP4 PUSH1 0x3 DUP2 GT ISZERO PUSH2 0x20A9 JUMPI PUSH2 0x20A8 PUSH2 0x379C JUMP JUMPDEST JUMPDEST MUL OR SWAP1 SSTORE POP PUSH1 0x0 PUSH1 0x64 PUSH1 0x14 DUP5 PUSH1 0x2 ADD SLOAD PUSH2 0x20C3 SWAP2 SWAP1 PUSH2 0x4AFB JUMP JUMPDEST PUSH2 0x20CD SWAP2 SWAP1 PUSH2 0x4B3D JUMP JUMPDEST SWAP1 POP PUSH1 0x0 DUP2 DUP5 PUSH1 0x2 ADD SLOAD PUSH2 0x20E1 SWAP2 SWAP1 PUSH2 0x45C5 JUMP JUMPDEST SWAP1 POP DUP1 PUSH1 0xE PUSH1 0x0 DUP3 DUP3 SLOAD PUSH2 0x20F5 SWAP2 SWAP1 PUSH2 0x45C5 JUMP JUMPDEST SWAP3 POP POP DUP2 SWAP1 SSTORE POP DUP3 PUSH1 0x10 PUSH1 0x0 DUP3 DUP3 SLOAD PUSH2 0x210E SWAP2 SWAP1 PUSH2 0x34F4 JUMP JUMPDEST SWAP3 POP POP DUP2 SWAP1 SSTORE POP PUSH1 0x0 DUP5 PUSH1 0x0 ADD PUSH1 0x0 SWAP1 SLOAD SWAP1 PUSH2 0x100 EXP SWAP1 DIV PUSH20 0xFFFFFFFFFFFFFFFFFFFFFFFFFFFFFFFFFFFFFFFF AND PUSH20 0xFFFFFFFFFFFFFFFFFFFFFFFFFFFFFFFFFFFFFFFF AND DUP5 PUSH1 0x40 MLOAD PUSH2 0x215F SWAP1 PUSH2 0x4824 JUMP JUMPDEST PUSH1 0x0 PUSH1 0x40 MLOAD DUP1 DUP4 SUB DUP2 DUP6 DUP8 GAS CALL SWAP3 POP POP POP RETURNDATASIZE DUP1 PUSH1 0x0 DUP2 EQ PUSH2 0x219C JUMPI PUSH1 0x40 MLOAD SWAP2 POP PUSH1 0x1F NOT PUSH1 0x3F RETURNDATASIZE ADD AND DUP3 ADD PUSH1 0x40 MSTORE RETURNDATASIZE DUP3 MSTORE RETURNDATASIZE PUSH1 0x0 PUSH1 0x20 DUP5 ADD RETURNDATACOPY PUSH2 0x21A1 JUMP JUMPDEST PUSH1 0x60 SWAP2 POP JUMPDEST POP POP SWAP1 POP DUP1 PUSH2 0x21E5 JUMPI PUSH1 0x40 MLOAD PUSH32 0x8C379A000000000000000000000000000000000000000000000000000000000 DUP2 MSTORE PUSH1 0x4 ADD PUSH2 0x21DC SWAP1 PUSH2 0x4BBA JUMP JUMPDEST PUSH1 0x40 MLOAD DUP1 SWAP2 SUB SWAP1 REVERT JUMPDEST PUSH32 0xFC2E5A4F14AFB617147F5E5E83D18CF2C49C2E8D308425798D2C75B429FF555B DUP7 DUP7 PUSH1 0x0 ADD PUSH1 0x0 SWAP1 SLOAD SWAP1 PUSH2 0x100 EXP SWAP1 DIV PUSH20 0xFFFFFFFFFFFFFFFFFFFFFFFFFFFFFFFFFFFFFFFF AND DUP7 PUSH1 0x40 MLOAD PUSH2 0x223C SWAP4 SWAP3 SWAP2 SWAP1 PUSH2 0x4BDA JUMP JUMPDEST PUSH1 0x40 MLOAD DUP1 SWAP2 SUB SWAP1 LOG1 POP POP POP POP POP POP JUMP JUMPDEST PUSH1 0x0 PUSH1 0x6 PUSH1 0x0 SWAP1 SLOAD SWAP1 PUSH2 0x100 EXP SWAP1 DIV PUSH20 0xFFFFFFFFFFFFFFFFFFFFFFFFFFFFFFFFFFFFFFFF AND SWAP1 POP DUP2 PUSH1 0x6 PUSH1 0x0 PUSH2 0x100 EXP DUP2 SLOAD DUP2 PUSH20 0xFFFFFFFFFFFFFFFFFFFFFFFFFFFFFFFFFFFFFFFF MUL NOT AND SWAP1 DUP4 PUSH20 0xFFFFFFFFFFFFFFFFFFFFFFFFFFFFFFFFFFFFFFFF AND MUL OR SWAP1 SSTORE POP DUP2 PUSH20 0xFFFFFFFFFFFFFFFFFFFFFFFFFFFFFFFFFFFFFFFF AND DUP2 PUSH20 0xFFFFFFFFFFFFFFFFFFFFFFFFFFFFFFFFFFFFFFFF AND PUSH32 0x8BE0079C531659141344CD1FD0A4F28419497F9722A3DAAFE3B4186F6B6457E0 PUSH1 0x40 MLOAD PUSH1 0x40 MLOAD DUP1 SWAP2 SUB SWAP1 LOG3 POP POP JUMP JUMPDEST PUSH1 0x2 PUSH1 0x7 SLOAD SUB PUSH2 0x234E JUMPI PUSH1 0x40 MLOAD PUSH32 0x3EE5AEB500000000000000000000000000000000000000000000000000000000 DUP2 MSTORE PUSH1 0x4 ADD PUSH1 0x40 MLOAD DUP1 SWAP2 SUB SWAP1 REVERT JUMPDEST PUSH1 0x2 PUSH1 0x7 DUP2 SWAP1 SSTORE POP JUMP JUMPDEST PUSH1 0x0 CALLVALUE GT PUSH2 0x239B JUMPI PUSH1 0x40 MLOAD PUSH32 0x8C379A000000000000000000000000000000000000000000000000000000000 DUP2 MSTORE PUSH1 0x4 ADD PUSH2 0x2392 SWAP1 PUSH2 0x4C5D JUMP JUMPDEST PUSH1 0x40 MLOAD DUP1 SWAP2 SUB SWAP1 REVERT JUMPDEST TIMESTAMP DUP2 GT PUSH2 0x23DD JUMPI PUSH1 0x40 MLOAD PUSH32 0x8C379A000000000000000000000000000000000000000000000000000000000 DUP2 MSTORE PUSH1 0x4 ADD PUSH2 0x23D4 SWAP1 PUSH2 0x4CEF JUMP JUMPDEST PUSH1 0x40 MLOAD DUP1 SWAP2 SUB SWAP1 REVERT JUMPDEST PUSH1 0xB PUSH1 0x0 CALLER PUSH20 0xFFFFFFFFFFFFFFFFFFFFFFFFFFFFFFFFFFFFFFFF AND PUSH20 0xFFFFFFFFFFFFFFFFFFFFFFFFFFFFFFFFFFFFFFFF AND DUP2 MSTORE PUSH1 0x20 ADD SWAP1 DUP2 MSTORE PUSH1 0x20 ADD PUSH1 0x0 KECCAK256 DUP3 PUSH1 0x40 MLOAD PUSH2 0x242A SWAP2 SWAP1 PUSH2 0x4542 JUMP JUMPDEST SWAP1 DUP2 MSTORE PUSH1 0x20 ADD PUSH1 0x40 MLOAD DUP1 SWAP2 SUB SWAP1 KECCAK256 PUSH1 0x0 DUP3 DUP2 MSTORE PUSH1 0x20 ADD SWAP1 DUP2 MSTORE PUSH1 0x20 ADD PUSH1 0x0 KECCAK256 PUSH1 0x0 SWAP1 SLOAD SWAP1 PUSH2 0x100 EXP SWAP1 DIV PUSH1 0xFF AND ISZERO PUSH2 0x2497 JUMPI PUSH1 0x40 MLOAD PUSH32 0x8C379A000000000000000000000000000000000000000000000000000000000 DUP2 MSTORE PUSH1 0x4 ADD PUSH2 0x248E SWAP1 PUSH2 0x4D81 JUMP JUMPDEST PUSH1 0x40 MLOAD DUP1 SWAP2 SUB SWAP1 REVERT JUMPDEST PUSH1 0x0 CALLER DUP4 DUP4 TIMESTAMP PUSH1 0x40 MLOAD PUSH1 0x20 ADD PUSH2 0x24B0 SWAP5 SWAP4 SWAP3 SWAP2 SWAP1 PUSH2 0x4E0A JUMP JUMPDEST PUSH1 0x40 MLOAD PUSH1 0x20 DUP2 DUP4 SUB SUB DUP2 MSTORE SWAP1 PUSH1 0x40 MSTORE DUP1 MLOAD SWAP1 PUSH1 0x20 ADD KECCAK256 SWAP1 POP PUSH1 0x1 PUSH1 0xB PUSH1 0x0 CALLER PUSH20 0xFFFFFFFFFFFFFFFFFFFFFFFFFFFFFFFFFFFFFFFF AND PUSH20 0xFFFFFFFFFFFFFFFFFFFFFFFFFFFFFFFFFFFFFFFF AND DUP2 MSTORE PUSH1 0x20 ADD SWAP1 DUP2 MSTORE PUSH1 0x20 ADD PUSH1 0x0 KECCAK256 DUP5 PUSH1 0x40 MLOAD PUSH2 0x2517 SWAP2 SWAP1 PUSH2 0x4542 JUMP JUMPDEST SWAP1 DUP2 MSTORE PUSH1 0x20 ADD PUSH1 0x40 MLOAD DUP1 SWAP2 SUB SWAP1 KECCAK256 PUSH1 0x0 DUP5 DUP2 MSTORE PUSH1 0x20 ADD SWAP1 DUP2 MSTORE PUSH1 0x20 ADD PUSH1 0x0 KECCAK256 PUSH1 0x0 PUSH2 0x100 EXP DUP2 SLOAD DUP2 PUSH1 0xFF MUL NOT AND SWAP1 DUP4 ISZERO ISZERO MUL OR SWAP1 SSTORE POP PUSH1 0x0 PUSH1 0x64 PUSH1 0x14 CALLVALUE PUSH2 0x255E SWAP2 SWAP1 PUSH2 0x4AFB JUMP JUMPDEST PUSH2 0x2568 SWAP2 SWAP1 PUSH2 0x4B3D JUMP JUMPDEST SWAP1 POP PUSH1 0x0 DUP2 CALLVALUE PUSH2 0x2578 SWAP2 SWAP1 PUSH2 0x45C5 JUMP JUMPDEST SWAP1 POP PUSH1 0x40 MLOAD DUP1 PUSH2 0x100 ADD PUSH1 0x40 MSTORE DUP1 CALLER PUSH20 0xFFFFFFFFFFFFFFFFFFFFFFFFFFFFFFFFFFFFFFFF AND DUP2 MSTORE PUSH1 0x20 ADD DUP7 DUP2 MSTORE PUSH1 0x20 ADD CALLVALUE DUP2 MSTORE PUSH1 0x20 ADD TIMESTAMP DUP2 MSTORE PUSH1 0x20 ADD DUP6 DUP2 MSTORE PUSH1 0x20 ADD PUSH1 0x0 DUP2 MSTORE PUSH1 0x20 ADD PUSH1 0x0 DUP2 MSTORE PUSH1 0x20 ADD PUSH1 0x0 PUSH1 0x3 DUP2 GT ISZERO PUSH2 0x25DC JUMPI PUSH2 0x25DB PUSH2 0x379C JUMP JUMPDEST JUMPDEST DUP2 MSTORE POP PUSH1 0x8 PUSH1 0x0 DUP6 DUP2 MSTORE PUSH1 0x20 ADD SWAP1 DUP2 MSTORE PUSH1 0x20 ADD PUSH1 0x0 KECCAK256 PUSH1 0x0 DUP3 ADD MLOAD DUP2 PUSH1 0x0 ADD PUSH1 0x0 PUSH2 0x100 EXP DUP2 SLOAD DUP2 PUSH20 0xFFFFFFFFFFFFFFFFFFFFFFFFFFFFFFFFFFFFFFFF MUL NOT AND SWAP1 DUP4 PUSH20 0xFFFFFFFFFFFFFFFFFFFFFFFFFFFFFFFFFFFFFFFF AND MUL OR SWAP1 SSTORE POP PUSH1 0x20 DUP3 ADD MLOAD DUP2 PUSH1 0x1 ADD SWAP1 DUP2 PUSH2 0x264E SWAP2 SWAP1 PUSH2 0x4FEB JUMP JUMPDEST POP PUSH1 0x40 DUP3 ADD MLOAD DUP2 PUSH1 0x2 ADD SSTORE PUSH1 0x60 DUP3 ADD MLOAD DUP2 PUSH1 0x3 ADD SSTORE PUSH1 0x80 DUP3 ADD MLOAD DUP2 PUSH1 0x4 ADD SSTORE PUSH1 0xA0 DUP3 ADD MLOAD DUP2 PUSH1 0x5 ADD SSTORE PUSH1 0xC0 DUP3 ADD MLOAD DUP2 PUSH1 0x6 ADD SSTORE PUSH1 0xE0 DUP3 ADD MLOAD DUP2 PUSH1 0x7 ADD PUSH1 0x0 PUSH2 0x100 EXP DUP2 SLOAD DUP2 PUSH1 0xFF MUL NOT AND SWAP1 DUP4 PUSH1 0x3 DUP2 GT ISZERO PUSH2 0x26AC JUMPI PUSH2 0x26AB PUSH2 0x379C JUMP JUMPDEST JUMPDEST MUL OR SWAP1 SSTORE POP SWAP1 POP POP PUSH1 0xA PUSH1 0x0 CALLER PUSH20 0xFFFFFFFFFFFFFFFFFFFFFFFFFFFFFFFFFFFFFFFF AND PUSH20 0xFFFFFFFFFFFFFFFFFFFFFFFFFFFFFFFFFFFFFFFF AND DUP2 MSTORE PUSH1 0x20 ADD SWAP1 DUP2 MSTORE PUSH1 0x20 ADD PUSH1 0x0 KECCAK256 DUP4 SWAP1 DUP1 PUSH1 0x1 DUP2 SLOAD ADD DUP1 DUP3 SSTORE DUP1 SWAP2 POP POP PUSH1 0x1 SWAP1 SUB SWAP1 PUSH1 0x0 MSTORE PUSH1 0x20 PUSH1 0x0 KECCAK256 ADD PUSH1 0x0 SWAP1 SWAP2 SWAP1 SWAP2 SWAP1 SWAP2 POP SSTORE PUSH1 0xC DUP4 SWAP1 DUP1 PUSH1 0x1 DUP2 SLOAD ADD DUP1 DUP3 SSTORE DUP1 SWAP2 POP POP PUSH1 0x1 SWAP1 SUB SWAP1 PUSH1 0x0 MSTORE PUSH1 0x20 PUSH1 0x0 KECCAK256 ADD PUSH1 0x0 SWAP1 SWAP2 SWAP1 SWAP2 SWAP1 SWAP2 POP SSTORE DUP1 PUSH1 0xE PUSH1 0x0 DUP3 DUP3 SLOAD PUSH2 0x2755 SWAP2 SWAP1 PUSH2 0x34F4 JUMP JUMPDEST SWAP3 POP POP DUP2 SWAP1 SSTORE POP DUP2 PUSH1 0xF PUSH1 0x0 DUP3 DUP3 SLOAD PUSH2 0x276E SWAP2 SWAP1 PUSH2 0x34F4 JUMP JUMPDEST SWAP3 POP POP DUP2 SWAP1 SSTORE POP PUSH1 0x11 PUSH1 0x0 DUP2 SLOAD DUP1 SWAP3 SWAP2 SWAP1 PUSH2 0x2788 SWAP1 PUSH2 0x50BD JUMP JUMPDEST SWAP2 SWAP1 POP SSTORE POP CALLER PUSH20 0xFFFFFFFFFFFFFFFFFFFFFFFFFFFFFFFFFFFFFFFF AND PUSH32 0x76F0E963CE27584989820C2A5670A31ABA23A3D68276E11C78868F0E4F79ECF3 DUP5 DUP8 PUSH1 0x40 MLOAD PUSH2 0x27D5 SWAP3 SWAP2 SWAP1 PUSH2 0x5105 JUMP JUMPDEST PUSH1 0x40 MLOAD DUP1 SWAP2 SUB SWAP1 LOG2 PUSH32 0x5AC9517012ABE610CE4AE10E132D74C23A1C23FB86B06DCB395374A5DAD283DE DUP4 CALLER DUP8 CALLVALUE DUP7 PUSH1 0x40 MLOAD PUSH2 0x2814 SWAP6 SWAP5 SWAP4 SWAP3 SWAP2 SWAP1 PUSH2 0x5135 JUMP JUMPDEST PUSH1 0x40 MLOAD DUP1 SWAP2 SUB SWAP1 LOG1 POP POP POP POP POP JUMP JUMPDEST PUSH1 0x1 PUSH1 0x7 DUP2 SWAP1 SSTORE POP JUMP JUMPDEST PUSH2 0x2835 PUSH2 0x3434 JUMP JUMPDEST PUSH2 0x2845 DUP6 PUSH1 0x80 ADD MLOAD PUSH2 0x100 PUSH2 0x2E4A JUMP JUMPDEST POP DUP4 DUP6 PUSH1 0x0 ADD DUP2 DUP2 MSTORE POP POP DUP3 DUP6 PUSH1 0x20 ADD SWAP1 PUSH20 0xFFFFFFFFFFFFFFFFFFFFFFFFFFFFFFFFFFFFFFFF AND SWAP1 DUP2 PUSH20 0xFFFFFFFFFFFFFFFFFFFFFFFFFFFFFFFFFFFFFFFF AND DUP2 MSTORE POP POP DUP2 DUP6 PUSH1 0x40 ADD SWAP1 PUSH28 0xFFFFFFFFFFFFFFFFFFFFFFFFFFFFFFFFFFFFFFFFFFFFFFFFFFFFFFFF NOT AND SWAP1 DUP2 PUSH28 0xFFFFFFFFFFFFFFFFFFFFFFFFFFFFFFFFFFFFFFFFFFFFFFFFFFFFFFFF NOT AND DUP2 MSTORE POP POP DUP5 SWAP1 POP SWAP5 SWAP4 POP POP POP POP JUMP JUMPDEST PUSH1 0x0 DUP1 PUSH1 0x0 DUP1 PUSH1 0x0 PUSH3 0x15180 DUP7 PUSH2 0x28F4 SWAP2 SWAP1 PUSH2 0x4B3D JUMP JUMPDEST SWAP1 POP PUSH2 0x16D DUP2 PUSH2 0x2904 SWAP2 SWAP1 PUSH2 0x4B3D JUMP JUMPDEST PUSH2 0x7B2 PUSH2 0x2911 SWAP2 SWAP1 PUSH2 0x34F4 JUMP JUMPDEST SWAP5 POP PUSH1 0x0 SWAP2 POP JUMPDEST PUSH2 0x16D PUSH2 0x2924 DUP7 PUSH2 0x2EB4 JUMP JUMPDEST SWAP3 POP DUP3 PUSH2 0x2931 SWAP2 SWAP1 PUSH2 0x34F4 JUMP JUMPDEST DUP2 LT PUSH2 0x2965 JUMPI PUSH2 0x16D DUP3 PUSH2 0x2945 SWAP2 SWAP1 PUSH2 0x34F4 JUMP JUMPDEST DUP2 PUSH2 0x2950 SWAP2 SWAP1 PUSH2 0x45C5 JUMP JUMPDEST SWAP1 POP DUP5 DUP1 PUSH2 0x295D SWAP1 PUSH2 0x50BD JUMP JUMPDEST SWAP6 POP POP PUSH2 0x2918 JUMP JUMPDEST PUSH1 0x0 PUSH1 0x40 MLOAD DUP1 PUSH2 0x180 ADD PUSH1 0x40 MSTORE DUP1 PUSH1 0x1F DUP2 MSTORE PUSH1 0x20 ADD PUSH1 0x1C DUP2 MSTORE PUSH1 0x20 ADD PUSH1 0x1F DUP2 MSTORE PUSH1 0x20 ADD PUSH1 0x1E DUP2 MSTORE PUSH1 0x20 ADD PUSH1 0x1F DUP2 MSTORE PUSH1 0x20 ADD PUSH1 0x1E DUP2 MSTORE PUSH1 0x20 ADD PUSH1 0x1F DUP2 MSTORE PUSH1 0x20 ADD PUSH1 0x1F DUP2 MSTORE PUSH1 0x20 ADD PUSH1 0x1E DUP2 MSTORE PUSH1 0x20 ADD PUSH1 0x1F DUP2 MSTORE PUSH1 0x20 ADD PUSH1 0x1E DUP2 MSTORE PUSH1 0x20 ADD PUSH1 0x1F DUP2 MSTORE POP SWAP1 POP PUSH2 0x29D0 DUP7 PUSH2 0x2F07 JUMP JUMPDEST ISZERO PUSH2 0x29F5 JUMPI PUSH1 0x1D DUP2 PUSH1 0x1 PUSH1 0xC DUP2 LT PUSH2 0x29EB JUMPI PUSH2 0x29EA PUSH2 0x4513 JUMP JUMPDEST JUMPDEST PUSH1 0x20 MUL ADD DUP2 DUP2 MSTORE POP POP JUMPDEST PUSH1 0x0 SWAP5 POP JUMPDEST PUSH1 0xC DUP6 LT ISZERO PUSH2 0x2A53 JUMPI DUP1 DUP6 PUSH1 0xC DUP2 LT PUSH2 0x2A16 JUMPI PUSH2 0x2A15 PUSH2 0x4513 JUMP JUMPDEST JUMPDEST PUSH1 0x20 MUL ADD MLOAD DUP3 LT PUSH2 0x2A53 JUMPI DUP1 DUP6 PUSH1 0xC DUP2 LT PUSH2 0x2A34 JUMPI PUSH2 0x2A33 PUSH2 0x4513 JUMP JUMPDEST JUMPDEST PUSH1 0x20 MUL ADD MLOAD DUP3 PUSH2 0x2A44 SWAP2 SWAP1 PUSH2 0x45C5 JUMP JUMPDEST SWAP2 POP DUP5 DUP1 PUSH1 0x1 ADD SWAP6 POP POP PUSH2 0x29FA JUMP JUMPDEST PUSH1 0x1 DUP6 PUSH2 0x2A60 SWAP2 SWAP1 PUSH2 0x34F4 JUMP JUMPDEST SWAP5 POP PUSH1 0x1 DUP3 PUSH2 0x2A6F SWAP2 SWAP1 PUSH2 0x34F4 JUMP JUMPDEST SWAP4 POP POP POP POP SWAP2 SWAP4 SWAP1 SWAP3 POP JUMP JUMPDEST PUSH1 0x60 PUSH1 0x0 DUP3 SUB PUSH2 0x2AC2 JUMPI PUSH1 0x40 MLOAD DUP1 PUSH1 0x40 ADD PUSH1 0x40 MSTORE DUP1 PUSH1 0x1 DUP2 MSTORE PUSH1 0x20 ADD PUSH32 0x3000000000000000000000000000000000000000000000000000000000000000 DUP2 MSTORE POP SWAP1 POP PUSH2 0x2BD6 JUMP JUMPDEST PUSH1 0x0 DUP3 SWAP1 POP PUSH1 0x0 JUMPDEST PUSH1 0x0 DUP3 EQ PUSH2 0x2AF4 JUMPI DUP1 DUP1 PUSH2 0x2ADD SWAP1 PUSH2 0x50BD JUMP JUMPDEST SWAP2 POP POP PUSH1 0xA DUP3 PUSH2 0x2AED SWAP2 SWAP1 PUSH2 0x4B3D JUMP JUMPDEST SWAP2 POP PUSH2 0x2ACA JUMP JUMPDEST PUSH1 0x0 DUP2 PUSH8 0xFFFFFFFFFFFFFFFF DUP2 GT ISZERO PUSH2 0x2B10 JUMPI PUSH2 0x2B0F PUSH2 0x3940 JUMP JUMPDEST JUMPDEST PUSH1 0x40 MLOAD SWAP1 DUP1 DUP3 MSTORE DUP1 PUSH1 0x1F ADD PUSH1 0x1F NOT AND PUSH1 0x20 ADD DUP3 ADD PUSH1 0x40 MSTORE DUP1 ISZERO PUSH2 0x2B42 JUMPI DUP2 PUSH1 0x20 ADD PUSH1 0x1 DUP3 MUL DUP1 CALLDATASIZE DUP4 CALLDATACOPY DUP1 DUP3 ADD SWAP2 POP POP SWAP1 POP JUMPDEST POP SWAP1 POP JUMPDEST PUSH1 0x0 DUP6 EQ PUSH2 0x2BCF JUMPI PUSH1 0x1 DUP3 PUSH2 0x2B5B SWAP2 SWAP1 PUSH2 0x45C5 JUMP JUMPDEST SWAP2 POP PUSH1 0xA DUP6 PUSH2 0x2B6A SWAP2 SWAP1 PUSH2 0x4628 JUMP JUMPDEST PUSH1 0x30 PUSH2 0x2B76 SWAP2 SWAP1 PUSH2 0x34F4 JUMP JUMPDEST PUSH1 0xF8 SHL DUP2 DUP4 DUP2 MLOAD DUP2 LT PUSH2 0x2B8C JUMPI PUSH2 0x2B8B PUSH2 0x4513 JUMP JUMPDEST JUMPDEST PUSH1 0x20 ADD ADD SWAP1 PUSH31 0xFFFFFFFFFFFFFFFFFFFFFFFFFFFFFFFFFFFFFFFFFFFFFFFFFFFFFFFFFFFFFF NOT AND SWAP1 DUP2 PUSH1 0x0 BYTE SWAP1 MSTORE8 POP PUSH1 0xA DUP6 PUSH2 0x2BC8 SWAP2 SWAP1 PUSH2 0x4B3D JUMP JUMPDEST SWAP5 POP PUSH2 0x2B46 JUMP JUMPDEST DUP1 SWAP4 POP POP POP POP JUMPDEST SWAP2 SWAP1 POP JUMP JUMPDEST PUSH2 0x2BE8 DUP3 PUSH1 0x3 DUP4 MLOAD PUSH2 0x2F50 JUMP JUMPDEST PUSH2 0x2BFB DUP2 DUP4 PUSH2 0x30D5 SWAP1 SWAP2 SWAP1 PUSH4 0xFFFFFFFF AND JUMP JUMPDEST POP POP POP JUMP JUMPDEST PUSH32 0xFFFFFFFFFFFFFFFFFFFFFFFFFFFFFFFFFFFFFFFFFFFFFFFF0000000000000000 DUP2 SLT ISZERO PUSH2 0x2C37 JUMPI PUSH2 0x2C32 DUP3 DUP3 PUSH2 0x30F7 JUMP JUMPDEST PUSH2 0x2CA9 JUMP JUMPDEST PUSH8 0xFFFFFFFFFFFFFFFF DUP2 SGT ISZERO PUSH2 0x2C56 JUMPI PUSH2 0x2C51 DUP3 DUP3 PUSH2 0x316E JUMP JUMPDEST PUSH2 0x2CA8 JUMP JUMPDEST PUSH1 0x0 DUP2 SLT PUSH2 0x2C6F JUMPI PUSH2 0x2C6A DUP3 PUSH1 0x0 DUP4 PUSH2 0x2F50 JUMP JUMPDEST PUSH2 0x2CA7 JUMP JUMPDEST PUSH2 0x2CA6 DUP3 PUSH1 0x1 DUP4 PUSH32 0xFFFFFFFFFFFFFFFFFFFFFFFFFFFFFFFFFFFFFFFFFFFFFFFFFFFFFFFFFFFFFFFF PUSH2 0x2CA1 SWAP2 SWAP1 PUSH2 0x5199 JUMP JUMPDEST PUSH2 0x2F50 JUMP JUMPDEST JUMPDEST JUMPDEST JUMPDEST POP POP JUMP JUMPDEST PUSH1 0x0 ADDRESS DUP5 PUSH1 0x40 MLOAD PUSH1 0x20 ADD PUSH2 0x2CC2 SWAP3 SWAP2 SWAP1 PUSH2 0x5239 JUMP JUMPDEST PUSH1 0x40 MLOAD PUSH1 0x20 DUP2 DUP4 SUB SUB DUP2 MSTORE SWAP1 PUSH1 0x40 MSTORE DUP1 MLOAD SWAP1 PUSH1 0x20 ADD KECCAK256 SWAP1 POP DUP5 PUSH1 0x5 PUSH1 0x0 DUP4 DUP2 MSTORE PUSH1 0x20 ADD SWAP1 DUP2 MSTORE PUSH1 0x20 ADD PUSH1 0x0 KECCAK256 PUSH1 0x0 PUSH2 0x100 EXP DUP2 SLOAD DUP2 PUSH20 0xFFFFFFFFFFFFFFFFFFFFFFFFFFFFFFFFFFFFFFFF MUL NOT AND SWAP1 DUP4 PUSH20 0xFFFFFFFFFFFFFFFFFFFFFFFFFFFFFFFFFFFFFFFF AND MUL OR SWAP1 SSTORE POP DUP1 PUSH32 0xB5E6E01E79F91267DC17B4E6314D5D4D03593D2CEEE0FBB452B750BD70EA5AF9 PUSH1 0x40 MLOAD PUSH1 0x40 MLOAD DUP1 SWAP2 SUB SWAP1 LOG2 PUSH1 0x2 PUSH1 0x0 SWAP1 SLOAD SWAP1 PUSH2 0x100 EXP SWAP1 DIV PUSH20 0xFFFFFFFFFFFFFFFFFFFFFFFFFFFFFFFFFFFFFFFF AND PUSH20 0xFFFFFFFFFFFFFFFFFFFFFFFFFFFFFFFFFFFFFFFF AND PUSH4 0x4000AEA0 DUP7 DUP6 DUP6 PUSH1 0x40 MLOAD DUP5 PUSH4 0xFFFFFFFF AND PUSH1 0xE0 SHL DUP2 MSTORE PUSH1 0x4 ADD PUSH2 0x2DB8 SWAP4 SWAP3 SWAP2 SWAP1 PUSH2 0x5265 JUMP JUMPDEST PUSH1 0x20 PUSH1 0x40 MLOAD DUP1 DUP4 SUB DUP2 PUSH1 0x0 DUP8 GAS CALL ISZERO DUP1 ISZERO PUSH2 0x2DD7 JUMPI RETURNDATASIZE PUSH1 0x0 DUP1 RETURNDATACOPY RETURNDATASIZE PUSH1 0x0 REVERT JUMPDEST POP POP POP POP PUSH1 0x40 MLOAD RETURNDATASIZE PUSH1 0x1F NOT PUSH1 0x1F DUP3 ADD AND DUP3 ADD DUP1 PUSH1 0x40 MSTORE POP DUP2 ADD SWAP1 PUSH2 0x2DFB SWAP2 SWAP1 PUSH2 0x52CF JUMP JUMPDEST PUSH2 0x2E3A JUMPI PUSH1 0x40 MLOAD PUSH32 0x8C379A000000000000000000000000000000000000000000000000000000000 DUP2 MSTORE PUSH1 0x4 ADD PUSH2 0x2E31 SWAP1 PUSH2 0x536E JUMP JUMPDEST PUSH1 0x40 MLOAD DUP1 SWAP2 SUB SWAP1 REVERT JUMPDEST SWAP5 SWAP4 POP POP POP POP JUMP JUMPDEST PUSH1 0x0 CALLER SWAP1 POP SWAP1 JUMP JUMPDEST PUSH2 0x2E52 PUSH2 0x34A1 JUMP JUMPDEST PUSH1 0x0 PUSH1 0x20 DUP4 PUSH2 0x2E61 SWAP2 SWAP1 PUSH2 0x4628 JUMP JUMPDEST EQ PUSH2 0x2E8D JUMPI PUSH1 0x20 DUP3 PUSH2 0x2E73 SWAP2 SWAP1 PUSH2 0x4628 JUMP JUMPDEST PUSH1 0x20 PUSH2 0x2E7F SWAP2 SWAP1 PUSH2 0x45C5 JUMP JUMPDEST DUP3 PUSH2 0x2E8A SWAP2 SWAP1 PUSH2 0x34F4 JUMP JUMPDEST SWAP2 POP JUMPDEST DUP2 DUP4 PUSH1 0x20 ADD DUP2 DUP2 MSTORE POP POP PUSH1 0x40 MLOAD DUP1 DUP5 MSTORE PUSH1 0x0 DUP2 MSTORE DUP3 DUP2 ADD PUSH1 0x20 ADD PUSH1 0x40 MSTORE POP DUP3 SWAP1 POP SWAP3 SWAP2 POP POP JUMP JUMPDEST PUSH1 0x0 DUP2 DUP1 PUSH2 0x2EC1 SWAP1 PUSH2 0x538E JUMP JUMPDEST SWAP3 POP POP PUSH2 0x190 DUP3 PUSH2 0x2ED2 SWAP2 SWAP1 PUSH2 0x4B3D JUMP JUMPDEST PUSH1 0x64 DUP4 PUSH2 0x2EDF SWAP2 SWAP1 PUSH2 0x4B3D JUMP JUMPDEST PUSH1 0x4 DUP5 PUSH2 0x2EEC SWAP2 SWAP1 PUSH2 0x4B3D JUMP JUMPDEST PUSH2 0x2EF6 SWAP2 SWAP1 PUSH2 0x45C5 JUMP JUMPDEST PUSH2 0x2F00 SWAP2 SWAP1 PUSH2 0x34F4 JUMP JUMPDEST SWAP1 POP SWAP2 SWAP1 POP JUMP JUMPDEST PUSH1 0x0 DUP1 PUSH1 0x4 DUP4 PUSH2 0x2F17 SWAP2 SWAP1 PUSH2 0x4628 JUMP JUMPDEST EQ DUP1 ISZERO PUSH2 0x2F31 JUMPI POP PUSH1 0x0 PUSH1 0x64 DUP4 PUSH2 0x2F2E SWAP2 SWAP1 PUSH2 0x4628 JUMP JUMPDEST EQ ISZERO JUMPDEST DUP1 PUSH2 0x2F49 JUMPI POP PUSH1 0x0 PUSH2 0x190 DUP4 PUSH2 0x2F47 SWAP2 SWAP1 PUSH2 0x4628 JUMP JUMPDEST EQ JUMPDEST SWAP1 POP SWAP2 SWAP1 POP JUMP JUMPDEST PUSH1 0x17 DUP2 PUSH8 0xFFFFFFFFFFFFFFFF AND GT PUSH2 0x2F87 JUMPI PUSH2 0x2F81 DUP2 PUSH1 0x5 DUP5 PUSH1 0xFF AND SWAP1 SHL PUSH1 0xFF AND OR DUP5 PUSH2 0x31BA SWAP1 SWAP2 SWAP1 PUSH4 0xFFFFFFFF AND JUMP JUMPDEST POP PUSH2 0x30D0 JUMP JUMPDEST PUSH1 0xFF DUP2 PUSH8 0xFFFFFFFFFFFFFFFF AND GT PUSH2 0x2FDD JUMPI PUSH2 0x2FB6 PUSH1 0x18 PUSH1 0x5 DUP5 PUSH1 0xFF AND SWAP1 SHL OR DUP5 PUSH2 0x31BA SWAP1 SWAP2 SWAP1 PUSH4 0xFFFFFFFF AND JUMP JUMPDEST POP PUSH2 0x2FD7 DUP2 PUSH8 0xFFFFFFFFFFFFFFFF AND PUSH1 0x1 DUP6 PUSH2 0x31DA SWAP1 SWAP3 SWAP2 SWAP1 PUSH4 0xFFFFFFFF AND JUMP JUMPDEST POP PUSH2 0x30CF JUMP JUMPDEST PUSH2 0xFFFF DUP2 PUSH8 0xFFFFFFFFFFFFFFFF AND GT PUSH2 0x3034 JUMPI PUSH2 0x300D PUSH1 0x19 PUSH1 0x5 DUP5 PUSH1 0xFF AND SWAP1 SHL OR DUP5 PUSH2 0x31BA SWAP1 SWAP2 SWAP1 PUSH4 0xFFFFFFFF AND JUMP JUMPDEST POP PUSH2 0x302E DUP2 PUSH8 0xFFFFFFFFFFFFFFFF AND PUSH1 0x2 DUP6 PUSH2 0x31DA SWAP1 SWAP3 SWAP2 SWAP1 PUSH4 0xFFFFFFFF AND JUMP JUMPDEST POP PUSH2 0x30CE JUMP JUMPDEST PUSH4 0xFFFFFFFF DUP2 PUSH8 0xFFFFFFFFFFFFFFFF AND GT PUSH2 0x308D JUMPI PUSH2 0x3066 PUSH1 0x1A PUSH1 0x5 DUP5 PUSH1 0xFF AND SWAP1 SHL OR DUP5 PUSH2 0x31BA SWAP1 SWAP2 SWAP1 PUSH4 0xFFFFFFFF AND JUMP JUMPDEST POP PUSH2 0x3087 DUP2 PUSH8 0xFFFFFFFFFFFFFFFF AND PUSH1 0x4 DUP6 PUSH2 0x31DA SWAP1 SWAP3 SWAP2 SWAP1 PUSH4 0xFFFFFFFF AND JUMP JUMPDEST POP PUSH2 0x30CD JUMP JUMPDEST PUSH2 0x30AA PUSH1 0x1B PUSH1 0x5 DUP5 PUSH1 0xFF AND SWAP1 SHL OR DUP5 PUSH2 0x31BA SWAP1 SWAP2 SWAP1 PUSH4 0xFFFFFFFF AND JUMP JUMPDEST POP PUSH2 0x30CB DUP2 PUSH8 0xFFFFFFFFFFFFFFFF AND PUSH1 0x8 DUP6 PUSH2 0x31DA SWAP1 SWAP3 SWAP2 SWAP1 PUSH4 0xFFFFFFFF AND JUMP JUMPDEST POP JUMPDEST JUMPDEST JUMPDEST JUMPDEST POP POP POP JUMP JUMPDEST PUSH2 0x30DD PUSH2 0x34A1 JUMP JUMPDEST PUSH2 0x30EF DUP4 DUP5 PUSH1 0x0 ADD MLOAD MLOAD DUP5 DUP6 MLOAD PUSH2 0x31FC JUMP JUMPDEST SWAP1 POP SWAP3 SWAP2 POP POP JUMP JUMPDEST PUSH2 0x3115 PUSH1 0x3 PUSH1 0x5 PUSH1 0x6 PUSH1 0xFF AND SWAP1 SHL OR DUP4 PUSH2 0x31BA SWAP1 SWAP2 SWAP1 PUSH4 0xFFFFFFFF AND JUMP JUMPDEST POP PUSH2 0x316A DUP3 DUP3 PUSH32 0xFFFFFFFFFFFFFFFFFFFFFFFFFFFFFFFFFFFFFFFFFFFFFFFFFFFFFFFFFFFFFFFF PUSH2 0x3146 SWAP2 SWAP1 PUSH2 0x5199 JUMP JUMPDEST PUSH1 0x40 MLOAD PUSH1 0x20 ADD PUSH2 0x3156 SWAP2 SWAP1 PUSH2 0x35AE JUMP JUMPDEST PUSH1 0x40 MLOAD PUSH1 0x20 DUP2 DUP4 SUB SUB DUP2 MSTORE SWAP1 PUSH1 0x40 MSTORE PUSH2 0x32EB JUMP JUMPDEST POP POP JUMP JUMPDEST PUSH2 0x318C PUSH1 0x2 PUSH1 0x5 PUSH1 0x6 PUSH1 0xFF AND SWAP1 SHL OR DUP4 PUSH2 0x31BA SWAP1 SWAP2 SWAP1 PUSH4 0xFFFFFFFF AND JUMP JUMPDEST POP PUSH2 0x31B6 DUP3 DUP3 PUSH1 0x40 MLOAD PUSH1 0x20 ADD PUSH2 0x31A2 SWAP2 SWAP1 PUSH2 0x35AE JUMP JUMPDEST PUSH1 0x40 MLOAD PUSH1 0x20 DUP2 DUP4 SUB SUB DUP2 MSTORE SWAP1 PUSH1 0x40 MSTORE PUSH2 0x32EB JUMP JUMPDEST POP POP JUMP JUMPDEST PUSH2 0x31C2 PUSH2 0x34A1 JUMP JUMPDEST PUSH2 0x31D2 DUP4 DUP5 PUSH1 0x0 ADD MLOAD MLOAD DUP5 PUSH2 0x3310 JUMP JUMPDEST SWAP1 POP SWAP3 SWAP2 POP POP JUMP JUMPDEST PUSH2 0x31E2 PUSH2 0x34A1 JUMP JUMPDEST PUSH2 0x31F3 DUP5 DUP6 PUSH1 0x0 ADD MLOAD MLOAD DUP6 DUP6 PUSH2 0x3366 JUMP JUMPDEST SWAP1 POP SWAP4 SWAP3 POP POP POP JUMP JUMPDEST PUSH2 0x3204 PUSH2 0x34A1 JUMP JUMPDEST DUP3 MLOAD DUP3 GT ISZERO PUSH2 0x3212 JUMPI PUSH1 0x0 DUP1 REVERT JUMPDEST DUP5 PUSH1 0x20 ADD MLOAD DUP3 DUP6 PUSH2 0x3223 SWAP2 SWAP1 PUSH2 0x34F4 JUMP JUMPDEST GT ISZERO PUSH2 0x3258 JUMPI PUSH2 0x3257 DUP6 PUSH1 0x2 PUSH2 0x3248 DUP9 PUSH1 0x20 ADD MLOAD DUP9 DUP8 PUSH2 0x3243 SWAP2 SWAP1 PUSH2 0x34F4 JUMP JUMPDEST PUSH2 0x33F4 JUMP JUMPDEST PUSH2 0x3252 SWAP2 SWAP1 PUSH2 0x4AFB JUMP JUMPDEST PUSH2 0x3410 JUMP JUMPDEST JUMPDEST PUSH1 0x0 DUP1 DUP7 MLOAD DUP1 MLOAD DUP8 PUSH1 0x20 DUP4 ADD ADD SWAP4 POP DUP1 DUP9 DUP8 ADD GT ISZERO PUSH2 0x3277 JUMPI DUP8 DUP7 ADD DUP3 MSTORE JUMPDEST PUSH1 0x20 DUP8 ADD SWAP3 POP POP POP JUMPDEST PUSH1 0x20 DUP5 LT PUSH2 0x32BE JUMPI DUP1 MLOAD DUP3 MSTORE PUSH1 0x20 DUP3 PUSH2 0x3299 SWAP2 SWAP1 PUSH2 0x34F4 JUMP JUMPDEST SWAP2 POP PUSH1 0x20 DUP2 PUSH2 0x32A8 SWAP2 SWAP1 PUSH2 0x34F4 JUMP JUMPDEST SWAP1 POP PUSH1 0x20 DUP5 PUSH2 0x32B7 SWAP2 SWAP1 PUSH2 0x45C5 JUMP JUMPDEST SWAP4 POP PUSH2 0x3280 JUMP JUMPDEST PUSH1 0x0 PUSH1 0x1 DUP6 PUSH1 0x20 SUB PUSH2 0x100 EXP SUB SWAP1 POP DUP1 NOT DUP3 MLOAD AND DUP2 DUP5 MLOAD AND DUP2 DUP2 OR DUP6 MSTORE POP POP POP DUP7 SWAP3 POP POP POP SWAP5 SWAP4 POP POP POP POP JUMP JUMPDEST PUSH2 0x32F8 DUP3 PUSH1 0x2 DUP4 MLOAD PUSH2 0x2F50 JUMP JUMPDEST PUSH2 0x330B DUP2 DUP4 PUSH2 0x30D5 SWAP1 SWAP2 SWAP1 PUSH4 0xFFFFFFFF AND JUMP JUMPDEST POP POP POP JUMP JUMPDEST PUSH2 0x3318 PUSH2 0x34A1 JUMP JUMPDEST DUP4 PUSH1 0x20 ADD MLOAD DUP4 LT PUSH2 0x333E JUMPI PUSH2 0x333D DUP5 PUSH1 0x2 DUP7 PUSH1 0x20 ADD MLOAD PUSH2 0x3338 SWAP2 SWAP1 PUSH2 0x4AFB JUMP JUMPDEST PUSH2 0x3410 JUMP JUMPDEST JUMPDEST DUP4 MLOAD DUP1 MLOAD PUSH1 0x20 DUP6 DUP4 ADD ADD DUP5 DUP2 MSTORE8 DUP2 DUP7 SUB PUSH2 0x3359 JUMPI PUSH1 0x1 DUP3 ADD DUP4 MSTORE JUMPDEST POP POP POP DUP4 SWAP1 POP SWAP4 SWAP3 POP POP POP JUMP JUMPDEST PUSH2 0x336E PUSH2 0x34A1 JUMP JUMPDEST DUP5 PUSH1 0x20 ADD MLOAD DUP5 DUP4 PUSH2 0x337F SWAP2 SWAP1 PUSH2 0x34F4 JUMP JUMPDEST GT ISZERO PUSH2 0x33A7 JUMPI PUSH2 0x33A6 DUP6 PUSH1 0x2 DUP7 DUP6 PUSH2 0x3397 SWAP2 SWAP1 PUSH2 0x34F4 JUMP JUMPDEST PUSH2 0x33A1 SWAP2 SWAP1 PUSH2 0x4AFB JUMP JUMPDEST PUSH2 0x3410 JUMP JUMPDEST JUMPDEST PUSH1 0x0 PUSH1 0x1 DUP4 PUSH2 0x100 PUSH2 0x33B9 SWAP2 SWAP1 PUSH2 0x54EA JUMP JUMPDEST PUSH2 0x33C3 SWAP2 SWAP1 PUSH2 0x45C5 JUMP JUMPDEST SWAP1 POP DUP6 MLOAD DUP4 DUP7 DUP3 ADD ADD DUP6 DUP4 NOT DUP3 MLOAD AND OR DUP2 MSTORE DUP2 MLOAD DUP6 DUP9 ADD GT ISZERO PUSH2 0x33E6 JUMPI DUP5 DUP8 ADD DUP3 MSTORE JUMPDEST POP POP DUP6 SWAP2 POP POP SWAP5 SWAP4 POP POP POP POP JUMP JUMPDEST PUSH1 0x0 DUP2 DUP4 GT ISZERO PUSH2 0x3406 JUMPI DUP3 SWAP1 POP PUSH2 0x340A JUMP JUMPDEST DUP2 SWAP1 POP JUMPDEST SWAP3 SWAP2 POP POP JUMP JUMPDEST PUSH1 0x0 DUP3 PUSH1 0x0 ADD MLOAD SWAP1 POP PUSH2 0x3423 DUP4 DUP4 PUSH2 0x2E4A JUMP JUMPDEST POP PUSH2 0x342E DUP4 DUP3 PUSH2 0x30D5 JUMP JUMPDEST POP POP POP POP JUMP JUMPDEST PUSH1 0x40 MLOAD DUP1 PUSH1 0xA0 ADD PUSH1 0x40 MSTORE DUP1 PUSH1 0x0 DUP1 NOT AND DUP2 MSTORE PUSH1 0x20 ADD PUSH1 0x0 PUSH20 0xFFFFFFFFFFFFFFFFFFFFFFFFFFFFFFFFFFFFFFFF AND DUP2 MSTORE PUSH1 0x20 ADD PUSH1 0x0 PUSH28 0xFFFFFFFFFFFFFFFFFFFFFFFFFFFFFFFFFFFFFFFFFFFFFFFFFFFFFFFF NOT AND DUP2 MSTORE PUSH1 0x20 ADD PUSH1 0x0 DUP2 MSTORE PUSH1 0x20 ADD PUSH2 0x349B PUSH2 0x34A1 JUMP JUMPDEST DUP2 MSTORE POP SWAP1 JUMP JUMPDEST PUSH1 0x40 MLOAD DUP1 PUSH1 0x40 ADD PUSH1 0x40 MSTORE DUP1 PUSH1 0x60 DUP2 MSTORE PUSH1 0x20 ADD PUSH1 0x0 DUP2 MSTORE POP SWAP1 JUMP JUMPDEST PUSH1 0x0 DUP2 SWAP1 POP SWAP2 SWAP1 POP JUMP JUMPDEST PUSH32 0x4E487B7100000000000000000000000000000000000000000000000000000000 PUSH1 0x0 MSTORE PUSH1 0x11 PUSH1 0x4 MSTORE PUSH1 0x24 PUSH1 0x0 REVERT JUMPDEST PUSH1 0x0 PUSH2 0x34FF DUP3 PUSH2 0x34BB JUMP JUMPDEST SWAP2 POP PUSH2 0x350A DUP4 PUSH2 0x34BB JUMP JUMPDEST SWAP3 POP DUP3 DUP3 ADD SWAP1 POP DUP1 DUP3 GT ISZERO PUSH2 0x3522 JUMPI PUSH2 0x3521 PUSH2 0x34C5 JUMP JUMPDEST JUMPDEST SWAP3 SWAP2 POP POP JUMP JUMPDEST PUSH1 0x0 PUSH1 0x40 MLOAD SWAP1 POP SWAP1 JUMP JUMPDEST PUSH1 0x0 DUP1 REVERT JUMPDEST PUSH1 0x0 DUP1 REVERT JUMPDEST PUSH1 0x0 DUP2 SWAP1 POP SWAP2 SWAP1 POP JUMP JUMPDEST PUSH2 0x354F DUP2 PUSH2 0x353C JUMP JUMPDEST DUP2 EQ PUSH2 0x355A JUMPI PUSH1 0x0 DUP1 REVERT JUMPDEST POP JUMP JUMPDEST PUSH1 0x0 DUP2 CALLDATALOAD SWAP1 POP PUSH2 0x356C DUP2 PUSH2 0x3546 JUMP JUMPDEST SWAP3 SWAP2 POP POP JUMP JUMPDEST PUSH1 0x0 PUSH1 0x20 DUP3 DUP5 SUB SLT ISZERO PUSH2 0x3588 JUMPI PUSH2 0x3587 PUSH2 0x3532 JUMP JUMPDEST JUMPDEST PUSH1 0x0 PUSH2 0x3596 DUP5 DUP3 DUP6 ADD PUSH2 0x355D JUMP JUMPDEST SWAP2 POP POP SWAP3 SWAP2 POP POP JUMP JUMPDEST PUSH2 0x35A8 DUP2 PUSH2 0x34BB JUMP JUMPDEST DUP3 MSTORE POP POP JUMP JUMPDEST PUSH1 0x0 PUSH1 0x20 DUP3 ADD SWAP1 POP PUSH2 0x35C3 PUSH1 0x0 DUP4 ADD DUP5 PUSH2 0x359F JUMP JUMPDEST SWAP3 SWAP2 POP POP JUMP JUMPDEST PUSH2 0x35D2 DUP2 PUSH2 0x34BB JUMP JUMPDEST DUP2 EQ PUSH2 0x35DD JUMPI PUSH1 0x0 DUP1 REVERT JUMPDEST POP JUMP JUMPDEST PUSH1 0x0 DUP2 CALLDATALOAD SWAP1 POP PUSH2 0x35EF DUP2 PUSH2 0x35C9 JUMP JUMPDEST SWAP3 SWAP2 POP POP JUMP JUMPDEST PUSH1 0x0 DUP1 PUSH1 0x40 DUP4 DUP6 SUB SLT ISZERO PUSH2 0x360C JUMPI PUSH2 0x360B PUSH2 0x3532 JUMP JUMPDEST JUMPDEST PUSH1 0x0 PUSH2 0x361A DUP6 DUP3 DUP7 ADD PUSH2 0x355D JUMP JUMPDEST SWAP3 POP POP PUSH1 0x20 PUSH2 0x362B DUP6 DUP3 DUP7 ADD PUSH2 0x35E0 JUMP JUMPDEST SWAP2 POP POP SWAP3 POP SWAP3 SWAP1 POP JUMP JUMPDEST PUSH1 0x0 PUSH20 0xFFFFFFFFFFFFFFFFFFFFFFFFFFFFFFFFFFFFFFFF DUP3 AND SWAP1 POP SWAP2 SWAP1 POP JUMP JUMPDEST PUSH1 0x0 PUSH2 0x3660 DUP3 PUSH2 0x3635 JUMP JUMPDEST SWAP1 POP SWAP2 SWAP1 POP JUMP JUMPDEST PUSH2 0x3670 DUP2 PUSH2 0x3655 JUMP JUMPDEST DUP2 EQ PUSH2 0x367B JUMPI PUSH1 0x0 DUP1 REVERT JUMPDEST POP JUMP JUMPDEST PUSH1 0x0 DUP2 CALLDATALOAD SWAP1 POP PUSH2 0x368D DUP2 PUSH2 0x3667 JUMP JUMPDEST SWAP3 SWAP2 POP POP JUMP JUMPDEST PUSH1 0x0 DUP1 PUSH1 0x40 DUP4 DUP6 SUB SLT ISZERO PUSH2 0x36AA JUMPI PUSH2 0x36A9 PUSH2 0x3532 JUMP JUMPDEST JUMPDEST PUSH1 0x0 PUSH2 0x36B8 DUP6 DUP3 DUP7 ADD PUSH2 0x367E JUMP JUMPDEST SWAP3 POP POP PUSH1 0x20 PUSH2 0x36C9 DUP6 DUP3 DUP7 ADD PUSH2 0x35E0 JUMP JUMPDEST SWAP2 POP POP SWAP3 POP SWAP3 SWAP1 POP JUMP JUMPDEST PUSH2 0x36DC DUP2 PUSH2 0x353C JUMP JUMPDEST DUP3 MSTORE POP POP JUMP JUMPDEST PUSH1 0x0 PUSH1 0x20 DUP3 ADD SWAP1 POP PUSH2 0x36F7 PUSH1 0x0 DUP4 ADD DUP5 PUSH2 0x36D3 JUMP JUMPDEST SWAP3 SWAP2 POP POP JUMP JUMPDEST PUSH2 0x3706 DUP2 PUSH2 0x3655 JUMP JUMPDEST DUP3 MSTORE POP POP JUMP JUMPDEST PUSH1 0x0 DUP2 MLOAD SWAP1 POP SWAP2 SWAP1 POP JUMP JUMPDEST PUSH1 0x0 DUP3 DUP3 MSTORE PUSH1 0x20 DUP3 ADD SWAP1 POP SWAP3 SWAP2 POP POP JUMP JUMPDEST PUSH1 0x0 JUMPDEST DUP4 DUP2 LT ISZERO PUSH2 0x3746 JUMPI DUP1 DUP3 ADD MLOAD DUP2 DUP5 ADD MSTORE PUSH1 0x20 DUP2 ADD SWAP1 POP PUSH2 0x372B JUMP JUMPDEST PUSH1 0x0 DUP5 DUP5 ADD MSTORE POP POP POP POP JUMP JUMPDEST PUSH1 0x0 PUSH1 0x1F NOT PUSH1 0x1F DUP4 ADD AND SWAP1 POP SWAP2 SWAP1 POP JUMP JUMPDEST PUSH1 0x0 PUSH2 0x376E DUP3 PUSH2 0x370C JUMP JUMPDEST PUSH2 0x3778 DUP2 DUP6 PUSH2 0x3717 JUMP JUMPDEST SWAP4 POP PUSH2 0x3788 DUP2 DUP6 PUSH1 0x20 DUP7 ADD PUSH2 0x3728 JUMP JUMPDEST PUSH2 0x3791 DUP2 PUSH2 0x3752 JUMP JUMPDEST DUP5 ADD SWAP2 POP POP SWAP3 SWAP2 POP POP JUMP JUMPDEST PUSH32 0x4E487B7100000000000000000000000000000000000000000000000000000000 PUSH1 0x0 MSTORE PUSH1 0x21 PUSH1 0x4 MSTORE PUSH1 0x24 PUSH1 0x0 REVERT JUMPDEST PUSH1 0x4 DUP2 LT PUSH2 0x37DC JUMPI PUSH2 0x37DB PUSH2 0x379C JUMP JUMPDEST JUMPDEST POP JUMP JUMPDEST PUSH1 0x0 DUP2 SWAP1 POP PUSH2 0x37ED DUP3 PUSH2 0x37CB JUMP JUMPDEST SWAP2 SWAP1 POP JUMP JUMPDEST PUSH1 0x0 PUSH2 0x37FD DUP3 PUSH2 0x37DF JUMP JUMPDEST SWAP1 POP SWAP2 SWAP1 POP JUMP JUMPDEST PUSH2 0x380D DUP2 PUSH2 0x37F2 JUMP JUMPDEST DUP3 MSTORE POP POP JUMP JUMPDEST PUSH1 0x0 PUSH1 0xE0 DUP3 ADD SWAP1 POP PUSH2 0x3828 PUSH1 0x0 DUP4 ADD DUP11 PUSH2 0x36FD JUMP JUMPDEST DUP2 DUP2 SUB PUSH1 0x20 DUP4 ADD MSTORE PUSH2 0x383A DUP2 DUP10 PUSH2 0x3763 JUMP JUMPDEST SWAP1 POP PUSH2 0x3849 PUSH1 0x40 DUP4 ADD DUP9 PUSH2 0x359F JUMP JUMPDEST PUSH2 0x3856 PUSH1 0x60 DUP4 ADD DUP8 PUSH2 0x359F JUMP JUMPDEST PUSH2 0x3863 PUSH1 0x80 DUP4 ADD DUP7 PUSH2 0x359F JUMP JUMPDEST PUSH2 0x3870 PUSH1 0xA0 DUP4 ADD DUP6 PUSH2 0x359F JUMP JUMPDEST PUSH2 0x387D PUSH1 0xC0 DUP4 ADD DUP5 PUSH2 0x3804 JUMP JUMPDEST SWAP9 SWAP8 POP POP POP POP POP POP POP POP JUMP JUMPDEST PUSH1 0x0 DUP1 REVERT JUMPDEST PUSH1 0x0 DUP1 REVERT JUMPDEST PUSH1 0x0 DUP1 REVERT JUMPDEST PUSH1 0x0 DUP1 DUP4 PUSH1 0x1F DUP5 ADD SLT PUSH2 0x38AE JUMPI PUSH2 0x38AD PUSH2 0x3889 JUMP JUMPDEST JUMPDEST DUP3 CALLDATALOAD SWAP1 POP PUSH8 0xFFFFFFFFFFFFFFFF DUP2 GT ISZERO PUSH2 0x38CB JUMPI PUSH2 0x38CA PUSH2 0x388E JUMP JUMPDEST JUMPDEST PUSH1 0x20 DUP4 ADD SWAP2 POP DUP4 PUSH1 0x1 DUP3 MUL DUP4 ADD GT ISZERO PUSH2 0x38E7 JUMPI PUSH2 0x38E6 PUSH2 0x3893 JUMP JUMPDEST JUMPDEST SWAP3 POP SWAP3 SWAP1 POP JUMP JUMPDEST PUSH1 0x0 DUP1 PUSH1 0x20 DUP4 DUP6 SUB SLT ISZERO PUSH2 0x3905 JUMPI PUSH2 0x3904 PUSH2 0x3532 JUMP JUMPDEST JUMPDEST PUSH1 0x0 DUP4 ADD CALLDATALOAD PUSH8 0xFFFFFFFFFFFFFFFF DUP2 GT ISZERO PUSH2 0x3923 JUMPI PUSH2 0x3922 PUSH2 0x3537 JUMP JUMPDEST JUMPDEST PUSH2 0x392F DUP6 DUP3 DUP7 ADD PUSH2 0x3898 JUMP JUMPDEST SWAP3 POP SWAP3 POP POP SWAP3 POP SWAP3 SWAP1 POP JUMP JUMPDEST PUSH1 0x0 DUP1 REVERT JUMPDEST PUSH32 0x4E487B7100000000000000000000000000000000000000000000000000000000 PUSH1 0x0 MSTORE PUSH1 0x41 PUSH1 0x4 MSTORE PUSH1 0x24 PUSH1 0x0 REVERT JUMPDEST PUSH2 0x3978 DUP3 PUSH2 0x3752 JUMP JUMPDEST DUP2 ADD DUP2 DUP2 LT PUSH8 0xFFFFFFFFFFFFFFFF DUP3 GT OR ISZERO PUSH2 0x3997 JUMPI PUSH2 0x3996 PUSH2 0x3940 JUMP JUMPDEST JUMPDEST DUP1 PUSH1 0x40 MSTORE POP POP POP JUMP JUMPDEST PUSH1 0x0 PUSH2 0x39AA PUSH2 0x3528 JUMP JUMPDEST SWAP1 POP PUSH2 0x39B6 DUP3 DUP3 PUSH2 0x396F JUMP JUMPDEST SWAP2 SWAP1 POP JUMP JUMPDEST PUSH1 0x0 PUSH8 0xFFFFFFFFFFFFFFFF DUP3 GT ISZERO PUSH2 0x39D6 JUMPI PUSH2 0x39D5 PUSH2 0x3940 JUMP JUMPDEST JUMPDEST PUSH2 0x39DF DUP3 PUSH2 0x3752 JUMP JUMPDEST SWAP1 POP PUSH1 0x20 DUP2 ADD SWAP1 POP SWAP2 SWAP1 POP JUMP JUMPDEST DUP3 DUP2 DUP4 CALLDATACOPY PUSH1 0x0 DUP4 DUP4 ADD MSTORE POP POP POP JUMP JUMPDEST PUSH1 0x0 PUSH2 0x3A0E PUSH2 0x3A09 DUP5 PUSH2 0x39BB JUMP JUMPDEST PUSH2 0x39A0 JUMP JUMPDEST SWAP1 POP DUP3 DUP2 MSTORE PUSH1 0x20 DUP2 ADD DUP5 DUP5 DUP5 ADD GT ISZERO PUSH2 0x3A2A JUMPI PUSH2 0x3A29 PUSH2 0x393B JUMP JUMPDEST JUMPDEST PUSH2 0x3A35 DUP5 DUP3 DUP6 PUSH2 0x39EC JUMP JUMPDEST POP SWAP4 SWAP3 POP POP POP JUMP JUMPDEST PUSH1 0x0 DUP3 PUSH1 0x1F DUP4 ADD SLT PUSH2 0x3A52 JUMPI PUSH2 0x3A51 PUSH2 0x3889 JUMP JUMPDEST JUMPDEST DUP2 CALLDATALOAD PUSH2 0x3A62 DUP5 DUP3 PUSH1 0x20 DUP7 ADD PUSH2 0x39FB JUMP JUMPDEST SWAP2 POP POP SWAP3 SWAP2 POP POP JUMP JUMPDEST PUSH1 0x0 DUP1 PUSH1 0x0 PUSH1 0x60 DUP5 DUP7 SUB SLT ISZERO PUSH2 0x3A84 JUMPI PUSH2 0x3A83 PUSH2 0x3532 JUMP JUMPDEST JUMPDEST PUSH1 0x0 PUSH2 0x3A92 DUP7 DUP3 DUP8 ADD PUSH2 0x367E JUMP JUMPDEST SWAP4 POP POP PUSH1 0x20 DUP5 ADD CALLDATALOAD PUSH8 0xFFFFFFFFFFFFFFFF DUP2 GT ISZERO PUSH2 0x3AB3 JUMPI PUSH2 0x3AB2 PUSH2 0x3537 JUMP JUMPDEST JUMPDEST PUSH2 0x3ABF DUP7 DUP3 DUP8 ADD PUSH2 0x3A3D JUMP JUMPDEST SWAP3 POP POP PUSH1 0x40 PUSH2 0x3AD0 DUP7 DUP3 DUP8 ADD PUSH2 0x35E0 JUMP JUMPDEST SWAP2 POP POP SWAP3 POP SWAP3 POP SWAP3 JUMP JUMPDEST PUSH1 0x0 DUP2 ISZERO ISZERO SWAP1 POP SWAP2 SWAP1 POP JUMP JUMPDEST PUSH2 0x3AEF DUP2 PUSH2 0x3ADA JUMP JUMPDEST DUP3 MSTORE POP POP JUMP JUMPDEST PUSH1 0x0 PUSH1 0x20 DUP3 ADD SWAP1 POP PUSH2 0x3B0A PUSH1 0x0 DUP4 ADD DUP5 PUSH2 0x3AE6 JUMP JUMPDEST SWAP3 SWAP2 POP POP JUMP JUMPDEST PUSH1 0x0 PUSH1 0x20 DUP3 DUP5 SUB SLT ISZERO PUSH2 0x3B26 JUMPI PUSH2 0x3B25 PUSH2 0x3532 JUMP JUMPDEST JUMPDEST PUSH1 0x0 PUSH2 0x3B34 DUP5 DUP3 DUP6 ADD PUSH2 0x35E0 JUMP JUMPDEST SWAP2 POP POP SWAP3 SWAP2 POP POP JUMP JUMPDEST PUSH1 0x0 DUP2 MLOAD SWAP1 POP SWAP2 SWAP1 POP JUMP JUMPDEST PUSH1 0x0 DUP3 DUP3 MSTORE PUSH1 0x20 DUP3 ADD SWAP1 POP SWAP3 SWAP2 POP POP JUMP JUMPDEST PUSH1 0x0 PUSH2 0x3B64 DUP3 PUSH2 0x3B3D JUMP JUMPDEST PUSH2 0x3B6E DUP2 DUP6 PUSH2 0x3B48 JUMP JUMPDEST SWAP4 POP PUSH2 0x3B7E DUP2 DUP6 PUSH1 0x20 DUP7 ADD PUSH2 0x3728 JUMP JUMPDEST PUSH2 0x3B87 DUP2 PUSH2 0x3752 JUMP JUMPDEST DUP5 ADD SWAP2 POP POP SWAP3 SWAP2 POP POP JUMP JUMPDEST PUSH1 0x0 PUSH1 0x40 DUP3 ADD SWAP1 POP PUSH2 0x3BA7 PUSH1 0x0 DUP4 ADD DUP6 PUSH2 0x3AE6 JUMP JUMPDEST DUP2 DUP2 SUB PUSH1 0x20 DUP4 ADD MSTORE PUSH2 0x3BB9 DUP2 DUP5 PUSH2 0x3B59 JUMP JUMPDEST SWAP1 POP SWAP4 SWAP3 POP POP POP JUMP JUMPDEST PUSH1 0x0 DUP1 PUSH1 0x0 DUP1 PUSH1 0x80 DUP6 DUP8 SUB SLT ISZERO PUSH2 0x3BDC JUMPI PUSH2 0x3BDB PUSH2 0x3532 JUMP JUMPDEST JUMPDEST PUSH1 0x0 DUP6 ADD CALLDATALOAD PUSH8 0xFFFFFFFFFFFFFFFF DUP2 GT ISZERO PUSH2 0x3BFA JUMPI PUSH2 0x3BF9 PUSH2 0x3537 JUMP JUMPDEST JUMPDEST PUSH2 0x3C06 DUP8 DUP3 DUP9 ADD PUSH2 0x3A3D JUMP JUMPDEST SWAP5 POP POP PUSH1 0x20 PUSH2 0x3C17 DUP8 DUP3 DUP9 ADD PUSH2 0x35E0 JUMP JUMPDEST SWAP4 POP POP PUSH1 0x40 PUSH2 0x3C28 DUP8 DUP3 DUP9 ADD PUSH2 0x35E0 JUMP JUMPDEST SWAP3 POP POP PUSH1 0x60 DUP6 ADD CALLDATALOAD PUSH8 0xFFFFFFFFFFFFFFFF DUP2 GT ISZERO PUSH2 0x3C49 JUMPI PUSH2 0x3C48 PUSH2 0x3537 JUMP JUMPDEST JUMPDEST PUSH2 0x3C55 DUP8 DUP3 DUP9 ADD PUSH2 0x3A3D JUMP JUMPDEST SWAP2 POP POP SWAP3 SWAP6 SWAP2 SWAP5 POP SWAP3 POP JUMP JUMPDEST PUSH1 0x0 PUSH1 0x20 DUP3 ADD SWAP1 POP PUSH2 0x3C76 PUSH1 0x0 DUP4 ADD DUP5 PUSH2 0x36FD JUMP JUMPDEST SWAP3 SWAP2 POP POP JUMP JUMPDEST PUSH1 0x0 PUSH1 0x20 DUP3 DUP5 SUB SLT ISZERO PUSH2 0x3C92 JUMPI PUSH2 0x3C91 PUSH2 0x3532 JUMP JUMPDEST JUMPDEST PUSH1 0x0 PUSH2 0x3CA0 DUP5 DUP3 DUP6 ADD PUSH2 0x367E JUMP JUMPDEST SWAP2 POP POP SWAP3 SWAP2 POP POP JUMP JUMPDEST PUSH1 0x0 DUP2 MLOAD SWAP1 POP SWAP2 SWAP1 POP JUMP JUMPDEST PUSH1 0x0 DUP3 DUP3 MSTORE PUSH1 0x20 DUP3 ADD SWAP1 POP SWAP3 SWAP2 POP POP JUMP JUMPDEST PUSH1 0x0 DUP2 SWAP1 POP PUSH1 0x20 DUP3 ADD SWAP1 POP SWAP2 SWAP1 POP JUMP JUMPDEST PUSH2 0x3CDE DUP2 PUSH2 0x353C JUMP JUMPDEST DUP3 MSTORE POP POP JUMP JUMPDEST PUSH1 0x0 PUSH2 0x3CF0 DUP4 DUP4 PUSH2 0x3CD5 JUMP JUMPDEST PUSH1 0x20 DUP4 ADD SWAP1 POP SWAP3 SWAP2 POP POP JUMP JUMPDEST PUSH1 0x0 PUSH1 0x20 DUP3 ADD SWAP1 POP SWAP2 SWAP1 POP JUMP JUMPDEST PUSH1 0x0 PUSH2 0x3D14 DUP3 PUSH2 0x3CA9 JUMP JUMPDEST PUSH2 0x3D1E DUP2 DUP6 PUSH2 0x3CB4 JUMP JUMPDEST SWAP4 POP PUSH2 0x3D29 DUP4 PUSH2 0x3CC5 JUMP JUMPDEST DUP1 PUSH1 0x0 JUMPDEST DUP4 DUP2 LT ISZERO PUSH2 0x3D5A JUMPI DUP2 MLOAD PUSH2 0x3D41 DUP9 DUP3 PUSH2 0x3CE4 JUMP JUMPDEST SWAP8 POP PUSH2 0x3D4C DUP4 PUSH2 0x3CFC JUMP JUMPDEST SWAP3 POP POP PUSH1 0x1 DUP2 ADD SWAP1 POP PUSH2 0x3D2D JUMP JUMPDEST POP DUP6 SWAP4 POP POP POP POP SWAP3 SWAP2 POP POP JUMP JUMPDEST PUSH1 0x0 PUSH1 0x20 DUP3 ADD SWAP1 POP DUP2 DUP2 SUB PUSH1 0x0 DUP4 ADD MSTORE PUSH2 0x3D81 DUP2 DUP5 PUSH2 0x3D09 JUMP JUMPDEST SWAP1 POP SWAP3 SWAP2 POP POP JUMP JUMPDEST PUSH1 0x0 PUSH2 0x100 DUP3 ADD SWAP1 POP PUSH2 0x3D9F PUSH1 0x0 DUP4 ADD DUP12 PUSH2 0x36FD JUMP JUMPDEST DUP2 DUP2 SUB PUSH1 0x20 DUP4 ADD MSTORE PUSH2 0x3DB1 DUP2 DUP11 PUSH2 0x3763 JUMP JUMPDEST SWAP1 POP PUSH2 0x3DC0 PUSH1 0x40 DUP4 ADD DUP10 PUSH2 0x359F JUMP JUMPDEST PUSH2 0x3DCD PUSH1 0x60 DUP4 ADD DUP9 PUSH2 0x359F JUMP JUMPDEST PUSH2 0x3DDA PUSH1 0x80 DUP4 ADD DUP8 PUSH2 0x359F JUMP JUMPDEST PUSH2 0x3DE7 PUSH1 0xA0 DUP4 ADD DUP7 PUSH2 0x359F JUMP JUMPDEST PUSH2 0x3DF4 PUSH1 0xC0 DUP4 ADD DUP6 PUSH2 0x359F JUMP JUMPDEST PUSH2 0x3E01 PUSH1 0xE0 DUP4 ADD DUP5 PUSH2 0x3804 JUMP JUMPDEST SWAP10 SWAP9 POP POP POP POP POP POP POP POP POP JUMP JUMPDEST PUSH1 0x0 DUP1 PUSH1 0x40 DUP4 DUP6 SUB SLT ISZERO PUSH2 0x3E25 JUMPI PUSH2 0x3E24 PUSH2 0x3532 JUMP JUMPDEST JUMPDEST PUSH1 0x0 DUP4 ADD CALLDATALOAD PUSH8 0xFFFFFFFFFFFFFFFF DUP2 GT ISZERO PUSH2 0x3E43 JUMPI PUSH2 0x3E42 PUSH2 0x3537 JUMP JUMPDEST JUMPDEST PUSH2 0x3E4F DUP6 DUP3 DUP7 ADD PUSH2 0x3A3D JUMP JUMPDEST SWAP3 POP POP PUSH1 0x20 PUSH2 0x3E60 DUP6 DUP3 DUP7 ADD PUSH2 0x35E0 JUMP JUMPDEST SWAP2 POP POP SWAP3 POP SWAP3 SWAP1 POP JUMP JUMPDEST PUSH32 0x506F6C696379206E6F7420666F756E6400000000000000000000000000000000 PUSH1 0x0 DUP3 ADD MSTORE POP JUMP JUMPDEST PUSH1 0x0 PUSH2 0x3EA0 PUSH1 0x10 DUP4 PUSH2 0x3717 JUMP JUMPDEST SWAP2 POP PUSH2 0x3EAB DUP3 PUSH2 0x3E6A JUMP JUMPDEST PUSH1 0x20 DUP3 ADD SWAP1 POP SWAP2 SWAP1 POP JUMP JUMPDEST PUSH1 0x0 PUSH1 0x20 DUP3 ADD SWAP1 POP DUP2 DUP2 SUB PUSH1 0x0 DUP4 ADD MSTORE PUSH2 0x3ECF DUP2 PUSH2 0x3E93 JUMP JUMPDEST SWAP1 POP SWAP2 SWAP1 POP JUMP JUMPDEST PUSH32 0x466C696768742064617465206E6F742072656163686564000000000000000000 PUSH1 0x0 DUP3 ADD MSTORE POP JUMP JUMPDEST PUSH1 0x0 PUSH2 0x3F0C PUSH1 0x17 DUP4 PUSH2 0x3717 JUMP JUMPDEST SWAP2 POP PUSH2 0x3F17 DUP3 PUSH2 0x3ED6 JUMP JUMPDEST PUSH1 0x20 DUP3 ADD SWAP1 POP SWAP2 SWAP1 POP JUMP JUMPDEST PUSH1 0x0 PUSH1 0x20 DUP3 ADD SWAP1 POP DUP2 DUP2 SUB PUSH1 0x0 DUP4 ADD MSTORE PUSH2 0x3F3B DUP2 PUSH2 0x3EFF JUMP JUMPDEST SWAP1 POP SWAP2 SWAP1 POP JUMP JUMPDEST PUSH32 0x546F6F20736F6F6E20746F207265636865636B206F7220616C72656164792063 PUSH1 0x0 DUP3 ADD MSTORE PUSH32 0x6C61696D65640000000000000000000000000000000000000000000000000000 PUSH1 0x20 DUP3 ADD MSTORE POP JUMP JUMPDEST PUSH1 0x0 PUSH2 0x3F9E PUSH1 0x26 DUP4 PUSH2 0x3717 JUMP JUMPDEST SWAP2 POP PUSH2 0x3FA9 DUP3 PUSH2 0x3F42 JUMP JUMPDEST PUSH1 0x40 DUP3 ADD SWAP1 POP SWAP2 SWAP1 POP JUMP JUMPDEST PUSH1 0x0 PUSH1 0x20 DUP3 ADD SWAP1 POP DUP2 DUP2 SUB PUSH1 0x0 DUP4 ADD MSTORE PUSH2 0x3FCD DUP2 PUSH2 0x3F91 JUMP JUMPDEST SWAP1 POP SWAP2 SWAP1 POP JUMP JUMPDEST PUSH1 0x0 DUP2 SWAP1 POP SWAP3 SWAP2 POP POP JUMP JUMPDEST PUSH32 0x68747470733A2F2F646563656E747261666C696768746170692E6F6E72656E64 PUSH1 0x0 DUP3 ADD MSTORE PUSH32 0x65722E636F6D2F6170692F666C696768742D64656C61793F666C696768745F69 PUSH1 0x20 DUP3 ADD MSTORE PUSH32 0x6174613D00000000000000000000000000000000000000000000000000000000 PUSH1 0x40 DUP3 ADD MSTORE POP JUMP JUMPDEST PUSH1 0x0 PUSH2 0x4061 PUSH1 0x44 DUP4 PUSH2 0x3FD4 JUMP JUMPDEST SWAP2 POP PUSH2 0x406C DUP3 PUSH2 0x3FDF JUMP JUMPDEST PUSH1 0x44 DUP3 ADD SWAP1 POP SWAP2 SWAP1 POP JUMP JUMPDEST PUSH32 0x4E487B7100000000000000000000000000000000000000000000000000000000 PUSH1 0x0 MSTORE PUSH1 0x22 PUSH1 0x4 MSTORE PUSH1 0x24 PUSH1 0x0 REVERT JUMPDEST PUSH1 0x0 PUSH1 0x2 DUP3 DIV SWAP1 POP PUSH1 0x1 DUP3 AND DUP1 PUSH2 0x40BE JUMPI PUSH1 0x7F DUP3 AND SWAP2 POP JUMPDEST PUSH1 0x20 DUP3 LT DUP2 SUB PUSH2 0x40D1 JUMPI PUSH2 0x40D0 PUSH2 0x4077 JUMP JUMPDEST JUMPDEST POP SWAP2 SWAP1 POP JUMP JUMPDEST PUSH1 0x0 DUP2 SWAP1 POP DUP2 PUSH1 0x0 MSTORE PUSH1 0x20 PUSH1 0x0 KECCAK256 SWAP1 POP SWAP2 SWAP1 POP JUMP JUMPDEST PUSH1 0x0 DUP2 SLOAD PUSH2 0x40F9 DUP2 PUSH2 0x40A6 JUMP JUMPDEST PUSH2 0x4103 DUP2 DUP7 PUSH2 0x3FD4 JUMP JUMPDEST SWAP5 POP PUSH1 0x1 DUP3 AND PUSH1 0x0 DUP2 EQ PUSH2 0x411E JUMPI PUSH1 0x1 DUP2 EQ PUSH2 0x4133 JUMPI PUSH2 0x4166 JUMP JUMPDEST PUSH1 0xFF NOT DUP4 AND DUP7 MSTORE DUP2 ISZERO ISZERO DUP3 MUL DUP7 ADD SWAP4 POP PUSH2 0x4166 JUMP JUMPDEST PUSH2 0x413C DUP6 PUSH2 0x40D7 JUMP JUMPDEST PUSH1 0x0 JUMPDEST DUP4 DUP2 LT ISZERO PUSH2 0x415E JUMPI DUP2 SLOAD DUP2 DUP10 ADD MSTORE PUSH1 0x1 DUP3 ADD SWAP2 POP PUSH1 0x20 DUP2 ADD SWAP1 POP PUSH2 0x413F JUMP JUMPDEST DUP4 DUP9 ADD SWAP6 POP POP POP JUMPDEST POP POP POP SWAP3 SWAP2 POP POP JUMP JUMPDEST PUSH32 0x266465706172747572655F646174653D00000000000000000000000000000000 PUSH1 0x0 DUP3 ADD MSTORE POP JUMP JUMPDEST PUSH1 0x0 PUSH2 0x41A5 PUSH1 0x10 DUP4 PUSH2 0x3FD4 JUMP JUMPDEST SWAP2 POP PUSH2 0x41B0 DUP3 PUSH2 0x416F JUMP JUMPDEST PUSH1 0x10 DUP3 ADD SWAP1 POP SWAP2 SWAP1 POP JUMP JUMPDEST PUSH1 0x0 PUSH2 0x41C6 DUP3 PUSH2 0x370C JUMP JUMPDEST PUSH2 0x41D0 DUP2 DUP6 PUSH2 0x3FD4 JUMP JUMPDEST SWAP4 POP PUSH2 0x41E0 DUP2 DUP6 PUSH1 0x20 DUP7 ADD PUSH2 0x3728 JUMP JUMPDEST DUP1 DUP5 ADD SWAP2 POP POP SWAP3 SWAP2 POP POP JUMP JUMPDEST PUSH1 0x0 PUSH2 0x41F7 DUP3 PUSH2 0x4054 JUMP JUMPDEST SWAP2 POP PUSH2 0x4203 DUP3 DUP6 PUSH2 0x40EC JUMP JUMPDEST SWAP2 POP PUSH2 0x420E DUP3 PUSH2 0x4198 JUMP JUMPDEST SWAP2 POP PUSH2 0x421A DUP3 DUP5 PUSH2 0x41BB JUMP JUMPDEST SWAP2 POP DUP2 SWAP1 POP SWAP4 SWAP3 POP POP POP JUMP JUMPDEST PUSH32 0x536F75726365206D75737420626520746865206F7261636C65206F6620746865 PUSH1 0x0 DUP3 ADD MSTORE PUSH32 0x2072657175657374000000000000000000000000000000000000000000000000 PUSH1 0x20 DUP3 ADD MSTORE POP JUMP JUMPDEST PUSH1 0x0 PUSH2 0x4282 PUSH1 0x28 DUP4 PUSH2 0x3717 JUMP JUMPDEST SWAP2 POP PUSH2 0x428D DUP3 PUSH2 0x4226 JUMP JUMPDEST PUSH1 0x40 DUP3 ADD SWAP1 POP SWAP2 SWAP1 POP JUMP JUMPDEST PUSH1 0x0 PUSH1 0x20 DUP3 ADD SWAP1 POP DUP2 DUP2 SUB PUSH1 0x0 DUP4 ADD MSTORE PUSH2 0x42B1 DUP2 PUSH2 0x4275 JUMP JUMPDEST SWAP1 POP SWAP2 SWAP1 POP JUMP JUMPDEST PUSH32 0x556E6B6E6F776E20726571756573742049440000000000000000000000000000 PUSH1 0x0 DUP3 ADD MSTORE POP JUMP JUMPDEST PUSH1 0x0 PUSH2 0x42EE PUSH1 0x12 DUP4 PUSH2 0x3717 JUMP JUMPDEST SWAP2 POP PUSH2 0x42F9 DUP3 PUSH2 0x42B8 JUMP JUMPDEST PUSH1 0x20 DUP3 ADD SWAP1 POP SWAP2 SWAP1 POP JUMP JUMPDEST PUSH1 0x0 PUSH1 0x20 DUP3 ADD SWAP1 POP DUP2 DUP2 SUB PUSH1 0x0 DUP4 ADD MSTORE PUSH2 0x431D DUP2 PUSH2 0x42E1 JUMP JUMPDEST SWAP1 POP SWAP2 SWAP1 POP JUMP JUMPDEST PUSH1 0x0 DUP2 SLOAD PUSH2 0x4331 DUP2 PUSH2 0x40A6 JUMP JUMPDEST PUSH2 0x433B DUP2 DUP7 PUSH2 0x3717 JUMP JUMPDEST SWAP5 POP PUSH1 0x1 DUP3 AND PUSH1 0x0 DUP2 EQ PUSH2 0x4356 JUMPI PUSH1 0x1 DUP2 EQ PUSH2 0x436C JUMPI PUSH2 0x439F JUMP JUMPDEST PUSH1 0xFF NOT DUP4 AND DUP7 MSTORE DUP2 ISZERO ISZERO PUSH1 0x20 MUL DUP7 ADD SWAP4 POP PUSH2 0x439F JUMP JUMPDEST PUSH2 0x4375 DUP6 PUSH2 0x40D7 JUMP JUMPDEST PUSH1 0x0 JUMPDEST DUP4 DUP2 LT ISZERO PUSH2 0x4397 JUMPI DUP2 SLOAD DUP2 DUP10 ADD MSTORE PUSH1 0x1 DUP3 ADD SWAP2 POP PUSH1 0x20 DUP2 ADD SWAP1 POP PUSH2 0x4378 JUMP JUMPDEST DUP1 DUP9 ADD SWAP6 POP POP POP JUMPDEST POP POP POP SWAP3 SWAP2 POP POP JUMP JUMPDEST PUSH1 0x0 PUSH1 0x80 DUP3 ADD SWAP1 POP PUSH2 0x43BD PUSH1 0x0 DUP4 ADD DUP8 PUSH2 0x36D3 JUMP JUMPDEST DUP2 DUP2 SUB PUSH1 0x20 DUP4 ADD MSTORE PUSH2 0x43CF DUP2 DUP7 PUSH2 0x4324 JUMP JUMPDEST SWAP1 POP PUSH2 0x43DE PUSH1 0x40 DUP4 ADD DUP6 PUSH2 0x3804 JUMP JUMPDEST PUSH2 0x43EB PUSH1 0x60 DUP4 ADD DUP5 PUSH2 0x359F JUMP JUMPDEST SWAP6 SWAP5 POP POP POP POP POP JUMP JUMPDEST PUSH1 0x0 PUSH8 0xFFFFFFFFFFFFFFFF DUP3 GT ISZERO PUSH2 0x440F JUMPI PUSH2 0x440E PUSH2 0x3940 JUMP JUMPDEST JUMPDEST PUSH1 0x20 DUP3 MUL SWAP1 POP PUSH1 0x20 DUP2 ADD SWAP1 POP SWAP2 SWAP1 POP JUMP JUMPDEST PUSH1 0x0 PUSH2 0x4433 PUSH2 0x442E DUP5 PUSH2 0x43F4 JUMP JUMPDEST PUSH2 0x39A0 JUMP JUMPDEST SWAP1 POP DUP1 DUP4 DUP3 MSTORE PUSH1 0x20 DUP3 ADD SWAP1 POP PUSH1 0x20 DUP5 MUL DUP4 ADD DUP6 DUP2 GT ISZERO PUSH2 0x4456 JUMPI PUSH2 0x4455 PUSH2 0x3893 JUMP JUMPDEST JUMPDEST DUP4 JUMPDEST DUP2 DUP2 LT ISZERO PUSH2 0x447F JUMPI DUP1 PUSH2 0x446B DUP9 DUP3 PUSH2 0x355D JUMP JUMPDEST DUP5 MSTORE PUSH1 0x20 DUP5 ADD SWAP4 POP POP PUSH1 0x20 DUP2 ADD SWAP1 POP PUSH2 0x4458 JUMP JUMPDEST POP POP POP SWAP4 SWAP3 POP POP POP JUMP JUMPDEST PUSH1 0x0 DUP3 PUSH1 0x1F DUP4 ADD SLT PUSH2 0x449E JUMPI PUSH2 0x449D PUSH2 0x3889 JUMP JUMPDEST JUMPDEST DUP2 CALLDATALOAD PUSH2 0x44AE DUP5 DUP3 PUSH1 0x20 DUP7 ADD PUSH2 0x4420 JUMP JUMPDEST SWAP2 POP POP SWAP3 SWAP2 POP POP JUMP JUMPDEST PUSH1 0x0 DUP1 PUSH1 0x40 DUP4 DUP6 SUB SLT ISZERO PUSH2 0x44CE JUMPI PUSH2 0x44CD PUSH2 0x3532 JUMP JUMPDEST JUMPDEST PUSH1 0x0 DUP4 ADD CALLDATALOAD PUSH8 0xFFFFFFFFFFFFFFFF DUP2 GT ISZERO PUSH2 0x44EC JUMPI PUSH2 0x44EB PUSH2 0x3537 JUMP JUMPDEST JUMPDEST PUSH2 0x44F8 DUP6 DUP3 DUP7 ADD PUSH2 0x4489 JUMP JUMPDEST SWAP3 POP POP PUSH1 0x20 PUSH2 0x4509 DUP6 DUP3 DUP7 ADD PUSH2 0x35E0 JUMP JUMPDEST SWAP2 POP POP SWAP3 POP SWAP3 SWAP1 POP JUMP JUMPDEST PUSH32 0x4E487B7100000000000000000000000000000000000000000000000000000000 PUSH1 0x0 MSTORE PUSH1 0x32 PUSH1 0x4 MSTORE PUSH1 0x24 PUSH1 0x0 REVERT JUMPDEST PUSH1 0x0 PUSH2 0x454E DUP3 DUP5 PUSH2 0x41BB JUMP JUMPDEST SWAP2 POP DUP2 SWAP1 POP SWAP3 SWAP2 POP POP JUMP JUMPDEST PUSH32 0x496E74657276616C20746F6F2073686F72740000000000000000000000000000 PUSH1 0x0 DUP3 ADD MSTORE POP JUMP JUMPDEST PUSH1 0x0 PUSH2 0x458F PUSH1 0x12 DUP4 PUSH2 0x3717 JUMP JUMPDEST SWAP2 POP PUSH2 0x459A DUP3 PUSH2 0x4559 JUMP JUMPDEST PUSH1 0x20 DUP3 ADD SWAP1 POP SWAP2 SWAP1 POP JUMP JUMPDEST PUSH1 0x0 PUSH1 0x20 DUP3 ADD SWAP1 POP DUP2 DUP2 SUB PUSH1 0x0 DUP4 ADD MSTORE PUSH2 0x45BE DUP2 PUSH2 0x4582 JUMP JUMPDEST SWAP1 POP SWAP2 SWAP1 POP JUMP JUMPDEST PUSH1 0x0 PUSH2 0x45D0 DUP3 PUSH2 0x34BB JUMP JUMPDEST SWAP2 POP PUSH2 0x45DB DUP4 PUSH2 0x34BB JUMP JUMPDEST SWAP3 POP DUP3 DUP3 SUB SWAP1 POP DUP2 DUP2 GT ISZERO PUSH2 0x45F3 JUMPI PUSH2 0x45F2 PUSH2 0x34C5 JUMP JUMPDEST JUMPDEST SWAP3 SWAP2 POP POP JUMP JUMPDEST PUSH32 0x4E487B7100000000000000000000000000000000000000000000000000000000 PUSH1 0x0 MSTORE PUSH1 0x12 PUSH1 0x4 MSTORE PUSH1 0x24 PUSH1 0x0 REVERT JUMPDEST PUSH1 0x0 PUSH2 0x4633 DUP3 PUSH2 0x34BB JUMP JUMPDEST SWAP2 POP PUSH2 0x463E DUP4 PUSH2 0x34BB JUMP JUMPDEST SWAP3 POP DUP3 PUSH2 0x464E JUMPI PUSH2 0x464D PUSH2 0x45F9 JUMP JUMPDEST JUMPDEST DUP3 DUP3 MOD SWAP1 POP SWAP3 SWAP2 POP POP JUMP JUMPDEST PUSH1 0x0 PUSH1 0x40 DUP3 ADD SWAP1 POP DUP2 DUP2 SUB PUSH1 0x0 DUP4 ADD MSTORE PUSH2 0x4673 DUP2 DUP6 PUSH2 0x3D09 JUMP JUMPDEST SWAP1 POP PUSH2 0x4682 PUSH1 0x20 DUP4 ADD DUP5 PUSH2 0x359F JUMP JUMPDEST SWAP4 SWAP3 POP POP POP JUMP JUMPDEST PUSH32 0x506F6C69637920616C726561647920636C61696D656400000000000000000000 PUSH1 0x0 DUP3 ADD MSTORE POP JUMP JUMPDEST PUSH1 0x0 PUSH2 0x46BF PUSH1 0x16 DUP4 PUSH2 0x3717 JUMP JUMPDEST SWAP2 POP PUSH2 0x46CA DUP3 PUSH2 0x4689 JUMP JUMPDEST PUSH1 0x20 DUP3 ADD SWAP1 POP SWAP2 SWAP1 POP JUMP JUMPDEST PUSH1 0x0 PUSH1 0x20 DUP3 ADD SWAP1 POP DUP2 DUP2 SUB PUSH1 0x0 DUP4 ADD MSTORE PUSH2 0x46EE DUP2 PUSH2 0x46B2 JUMP JUMPDEST SWAP1 POP SWAP2 SWAP1 POP JUMP JUMPDEST PUSH32 0x4F6E6C792061646D696E2063616E207769746864726177000000000000000000 PUSH1 0x0 DUP3 ADD MSTORE POP JUMP JUMPDEST PUSH1 0x0 PUSH2 0x472B PUSH1 0x17 DUP4 PUSH2 0x3717 JUMP JUMPDEST SWAP2 POP PUSH2 0x4736 DUP3 PUSH2 0x46F5 JUMP JUMPDEST PUSH1 0x20 DUP3 ADD SWAP1 POP SWAP2 SWAP1 POP JUMP JUMPDEST PUSH1 0x0 PUSH1 0x20 DUP3 ADD SWAP1 POP DUP2 DUP2 SUB PUSH1 0x0 DUP4 ADD MSTORE PUSH2 0x475A DUP2 PUSH2 0x471E JUMP JUMPDEST SWAP1 POP SWAP2 SWAP1 POP JUMP JUMPDEST PUSH32 0x43616E6E6F74207769746864726177206D6F7265207468616E20617661696C61 PUSH1 0x0 DUP3 ADD MSTORE PUSH32 0x626C6520726576656E75652066756E6473000000000000000000000000000000 PUSH1 0x20 DUP3 ADD MSTORE POP JUMP JUMPDEST PUSH1 0x0 PUSH2 0x47BD PUSH1 0x31 DUP4 PUSH2 0x3717 JUMP JUMPDEST SWAP2 POP PUSH2 0x47C8 DUP3 PUSH2 0x4761 JUMP JUMPDEST PUSH1 0x40 DUP3 ADD SWAP1 POP SWAP2 SWAP1 POP JUMP JUMPDEST PUSH1 0x0 PUSH1 0x20 DUP3 ADD SWAP1 POP DUP2 DUP2 SUB PUSH1 0x0 DUP4 ADD MSTORE PUSH2 0x47EC DUP2 PUSH2 0x47B0 JUMP JUMPDEST SWAP1 POP SWAP2 SWAP1 POP JUMP JUMPDEST PUSH1 0x0 DUP2 SWAP1 POP SWAP3 SWAP2 POP POP JUMP JUMPDEST POP JUMP JUMPDEST PUSH1 0x0 PUSH2 0x480E PUSH1 0x0 DUP4 PUSH2 0x47F3 JUMP JUMPDEST SWAP2 POP PUSH2 0x4819 DUP3 PUSH2 0x47FE JUMP JUMPDEST PUSH1 0x0 DUP3 ADD SWAP1 POP SWAP2 SWAP1 POP JUMP JUMPDEST PUSH1 0x0 PUSH2 0x482F DUP3 PUSH2 0x4801 JUMP JUMPDEST SWAP2 POP DUP2 SWAP1 POP SWAP2 SWAP1 POP JUMP JUMPDEST PUSH32 0x5769746864726177616C207472616E73666572206661696C6564000000000000 PUSH1 0x0 DUP3 ADD MSTORE POP JUMP JUMPDEST PUSH1 0x0 PUSH2 0x486F PUSH1 0x1A DUP4 PUSH2 0x3717 JUMP JUMPDEST SWAP2 POP PUSH2 0x487A DUP3 PUSH2 0x4839 JUMP JUMPDEST PUSH1 0x20 DUP3 ADD SWAP1 POP SWAP2 SWAP1 POP JUMP JUMPDEST PUSH1 0x0 PUSH1 0x20 DUP3 ADD SWAP1 POP DUP2 DUP2 SUB PUSH1 0x0 DUP4 ADD MSTORE PUSH2 0x489E DUP2 PUSH2 0x4862 JUMP JUMPDEST SWAP1 POP SWAP2 SWAP1 POP JUMP JUMPDEST PUSH1 0x0 PUSH1 0x40 DUP3 ADD SWAP1 POP PUSH2 0x48BA PUSH1 0x0 DUP4 ADD DUP6 PUSH2 0x359F JUMP JUMPDEST PUSH2 0x48C7 PUSH1 0x20 DUP4 ADD DUP5 PUSH2 0x359F JUMP JUMPDEST SWAP4 SWAP3 POP POP POP JUMP JUMPDEST PUSH32 0x3000000000000000000000000000000000000000000000000000000000000000 PUSH1 0x0 DUP3 ADD MSTORE POP JUMP JUMPDEST PUSH1 0x0 PUSH2 0x4904 PUSH1 0x1 DUP4 PUSH2 0x3FD4 JUMP JUMPDEST SWAP2 POP PUSH2 0x490F DUP3 PUSH2 0x48CE JUMP JUMPDEST PUSH1 0x1 DUP3 ADD SWAP1 POP SWAP2 SWAP1 POP JUMP JUMPDEST PUSH1 0x0 PUSH2 0x4925 DUP3 PUSH2 0x48F7 JUMP JUMPDEST SWAP2 POP PUSH2 0x4931 DUP3 DUP5 PUSH2 0x41BB JUMP JUMPDEST SWAP2 POP DUP2 SWAP1 POP SWAP3 SWAP2 POP POP JUMP JUMPDEST PUSH32 0x2D00000000000000000000000000000000000000000000000000000000000000 PUSH1 0x0 DUP3 ADD MSTORE POP JUMP JUMPDEST PUSH1 0x0 PUSH2 0x4972 PUSH1 0x1 DUP4 PUSH2 0x3FD4 JUMP JUMPDEST SWAP2 POP PUSH2 0x497D DUP3 PUSH2 0x493C JUMP JUMPDEST PUSH1 0x1 DUP3 ADD SWAP1 POP SWAP2 SWAP1 POP JUMP JUMPDEST PUSH1 0x0 PUSH2 0x4994 DUP3 DUP7 PUSH2 0x41BB JUMP JUMPDEST SWAP2 POP PUSH2 0x499F DUP3 PUSH2 0x4965 JUMP JUMPDEST SWAP2 POP PUSH2 0x49AB DUP3 DUP6 PUSH2 0x41BB JUMP JUMPDEST SWAP2 POP PUSH2 0x49B6 DUP3 PUSH2 0x4965 JUMP JUMPDEST SWAP2 POP PUSH2 0x49C2 DUP3 DUP5 PUSH2 0x41BB JUMP JUMPDEST SWAP2 POP DUP2 SWAP1 POP SWAP5 SWAP4 POP POP POP POP JUMP JUMPDEST PUSH1 0x0 PUSH32 0xFFFFFFFF00000000000000000000000000000000000000000000000000000000 DUP3 AND SWAP1 POP SWAP2 SWAP1 POP JUMP JUMPDEST PUSH2 0x4A04 DUP2 PUSH2 0x49CF JUMP JUMPDEST DUP3 MSTORE POP POP JUMP JUMPDEST PUSH1 0x0 PUSH2 0x100 DUP3 ADD SWAP1 POP PUSH2 0x4A20 PUSH1 0x0 DUP4 ADD DUP12 PUSH2 0x36FD JUMP JUMPDEST PUSH2 0x4A2D PUSH1 0x20 DUP4 ADD DUP11 PUSH2 0x359F JUMP JUMPDEST PUSH2 0x4A3A PUSH1 0x40 DUP4 ADD DUP10 PUSH2 0x36D3 JUMP JUMPDEST PUSH2 0x4A47 PUSH1 0x60 DUP4 ADD DUP9 PUSH2 0x36FD JUMP JUMPDEST PUSH2 0x4A54 PUSH1 0x80 DUP4 ADD DUP8 PUSH2 0x49FB JUMP JUMPDEST PUSH2 0x4A61 PUSH1 0xA0 DUP4 ADD DUP7 PUSH2 0x359F JUMP JUMPDEST PUSH2 0x4A6E PUSH1 0xC0 DUP4 ADD DUP6 PUSH2 0x359F JUMP JUMPDEST DUP2 DUP2 SUB PUSH1 0xE0 DUP4 ADD MSTORE PUSH2 0x4A80 DUP2 DUP5 PUSH2 0x3B59 JUMP JUMPDEST SWAP1 POP SWAP10 SWAP9 POP POP POP POP POP POP POP POP POP JUMP JUMPDEST PUSH32 0x466C69676874206E6F742064656C617965640000000000000000000000000000 PUSH1 0x0 DUP3 ADD MSTORE POP JUMP JUMPDEST PUSH1 0x0 PUSH2 0x4AC5 PUSH1 0x12 DUP4 PUSH2 0x3717 JUMP JUMPDEST SWAP2 POP PUSH2 0x4AD0 DUP3 PUSH2 0x4A8F JUMP JUMPDEST PUSH1 0x20 DUP3 ADD SWAP1 POP SWAP2 SWAP1 POP JUMP JUMPDEST PUSH1 0x0 PUSH1 0x20 DUP3 ADD SWAP1 POP DUP2 DUP2 SUB PUSH1 0x0 DUP4 ADD MSTORE PUSH2 0x4AF4 DUP2 PUSH2 0x4AB8 JUMP JUMPDEST SWAP1 POP SWAP2 SWAP1 POP JUMP JUMPDEST PUSH1 0x0 PUSH2 0x4B06 DUP3 PUSH2 0x34BB JUMP JUMPDEST SWAP2 POP PUSH2 0x4B11 DUP4 PUSH2 0x34BB JUMP JUMPDEST SWAP3 POP DUP3 DUP3 MUL PUSH2 0x4B1F DUP2 PUSH2 0x34BB JUMP JUMPDEST SWAP2 POP DUP3 DUP3 DIV DUP5 EQ DUP4 ISZERO OR PUSH2 0x4B36 JUMPI PUSH2 0x4B35 PUSH2 0x34C5 JUMP JUMPDEST JUMPDEST POP SWAP3 SWAP2 POP POP JUMP JUMPDEST PUSH1 0x0 PUSH2 0x4B48 DUP3 PUSH2 0x34BB JUMP JUMPDEST SWAP2 POP PUSH2 0x4B53 DUP4 PUSH2 0x34BB JUMP JUMPDEST SWAP3 POP DUP3 PUSH2 0x4B63 JUMPI PUSH2 0x4B62 PUSH2 0x45F9 JUMP JUMPDEST JUMPDEST DUP3 DUP3 DIV SWAP1 POP SWAP3 SWAP2 POP POP JUMP JUMPDEST PUSH32 0x5061796F7574207472616E73666572206661696C656400000000000000000000 PUSH1 0x0 DUP3 ADD MSTORE POP JUMP JUMPDEST PUSH1 0x0 PUSH2 0x4BA4 PUSH1 0x16 DUP4 PUSH2 0x3717 JUMP JUMPDEST SWAP2 POP PUSH2 0x4BAF DUP3 PUSH2 0x4B6E JUMP JUMPDEST PUSH1 0x20 DUP3 ADD SWAP1 POP SWAP2 SWAP1 POP JUMP JUMPDEST PUSH1 0x0 PUSH1 0x20 DUP3 ADD SWAP1 POP DUP2 DUP2 SUB PUSH1 0x0 DUP4 ADD MSTORE PUSH2 0x4BD3 DUP2 PUSH2 0x4B97 JUMP JUMPDEST SWAP1 POP SWAP2 SWAP1 POP JUMP JUMPDEST PUSH1 0x0 PUSH1 0x60 DUP3 ADD SWAP1 POP PUSH2 0x4BEF PUSH1 0x0 DUP4 ADD DUP7 PUSH2 0x36D3 JUMP JUMPDEST PUSH2 0x4BFC PUSH1 0x20 DUP4 ADD DUP6 PUSH2 0x36FD JUMP JUMPDEST PUSH2 0x4C09 PUSH1 0x40 DUP4 ADD DUP5 PUSH2 0x359F JUMP JUMPDEST SWAP5 SWAP4 POP POP POP POP JUMP JUMPDEST PUSH32 0x5072656D69756D206D7573742062652067726561746572207468616E20300000 PUSH1 0x0 DUP3 ADD MSTORE POP JUMP JUMPDEST PUSH1 0x0 PUSH2 0x4C47 PUSH1 0x1E DUP4 PUSH2 0x3717 JUMP JUMPDEST SWAP2 POP PUSH2 0x4C52 DUP3 PUSH2 0x4C11 JUMP JUMPDEST PUSH1 0x20 DUP3 ADD SWAP1 POP SWAP2 SWAP1 POP JUMP JUMPDEST PUSH1 0x0 PUSH1 0x20 DUP3 ADD SWAP1 POP DUP2 DUP2 SUB PUSH1 0x0 DUP4 ADD MSTORE PUSH2 0x4C76 DUP2 PUSH2 0x4C3A JUMP JUMPDEST SWAP1 POP SWAP2 SWAP1 POP JUMP JUMPDEST PUSH32 0x466C696768742064617465206D75737420626520696E20746865206675747572 PUSH1 0x0 DUP3 ADD MSTORE PUSH32 0x6500000000000000000000000000000000000000000000000000000000000000 PUSH1 0x20 DUP3 ADD MSTORE POP JUMP JUMPDEST PUSH1 0x0 PUSH2 0x4CD9 PUSH1 0x21 DUP4 PUSH2 0x3717 JUMP JUMPDEST SWAP2 POP PUSH2 0x4CE4 DUP3 PUSH2 0x4C7D JUMP JUMPDEST PUSH1 0x40 DUP3 ADD SWAP1 POP SWAP2 SWAP1 POP JUMP JUMPDEST PUSH1 0x0 PUSH1 0x20 DUP3 ADD SWAP1 POP DUP2 DUP2 SUB PUSH1 0x0 DUP4 ADD MSTORE PUSH2 0x4D08 DUP2 PUSH2 0x4CCC JUMP JUMPDEST SWAP1 POP SWAP2 SWAP1 POP JUMP JUMPDEST PUSH32 0x506F6C69637920666F72207468697320666C6967687420616C72656164792065 PUSH1 0x0 DUP3 ADD MSTORE PUSH32 0x7869737473000000000000000000000000000000000000000000000000000000 PUSH1 0x20 DUP3 ADD MSTORE POP JUMP JUMPDEST PUSH1 0x0 PUSH2 0x4D6B PUSH1 0x25 DUP4 PUSH2 0x3717 JUMP JUMPDEST SWAP2 POP PUSH2 0x4D76 DUP3 PUSH2 0x4D0F JUMP JUMPDEST PUSH1 0x40 DUP3 ADD SWAP1 POP SWAP2 SWAP1 POP JUMP JUMPDEST PUSH1 0x0 PUSH1 0x20 DUP3 ADD SWAP1 POP DUP2 DUP2 SUB PUSH1 0x0 DUP4 ADD MSTORE PUSH2 0x4D9A DUP2 PUSH2 0x4D5E JUMP JUMPDEST SWAP1 POP SWAP2 SWAP1 POP JUMP JUMPDEST PUSH1 0x0 DUP2 PUSH1 0x60 SHL SWAP1 POP SWAP2 SWAP1 POP JUMP JUMPDEST PUSH1 0x0 PUSH2 0x4DB9 DUP3 PUSH2 0x4DA1 JUMP JUMPDEST SWAP1 POP SWAP2 SWAP1 POP JUMP JUMPDEST PUSH1 0x0 PUSH2 0x4DCB DUP3 PUSH2 0x4DAE JUMP JUMPDEST SWAP1 POP SWAP2 SWAP1 POP JUMP JUMPDEST PUSH2 0x4DE3 PUSH2 0x4DDE DUP3 PUSH2 0x3655 JUMP JUMPDEST PUSH2 0x4DC0 JUMP JUMPDEST DUP3 MSTORE POP POP JUMP JUMPDEST PUSH1 0x0 DUP2 SWAP1 POP SWAP2 SWAP1 POP JUMP JUMPDEST PUSH2 0x4E04 PUSH2 0x4DFF DUP3 PUSH2 0x34BB JUMP JUMPDEST PUSH2 0x4DE9 JUMP JUMPDEST DUP3 MSTORE POP POP JUMP JUMPDEST PUSH1 0x0 PUSH2 0x4E16 DUP3 DUP8 PUSH2 0x4DD2 JUMP JUMPDEST PUSH1 0x14 DUP3 ADD SWAP2 POP PUSH2 0x4E26 DUP3 DUP7 PUSH2 0x41BB JUMP JUMPDEST SWAP2 POP PUSH2 0x4E32 DUP3 DUP6 PUSH2 0x4DF3 JUMP JUMPDEST PUSH1 0x20 DUP3 ADD SWAP2 POP PUSH2 0x4E42 DUP3 DUP5 PUSH2 0x4DF3 JUMP JUMPDEST PUSH1 0x20 DUP3 ADD SWAP2 POP DUP2 SWAP1 POP SWAP6 SWAP5 POP POP POP POP POP JUMP JUMPDEST PUSH1 0x0 PUSH1 0x20 PUSH1 0x1F DUP4 ADD DIV SWAP1 POP SWAP2 SWAP1 POP JUMP JUMPDEST PUSH1 0x0 DUP3 DUP3 SHL SWAP1 POP SWAP3 SWAP2 POP POP JUMP JUMPDEST PUSH1 0x0 PUSH1 0x8 DUP4 MUL PUSH2 0x4EA1 PUSH32 0xFFFFFFFFFFFFFFFFFFFFFFFFFFFFFFFFFFFFFFFFFFFFFFFFFFFFFFFFFFFFFFFF DUP3 PUSH2 0x4E64 JUMP JUMPDEST PUSH2 0x4EAB DUP7 DUP4 PUSH2 0x4E64 JUMP JUMPDEST SWAP6 POP DUP1 NOT DUP5 AND SWAP4 POP DUP1 DUP7 AND DUP5 OR SWAP3 POP POP POP SWAP4 SWAP3 POP POP POP JUMP JUMPDEST PUSH1 0x0 DUP2 SWAP1 POP SWAP2 SWAP1 POP JUMP JUMPDEST PUSH1 0x0 PUSH2 0x4EE8 PUSH2 0x4EE3 PUSH2 0x4EDE DUP5 PUSH2 0x34BB JUMP JUMPDEST PUSH2 0x4EC3 JUMP JUMPDEST PUSH2 0x34BB JUMP JUMPDEST SWAP1 POP SWAP2 SWAP1 POP JUMP JUMPDEST PUSH1 0x0 DUP2 SWAP1 POP SWAP2 SWAP1 POP JUMP JUMPDEST PUSH2 0x4F02 DUP4 PUSH2 0x4ECD JUMP JUMPDEST PUSH2 0x4F16 PUSH2 0x4F0E DUP3 PUSH2 0x4EEF JUMP JUMPDEST DUP5 DUP5 SLOAD PUSH2 0x4E71 JUMP JUMPDEST DUP3 SSTORE POP POP POP POP JUMP JUMPDEST PUSH1 0x0 SWAP1 JUMP JUMPDEST PUSH2 0x4F2B PUSH2 0x4F1E JUMP JUMPDEST PUSH2 0x4F36 DUP2 DUP5 DUP5 PUSH2 0x4EF9 JUMP JUMPDEST POP POP POP JUMP JUMPDEST JUMPDEST DUP2 DUP2 LT ISZERO PUSH2 0x4F5A JUMPI PUSH2 0x4F4F PUSH1 0x0 DUP3 PUSH2 0x4F23 JUMP JUMPDEST PUSH1 0x1 DUP2 ADD SWAP1 POP PUSH2 0x4F3C JUMP JUMPDEST POP POP JUMP JUMPDEST PUSH1 0x1F DUP3 GT ISZERO PUSH2 0x4F9F JUMPI PUSH2 0x4F70 DUP2 PUSH2 0x40D7 JUMP JUMPDEST PUSH2 0x4F79 DUP5 PUSH2 0x4E54 JUMP JUMPDEST DUP2 ADD PUSH1 0x20 DUP6 LT ISZERO PUSH2 0x4F88 JUMPI DUP2 SWAP1 POP JUMPDEST PUSH2 0x4F9C PUSH2 0x4F94 DUP6 PUSH2 0x4E54 JUMP JUMPDEST DUP4 ADD DUP3 PUSH2 0x4F3B JUMP JUMPDEST POP POP JUMPDEST POP POP POP JUMP JUMPDEST PUSH1 0x0 DUP3 DUP3 SHR SWAP1 POP SWAP3 SWAP2 POP POP JUMP JUMPDEST PUSH1 0x0 PUSH2 0x4FC2 PUSH1 0x0 NOT DUP5 PUSH1 0x8 MUL PUSH2 0x4FA4 JUMP JUMPDEST NOT DUP1 DUP4 AND SWAP2 POP POP SWAP3 SWAP2 POP POP JUMP JUMPDEST PUSH1 0x0 PUSH2 0x4FDB DUP4 DUP4 PUSH2 0x4FB1 JUMP JUMPDEST SWAP2 POP DUP3 PUSH1 0x2 MUL DUP3 OR SWAP1 POP SWAP3 SWAP2 POP POP JUMP JUMPDEST PUSH2 0x4FF4 DUP3 PUSH2 0x370C JUMP JUMPDEST PUSH8 0xFFFFFFFFFFFFFFFF DUP2 GT ISZERO PUSH2 0x500D JUMPI PUSH2 0x500C PUSH2 0x3940 JUMP JUMPDEST JUMPDEST PUSH2 0x5017 DUP3 SLOAD PUSH2 0x40A6 JUMP JUMPDEST PUSH2 0x5022 DUP3 DUP3 DUP6 PUSH2 0x4F5E JUMP JUMPDEST PUSH1 0x0 PUSH1 0x20 SWAP1 POP PUSH1 0x1F DUP4 GT PUSH1 0x1 DUP2 EQ PUSH2 0x5055 JUMPI PUSH1 0x0 DUP5 ISZERO PUSH2 0x5043 JUMPI DUP3 DUP8 ADD MLOAD SWAP1 POP JUMPDEST PUSH2 0x504D DUP6 DUP3 PUSH2 0x4FCF JUMP JUMPDEST DUP7 SSTORE POP PUSH2 0x50B5 JUMP JUMPDEST PUSH1 0x1F NOT DUP5 AND PUSH2 0x5063 DUP7 PUSH2 0x40D7 JUMP JUMPDEST PUSH1 0x0 JUMPDEST DUP3 DUP2 LT ISZERO PUSH2 0x508B JUMPI DUP5 DUP10 ADD MLOAD DUP3 SSTORE PUSH1 0x1 DUP3 ADD SWAP2 POP PUSH1 0x20 DUP6 ADD SWAP5 POP PUSH1 0x20 DUP2 ADD SWAP1 POP PUSH2 0x5066 JUMP JUMPDEST DUP7 DUP4 LT ISZERO PUSH2 0x50A8 JUMPI DUP5 DUP10 ADD MLOAD PUSH2 0x50A4 PUSH1 0x1F DUP10 AND DUP3 PUSH2 0x4FB1 JUMP JUMPDEST DUP4 SSTORE POP JUMPDEST PUSH1 0x1 PUSH1 0x2 DUP9 MUL ADD DUP9 SSTORE POP POP POP JUMPDEST POP POP POP POP POP POP JUMP JUMPDEST PUSH1 0x0 PUSH2 0x50C8 DUP3 PUSH2 0x34BB JUMP JUMPDEST SWAP2 POP PUSH32 0xFFFFFFFFFFFFFFFFFFFFFFFFFFFFFFFFFFFFFFFFFFFFFFFFFFFFFFFFFFFFFFFF DUP3 SUB PUSH2 0x50FA JUMPI PUSH2 0x50F9 PUSH2 0x34C5 JUMP JUMPDEST JUMPDEST PUSH1 0x1 DUP3 ADD SWAP1 POP SWAP2 SWAP1 POP JUMP JUMPDEST PUSH1 0x0 PUSH1 0x40 DUP3 ADD SWAP1 POP PUSH2 0x511A PUSH1 0x0 DUP4 ADD DUP6 PUSH2 0x36D3 JUMP JUMPDEST DUP2 DUP2 SUB PUSH1 0x20 DUP4 ADD MSTORE PUSH2 0x512C DUP2 DUP5 PUSH2 0x3763 JUMP JUMPDEST SWAP1 POP SWAP4 SWAP3 POP POP POP JUMP JUMPDEST PUSH1 0x0 PUSH1 0xA0 DUP3 ADD SWAP1 POP PUSH2 0x514A PUSH1 0x0 DUP4 ADD DUP9 PUSH2 0x36D3 JUMP JUMPDEST PUSH2 0x5157 PUSH1 0x20 DUP4 ADD DUP8 PUSH2 0x36FD JUMP JUMPDEST DUP2 DUP2 SUB PUSH1 0x40 DUP4 ADD MSTORE PUSH2 0x5169 DUP2 DUP7 PUSH2 0x3763 JUMP JUMPDEST SWAP1 POP PUSH2 0x5178 PUSH1 0x60 DUP4 ADD DUP6 PUSH2 0x359F JUMP JUMPDEST PUSH2 0x5185 PUSH1 0x80 DUP4 ADD DUP5 PUSH2 0x359F JUMP JUMPDEST SWAP7 SWAP6 POP POP POP POP POP POP JUMP JUMPDEST PUSH1 0x0 DUP2 SWAP1 POP SWAP2 SWAP1 POP JUMP JUMPDEST PUSH1 0x0 PUSH2 0x51A4 DUP3 PUSH2 0x518F JUMP JUMPDEST SWAP2 POP PUSH2 0x51AF DUP4 PUSH2 0x518F JUMP JUMPDEST SWAP3 POP DUP3 DUP3 SUB SWAP1 POP DUP2 DUP2 SLT PUSH1 0x0 DUP5 SLT AND DUP3 DUP3 SGT PUSH1 0x0 DUP6 SLT ISZERO AND OR ISZERO PUSH2 0x51D6 JUMPI PUSH2 0x51D5 PUSH2 0x34C5 JUMP JUMPDEST JUMPDEST SWAP3 SWAP2 POP POP JUMP JUMPDEST PUSH1 0x0 PUSH2 0x51F7 PUSH2 0x51F2 PUSH2 0x51ED DUP5 PUSH2 0x3635 JUMP JUMPDEST PUSH2 0x4EC3 JUMP JUMPDEST PUSH2 0x3635 JUMP JUMPDEST SWAP1 POP SWAP2 SWAP1 POP JUMP JUMPDEST PUSH1 0x0 PUSH2 0x5209 DUP3 PUSH2 0x51DC JUMP JUMPDEST SWAP1 POP SWAP2 SWAP1 POP JUMP JUMPDEST PUSH1 0x0 PUSH2 0x521B DUP3 PUSH2 0x51FE JUMP JUMPDEST SWAP1 POP SWAP2 SWAP1 POP JUMP JUMPDEST PUSH2 0x5233 PUSH2 0x522E DUP3 PUSH2 0x5210 JUMP JUMPDEST PUSH2 0x4DC0 JUMP JUMPDEST DUP3 MSTORE POP POP JUMP JUMPDEST PUSH1 0x0 PUSH2 0x5245 DUP3 DUP6 PUSH2 0x5222 JUMP JUMPDEST PUSH1 0x14 DUP3 ADD SWAP2 POP PUSH2 0x5255 DUP3 DUP5 PUSH2 0x4DF3 JUMP JUMPDEST PUSH1 0x20 DUP3 ADD SWAP2 POP DUP2 SWAP1 POP SWAP4 SWAP3 POP POP POP JUMP JUMPDEST PUSH1 0x0 PUSH1 0x60 DUP3 ADD SWAP1 POP PUSH2 0x527A PUSH1 0x0 DUP4 ADD DUP7 PUSH2 0x36FD JUMP JUMPDEST PUSH2 0x5287 PUSH1 0x20 DUP4 ADD DUP6 PUSH2 0x359F JUMP JUMPDEST DUP2 DUP2 SUB PUSH1 0x40 DUP4 ADD MSTORE PUSH2 0x5299 DUP2 DUP5 PUSH2 0x3B59 JUMP JUMPDEST SWAP1 POP SWAP5 SWAP4 POP POP POP POP JUMP JUMPDEST PUSH2 0x52AC DUP2 PUSH2 0x3ADA JUMP JUMPDEST DUP2 EQ PUSH2 0x52B7 JUMPI PUSH1 0x0 DUP1 REVERT JUMPDEST POP JUMP JUMPDEST PUSH1 0x0 DUP2 MLOAD SWAP1 POP PUSH2 0x52C9 DUP2 PUSH2 0x52A3 JUMP JUMPDEST SWAP3 SWAP2 POP POP JUMP JUMPDEST PUSH1 0x0 PUSH1 0x20 DUP3 DUP5 SUB SLT ISZERO PUSH2 0x52E5 JUMPI PUSH2 0x52E4 PUSH2 0x3532 JUMP JUMPDEST JUMPDEST PUSH1 0x0 PUSH2 0x52F3 DUP5 DUP3 DUP6 ADD PUSH2 0x52BA JUMP JUMPDEST SWAP2 POP POP SWAP3 SWAP2 POP POP JUMP JUMPDEST PUSH32 0x756E61626C6520746F207472616E73666572416E6443616C6C20746F206F7261 PUSH1 0x0 DUP3 ADD MSTORE PUSH32 0x636C650000000000000000000000000000000000000000000000000000000000 PUSH1 0x20 DUP3 ADD MSTORE POP JUMP JUMPDEST PUSH1 0x0 PUSH2 0x5358 PUSH1 0x23 DUP4 PUSH2 0x3717 JUMP JUMPDEST SWAP2 POP PUSH2 0x5363 DUP3 PUSH2 0x52FC JUMP JUMPDEST PUSH1 0x40 DUP3 ADD SWAP1 POP SWAP2 SWAP1 POP JUMP JUMPDEST PUSH1 0x0 PUSH1 0x20 DUP3 ADD SWAP1 POP DUP2 DUP2 SUB PUSH1 0x0 DUP4 ADD MSTORE PUSH2 0x5387 DUP2 PUSH2 0x534B JUMP JUMPDEST SWAP1 POP SWAP2 SWAP1 POP JUMP JUMPDEST PUSH1 0x0 PUSH2 0x5399 DUP3 PUSH2 0x34BB JUMP JUMPDEST SWAP2 POP PUSH1 0x0 DUP3 SUB PUSH2 0x53AC JUMPI PUSH2 0x53AB PUSH2 0x34C5 JUMP JUMPDEST JUMPDEST PUSH1 0x1 DUP3 SUB SWAP1 POP SWAP2 SWAP1 POP JUMP JUMPDEST PUSH1 0x0 DUP2 PUSH1 0x1 SHR SWAP1 POP SWAP2 SWAP1 POP JUMP JUMPDEST PUSH1 0x0 DUP1 DUP3 SWAP2 POP DUP4 SWAP1 POP JUMPDEST PUSH1 0x1 DUP6 GT ISZERO PUSH2 0x540E JUMPI DUP1 DUP7 DIV DUP2 GT ISZERO PUSH2 0x53EA JUMPI PUSH2 0x53E9 PUSH2 0x34C5 JUMP JUMPDEST JUMPDEST PUSH1 0x1 DUP6 AND ISZERO PUSH2 0x53F9 JUMPI DUP1 DUP3 MUL SWAP2 POP JUMPDEST DUP1 DUP2 MUL SWAP1 POP PUSH2 0x5407 DUP6 PUSH2 0x53B7 JUMP JUMPDEST SWAP5 POP PUSH2 0x53CE JUMP JUMPDEST SWAP5 POP SWAP5 SWAP3 POP POP POP JUMP JUMPDEST PUSH1 0x0 DUP3 PUSH2 0x5427 JUMPI PUSH1 0x1 SWAP1 POP PUSH2 0x54E3 JUMP JUMPDEST DUP2 PUSH2 0x5435 JUMPI PUSH1 0x0 SWAP1 POP PUSH2 0x54E3 JUMP JUMPDEST DUP2 PUSH1 0x1 DUP2 EQ PUSH2 0x544B JUMPI PUSH1 0x2 DUP2 EQ PUSH2 0x5455 JUMPI PUSH2 0x5484 JUMP JUMPDEST PUSH1 0x1 SWAP2 POP POP PUSH2 0x54E3 JUMP JUMPDEST PUSH1 0xFF DUP5 GT ISZERO PUSH2 0x5467 JUMPI PUSH2 0x5466 PUSH2 0x34C5 JUMP JUMPDEST JUMPDEST DUP4 PUSH1 0x2 EXP SWAP2 POP DUP5 DUP3 GT ISZERO PUSH2 0x547E JUMPI PUSH2 0x547D PUSH2 0x34C5 JUMP JUMPDEST JUMPDEST POP PUSH2 0x54E3 JUMP JUMPDEST POP PUSH1 0x20 DUP4 LT PUSH2 0x133 DUP4 LT AND PUSH1 0x4E DUP5 LT PUSH1 0xB DUP5 LT AND OR ISZERO PUSH2 0x54B9 JUMPI DUP3 DUP3 EXP SWAP1 POP DUP4 DUP2 GT ISZERO PUSH2 0x54B4 JUMPI PUSH2 0x54B3 PUSH2 0x34C5 JUMP JUMPDEST JUMPDEST PUSH2 0x54E3 JUMP JUMPDEST PUSH2 0x54C6 DUP5 DUP5 DUP5 PUSH1 0x1 PUSH2 0x53C4 JUMP JUMPDEST SWAP3 POP SWAP1 POP DUP2 DUP5 DIV DUP2 GT ISZERO PUSH2 0x54DD JUMPI PUSH2 0x54DC PUSH2 0x34C5 JUMP JUMPDEST JUMPDEST DUP2 DUP2 MUL SWAP1 POP JUMPDEST SWAP4 SWAP3 POP POP POP JUMP JUMPDEST PUSH1 0x0 PUSH2 0x54F5 DUP3 PUSH2 0x34BB JUMP JUMPDEST SWAP2 POP PUSH2 0x5500 DUP4 PUSH2 0x34BB JUMP JUMPDEST SWAP3 POP PUSH2 0x552D PUSH32 0xFFFFFFFFFFFFFFFFFFFFFFFFFFFFFFFFFFFFFFFFFFFFFFFFFFFFFFFFFFFFFFFF DUP5 DUP5 PUSH2 0x5417 JUMP JUMPDEST SWAP1 POP SWAP3 SWAP2 POP POP JUMP INVALID LOG2 PUSH5 0x6970667358 0x22 SLT KECCAK256 MOD 0xE7 0xE6 BALANCE 0xB6 JUMPI EQ CALLDATACOPY DELEGATECALL 0xA5 0xEC DUP12 RETURNDATACOPY SELFBALANCE 0xD2 0xCC MSTORE 0xB4 0x29 CALLER 0xE5 0xDA 0xAD PUSH4 0xFE7D04B9 TLOAD 0x4B PUSH1 0x5D PUSH5 0x736F6C6343 STOP ADDMOD SHR STOP CALLER "},"methodIdentifiers":{"ADMIN_WALLET()":"c2cd4a07","MIN_DELAY_MINUTES()":"15a604f4","PAYOUT_PERCENTAGE()":"ef9606d9","PROTOCOL_FEE_PERCENTAGE()":"e4d7d6dc","allPolicyIds(uint256)":"87afb99b","buyInsurance(string,uint256,uint256,string)":"78fe4e87","checkInterval()":"838c29b6","checkUpkeep(bytes)":"6e04ff0d","forceRecheck(bytes32)":"b52d35bc","fulfill(bytes32,uint256)":"4357855e","getAvailableRevenue()":"0d2f2e86","getPoliciesByOwner(address)":"cb799258","getPolicyDetails(bytes32)":"40fac30c","hasPolicyForFlight(address,string,uint256)":"4e5a8417","lastCheckTimestamp()":"8e83f1d2","lastCheckedIndex()":"acd88349","owner()":"8da5cb5b","performUpkeep(bytes)":"4585e33b","policies(bytes32)":"ddbfd8ef","purchasePolicy(string,uint256)":"e8646f54","recheckInterval()":"4210dbc6","renounceOwnership()":"715018a6","requestFlightData(bytes32)":"0c3c98fb","setCheckInterval(uint256)":"6551d4e5","setRecheckInterval(uint256)":"d1a5ea56","totalClaimedFunds()":"83bab570","totalPolicies()":"f059d78e","totalPoliciesSold()":"22f6c121","totalPoolFunds()":"f1139d0f","totalRevenueFunds()":"fdfbfd3d","transferOwnership(address)":"f2fde38b","updateFlightDateForTesting(bytes32,uint256)":"1bb877c4","userFlightPolicies(address,string,uint256)":"704d0285","userPolicies(address,uint256)":"3d36adc5","withdrawExcessFunds(uint256)":"f3cbe293"}}}}}