{
  "_format": "hh-sol-artifact-1",
  "contractName": "RemittanceContract",
  "sourceName": "contracts/RemittanceContract.sol",
  "abi": [
    {
      "inputs": [
        {
          "internalType": "address",
          "name": "_swapRouter",
          "type": "address"
        },
        {
          "internalType": "address",
          "name": "_stablecoin",
          "type": "address"
        }
      ],
      "stateMutability": "nonpayable",
      "type": "constructor"
    },
    {
      "inputs": [
        {
          "internalType": "address",
          "name": "token",
          "type": "address"
        },
        {
          "internalType": "uint256",
          "name": "required",
          "type": "uint256"
        },
        {
          "internalType": "uint256",
          "name": "current",
          "type": "uint256"
        }
      ],
      "name": "InsufficientAllowance",
      "type": "error"
    },
    {
      "inputs": [],
      "name": "InsufficientLiquidity",
      "type": "error"
    },
    {
      "inputs": [
        {
          "internalType": "uint256",
          "name": "amount",
          "type": "uint256"
        }
      ],
      "name": "InvalidAmount",
      "type": "error"
    },
    {
      "inputs": [
        {
          "internalType": "address",
          "name": "recipient",
          "type": "address"
        }
      ],
      "name": "InvalidRecipientAddress",
      "type": "error"
    },
    {
      "inputs": [
        {
          "internalType": "address",
          "name": "token",
          "type": "address"
        }
      ],
      "name": "InvalidSourceToken",
      "type": "error"
    },
    {
      "inputs": [],
      "name": "NativeTransferFailed",
      "type": "error"
    },
    {
      "inputs": [
        {
          "internalType": "address",
          "name": "owner",
          "type": "address"
        }
      ],
      "name": "OwnableInvalidOwner",
      "type": "error"
    },
    {
      "inputs": [
        {
          "internalType": "address",
          "name": "account",
          "type": "address"
        }
      ],
      "name": "OwnableUnauthorizedAccount",
      "type": "error"
    },
    {
      "inputs": [],
      "name": "ReentrancyGuardReentrantCall",
      "type": "error"
    },
    {
      "inputs": [
        {
          "internalType": "address",
          "name": "sourceToken",
          "type": "address"
        },
        {
          "internalType": "address",
          "name": "targetToken",
          "type": "address"
        },
        {
          "internalType": "uint256",
          "name": "amount",
          "type": "uint256"
        }
      ],
      "name": "SwapFailed",
      "type": "error"
    },
    {
      "inputs": [
        {
          "internalType": "address",
          "name": "token",
          "type": "address"
        },
        {
          "internalType": "address",
          "name": "to",
          "type": "address"
        },
        {
          "internalType": "uint256",
          "name": "amount",
          "type": "uint256"
        }
      ],
      "name": "TransferFailed",
      "type": "error"
    },
    {
      "anonymous": false,
      "inputs": [
        {
          "indexed": false,
          "internalType": "uint256",
          "name": "newFeePercentage",
          "type": "uint256"
        }
      ],
      "name": "FeeUpdated",
      "type": "event"
    },
    {
      "anonymous": false,
      "inputs": [
        {
          "indexed": true,
          "internalType": "address",
          "name": "previousOwner",
          "type": "address"
        },
        {
          "indexed": true,
          "internalType": "address",
          "name": "newOwner",
          "type": "address"
        }
      ],
      "name": "OwnershipTransferred",
      "type": "event"
    },
    {
      "anonymous": false,
      "inputs": [
        {
          "indexed": true,
          "internalType": "uint256",
          "name": "remittanceId",
          "type": "uint256"
        },
        {
          "indexed": true,
          "internalType": "address",
          "name": "sender",
          "type": "address"
        },
        {
          "indexed": true,
          "internalType": "address",
          "name": "recipient",
          "type": "address"
        },
        {
          "indexed": false,
          "internalType": "uint256",
          "name": "sourceAmount",
          "type": "uint256"
        },
        {
          "indexed": false,
          "internalType": "uint256",
          "name": "targetAmount",
          "type": "uint256"
        }
      ],
      "name": "RemittanceSent",
      "type": "event"
    },
    {
      "anonymous": false,
      "inputs": [
        {
          "indexed": true,
          "internalType": "uint256",
          "name": "remittanceId",
          "type": "uint256"
        },
        {
          "indexed": false,
          "internalType": "uint8",
          "name": "status",
          "type": "uint8"
        }
      ],
      "name": "RemittanceStatusUpdated",
      "type": "event"
    },
    {
      "anonymous": false,
      "inputs": [
        {
          "indexed": true,
          "internalType": "uint256",
          "name": "remittanceId",
          "type": "uint256"
        },
        {
          "indexed": false,
          "internalType": "address",
          "name": "sourceToken",
          "type": "address"
        },
        {
          "indexed": false,
          "internalType": "address",
          "name": "targetToken",
          "type": "address"
        },
        {
          "indexed": false,
          "internalType": "uint256",
          "name": "sourceAmount",
          "type": "uint256"
        },
        {
          "indexed": false,
          "internalType": "uint256",
          "name": "targetAmount",
          "type": "uint256"
        }
      ],
      "name": "SwapFallbackUsed",
      "type": "event"
    },
    {
      "inputs": [],
      "name": "MAX_FEE",
      "outputs": [
        {
          "internalType": "uint256",
          "name": "",
          "type": "uint256"
        }
      ],
      "stateMutability": "view",
      "type": "function"
    },
    {
      "inputs": [],
      "name": "NATIVE_TOKEN",
      "outputs": [
        {
          "internalType": "address",
          "name": "",
          "type": "address"
        }
      ],
      "stateMutability": "view",
      "type": "function"
    },
    {
      "inputs": [
        {
          "internalType": "uint256",
          "name": "amount",
          "type": "uint256"
        }
      ],
      "name": "addStablecoinLiquidity",
      "outputs": [],
      "stateMutability": "nonpayable",
      "type": "function"
    },
    {
      "inputs": [
        {
          "internalType": "uint256",
          "name": "amount",
          "type": "uint256"
        }
      ],
      "name": "calculateFee",
      "outputs": [
        {
          "internalType": "uint256",
          "name": "",
          "type": "uint256"
        }
      ],
      "stateMutability": "view",
      "type": "function"
    },
    {
      "inputs": [
        {
          "internalType": "address",
          "name": "sourceToken",
          "type": "address"
        },
        {
          "internalType": "uint256",
          "name": "amount",
          "type": "uint256"
        }
      ],
      "name": "getConversionQuote",
      "outputs": [
        {
          "internalType": "uint256",
          "name": "",
          "type": "uint256"
        }
      ],
      "stateMutability": "view",
      "type": "function"
    },
    {
      "inputs": [
        {
          "internalType": "uint256",
          "name": "remittanceId",
          "type": "uint256"
        }
      ],
      "name": "getRemittance",
      "outputs": [
        {
          "components": [
            {
              "internalType": "address",
              "name": "sender",
              "type": "address"
            },
            {
              "internalType": "address",
              "name": "recipient",
              "type": "address"
            },
            {
              "internalType": "uint256",
              "name": "sourceAmount",
              "type": "uint256"
            },
            {
              "internalType": "uint256",
              "name": "targetAmount",
              "type": "uint256"
            },
            {
              "internalType": "uint8",
              "name": "status",
              "type": "uint8"
            }
          ],
          "internalType": "struct RemittanceContract.Remittance",
          "name": "",
          "type": "tuple"
        }
      ],
      "stateMutability": "view",
      "type": "function"
    },
    {
      "inputs": [
        {
          "internalType": "uint256",
          "name": "remittanceId",
          "type": "uint256"
        }
      ],
      "name": "getRemittanceStatus",
      "outputs": [
        {
          "internalType": "uint8",
          "name": "",
          "type": "uint8"
        }
      ],
      "stateMutability": "view",
      "type": "function"
    },
    {
      "inputs": [],
      "name": "owner",
      "outputs": [
        {
          "internalType": "address",
          "name": "",
          "type": "address"
        }
      ],
      "stateMutability": "view",
      "type": "function"
    },
    {
      "inputs": [],
      "name": "pause",
      "outputs": [],
      "stateMutability": "nonpayable",
      "type": "function"
    },
    {
      "inputs": [],
      "name": "paused",
      "outputs": [
        {
          "internalType": "bool",
          "name": "",
          "type": "bool"
        }
      ],
      "stateMutability": "view",
      "type": "function"
    },
    {
      "inputs": [],
      "name": "platformFeePercentage",
      "outputs": [
        {
          "internalType": "uint256",
          "name": "",
          "type": "uint256"
        }
      ],
      "stateMutability": "view",
      "type": "function"
    },
    {
      "inputs": [],
      "name": "remittanceCounter",
      "outputs": [
        {
          "internalType": "uint256",
          "name": "",
          "type": "uint256"
        }
      ],
      "stateMutability": "view",
      "type": "function"
    },
    {
      "inputs": [
        {
          "internalType": "uint256",
          "name": "",
          "type": "uint256"
        }
      ],
      "name": "remittances",
      "outputs": [
        {
          "internalType": "address",
          "name": "sender",
          "type": "address"
        },
        {
          "internalType": "address",
          "name": "recipient",
          "type": "address"
        },
        {
          "internalType": "uint256",
          "name": "sourceAmount",
          "type": "uint256"
        },
        {
          "internalType": "uint256",
          "name": "targetAmount",
          "type": "uint256"
        },
        {
          "internalType": "uint8",
          "name": "status",
          "type": "uint8"
        }
      ],
      "stateMutability": "view",
      "type": "function"
    },
    {
      "inputs": [],
      "name": "renounceOwnership",
      "outputs": [],
      "stateMutability": "nonpayable",
      "type": "function"
    },
    {
      "inputs": [
        {
          "internalType": "address",
          "name": "sourceToken",
          "type": "address"
        },
        {
          "internalType": "uint256",
          "name": "amount",
          "type": "uint256"
        },
        {
          "internalType": "address",
          "name": "recipient",
          "type": "address"
        }
      ],
      "name": "sendWithConversion",
      "outputs": [
        {
          "internalType": "uint256",
          "name": "",
          "type": "uint256"
        }
      ],
      "stateMutability": "payable",
      "type": "function"
    },
    {
      "inputs": [
        {
          "internalType": "uint256",
          "name": "_feePercentage",
          "type": "uint256"
        }
      ],
      "name": "setPlatformFee",
      "outputs": [],
      "stateMutability": "nonpayable",
      "type": "function"
    },
    {
      "inputs": [
        {
          "internalType": "uint256",
          "name": "_slippageTolerance",
          "type": "uint256"
        }
      ],
      "name": "setSlippageTolerance",
      "outputs": [],
      "stateMutability": "nonpayable",
      "type": "function"
    },
    {
      "inputs": [
        {
          "internalType": "bool",
          "name": "_testMode",
          "type": "bool"
        }
      ],
      "name": "setTestMode",
      "outputs": [],
      "stateMutability": "nonpayable",
      "type": "function"
    },
    {
      "inputs": [],
      "name": "slippageTolerance",
      "outputs": [
        {
          "internalType": "uint256",
          "name": "",
          "type": "uint256"
        }
      ],
      "stateMutability": "view",
      "type": "function"
    },
    {
      "inputs": [],
      "name": "stablecoin",
      "outputs": [
        {
          "internalType": "address",
          "name": "",
          "type": "address"
        }
      ],
      "stateMutability": "view",
      "type": "function"
    },
    {
      "inputs": [],
      "name": "swapRouter",
      "outputs": [
        {
          "internalType": "contract ISwapRouter",
          "name": "",
          "type": "address"
        }
      ],
      "stateMutability": "view",
      "type": "function"
    },
    {
      "inputs": [],
      "name": "testMode",
      "outputs": [
        {
          "internalType": "bool",
          "name": "",
          "type": "bool"
        }
      ],
      "stateMutability": "view",
      "type": "function"
    },
    {
      "inputs": [
        {
          "internalType": "address",
          "name": "newOwner",
          "type": "address"
        }
      ],
      "name": "transferOwnership",
      "outputs": [],
      "stateMutability": "nonpayable",
      "type": "function"
    },
    {
      "inputs": [],
      "name": "unpause",
      "outputs": [],
      "stateMutability": "nonpayable",
      "type": "function"
    },
    {
      "inputs": [
        {
          "internalType": "address",
          "name": "token",
          "type": "address"
        }
      ],
      "name": "withdrawFees",
      "outputs": [],
      "stateMutability": "nonpayable",
      "type": "function"
    },
    {
      "stateMutability": "payable",
      "type": "receive"
    }
  ],
  "bytecode": "0x60806040526001600360146101000a81548160ff021916908315150217905550600a60065560326007553480156200003657600080fd5b50604051620038913803806200389183398181016040528101906200005c91906200038b565b33600073ffffffffffffffffffffffffffffffffffffffff168173ffffffffffffffffffffffffffffffffffffffff1603620000d25760006040517f1e4fbdf7000000000000000000000000000000000000000000000000000000008152600401620000c99190620003e3565b60405180910390fd5b620000e3816200025d60201b60201c565b5060018081905550600073ffffffffffffffffffffffffffffffffffffffff168273ffffffffffffffffffffffffffffffffffffffff16036200015f57816040517f1ed8f7fb000000000000000000000000000000000000000000000000000000008152600401620001569190620003e3565b60405180910390fd5b600073ffffffffffffffffffffffffffffffffffffffff168173ffffffffffffffffffffffffffffffffffffffff1603620001d357806040517f1ed8f7fb000000000000000000000000000000000000000000000000000000008152600401620001ca9190620003e3565b60405180910390fd5b81600260006101000a81548173ffffffffffffffffffffffffffffffffffffffff021916908373ffffffffffffffffffffffffffffffffffffffff16021790555080600360006101000a81548173ffffffffffffffffffffffffffffffffffffffff021916908373ffffffffffffffffffffffffffffffffffffffff160217905550505062000400565b60008060009054906101000a900473ffffffffffffffffffffffffffffffffffffffff169050816000806101000a81548173ffffffffffffffffffffffffffffffffffffffff021916908373ffffffffffffffffffffffffffffffffffffffff1602179055508173ffffffffffffffffffffffffffffffffffffffff168173ffffffffffffffffffffffffffffffffffffffff167f8be0079c531659141344cd1fd0a4f28419497f9722a3daafe3b4186f6b6457e060405160405180910390a35050565b600080fd5b600073ffffffffffffffffffffffffffffffffffffffff82169050919050565b6000620003538262000326565b9050919050565b620003658162000346565b81146200037157600080fd5b50565b60008151905062000385816200035a565b92915050565b60008060408385031215620003a557620003a462000321565b5b6000620003b58582860162000374565b9250506020620003c88582860162000374565b9150509250929050565b620003dd8162000346565b82525050565b6000602082019050620003fa6000830184620003d2565b92915050565b61348180620004106000396000f3fe60806040526004361061016a5760003560e01c80638456cb59116100d1578063bc063e1a1161008a578063cdd78cfc11610064578063cdd78cfc1461051a578063d03153aa14610545578063e9cbd82214610570578063f2fde38b1461059b57610171565b8063bc063e1a14610499578063c31c9c07146104c4578063cd9ea342146104ef57610171565b80638456cb59146103715780638da5cb5b146103885780639826e40d146103b357806399a5d747146103de578063aee3dfdf1461041b578063b4ea0d5f1461045857610171565b80633f4ba83a116101235780633f4ba83a14610275578063431907cc1461028c5780635979ede6146102c95780635c975abb146102f2578063715018a61461031d57806373e66f431461033457610171565b8063117da1ee1461017657806312e8e2c31461019f578063164e68de146101c857806319141084146101f15780631ff1292f1461022157806331f7d9641461024a57610171565b3661017157005b600080fd5b34801561018257600080fd5b5061019d60048036038101906101989190612879565b6105c4565b005b3480156101ab57600080fd5b506101c660048036038101906101c19190612879565b61061d565b005b3480156101d457600080fd5b506101ef60048036038101906101ea9190612904565b6106ac565b005b61020b60048036038101906102069190612931565b61099e565b6040516102189190612993565b60405180910390f35b34801561022d57600080fd5b50610248600480360381019061024391906129e6565b610e19565b005b34801561025657600080fd5b5061025f610e3e565b60405161026c9190612a22565b60405180910390f35b34801561028157600080fd5b5061028a610e56565b005b34801561029857600080fd5b506102b360048036038101906102ae9190612879565b610e7b565b6040516102c09190612a59565b60405180910390f35b3480156102d557600080fd5b506102f060048036038101906102eb9190612879565b610eee565b005b3480156102fe57600080fd5b5061030761100e565b6040516103149190612a83565b60405180910390f35b34801561032957600080fd5b50610332611021565b005b34801561034057600080fd5b5061035b60048036038101906103569190612879565b611035565b6040516103689190612b33565b60405180910390f35b34801561037d57600080fd5b50610386611185565b005b34801561039457600080fd5b5061039d6111aa565b6040516103aa9190612a22565b60405180910390f35b3480156103bf57600080fd5b506103c86111d3565b6040516103d59190612993565b60405180910390f35b3480156103ea57600080fd5b5061040560048036038101906104009190612879565b6111d9565b6040516104129190612993565b60405180910390f35b34801561042757600080fd5b50610442600480360381019061043d9190612b4e565b611222565b60405161044f9190612993565b60405180910390f35b34801561046457600080fd5b5061047f600480360381019061047a9190612879565b6116ad565b604051610490959493929190612b8e565b60405180910390f35b3480156104a557600080fd5b506104ae611730565b6040516104bb9190612993565b60405180910390f35b3480156104d057600080fd5b506104d9611735565b6040516104e69190612c40565b60405180910390f35b3480156104fb57600080fd5b5061050461175b565b6040516105119190612a83565b60405180910390f35b34801561052657600080fd5b5061052f61176e565b60405161053c9190612993565b60405180910390f35b34801561055157600080fd5b5061055a611774565b6040516105679190612993565b60405180910390f35b34801561057c57600080fd5b5061058561177a565b6040516105929190612a22565b60405180910390f35b3480156105a757600080fd5b506105c260048036038101906105bd9190612904565b6117a0565b005b6105cc611826565b6103e881111561061357806040517f3728b83d00000000000000000000000000000000000000000000000000000000815260040161060a9190612993565b60405180910390fd5b8060078190555050565b610625611826565b606481111561066b57806040517f3728b83d0000000000000000000000000000000000000000000000000000000081526004016106629190612993565b60405180910390fd5b806006819055507f8c4d35e54a3f2ef1134138fd8ea3daee6a3c89e10d2665996babdf70261e2c76816040516106a19190612993565b60405180910390a150565b6106b4611826565b73eeeeeeeeeeeeeeeeeeeeeeeeeeeeeeeeeeeeeeee73ffffffffffffffffffffffffffffffffffffffff168173ffffffffffffffffffffffffffffffffffffffff16036107ff5760004790506000810361074557806040517f3728b83d00000000000000000000000000000000000000000000000000000000815260040161073c9190612993565b60405180910390fd5b600061074f6111aa565b73ffffffffffffffffffffffffffffffffffffffff168260405161077290612c8c565b60006040518083038185875af1925050503d80600081146107af576040519150601f19603f3d011682016040523d82523d6000602084013e6107b4565b606091505b50509050806107f8576040517f08c379a00000000000000000000000000000000000000000000000000000000081526004016107ef90612cfe565b60405180910390fd5b505061099b565b60008173ffffffffffffffffffffffffffffffffffffffff166370a08231306040518263ffffffff1660e01b815260040161083a9190612a22565b602060405180830381865afa158015610857573d6000803e3d6000fd5b505050506040513d601f19601f8201168201806040525081019061087b9190612d33565b9050600081036108c257806040517f3728b83d0000000000000000000000000000000000000000000000000000000081526004016108b99190612993565b60405180910390fd5b60008273ffffffffffffffffffffffffffffffffffffffff1663a9059cbb6108e86111aa565b846040518363ffffffff1660e01b8152600401610906929190612d60565b6020604051808303816000875af1158015610925573d6000803e3d6000fd5b505050506040513d601f19601f820116820180604052508101906109499190612d9e565b90508061099857826109596111aa565b836040517fbf182be800000000000000000000000000000000000000000000000000000000815260040161098f93929190612dcb565b60405180910390fd5b50505b50565b60006109a86118ad565b600860009054906101000a900460ff16156109f8576040517f08c379a00000000000000000000000000000000000000000000000000000000081526004016109ef90612e4e565b60405180910390fd5b600073ffffffffffffffffffffffffffffffffffffffff168473ffffffffffffffffffffffffffffffffffffffff1603610a6957836040517f1ed8f7fb000000000000000000000000000000000000000000000000000000008152600401610a609190612a22565b60405180910390fd5b60008303610aae57826040517f3728b83d000000000000000000000000000000000000000000000000000000008152600401610aa59190612993565b60405180910390fd5b600073ffffffffffffffffffffffffffffffffffffffff168273ffffffffffffffffffffffffffffffffffffffff1603610b1f57816040517f26a78f8f000000000000000000000000000000000000000000000000000000008152600401610b169190612a22565b60405180910390fd5b600060046000815480929190610b3490612e9d565b9190505590506040518060a001604052803373ffffffffffffffffffffffffffffffffffffffff1681526020018473ffffffffffffffffffffffffffffffffffffffff16815260200185815260200160008152602001600060ff168152506005600083815260200190815260200160002060008201518160000160006101000a81548173ffffffffffffffffffffffffffffffffffffffff021916908373ffffffffffffffffffffffffffffffffffffffff16021790555060208201518160010160006101000a81548173ffffffffffffffffffffffffffffffffffffffff021916908373ffffffffffffffffffffffffffffffffffffffff160217905550604082015181600201556060820151816003015560808201518160040160006101000a81548160ff021916908360ff160217905550905050600073eeeeeeeeeeeeeeeeeeeeeeeeeeeeeeeeeeeeeeee73ffffffffffffffffffffffffffffffffffffffff168673ffffffffffffffffffffffffffffffffffffffff1603610d0a57843414610cf857846040517f3728b83d000000000000000000000000000000000000000000000000000000008152600401610cef9190612993565b60405180910390fd5b610d038585846118f3565b9050610d19565b610d1686868685611f98565b90505b80600560008481526020019081526020016000206003018190555060016005600084815260200190815260200160002060040160006101000a81548160ff021916908360ff1602179055508373ffffffffffffffffffffffffffffffffffffffff163373ffffffffffffffffffffffffffffffffffffffff16837ff870f8e8c0d8fcd5f09c21202abda915eafdf38fdbee8abd1c0a9acae1bc52dd8885604051610dc4929190612ee5565b60405180910390a4817f7caf5f440e816dbcd9153f977a11ce66a8d0474ed47e2584de4df3b0574130716001604051610dfd9190612f49565b60405180910390a28192505050610e126125b6565b9392505050565b610e21611826565b80600360146101000a81548160ff02191690831515021790555050565b73eeeeeeeeeeeeeeeeeeeeeeeeeeeeeeeeeeeeeeee81565b610e5e611826565b6000600860006101000a81548160ff021916908315150217905550565b60006004548210610ec357816040517f3728b83d000000000000000000000000000000000000000000000000000000008152600401610eba9190612993565b60405180910390fd5b6005600083815260200190815260200160002060040160009054906101000a900460ff169050919050565b610ef6611826565b6000600360009054906101000a900473ffffffffffffffffffffffffffffffffffffffff16905060008173ffffffffffffffffffffffffffffffffffffffff166323b872dd3330866040518463ffffffff1660e01b8152600401610f5c93929190612dcb565b6020604051808303816000875af1158015610f7b573d6000803e3d6000fd5b505050506040513d601f19601f82011682018060405250810190610f9f9190612d9e565b90508061100957600360009054906101000a900473ffffffffffffffffffffffffffffffffffffffff1630846040517fbf182be800000000000000000000000000000000000000000000000000000000815260040161100093929190612dcb565b60405180910390fd5b505050565b600860009054906101000a900460ff1681565b611029611826565b61103360006125bf565b565b61103d6127d1565b600454821061108357816040517f3728b83d00000000000000000000000000000000000000000000000000000000815260040161107a9190612993565b60405180910390fd5b600560008381526020019081526020016000206040518060a00160405290816000820160009054906101000a900473ffffffffffffffffffffffffffffffffffffffff1673ffffffffffffffffffffffffffffffffffffffff1673ffffffffffffffffffffffffffffffffffffffff1681526020016001820160009054906101000a900473ffffffffffffffffffffffffffffffffffffffff1673ffffffffffffffffffffffffffffffffffffffff1673ffffffffffffffffffffffffffffffffffffffff16815260200160028201548152602001600382015481526020016004820160009054906101000a900460ff1660ff1660ff16815250509050919050565b61118d611826565b6001600860006101000a81548160ff021916908315150217905550565b60008060009054906101000a900473ffffffffffffffffffffffffffffffffffffffff16905090565b60045481565b6000662386f26fc100008210156111ff576103e8826111f89190612f93565b905061121d565b612710600654836112109190612fc4565b61121a9190612f93565b90505b919050565b60008073ffffffffffffffffffffffffffffffffffffffff168373ffffffffffffffffffffffffffffffffffffffff160361129457826040517f1ed8f7fb00000000000000000000000000000000000000000000000000000000815260040161128b9190612a22565b60405180910390fd5b600082036112d957816040517f3728b83d0000000000000000000000000000000000000000000000000000000081526004016112d09190612993565b60405180910390fd5b600360009054906101000a900473ffffffffffffffffffffffffffffffffffffffff1673ffffffffffffffffffffffffffffffffffffffff168373ffffffffffffffffffffffffffffffffffffffff160361134f576000611339836111d9565b905080836113479190613006565b9150506116a7565b600360149054906101000a900460ff161561138557600061136f836111d9565b9050808361137d9190613006565b9150506116a7565b600073eeeeeeeeeeeeeeeeeeeeeeeeeeeeeeeeeeeeeeee73ffffffffffffffffffffffffffffffffffffffff168473ffffffffffffffffffffffffffffffffffffffff160361146657600260009054906101000a900473ffffffffffffffffffffffffffffffffffffffff1673ffffffffffffffffffffffffffffffffffffffff1663ad5c46486040518163ffffffff1660e01b8152600401602060405180830381865afa15801561143b573d6000803e3d6000fd5b505050506040513d601f19601f8201168201806040525081019061145f919061304f565b905061146a565b8390505b6000600267ffffffffffffffff8111156114875761148661307c565b5b6040519080825280602002602001820160405280156114b55781602001602082028036833780820191505090505b50905081816000815181106114cd576114cc6130ab565b5b602002602001019073ffffffffffffffffffffffffffffffffffffffff16908173ffffffffffffffffffffffffffffffffffffffff1681525050600360009054906101000a900473ffffffffffffffffffffffffffffffffffffffff168160018151811061153e5761153d6130ab565b5b602002602001019073ffffffffffffffffffffffffffffffffffffffff16908173ffffffffffffffffffffffffffffffffffffffff1681525050600260009054906101000a900473ffffffffffffffffffffffffffffffffffffffff1673ffffffffffffffffffffffffffffffffffffffff1663d06ca61f85836040518363ffffffff1660e01b81526004016115d5929190613189565b600060405180830381865afa92505050801561161457506040513d6000823e3d601f19601f8201168201806040525081019061161191906132e3565b60015b61163b576000611623856111d9565b905080856116319190613006565b93505050506116a7565b60018151111561169f57600061166b8260018151811061165e5761165d6130ab565b5b60200260200101516111d9565b90508082600181518110611682576116816130ab565b5b60200260200101516116949190613006565b9450505050506116a7565b600093505050505b92915050565b60056020528060005260406000206000915090508060000160009054906101000a900473ffffffffffffffffffffffffffffffffffffffff16908060010160009054906101000a900473ffffffffffffffffffffffffffffffffffffffff16908060020154908060030154908060040160009054906101000a900460ff16905085565b606481565b600260009054906101000a900473ffffffffffffffffffffffffffffffffffffffff1681565b600360149054906101000a900460ff1681565b60065481565b60075481565b600360009054906101000a900473ffffffffffffffffffffffffffffffffffffffff1681565b6117a8611826565b600073ffffffffffffffffffffffffffffffffffffffff168173ffffffffffffffffffffffffffffffffffffffff160361181a5760006040517f1e4fbdf70000000000000000000000000000000000000000000000000000000081526004016118119190612a22565b60405180910390fd5b611823816125bf565b50565b61182e612683565b73ffffffffffffffffffffffffffffffffffffffff1661184c6111aa565b73ffffffffffffffffffffffffffffffffffffffff16146118ab5761186f612683565b6040517f118cdaa70000000000000000000000000000000000000000000000000000000081526004016118a29190612a22565b60405180910390fd5b565b6002600154036118e9576040517f3ee5aeb500000000000000000000000000000000000000000000000000000000815260040160405180910390fd5b6002600181905550565b600073eeeeeeeeeeeeeeeeeeeeeeeeeeeeeeeeeeeeeeee73ffffffffffffffffffffffffffffffffffffffff16600360009054906101000a900473ffffffffffffffffffffffffffffffffffffffff1673ffffffffffffffffffffffffffffffffffffffff1603611a29576000611969856111d9565b9050600081866119799190613006565b905060008573ffffffffffffffffffffffffffffffffffffffff16826040516119a190612c8c565b60006040518083038185875af1925050503d80600081146119de576040519150601f19603f3d011682016040523d82523d6000602084013e6119e3565b606091505b5050905080611a1e576040517ff4b3b1bc00000000000000000000000000000000000000000000000000000000815260040160405180910390fd5b819350505050611f91565b600360149054906101000a900460ff1615611b7d576000611a49856111d9565b905060008186611a599190613006565b9050837f9c16fe8c8898379bf77e9a2519a179a4f03e46217e57b45e1c4bc58ba4c6281473eeeeeeeeeeeeeeeeeeeeeeeeeeeeeeeeeeeeeeee600360009054906101000a900473ffffffffffffffffffffffffffffffffffffffff168985604051611ac7949392919061332c565b60405180910390a260008573ffffffffffffffffffffffffffffffffffffffff1682604051611af590612c8c565b60006040518083038185875af1925050503d8060008114611b32576040519150601f19603f3d011682016040523d82523d6000602084013e611b37565b606091505b5050905080611b72576040517ff4b3b1bc00000000000000000000000000000000000000000000000000000000815260040160405180910390fd5b819350505050611f91565b6000600267ffffffffffffffff811115611b9a57611b9961307c565b5b604051908082528060200260200182016040528015611bc85781602001602082028036833780820191505090505b509050600260009054906101000a900473ffffffffffffffffffffffffffffffffffffffff1673ffffffffffffffffffffffffffffffffffffffff1663ad5c46486040518163ffffffff1660e01b8152600401602060405180830381865afa158015611c38573d6000803e3d6000fd5b505050506040513d601f19601f82011682018060405250810190611c5c919061304f565b81600081518110611c7057611c6f6130ab565b5b602002602001019073ffffffffffffffffffffffffffffffffffffffff16908173ffffffffffffffffffffffffffffffffffffffff1681525050600360009054906101000a900473ffffffffffffffffffffffffffffffffffffffff1681600181518110611ce157611ce06130ab565b5b602002602001019073ffffffffffffffffffffffffffffffffffffffff16908173ffffffffffffffffffffffffffffffffffffffff1681525050600060019050600260009054906101000a900473ffffffffffffffffffffffffffffffffffffffff1673ffffffffffffffffffffffffffffffffffffffff1663d06ca61f87846040518363ffffffff1660e01b8152600401611d7e929190613189565b600060405180830381865afa925050508015611dbd57506040513d6000823e3d601f19601f82011682018060405250810190611dba91906132e3565b60015b611df3576040517fbb55fd2700000000000000000000000000000000000000000000000000000000815260040160405180910390fd5b600181511115611e4357612710600754612710611e109190613006565b82600181518110611e2457611e236130ab565b5b6020026020010151611e369190612fc4565b611e409190612f93565b91505b50600260009054906101000a900473ffffffffffffffffffffffffffffffffffffffff1673ffffffffffffffffffffffffffffffffffffffff16637ff36ab58783858961070842611e949190613371565b6040518663ffffffff1660e01b8152600401611eb394939291906133a5565b60006040518083038185885af193505050508015611ef457506040513d6000823e3d601f19601f82011682018060405250810190611ef191906132e3565b60015b611f6f5773eeeeeeeeeeeeeeeeeeeeeeeeeeeeeeeeeeeeeeee600360009054906101000a900473ffffffffffffffffffffffffffffffffffffffff16876040517f69301763000000000000000000000000000000000000000000000000000000008152600401611f6693929190612dcb565b60405180910390fd5b80600181518110611f8357611f826130ab565b5b602002602001015193505050505b9392505050565b60008085905060008173ffffffffffffffffffffffffffffffffffffffff166323b872dd3330896040518463ffffffff1660e01b8152600401611fdd93929190612dcb565b6020604051808303816000875af1158015611ffc573d6000803e3d6000fd5b505050506040513d601f19601f820116820180604052508101906120209190612d9e565b905080612068578630876040517fbf182be800000000000000000000000000000000000000000000000000000000815260040161205f93929190612dcb565b60405180910390fd5b600360009054906101000a900473ffffffffffffffffffffffffffffffffffffffff1673ffffffffffffffffffffffffffffffffffffffff168773ffffffffffffffffffffffffffffffffffffffff16036120f15760006120c8876111d9565b9050600081886120d89190613006565b90506120e584888361268b565b809450505050506125ae565b600360149054906101000a900460ff161561219a576000612111876111d9565b9050600081886121219190613006565b9050857f9c16fe8c8898379bf77e9a2519a179a4f03e46217e57b45e1c4bc58ba4c628148a600360009054906101000a900473ffffffffffffffffffffffffffffffffffffffff168b8560405161217b949392919061332c565b60405180910390a261218e84888361268b565b809450505050506125ae565b8173ffffffffffffffffffffffffffffffffffffffff1663095ea7b3600260009054906101000a900473ffffffffffffffffffffffffffffffffffffffff16886040518363ffffffff1660e01b81526004016121f7929190612d60565b6020604051808303816000875af1158015612216573d6000803e3d6000fd5b505050506040513d601f19601f8201168201806040525081019061223a9190612d9e565b506000600267ffffffffffffffff8111156122585761225761307c565b5b6040519080825280602002602001820160405280156122865781602001602082028036833780820191505090505b509050878160008151811061229e5761229d6130ab565b5b602002602001019073ffffffffffffffffffffffffffffffffffffffff16908173ffffffffffffffffffffffffffffffffffffffff1681525050600360009054906101000a900473ffffffffffffffffffffffffffffffffffffffff168160018151811061230f5761230e6130ab565b5b602002602001019073ffffffffffffffffffffffffffffffffffffffff16908173ffffffffffffffffffffffffffffffffffffffff1681525050600060019050600260009054906101000a900473ffffffffffffffffffffffffffffffffffffffff1673ffffffffffffffffffffffffffffffffffffffff1663d06ca61f89846040518363ffffffff1660e01b81526004016123ac929190613189565b600060405180830381865afa9250505080156123eb57506040513d6000823e3d601f19601f820116820180604052508101906123e891906132e3565b60015b612421576040517fbb55fd2700000000000000000000000000000000000000000000000000000000815260040160405180910390fd5b6001815111156124715761271060075461271061243e9190613006565b82600181518110612452576124516130ab565b5b60200260200101516124649190612fc4565b61246e9190612f93565b91505b50600260009054906101000a900473ffffffffffffffffffffffffffffffffffffffff1673ffffffffffffffffffffffffffffffffffffffff166338ed17398983858b610708426124c29190613371565b6040518663ffffffff1660e01b81526004016124e29594939291906133f1565b6000604051808303816000875af192505050801561252357506040513d6000823e3d601f19601f8201168201806040525081019061252091906132e3565b60015b61258a5788600360009054906101000a900473ffffffffffffffffffffffffffffffffffffffff16896040517f6930176300000000000000000000000000000000000000000000000000000000815260040161258193929190612dcb565b60405180910390fd5b8060018151811061259e5761259d6130ab565b5b6020026020010151955050505050505b949350505050565b60018081905550565b60008060009054906101000a900473ffffffffffffffffffffffffffffffffffffffff169050816000806101000a81548173ffffffffffffffffffffffffffffffffffffffff021916908373ffffffffffffffffffffffffffffffffffffffff1602179055508173ffffffffffffffffffffffffffffffffffffffff168173ffffffffffffffffffffffffffffffffffffffff167f8be0079c531659141344cd1fd0a4f28419497f9722a3daafe3b4186f6b6457e060405160405180910390a35050565b600033905090565b3073ffffffffffffffffffffffffffffffffffffffff168273ffffffffffffffffffffffffffffffffffffffff16036127025760007f9c16fe8c8898379bf77e9a2519a179a4f03e46217e57b45e1c4bc58ba4c62814848584856040516126f5949392919061332c565b60405180910390a26127cc565b60008373ffffffffffffffffffffffffffffffffffffffff1663a9059cbb84846040518363ffffffff1660e01b815260040161273f929190612d60565b6020604051808303816000875af115801561275e573d6000803e3d6000fd5b505050506040513d601f19601f820116820180604052508101906127829190612d9e565b9050806127ca578383836040517fbf182be80000000000000000000000000000000000000000000000000000000081526004016127c193929190612dcb565b60405180910390fd5b505b505050565b6040518060a00160405280600073ffffffffffffffffffffffffffffffffffffffff168152602001600073ffffffffffffffffffffffffffffffffffffffff1681526020016000815260200160008152602001600060ff1681525090565b6000604051905090565b600080fd5b600080fd5b6000819050919050565b61285681612843565b811461286157600080fd5b50565b6000813590506128738161284d565b92915050565b60006020828403121561288f5761288e612839565b5b600061289d84828501612864565b91505092915050565b600073ffffffffffffffffffffffffffffffffffffffff82169050919050565b60006128d1826128a6565b9050919050565b6128e1816128c6565b81146128ec57600080fd5b50565b6000813590506128fe816128d8565b92915050565b60006020828403121561291a57612919612839565b5b6000612928848285016128ef565b91505092915050565b60008060006060848603121561294a57612949612839565b5b6000612958868287016128ef565b935050602061296986828701612864565b925050604061297a868287016128ef565b9150509250925092565b61298d81612843565b82525050565b60006020820190506129a86000830184612984565b92915050565b60008115159050919050565b6129c3816129ae565b81146129ce57600080fd5b50565b6000813590506129e0816129ba565b92915050565b6000602082840312156129fc576129fb612839565b5b6000612a0a848285016129d1565b91505092915050565b612a1c816128c6565b82525050565b6000602082019050612a376000830184612a13565b92915050565b600060ff82169050919050565b612a5381612a3d565b82525050565b6000602082019050612a6e6000830184612a4a565b92915050565b612a7d816129ae565b82525050565b6000602082019050612a986000830184612a74565b92915050565b612aa7816128c6565b82525050565b612ab681612843565b82525050565b612ac581612a3d565b82525050565b60a082016000820151612ae16000850182612a9e565b506020820151612af46020850182612a9e565b506040820151612b076040850182612aad565b506060820151612b1a6060850182612aad565b506080820151612b2d6080850182612abc565b50505050565b600060a082019050612b486000830184612acb565b92915050565b60008060408385031215612b6557612b64612839565b5b6000612b73858286016128ef565b9250506020612b8485828601612864565b9150509250929050565b600060a082019050612ba36000830188612a13565b612bb06020830187612a13565b612bbd6040830186612984565b612bca6060830185612984565b612bd76080830184612a4a565b9695505050505050565b6000819050919050565b6000612c06612c01612bfc846128a6565b612be1565b6128a6565b9050919050565b6000612c1882612beb565b9050919050565b6000612c2a82612c0d565b9050919050565b612c3a81612c1f565b82525050565b6000602082019050612c556000830184612c31565b92915050565b600081905092915050565b50565b6000612c76600083612c5b565b9150612c8182612c66565b600082019050919050565b6000612c9782612c69565b9150819050919050565b600082825260208201905092915050565b7f4e617469766520746f6b656e207769746864726177616c206661696c65640000600082015250565b6000612ce8601e83612ca1565b9150612cf382612cb2565b602082019050919050565b60006020820190508181036000830152612d1781612cdb565b9050919050565b600081519050612d2d8161284d565b92915050565b600060208284031215612d4957612d48612839565b5b6000612d5784828501612d1e565b91505092915050565b6000604082019050612d756000830185612a13565b612d826020830184612984565b9392505050565b600081519050612d98816129ba565b92915050565b600060208284031215612db457612db3612839565b5b6000612dc284828501612d89565b91505092915050565b6000606082019050612de06000830186612a13565b612ded6020830185612a13565b612dfa6040830184612984565b949350505050565b7f436f6e7472616374206973207061757365640000000000000000000000000000600082015250565b6000612e38601283612ca1565b9150612e4382612e02565b602082019050919050565b60006020820190508181036000830152612e6781612e2b565b9050919050565b7f4e487b7100000000000000000000000000000000000000000000000000000000600052601160045260246000fd5b6000612ea882612843565b91507fffffffffffffffffffffffffffffffffffffffffffffffffffffffffffffffff8203612eda57612ed9612e6e565b5b600182019050919050565b6000604082019050612efa6000830185612984565b612f076020830184612984565b9392505050565b6000819050919050565b6000612f33612f2e612f2984612f0e565b612be1565b612a3d565b9050919050565b612f4381612f18565b82525050565b6000602082019050612f5e6000830184612f3a565b92915050565b7f4e487b7100000000000000000000000000000000000000000000000000000000600052601260045260246000fd5b6000612f9e82612843565b9150612fa983612843565b925082612fb957612fb8612f64565b5b828204905092915050565b6000612fcf82612843565b9150612fda83612843565b9250828202612fe881612843565b91508282048414831517612fff57612ffe612e6e565b5b5092915050565b600061301182612843565b915061301c83612843565b925082820390508181111561303457613033612e6e565b5b92915050565b600081519050613049816128d8565b92915050565b60006020828403121561306557613064612839565b5b60006130738482850161303a565b91505092915050565b7f4e487b7100000000000000000000000000000000000000000000000000000000600052604160045260246000fd5b7f4e487b7100000000000000000000000000000000000000000000000000000000600052603260045260246000fd5b600081519050919050565b600082825260208201905092915050565b6000819050602082019050919050565b60006131128383612a9e565b60208301905092915050565b6000602082019050919050565b6000613136826130da565b61314081856130e5565b935061314b836130f6565b8060005b8381101561317c5781516131638882613106565b975061316e8361311e565b92505060018101905061314f565b5085935050505092915050565b600060408201905061319e6000830185612984565b81810360208301526131b0818461312b565b90509392505050565b600080fd5b6000601f19601f8301169050919050565b6131d8826131be565b810181811067ffffffffffffffff821117156131f7576131f661307c565b5b80604052505050565b600061320a61282f565b905061321682826131cf565b919050565b600067ffffffffffffffff8211156132365761323561307c565b5b602082029050602081019050919050565b600080fd5b600061325f61325a8461321b565b613200565b9050808382526020820190506020840283018581111561328257613281613247565b5b835b818110156132ab57806132978882612d1e565b845260208401935050602081019050613284565b5050509392505050565b600082601f8301126132ca576132c96131b9565b5b81516132da84826020860161324c565b91505092915050565b6000602082840312156132f9576132f8612839565b5b600082015167ffffffffffffffff8111156133175761331661283e565b5b613323848285016132b5565b91505092915050565b60006080820190506133416000830187612a13565b61334e6020830186612a13565b61335b6040830185612984565b6133686060830184612984565b95945050505050565b600061337c82612843565b915061338783612843565b925082820190508082111561339f5761339e612e6e565b5b92915050565b60006080820190506133ba6000830187612984565b81810360208301526133cc818661312b565b90506133db6040830185612a13565b6133e86060830184612984565b95945050505050565b600060a0820190506134066000830188612984565b6134136020830187612984565b8181036040830152613425818661312b565b90506134346060830185612a13565b6134416080830184612984565b969550505050505056fea264697066735822122019011cebea92de21cf8bb73a1ab074ea3e03099135f97cefe8db4c82df2ab12a64736f6c63430008140033",
  "linkReferences": {},
  "deployedLinkReferences": {}
}